:020000040800F2
:100000000050002051560008C5470008C7470008A7
:10001000C9470008CB470008CD4700080000000092
:10002000000000000000000000000000CF470008B2
:10003000D147000800000000D3470008D54700085A
:1000400099560008995600089956000899560008D4
:1000500099560008995600089956000899560008C4
:1000600099560008995600089956000899560008B4
:1000700099560008995600089956000899560008A4
:100080009956000899560008995600089956000894
:100090009956000899560008995600089956000884
:1000A0009956000899560008995600089956000874
:1000B000FD47000809480008214800089956000833
:1000C0009956000899560008995600089956000854
:1000D0009956000899560008995600089956000844
:1000E000995600089956000899560008000000002B
:1000F0000000000000000000000000000000000000
:0C01000000000000000000005FF808F1A3
:1001100010B5054C237833B9044B13B10448AFF341
:1001200000800123237010BD480300200000000060
:10013000F0B4000808B5034B1BB103490348AFF303
:10014000008008BD000000004C030020F0B400084F
:10015000034613F8012B002AFBD1181A0138704707
:1001600081F0004102E000BF83F0004330B54FEA68
:1001700041044FEA430594EA050F08BF90EA020FD5
:100180001FBF54EA000C55EA020C7FEA645C7FEA68
:10019000655C00F0E2804FEA5454D4EB5555B8BF8B
:1001A0006D420CDD2C4480EA020281EA030382EAFC
:1001B000000083EA010180EA020281EA0303362D8E
:1001C00088BF30BD11F0004F4FEA01314FF4801C61
:1001D0004CEA113102D0404261EB410113F0004F73
:1001E0004FEA03334CEA133302D0524263EB43032A
:1001F00094EA050F00F0A780A4F10104D5F1200EC8
:100200000DDB02FA0EFC22FA05F2801841F1000122
:1002100003FA0EF2801843FA05F359410EE0A5F1F6
:1002200020050EF1200E012A03FA0EFC28BF4CF027
:10023000020C43FA05F3C01851EBE37101F00045DD
:1002400007D54FF0000EDCF1000C7EEB00006EEBEA
:100250000101B1F5801F1BD3B1F5001F0CD3490874
:100260005FEA30004FEA3C0C04F101044FEA4452CB
:1002700012F5800F80F09A80BCF1004F08BF5FEA52
:10028000500C50F1000041EB045141EA050130BD32
:100290005FEA4C0C404141EB0101013C28BFB1F544
:1002A000801FE9D291F0000F04BF01460020B1FA8F
:1002B00081F308BF2033A3F10B03B3F120020CDA62
:1002C0000C3208DD02F1140CC2F10C0201FA0CF040
:1002D00021FA02F10CE002F11402D8BFC2F1200CA5
:1002E00001FA02F120FA0CFCDCBF41EA0C0190405B
:1002F000E41AA2BF01EB0451294330BD6FEA0404A4
:100300001F3C1CDA0C340EDC04F11404C4F120028E
:1003100020FA04F001FA02F340EA030021FA04F3A0
:1003200045EA030130BDC4F10C04C4F1200220FAF7
:1003300002F001FA04F340EA0300294630BD21FA35
:1003400004F0294630BD94F0000F83F4801306BFFB
:1003500081F480110134013D4EE77FEA645C18BFEF
:100360007FEA655C29D094EA050F08BF90EA020F86
:1003700005D054EA000C04BF1946104630BD91EA7E
:10038000030F1EBF0021002030BD5FEA545C05D181
:100390004000494128BF41F0004130BD14F58004C0
:1003A0003CBF01F5801130BD01F0004545F0FE4134
:1003B00041F470014FF0000030BD7FEA645C1ABF69
:1003C000194610467FEA655C1CBF0B46024650EAA0
:1003D000013406BF52EA033591EA030F41F40021CC
:1003E00030BD00BF90F0000F04BF0021704730B552
:1003F0004FF4806404F132044FF000054FF0000127
:1004000050E700BF90F0000F04BF0021704730B5E7
:100410004FF4806404F1320410F0004548BF4042BC
:100420004FF000013EE700BF42004FEAE2014FEA11
:1004300031014FEA02701FBF12F07F4393F07F4FEC
:1004400081F06051704732F07F4208BF704793F0EF
:100450007F4F04BF41F40021704730B54FF4607402
:1004600001F0004521F000411CE700BF50EA010205
:1004700008BF704730B54FF000050AE050EA0102AE
:1004800008BF704730B511F0004502D5404261EB1E
:1004900041014FF4806404F132045FEA915C3FF45F
:1004A000D8AE4FF003025FEADC0C18BF03325FEAFC
:1004B000DC0C18BF033202EBDC02C2F1200300FAAD
:1004C00003FC20FA02F001FA03FE40EA0E0021FAD2
:1004D00002F11444BDE600BF70B54FF0FF0C4CF4C0
:1004E000E06C1CEA11541DBF1CEA135594EA0C0F72
:1004F00095EA0C0F00F0DEF82C4481EA030621EAAD
:100500004C5123EA4C5350EA013518BF52EA0335E7
:1005100041F4801143F4801338D0A0FB02CE4FF099
:100520000005E1FB02E506F00042E0FB03E54FF0C9
:100530000006E1FB03569CF0000F18BF4EF0010EC1
:10054000A4F1FF04B6F5007F64F5407404D25FEABD
:100550004E0E6D4146EB060642EAC62141EA555170
:100560004FEAC52040EA5E504FEACE2EB4F1FD0CB2
:1005700088BFBCF5E06F1ED8BEF1004F08BF5FEA30
:10058000500E50F1000041EB045170BD06F00046E2
:1005900046EA010140EA020081EA0301B4EB5C048F
:1005A000C2BFD4EB0C0541EA045170BD41F4801187
:1005B0004FF0000E013C00F3AB8014F1360FDEBFAC
:1005C000002001F0004170BDC4F10004203C35DA88
:1005D0000C341BDC04F11404C4F1200500FA05F30B
:1005E00020FA04F001FA05F240EA020001F00042AC
:1005F00021F0004110EBD37021FA04F642EB060122
:100600005EEA430E08BF20EAD37070BDC4F10C044B
:10061000C4F1200500FA04F320FA05F001FA04F20F
:1006200040EA020001F0004110EBD37041F10001FB
:100630005EEA430E08BF20EAD37070BDC4F1200506
:1006400000FA05F24EEA020E20FA04F301FA05F26E
:1006500043EA020321FA04F001F0004121FA04F216
:1006600020EA020000EBD3705EEA430E08BF20EAE6
:10067000D37070BD94F0000F0FD101F00046400020
:1006800041EB010111F4801F08BF013CF7D041EAA2
:10069000060195F0000F18BF704703F000465200A6
:1006A00043EB030313F4801F08BF013DF7D043EA77
:1006B0000603704794EA0C0F0CEA135518BF95EA2D
:1006C0000C0F0CD050EA410618BF52EA4306D1D1B4
:1006D00081EA030101F000414FF0000070BD50EAD3
:1006E000410606BF1046194652EA430619D094EA5D
:1006F0000C0F02D150EA013613D195EA0C0F05D147
:1007000052EA03361CBF104619460AD181EA03019A
:1007100001F0004141F0FE4141F470014FF0000052
:1007200070BD41F0FE4141F4780170BD70B54FF0ED
:10073000FF0C4CF4E06C1CEA11541DBF1CEA13556D
:1007400094EA0C0F95EA0C0F00F0A7F8A4EB05044F
:1007500081EA030E52EA03354FEA013100F0888046
:100760004FEA03334FF0805545EA131343EA12630F
:100770004FEA022245EA111545EA10654FEA0026C4
:100780000EF000419D4208BF964244F1FD0404F57D
:10079000407402D25B084FEA3202B61A65EB0305D9
:1007A0005B084FEA32024FF480104FF4002CB6EB96
:1007B000020E75EB030E22BFB61A754640EA0C0016
:1007C0005B084FEA3202B6EB020E75EB030E22BF56
:1007D000B61A754640EA5C005B084FEA3202B6EB97
:1007E000020E75EB030E22BFB61A754640EA9C0056
:1007F0005B084FEA3202B6EB020E75EB030E22BF26
:10080000B61A754640EADC0055EA060E18D04FEAE3
:10081000051545EA16754FEA06164FEAC30343EA83
:1008200052734FEAC2025FEA1C1CC0D111F4801F50
:100830000BD141EA00014FF000004FF0004CB6E749
:1008400011F4801F04BF01430020B4F1FD0C88BFE8
:10085000BCF5E06F3FF6AFAEB5EB030C04BFB6EBF3
:10086000020C5FEA500C50F1000041EB045170BDE6
:100870000EF0004E4EEA113114EB5C04C2BFD4EB13
:100880000C0541EA045170BD41F480114FF0000E97
:10089000013C90E645EA060E8DE60CEA135594EA13
:1008A0000C0F08BF95EA0C0F3FF43BAF94EA0C0F16
:1008B0000AD150EA01347FF434AF95EA0C0F7FF48B
:1008C00025AF104619462CE795EA0C0F06D152EADF
:1008D00003353FF4FDAE1046194622E750EA4106C3
:1008E00018BF52EA43067FF4C5AE50EA41047FF4D4
:1008F0000DAF52EA43057FF4EBAE12E74FF0FF3C39
:1009000006E000BF4FF0010C02E000BF4FF0010C09
:100910004DF804CD4FEA410C7FEA6C5C4FEA430C82
:1009200018BF7FEA6C5C1BD001B050EA410C0CBFD1
:1009300052EA430C91EA030F02BF90EA020F002033
:10094000704710F1000F91EA030F58BF994208BF9A
:1009500090422CBFD8176FEAE37040F00100704757
:100960004FEA410C7FEA6C5C02D150EA013C07D1AE
:100970004FEA430C7FEA6C5CD6D152EA033CD3D0F9
:100980005DF8040B704700BF8446104662468C46F3
:100990001946634600E000BF01B5FFF7B7FF002826
:1009A00048BF10F1000F01BD4DF808EDFFF7F4FF4F
:1009B0000CBF012000205DF808FB00BF4DF808EDDA
:1009C000FFF7EAFF34BF012000205DF808FB00BFFD
:1009D0004DF808EDFFF7E0FF94BF012000205DF81F
:1009E00008FB00BF4DF808EDFFF7CEFF94BF0120D4
:1009F00000205DF808FB00BF4DF808EDFFF7C4FFCD
:100A000034BF012000205DF808FB00BF4FEA410C15
:100A10007FEA6C5C02D150EA013C0AD14FEA430CF8
:100A20007FEA6C5C02D152EA033C02D14FF0000035
:100A300070474FF0010070474FEA410212F5001273
:100A400015D211D56FF47873B3EB625212D94FEA15
:100A5000C12343F0004343EA505311F0004F23FAFF
:100A600002F018BF404270474FF00000704750EA54
:100A7000013005D111F0004008BF6FF00040704711
:100A80004FF00000704700BF4FEA4102B2F1E0436F
:100A900024BFB3F5001CDCF1FE5C0DD901F0004C65
:100AA0004FEAC0024CEA5070B2F1004F40EB8300B5
:100AB00008BF20F00100704711F0804F21D113F1E1
:100AC0003872BCBF01F00040704741F480114FEA1A
:100AD0005252C2F11802C2F1200C10FA0CF320FAA3
:100AE00002F018BF40F001004FEAC1234FEAD323C0
:100AF00003FA0CFC40EA0C0023FA02F34FEA43032A
:100B0000CCE77FEA625307D150EA01331EBF4FF0B2
:100B1000FE4040F44000704701F0004040F0FE40CD
:100B200040F40000704700BF80F0004002E000BFCA
:100B300081F0004142001FBF5FEA410392EA030FC8
:100B40007FEA226C7FEA236C6AD04FEA1262D2EB12
:100B50001363C1BFD218414048404140B8BF5B4217
:100B6000192B88BF704710F0004F40F4000020F0B0
:100B70007F4018BF404211F0004F41F4000121F0C6
:100B80007F4118BF494292EA030F3FD0A2F1010210
:100B900041FA03FC10EB0C00C3F1200301FA03F14E
:100BA00000F0004302D5494260EB4000B0F5000F71
:100BB00013D3B0F1807F06D340084FEA310102F130
:100BC0000102FE2A51D2B1F1004F40EBC25008BFE2
:100BD00020F0010040EA03007047490040EB0000AC
:100BE000013A28BFB0F5000FEDD2B0FA80FCACF1AD
:100BF000080CB2EB0C0200FA0CF0AABF00EBC250DA
:100C000052421843BCBFD0401843704792F0000FC7
:100C100081F4000106BF80F400000132013BB5E71A
:100C20004FEA41037FEA226C18BF7FEA236C21D090
:100C300092EA030F04D092F0000F08BF08467047F5
:100C400090EA010F1CBF0020704712F07F4F04D1C3
:100C5000400028BF40F00040704712F100723CBFD6
:100C600000F50000704700F0004343F0FE4040F400
:100C7000000070477FEA226216BF08467FEA2363BE
:100C80000146420206BF5FEA412390EA010F40F4A9
:100C9000800070474FF0000304E000BF10F00043F5
:100CA00048BF40425FEA000C08BF704743F09643DC
:100CB00001464FF000001CE050EA010208BF7047F7
:100CC0004FF000030AE000BF50EA010208BF70477E
:100CD00011F0004302D5404261EB41015FEA010C93
:100CE00002BF84460146002043F0B64308BFA3F18B
:100CF0008053A3F50003BCFA8CF2083AA3EBC2536D
:100D000010DB01FA02FC634400FA02FCC2F120028B
:100D1000BCF1004F20FA02F243EB020008BF20F0C2
:100D20000100704702F1200201FA02FCC2F1200228
:100D300050EA4C0021FA02F243EB020008BF20EA1D
:100D4000DC7070474FF0FF0C1CEAD0521EBF1CEA4B
:100D5000D15392EA0C0F93EA0C0F6FD01A4480EA39
:100D6000010C400218BF5FEA41211ED04FF0006322
:100D700043EA501043EA5111A0FB01310CF000404E
:100D8000B1F5000F3EBF490041EAD3715B0040EA74
:100D9000010062F17F02FD2A1DD8B3F1004F40EB44
:100DA000C25008BF20F00100704790F0000F0CF017
:100DB000004C08BF49024CEA502040EA51207F3ADB
:100DC000C2BFD2F1FF0340EAC250704740F40000B6
:100DD0004FF00003013A5DDC12F1190FDCBF00F0A7
:100DE00000407047C2F10002410021FA02F1C2F155
:100DF000200200FA02FC5FEA310040F1000053EAF1
:100E00004C0308BF20EADC70704792F0000F00F03E
:100E1000004C02BF400010F4000F013AF9D040EA44
:100E20000C0093F0000F01F0004C02BF490011F4D8
:100E3000000F013BF9D041EA0C018FE70CEAD153D6
:100E400092EA0C0F18BF93EA0C0F0AD030F0004C56
:100E500018BF31F0004CD8D180EA010000F000400A
:100E6000704790F0000F17BF90F0004F084691F0C8
:100E7000000F91F0004F14D092EA0C0F01D1420202
:100E80000FD193EA0C0F03D14B0218BF084608D1CB
:100E900080EA010000F0004040F0FE4040F4000015
:100EA000704740F0FE4040F4400070474FF0FF0CA8
:100EB0001CEAD0521EBF1CEAD15392EA0C0F93EAEF
:100EC0000C0F69D0A2EB030280EA010C49024FEA41
:100ED000402037D04FF0805343EA111143EA1013FA
:100EE0000CF000408B4238BF5B0042F17D024FF4B2
:100EF000000C8B4224BF5B1A40EA0C00B3EB510F8D
:100F000024BFA3EB510340EA5C00B3EB910F24BF75
:100F1000A3EB910340EA9C00B3EBD10F24BFA3EBFA
:100F2000D10340EADC001B0118BF5FEA1C1CE0D1C2
:100F3000FD2A3FF650AF8B4240EBC25008BF20F075
:100F4000010070470CF0004C4CEA50207F32C2BFC9
:100F5000D2F1FF0340EAC250704740F400004FF066
:100F60000003013A37E792F0000F00F0004C02BF97
:100F7000400010F4000F013AF9D040EA0C0093F061
:100F8000000F01F0004C02BF490011F4000F013BBB
:100F9000F9D041EA0C0195E70CEAD15392EA0C0F23
:100FA00008D142027FF47DAF93EA0C0F7FF470AF5B
:100FB000084676E793EA0C0F04D14B023FF44CAF9E
:100FC00008466EE730F0004C18BF31F0004CCAD133
:100FD00030F000427FF45CAF31F000437FF43CAF6F
:100FE0005FE700BF4FF0FF3C06E000BF4FF0010C91
:100FF00002E000BF4FF0010C4DF804CD4FEA400273
:101000004FEA41037FEA226C18BF7FEA236C11D0BC
:1010100001B052EA530C18BF90EA010F58BFB2EB6F
:10102000030088BFC81738BF6FEAE17018BF40F0EF
:10103000010070477FEA226C02D15FEA402C05D1A3
:101040007FEA236CE4D15FEA412CE1D05DF8040B28
:10105000704700BF844608466146FFE70FB5FFF7BB
:10106000C9FF002848BF10F1000F0FBD4DF808ED73
:10107000FFF7F4FF0CBF012000205DF808FB00BF64
:101080004DF808EDFFF7EAFF34BF012000205DF8BE
:1010900008FB00BF4DF808EDFFF7E0FF94BF01200B
:1010A00000205DF808FB00BF4DF808EDFFF7D2FF08
:1010B00094BF012000205DF808FB00BF4DF808ED4B
:1010C000FFF7C8FF34BF012000205DF808FB00BF18
:1010D0004FEA4002B2F1FE4F0FD34FF09E03B3EB45
:1010E00012620DD94FEA002343F0004310F0004F85
:1010F00023FA02F018BF404270474FF000007047DB
:1011000012F1610F01D1420205D110F0004008BF79
:101110006FF0004070474FF0000070477BB972B924
:101120000029BEBF00204FF0004106E008BF0028A4
:101130001CBF6FF000414FF0FF3000F0A1B9ADF1DE
:10114000080C6DE904CE002909DB002B1ADB00F046
:1011500035F8DDF804E0DDE9022304B070474042D1
:1011600061EB4101002B1BDB00F028F8DDF804E007
:10117000DDE9022304B0404261EB4101524263EBDE
:1011800043037047524263EB430300F017F8DDF866
:1011900004E0DDE9022304B0404261EB4101704705
:1011A000524263EB430300F009F8DDF804E0DDE9A7
:1011B000022304B0524263EB430370472DE9F0472A
:1011C000089E0D4604468E46002B40F083808A42DE
:1011D000174647D9B2FA82F34BB1C3F1200105FAA1
:1011E00003FE20FA01F19F4041EA0E0E9C404FEAB7
:1011F0001748BEFBF8FC1FFA87F908FB1CE20CFB42
:1012000009F0210C41EA024290420AD9BA180CF1C5
:10121000FF3180F01881904240F21581ACF1020C50
:101220003A44121AB2FBF8F008FB102200FB09F155
:10123000A4B244EA0244A14209D93C1900F1FF32A8
:1012400080F00381A14240F2008102383C44641ADC
:10125000002140EA0C401EB10022DC40C6E90042F9
:10126000BDE8F08702B9FFDEB2FA82F3002B4FD15E
:101270008D1A01214FEA124E1FFA82F8B5FBFEFCCF
:101280000EFB1C5508FB0CF0220C42EA0545A84257
:1012900007D97D190CF1FF3202D2A84200F2E98091
:1012A00094462D1AB5FBFEF00EFB105508FB00F816
:1012B000A4B244EA0544A04507D93C1900F1FF3225
:1012C00002D2A04500F2D9801046A4EB080440EAFF
:1012D0000C40C0E78B4208D9002E00F0B1800021FD
:1012E000C6E900050846BDE8F087B3FA83F1002996
:1012F0004BD1AB4202D3824200F2B980841A65EB33
:10130000030301209E46002EAAD0C6E9004EA7E79F
:101310009F40C3F12002D1404FEA174EB1FBFEF0CF
:101320001FFA87F80EFB101124FA02F29D4000FB11
:1013300008FC2A43150C45EA0145AC4504FA03F4C0
:1013400009D97D1900F1FF3180F08F80AC4540F262
:101350008C8002383D44A5EB0C05B5FBFEF10EFB7D
:10136000115C01FB08F995B245EA0C45A94507D97E
:101370007D1901F1FF3274D2A94572D902393D4479
:10138000A5EB090541EA004178E7C1F120078B4050
:1013900022FA07FC4CEA030C25FA07F44FEA1C4E2C
:1013A000B4FBFEF91FFA8CF80EFB194420FA07F380
:1013B00009FB08FA8D401D432B0C43EA0444A24567
:1013C00002FA01F200FA01F309D91CEB040409F155
:1013D000FF3048D2A24546D9A9F102096444A4EBE2
:1013E0000A04B4FBFEF00EFB104400FB08FAADB299
:1013F00045EA0444A24508D91CEB040400F1FF357A
:101400002DD2A2452BD90238644440EA0940A0FB02
:101410000289A4EB0A044C45C6464D4619D316D0A2
:101420005EB1B3EB0E0264EB050404FA07F722FA8F
:1014300001F31F43CC40C6E900740021BDE8F087EA
:10144000314630460CE78C46EBE61046FFE6434556
:10145000E6D2B8EB020E69EB0C050138E0E728464E
:10146000D3E711468CE78146B9E7084673E708469B
:1014700049E7ACF1020C3D4413E702383C4424E751
:10148000704700BF7FB501238DF817104FF48031EE
:10149000CDE901310DF11701024600910348EC211D
:1014A00004F0ECFE07B05DF804FB00BF041A002056
:1014B0007FB500234FF480318DF817300123CDE93B
:1014C00001310DF11701024600910448EC2104F0AE
:1014D00065FF9DF8170007B05DF804FB041A0020B3
:1014E0001FB5024602234FF480300091CDE9013050
:1014F000EC210123024804F051FF05B05DF804FB24
:10150000041A00201FB5024602234FF480300091D8
:10151000CDE90130EC210123024804F03FFF05B082
:101520005DF804FB041A00207FB502234FF48031DC
:10153000CDE9013105AB02460093EC2101230648B9
:1015400004F02CFF9DF814009DF8153043EA0020AC
:1015500007B05DF804FB00BF041A00207FB5032329
:101560004FF48031CDE9013105AB02460093EC2107
:101570000123084804F012FF9DF815309DF814006F
:101580001B0243EA00439DF81600184307B05DF8BC
:1015900004FB00BF041A0020FA2010B5FFF7DEFF9D
:1015A000B0F5000F37D0001104461C4900280A8806
:1015B000B8BFC41D0028B8BF0F30C2EB2010404395
:1015C0004FEA4203C3EBE404B1F90230B1F904205D
:1015D00048BF00F6FF70634300135043002BB8BFB1
:1015E00003F2FF730028B8BF00F57F500C4AB8BF64
:1015F0003F30DB1203EBA033136003EB830313F1E3
:10160000800048BF03F27F100012FFF747FB054937
:10161000FFF74CFC10BD0448FCE700BFE2090020C6
:10162000801500200000C8420000C07F2DE9F74F60
:10163000FFF7B2FFF720FFF791FF864B864E1A683F
:101640008646B2F5FA374FEAE273A7FB071243F179
:10165000FF3C07FB0CF3CDE90012019A02EB4303B8
:10166000B6F90820019302FB0CF1D31707FB031115
:10167000A2FB07230B441903019841EA12514FEAD8
:101680000239B6F90A2002FB00FA0098D31700FBD2
:1016900003AAA2FB00235344002A73F1000802DAD4
:1016A000FF3243F100034FEA122A4AEA036AF28842
:1016B0004FEA232B1AEB09004BEB010B0030A0FB88
:1016C00002014BF5004B02FB0B11002871F10003E6
:1016D00003DA10F1FF3041F101014A10CB1752EA51
:1016E000030100F0B480B6F910A0019900980AFB3C
:1016F00001F900994FEAEA7B01FB0B91AAFB0089F3
:10170000B6F90E00894400FB0CFCC11707FB01CCA5
:10171000A0FB070161444FEA414C4CEAD03C47042E
:10172000002017EB08074CEB090CC01940F63547B1
:101730004FEA2E1ECEF5801E4FEAEE79B6F90C80E8
:101740004FEAC97A4FEACE714AEA5E0A4FEAC80EFA
:101750004EEB0C0C081AA0FB07016AEB0C0A07FB06
:101760000A11FFF7DBFC002871F100028046894670
:101770000B4606DA41F6FF70002318EB000041EB40
:101780000303B6F916205913400B40EAC34002FB8D
:1017900001F7A2FB00ABD31700FB03770AFB01F1B3
:1017A000BB4400FB0B13AAFB000119440B460028A5
:1017B00073F10001024606DA6FF07E4142184FF0E5
:1017C000000141EB0303B6F914A0510E0AFB09F71F
:1017D00041EAC31111EB08014FEA63604FEAEA7B6B
:1017E00008FB0B7340EB0900AAFB08899944B8F188
:1017F000000F79F1000306DA184B18EB03084FF0DD
:10180000000349EB03094FEAD84343EA4933CC18B4
:101810004FEAE94240EB0205002C75F1000302DAC1
:10182000FF3445F100051022230A43EA0560B6F9AA
:1018300012302912C3FB0201FEF720FE0022084BE2
:10184000FEF74AFEFFF720F903B0BDE8F08F002055
:10185000FAE700BF80150020E2090020FFFF070023
:101860000000703F10B5FFF797FEFD20FFF75CFE0C
:10187000B0F5004F56D02C4A2C4BB2F91E101B6805
:101880000905C1EB8031B2F92000A3F5963303FBC3
:101890001010117F10F5804044BF00F5FF407F30ED
:1018A000594392F9224048BF01F2FF7163434FEA66
:1018B000E12148BF03F2FF3301F500419B124B4386
:1018C00048BF03F2FF33B2F91A109B1203F500135D
:1018D0004B4313F5005344BF03F57F533F339B1332
:1018E000C013584303460028BCBF00F5FF437F33B5
:1018F000DB135B43127E48BF7F33DB11534348BF8A
:101900000F33A0EB231020EAE070B0F1C85FA8BF4E
:101910004FF0C8500013FFF7BDF94FF06A51FFF7C1
:1019200011FA10BD0248FCE7E209002080150020F2
:101930000000C07FD02038B5FFF7BAFD602840F026
:10194000B180B621E020FFF79DFDF320FFF7B0FD49
:10195000C307FAD4544C88202146FFF7C1FDA11CCF
:101960008A20FFF7CFFD211D8C20FFF7CBFDA11DA5
:101970008E20FFF7B5FD04F108019020FFF7C2FDAE
:1019800004F10A019220FFF7BDFD04F10C0194203F
:10199000FFF7B8FD04F10E019620FFF7B3FD04F147
:1019A00010019820FFF7AEFD04F112019A20FFF715
:1019B000A9FD04F114019C20FFF7A4FD04F1160118
:1019C0009E20FFF79FFDA120FFF772FD04F11A0191
:1019D0002076E120FFF796FDE320FFF769FD2077F1
:1019E000E420FFF765FD0546E520FFF761FD00F007
:1019F0000F0343EA0510E083E620FFF759FD054693
:101A0000E520FFF755FDC0F3071343EA05102084D6
:101A1000E720FFF74DFD84F82200F520FFF748FD91
:101A200000F01F0141F0A001F520FFF72BFDF5208C
:101A3000FFF73EFD00F0E30141F00801F520FFF75C
:101A400021FDF420FFF734FD00F01F0141F060019B
:101A5000F420FFF717FDF420FFF72AFD00F0E30163
:101A600041F00C01F420FFF70DFDF220FFF720FDFF
:101A700000F0F80141F00301F220FFF703FDF4202C
:101A8000FFF716FD0146F420FFF7FCFCF420FFF7FA
:101A90000FFDBDE8384000F0FC0141F00301F420E7
:101AA000FFF7F0BC38BD00BFE209002008B50422F2
:101AB0004FF47060084903F0DFFB04224FF4A0608C
:101AC000064903F0D9FBBDE8084004224FF48070BA
:101AD000034903F0D1BB00BF6C0400207004002058
:101AE0006803002008B58021002003F059FB002086
:101AF00003F028FBFFF7DAFFBDE8084006224FF4A9
:101B00001060014903F0B8BB9015002008B5802192
:101B1000002003F045FB002003F014FBBDE8084063
:101B200006224FF41060014903F0A6BB9015002077
:101B300070B5094B094E0A4C1E600A4E0A4D00282A
:101B400008BF3046002918BF0C46084E2C60306094
:101B500002B11A6070BD00BF0C0000200D1B000810
:101B6000E51A0008AD1A0008100000200800002047
:101B700007B5062269464FF4106003F043FB204B83
:101B8000204A1B681A60204A1268110E1971110C44
:101B90005971110A9971DA7100214FF40002C3E9F9
:101BA00002211A4AC3E90411107899611877507814
:101BB000587790789877D078D8771079527983F8D9
:101BC000200083F8212003F12C0003F1220202F807
:101BD000011B8242FBD1002003F16C0102F8010BD2
:101BE0008A42FBD1002003F1EC0102F8010B914283
:101BF000FBD1074AC3F8EC2003B05DF804FB00BF3B
:101C0000A415002001010600981500209015002061
:101C1000638253631FB5FFF7ABFF2D4B002219689A
:101C20002C4B8A72C1F8F03040F20713A1F8F4305F
:101C3000294BCA72187881F8F600587881F8F700B5
:101C4000987881F8F800D87881F8F90018795B79EC
:101C500081F8FA0081F8FB3040F23243A1F8FC3001
:101C60001E4B187881F8FE00587881F8FF009878AC
:101C7000DB7881F8000181F8013140F23643A1F8A8
:101C80000231174B187881F80401587881F8050162
:101C9000987881F80601DB7801F5097081F8073141
:101CA000FF2381F8083101F2091303F8012B834265
:101CB000FBD14FF0FF33039343230A4800934FF4C3
:101CC000097203AB007802F033FA05B05DF804FB4B
:101CD000A41500203501043D901500206C0400205F
:101CE000A0150020A81500202DE9F04FA14D8BB0C4
:101CF000287803F01CFB024618B900200BB0BDE8A1
:101D0000F08F0DF11E039C4C0093216808AB2878DE
:101D100002F0BEFABDF81E30432B40F02881216846
:101D2000964B0C7F1A789442E7D14C7F5A789442B4
:101D3000E3D18C7F9A789442DFD1CC7FDA789442D9
:101D4000DBD191F820401A799442D6D191F8212024
:101D50005B799A42D1D18A4A9DF8209017785678BB
:101D60009578D47847EA06032B432343029220D088
:101D70004F450BD19DF82130B34207D19DF8223059
:101D8000AB4203D19DF82330A34212D07D4B1C7887
:101D90004C45B2D19DF821505C78A542ADD19DF85B
:101DA00022509C78A542A8D19DF82340DB789C4224
:101DB000A3D180B201EB000A00209DF8212001F19F
:101DC000F00303929DF822206E4904929DF823208F
:101DD0006D4C6E4D6E4E6F4F0592534501D340B220
:101DE0008CE793F800C0BCF1350F39D013D8BCF1A3
:101DF000060F08D8BCF1060F08D8DFE80CF02F3426
:101E0000074607075B00BCF1330F66D003F1020CF5
:101E10005B786344E1E7BCF1E10F00F08C8018D8F7
:101E2000BCF1360F6DD0BCF1E00FEFD193F802E0BA
:101E300093F801C084F800E093F803E084F801E02F
:101E400093F804E084F802E093F805E084F803E0F6
:101E50002DE0BCF1FF0FD9D15346BEE70133BCE7FB
:101E600098780333B9E793F802C087F800C093F875
:101E700003C087F801C093F804C087F802C093F844
:101E800005C087F803C00633A7E793F802E093F88C
:101E900001C086F800E093F803E086F801E093F8CB
:101EA00004E086F802E093F805E086F803E0634476
:101EB000023392E793F802E093F801C085F800E05E
:101EC00093F803E085F801E093F804E085F802E078
:101ED00093F805E085F803E0E9E793F802C02E4A9D
:101EE000C2F800C093F803E00EEB0C2C93F804E06A
:101EF0000EEB0C2E93F805C00CEB0E2CC2F800C0B4
:101F0000C1E793F802C0029A82F800C093F803C0B8
:101F100081F8009082F801C093F804C082F802C0F2
:101F200093F805C082F803C0039A4A70049A8A7035
:101F3000059ACA70A7E79A1C964693F801C0C3F1A8
:101F4000FF2303F57F03DFF85480FE330EEB030B12
:101F5000DC4507DC13464FF0000E104A634402F8DC
:101F60000CE03AE71EF801BB08F801BBEEE70020E1
:101F700035E700BFA8150020A4150020901500200B
:101F8000A01500209C15002074040020640300208C
:101F90006803002070040020140000206C0300205F
:101FA00037B54FF4D85003F0CDF8032105464FF470
:101FB000D85003F0F5F841F288330E48009311220F
:101FC0000D4B0E49007802F0B3F8044629464FF451
:101FD000D85003F0E5F80D340AD0FFF71BFE084B8C
:101FE00019681A68521A012AFBD9002003B030BDC3
:101FF0000120FBE7A81500206C04002008B50008AC
:102000008004002000230A21034A1360034A116060
:10201000034A1370704700BF80040020180000209E
:102020007C040020002373B5244C062206460D468E
:102030004FF410602146019303F0E4F862782378AE
:102040001343A2781343E27813432279134362794E
:1020500013430DD108226270DC222146A2704FF496
:10206000106006222370E3702371637103F004F99A
:10207000134B20791E70134BE1781D60124B62796F
:102080000C182344414013444A4013440F4A4FF470
:102090007060136004220DEB020103F0EDF80422DE
:1020A0004FF480700DEB020103F0E6F8FFF7AAFF92
:1020B0000022074B1A7002B070BD00BF90150020BF
:1020C000A8150020A4150020785634129815002079
:1020D0007D040020024A136801331360704700BF7B
:1020E00080040020044B1A7802705A7842709A7863
:1020F0008270DB78C37070476C040020044B1A7840
:1021000002705A7842709A788270DB78C370704798
:1021100068030020044B1A7802705A7842709A784B
:102120008270DB78C370704774040020054A431E38
:10213000FE30117803F8011F12F8011B09B1834228
:10214000F7D170476C030020044B1A7802705A785C
:1021500042709A788270DB78C370704770040020F8
:1021600000F00F00092894BF30303730704700006E
:102170002DE9F04385B0FFF7FBFC0023694A6A486C
:10218000137053709370D370684A137053709370C8
:10219000D370674B1968674BC1F8F03040F20713F2
:1021A000A1F8F430644B1A7893F8038081F8F62094
:1021B0005A781F795E7981F8F7209A780C23A1F874
:1021C000FC30122381F8F82081F8F98081F8FA7048
:1021D00081F8FB60A3F1120292B2845C5D1CADB287
:1021E00001EB0309002C40F093804FEA1810FFF731
:1021F000B7FF89F8EC004046FFF7B2FF0D4485F8C1
:10220000EC003809FFF7ACFF9D1CADB20D4485F81A
:10221000EC003846FFF7A4FFDD1CADB20D4485F895
:10222000EC003009FFF79CFF1D1DADB20D4485F891
:10223000EC003046FFF794FF5D1DADB20D4485F80C
:10224000EC00981D80B2D51D451B06320D4485F863
:10225000EC203722084480F8EC200820DA1D92B2E6
:102260000A4482F8EC001A18012092B20A4482F85B
:10227000EC00032003F1090292B20A4482F8EC0058
:10228000062003F10A0292B20A4482F8EC000F2001
:1022900003F10B0292B20A4482F8EC003A2003F1F7
:1022A0000C0292B20A4482F8EC003B2003F10D02CA
:1022B00092B20A4482F8EC00E02003F10E0292B2DE
:1022C0000A4482F8EC00E12003F10F0292B20A44C2
:1022D00082F8EC00FF2003F1110210339BB20B4493
:1022E00092B283F8EC0002F1EC030B44B2F59C7F50
:1022F00012D34FF0FF3303934323104800934FF45E
:10230000097203AB007801F013FF05B0BDE8F0835C
:102310002B4689F8EC405DE7013203F8014B92B29D
:10232000E4E700BFA0150020000000209C1500205D
:10233000A41500203501013D90150020A8150020AE
:102340002DE9F04385B0FFF713FC924B92491B78BF
:10235000033B012B00F2108100220B689A72DA72A3
:102360008E4A10781873507858739078D278987392
:10237000DA738B4B1A788DF80C205A788DF80D2073
:102380009A78DB788DF80E208DF80F300968854B30
:10239000C1F8F03040F20713A1F8F430824B1A78FC
:1023A000DF7881F8F6205A781E7993F8058081F855
:1023B000F7209A789DF80F3081F8F820FF2B81F8EC
:1023C000F97081F8FA6081F8FB8040F0D98040F222
:1023D0003243A1F8FC30714B1A7881F8FE205A780C
:1023E00081F8FF209A78DB7881F8002181F80131AB
:1023F00040F23643A1F80231694B1A7881F8042182
:102400005A7881F805219A78DB7881F806211C2218
:1024100081F807310C208B1883F8EC00931C0132F3
:102420008818002280F8EC20604810F8015B5C1CE2
:10243000A4B201EB0309002D40F0A4803809FFF796
:102440008FFE89F8EC003846FFF78AFE0C4484F8CA
:10245000EC003009FFF784FE9C1CA4B20C4484F805
:10246000EC003046FFF77CFEDC1CA4B20C4484F880
:10247000EC004FEA1810FFF773FE1C1DA4B20C44C9
:1024800084F8EC004046FFF76BFE5C1DA4B20C44E0
:1024900084F8EC00981D80B2D41D041B06320C4455
:1024A00084F8EC203722084480F8EC200A20DA1D5A
:1024B00092B20A4482F8EC00012003F1080292B2C1
:1024C0000A4482F8EC00032003F1090292B20A44A4
:1024D00082F8EC00062003F10A0292B20A4482F864
:1024E000EC000F2003F10B0292B20A4482F8EC00D8
:1024F0003A2003F10C0292B20A4482F8EC003B202D
:1025000003F10D0292B20A4482F8EC001F2003F19D
:102510000E0292B20A4482F8EC00212003F10F026D
:1025200092B20A4482F8EC00E02003F1100292B269
:102530000A4482F8EC00E12003F1110292B20A444D
:1025400082F8EC00FF2003F1120292B20A44133326
:1025500082F8EC009BB201F1EC02B3F59C7F16DB34
:102560004323134800934FF4097203AB007801F042
:10257000DFFD05B0BDE8F0834FF0FF33039305E7BF
:10258000102247E7234689F8EC5001324DE7D55435
:102590000133E2E77D040020A41500206C04002034
:1025A000A01500203501033D9015002000000020FB
:1025B000A815002070B51C4C94F90030012B1DDCCF
:1025C0001A4D1B4E2A683168914212D2194B93F969
:1025D0000030022B0FD0042B0DD0012B01D1FFF7BF
:1025E000C7FD00232B602B680A3333602378013347
:1025F0002370012010E0FFF7A3FEF2E70D4B93F9E3
:1026000000201C46022A08D0042A06D0012A09D13B
:1026100000201870FFF7F6FC70BDFFF7A9FD012040
:102620002070F7E70120F5E77C04002080040020FB
:10263000180000207D04002038B5524C94F9003079
:10264000062B00F09C80504D2878400100F5427028
:1026500002F078FD222805D00023442202212878A8
:1026600001F0D4FBFFF740FB94F90030C5B2042B16
:1026700031D8DFE803F0030E233D5A000022434B1C
:102680001A705A709A70DA70FFF772FD012020708C
:1026900038BD022D0ED13E4B1A683C4B117C19708F
:1026A000517C5970917CD27C9970DA70FFF748FEAA
:1026B000257010E0BDE83840FFF77CBF052D12D132
:1026C000FFF76EFC054640B1324B1B689847FFF799
:1026D00099FC032323700120DAE7FFF793FC2E4BCC
:1026E0001B689847E4E7062DE4D1FFF78BFCCDE7A4
:1026F0002A4B1B685A1C40D0294A1268B2EB530F70
:102700003BD9224A274B117819705178597091782A
:10271000D2789970DA70244A136801331360FFF796
:102720000FFEFFF76FFC0420B1E7052D1FD100223B
:102730001E4B1A701B4A154B1078197888420BD122
:1027400050785978884207D190789978884203D197
:10275000D278DB789A4208D0154B1B689847032043
:10276000FFF750FC0323237092E70420F8E7062DBF
:10277000A0D1FFF747FC01232370042088E7052040
:1027800086E700BF7D040020A81500206C0400200F
:10279000A4150020080000200C00002014000020D8
:1027A0008004002078040020981500207C0400207C
:1027B000100000200122014B1A7070474C050020C8
:1027C0007047000000224FF48051014803F0B4BA72
:1027D000000C014001224FF48051014803F0ACBAD3
:1027E000000C01400A464FF0FF330146014804F057
:1027F00052BC00BFAC19002007B501210DF1070044
:10280000FFF7F0FF9DF8070003B05DF804FB000040
:102810000A464FF0FF330146014804F0A0BA00BF5A
:10282000AC19002007B501218DF807000DF1070054
:10283000FFF7EEFF03B05DF804FB000008B549F6B2
:1028400040430A480A4AC0E9002300234FF480426B
:10285000C0E90233C0E90423C0E90633036203F090
:102860004BFC08B172B6FEE708BD00BF041A002099
:102870000054004000000000814B2DE9F0411A682F
:1028800003F1236303F5673376339A428CB062D148
:10289000012875D07B4BC8221C887B4BA4B21C80BE
:1028A0007A4B00211D887A4BADB21D80794B7A4856
:1028B0001E887A4BB6B21E80794B1F88794BBFB207
:1028C0001F8005F07BFFCDE900672B462246764945
:1028D000714806F0DBFB4FF47A73C8226E497348E7
:1028E00005F024FB724BC8221C68724B00211C604F
:1028F000714B69481E68714B1E60714B1F68714BAC
:102900001F60714BD3F80080704BC3F8008005F056
:1029100055FF2046FDF788FD044640460D46FDF76D
:1029200083FDCDE904013846FDF77EFDCDE90201C6
:102930003046FDF779FD2246CDE900012B4664497A
:10294000554806F0A3FB4FF47A73C8225249574802
:1029500005F0ECFA2EE098B94AF6E0334A4A1380C3
:102960004B4A13804D4A13804E4A13804FF07E53DA
:10297000504A1360514A1360524A1360534A13601D
:102980000023CDE9073301233D4A524CCDE90A2308
:10299000237002F07FFF20700028FAD107A908A851
:1029A00003F034F848B10123237002F085FF207052
:1029B0000028FAD10CB0BDE8F08101232EA7D7E999
:1029C00000672F4D237032463B462946032002F014
:1029D000A7FF20700028F6D12D4B2A4F19882F4BC6
:1029E0001D88294B1E882F4B46EA01461A88012371
:1029F00045EA0245237032462B463946032002F051
:102A00008FFF20700028F6D101232A4E284D237015
:102A1000002329460220326802F082FF207000283D
:102A2000F6D10123254E244D237000232946022090
:102A3000326802F075FF20700028F6D10123214E84
:102A40001F4D2370002329460220326802F068FFE0
:102A500020700028F6D101231C4E1B4D237000234B
:102A600029460220326802F05BFF20700028F6D170
:102A700099E700BFAFF300807698341200000000A1
:102A800000FC000810FC0008A005002012FC000853
:102A9000A805002014FC000884040020740D002008
:102AA00016FC0008D80900201AB50008641A002096
:102AB00018FC0008900500201CFC0008140A0020E7
:102AC00020FC0008AC05002024FC00084C06002077
:102AD00047B50008A81A00202DE9F04104460E462B
:102AE0001746984642F68822002301210220C0B0F2
:102AF00001F08CF90228054645D1214642F2437285
:102B000001F016FA0128044607D0284601F040F9E2
:102B1000FE24204640B0BDE8F0814046FDF784FC2D
:102B20003246CDE900013B46184903A806F0AEFA4B
:102B3000174B03A820938DF88440FDF709FB002371
:102B4000C4B203A90DF18D008DF88540ADF8863033
:102B500022938DF88C3006F0B9FA0D34E4B2224697
:102B6000022020A901F05AFA002804DC022001F01A
:102B70000FF9FD24CDE7241A14F0FF04EFD1022051
:102B800001F006F9C5E7FF24C3E700BF78B50008E8
:102B90005A42584473B52B492B4802F06FFC2B491D
:102BA0002B4802F07DFC2B492B4802F091FC6B4630
:102BB0002A4A2B4D1068516842F2117403C36946CA
:102BC000084602F0DAFC06224FF41060254902F0B4
:102BD00053FB00202449FFF725FA2449244A0846DC
:102BE000FEF7A6FF2E462B780BB9013C20D1337897
:102BF000E3B11C4CA01DFFF775FA04F10E00FFF7BE
:102C00007DFA04F10A00FFF79FFA04F11600FFF7BE
:102C100081FA04F11A00FFF789FAA37E73B9154906
:102C2000154806F053FA0F4802F0E4FC02B070BDFC
:102C3000FFF702FD642002F079FDD4E704F11A01E8
:102C4000EEE700BFD5270008C527000825280008A3
:102C5000F927000811280008E5270008CFB500086B
:102C60004C0500201C000020AC150020B5270008F2
:102C7000C1270008C4B5000898120020002110B533
:102C800090B0142201A809910B9105F097FD4FF423
:102C9000803309220224CDE906234FF40032CDE926
:102CA0000D4308924FF46013012206A80A920C9279
:102CB0000F9303F0DFFC08B172B6FEE70F23CDE9F6
:102CC00001344FF480630390CDE90430214601A81C
:102CD00003F0A6FE08B172B6FEE710B010BD00000A
:102CE0002DE9F04FB3B002F0FDFCFFF7C7FF102253
:102CF00000212AA805F062FDA04B41F61E419A6909
:102D00009F4842F020029A619A69002502F0200251
:102D10001A921A9A9A69012442F004029A619A69F5
:102D2000032602F004021B921B9A9A6942F00802E1
:102D30009A619B69002203F008031C931C9B02F01C
:102D4000FBFF00224FF410418E4802F0F5FF41F6E0
:102D500006438B482AA9CDE92A34CDE92C5602F046
:102D6000A1FE4FF4104387482AA9CDE92A34CDE9C2
:102D70002C5602F097FE1823CDE92A34022380480E
:102D80002AA92D932C9502F08DFE294610221FA80A
:102D900005F014FD29461C2223A8CDE91D5505F098
:102DA0000DFD294620222AA805F008FD764C774B18
:102DB000A560C4E9003540F21F33C4E90335072597
:102DC00080232046C4E9055304F0AEFB08B172B677
:102DD000FEE74FF4805320461FA91F9304F062FDC5
:102DE00008B172B6FEE7204604F0CAFB08B172B61D
:102DF000FEE70821204604F01BFC08B172B6FEE78E
:102E000030251DA9CDE91D50204604F0A9FF02463A
:102E100008B172B6FEE7CDE92350CDE92500CDE932
:102E20002700299023A9204604F05CFC08B172B663
:102E3000FEE722682046936923A943F008039361C3
:102E4000042204F04FFC08B172B6FEE708222046C7
:102E500023A904F047FC08B172B6FEE70C22204615
:102E600023A904F03FFC08B172B6FEE74FF400530B
:102E7000CDE92A00CDE92C002E9031902AA92046D8
:102E80002F9304F09BFF08B172B6FEE73E4801F0B5
:102E90002FFC4FF4E1333E483E4C0C22C0E9004386
:102EA0000023C0E90233C0E905230361C36105F0D3
:102EB0000FF8054608B172B6FEE7014610221FA8BA
:102EC00005F07CFC142229462AA805F077FC102284
:102ED000294623A84FF6FF76CDE91D5505F06EFC77
:102EE0004FF080432C4C2046C4E90035C4E903650B
:102EF000A560A56104F018FB08B172B6FEE74FF4B7
:102F0000805720461FA91F9704F0CCFC08B172B669
:102F1000FEE7204604F060FB08B172B6FEE7042528
:102F2000202320462AA9CDE92A5304F0A1FD08B1A7
:102F300072B6FEE7CDE91D001DA9204604F010FF82
:102F4000024608B172B6FEE701232390CDE9243092
:102F5000269023A9204604F017FC08B172B6FEE7BC
:102F60004FF002082A46204623A9CDE9238804F021
:102F70000BFC054690B172B6FEE700BF00100240A0
:102F8000000C014000080140780D0020002C014099
:102F9000641A0020003801402C1500200146102240
:102FA0002AA805F00BFC534C534B2046C4E90038CB
:102FB0008023CDE92355C4E902562561A36104F0BD
:102FC000B3FA08B172B6FEE720462AA92A9704F0A0
:102FD00069FC08B172B6FEE72020002323A9CDE9E1
:102FE0002303444804F0BCFE054608B172B6FEE770
:102FF0001026014632461FA805F0E0FB14222946A0
:1030000023A805F0DBFB1C2229462AA83B4CCDE96E
:103010001D5505F0D3FB3A4B2046C4E9003547F671
:103020005003C4E903358023A560A36104F07CFA52
:1030300008B172B6FEE74FF4805320461FA91F93D4
:1030400004F030FC08B172B6FEE7204604F098FAAE
:1030500008B172B6FEE70821204604F0E9FA08B18B
:1030600072B6FEE7062323A9CDE92330204604F0FB
:10307000FFFC08B172B6FEE730231DA9CDE91D3073
:10308000204604F06DFE024608B172B6FEE7CDE9B7
:103090002A602C902E902AA9204604F023FB044697
:1030A00008B172B6FEE7FFF7C9FB4FF4827315480B
:1030B0001549C0E90244C0E900134FF40073C0E9A8
:1030C00006340A23C0E90444C0E908448462C362A8
:1030D00003F0EDFD08B172B6FEE705230B480C4A7C
:1030E000C0E9002340F6FF73836003F095FA88B1CE
:1030F00072B6FEE7CC0500200008004068060020FC
:1031000000040040AC19002000380040581A00208C
:10311000003000400024012601224FF48051AC48C9
:1031200002F00AFEAB4BAC4D1C60EB68AB4F23F4D6
:10313000406323F006033E701622EB60A8494FF06F
:10314000FF33A84804F0F2FE22462846102102F080
:10315000F3FD32462846102102F0EEFD32464FF4D0
:103160008051284602F0E8FD4FF4FA6002F0DEFAE2
:10317000FFF710FD2046FFF77FFB9B4D9B4B214641
:103180009B481E702C8004F0A1FD0421984804F097
:103190009DFD984B00221C80974B98491C80984BB2
:1031A000984E1C700023C1E9002397496424C1E9AB
:1031B000002396499648C1E9002300239A46954981
:1031C000954A1497013C46F8043B40F8043B41F80B
:1031D000043B42F8043BF5D1904B914F1C70914E4B
:1031E000914B3C701C703470FEF7A4FB4FF0FF3322
:1031F0000F228E497B4804F099FE149B22464FF41F
:10320000805173481C702C8002F096FD884804F0B1
:1032100051F8884804F04EF8CDE91676149B1B78D7
:10322000002B00F07281844A84481368724E43F088
:103230000103136003F017FA0023149A1370338804
:10324000002B00F08783764A7D4B12781B8852B999
:10325000744A12783AB9714A127822B9724A1278CD
:10326000002A00F05182B3F5C86F80F05082C82266
:103270000021744805F0A2FA734A664B1668734A37
:103280001C6817685F4A644BD2F80080604A1B686C
:10329000D2F800906E4A126812926E4AD2F800B0CC
:1032A000574A1278002A00F0A1816B4A184611682B
:1032B000FDF748FD01462046FDF73AFCFDF7B4F85E
:1032C000664B04460D4612981968FDF73BFD014612
:1032D0005846FDF72DFCFDF7A7F8CDE90401604B3A
:1032E00048461968FDF72EFD01464046FDF720FCD3
:1032F000FDF79AF8CDE902015A4B30461968FDF7FF
:1033000021FD01463846FDF713FCFDF78DF82246F6
:10331000CDE900012B4654494A4805F0B7FE4FF469
:103320007A73C82247492F4804F000FE344B1B78BB
:10333000002B40F0E2803A4C2378002B00F089818A
:10334000354B1968334B1868FDF7F4FB47490646BF
:10335000FDF7EEFBFDF7BCFE0028B8BF4042012898
:1033600040F37781424D304640492C88FDF7A6FE58
:10337000002800F06C8101342C802A4C2378002B2B
:1033800000F06C81314B19682F4B1868FDF7D2FBA8
:1033900036490646FDF7CCFBFDF79AFE0028B8BF7C
:1033A0004042012840F35A81324D30462F492C8843
:1033B000FDF784FE002800F04F8101342C80174C6B
:1033C0002378002B00F04F81224B196854E000BF96
:1033D0000008014064060020000C01409405002014
:1033E000D8B50008641A0020C00D00208415002004
:1033F0002C15002020060020F4100020300A0020A8
:10340000380A0020E40B0020980500201806002050
:10341000D00D00203C0A002008110020E009002007
:10342000500600207815002038060020EEB5000870
:1034300068060020CC05002010E000E0581A0020AB
:10344000F610002084040020600F002040080020B7
:103450009C130020B0060020AC050020140A0020B8
:10346000900500204C060020FDB500080000C8446F
:10347000A0050020A80500207F4B1868FDF75AFB27
:103480007E490646FDF754FBFDF722FE0028B8BF33
:103490004042012840F3E780794D304677492C8837
:1034A000FDF70CFE002800F0DC8001342C80754C08
:1034B0002378002B00F0DC80734B1968734B18687D
:1034C000FDF738FB6D490646FDF732FBFDF700FEC0
:1034D0000028B8BF4042012840F3CA806C4D3046F6
:1034E00066492C88FDF7EAFD002800F0BF80013412
:1034F0002C80684A138801331380674A6748136831
:1035000023F00103136003F0D5FE654C0A2301226A
:103510002146644804F05FFD00283FF47FAE237825
:10352000632B40F0F2824FF47A7316225E495D48B5
:1035300004F0FCFC594803F0E7FE00215B4804F06E
:10354000C5FB0421594804F0C1FBC822002158489A
:1035500005F034F90123169A56491370179A13701F
:10356000554A1370474A13700023544A1370494A4E
:1035700013804AF6E0320A8051490A8040490A80A5
:1035800043490A804FF4FA714E4AC2F800A04E4AED
:10359000C2F800A04D4AC2F800A04D4AC2F800A0EF
:1035A0004C4AC2F800A04C4AC2F800A04B4AC2F8EC
:1035B00000A04B4AC2F800A04A4AC2F800A04A4AFA
:1035C000C2F800A0494AC2F800A0494AC2F800A0C7
:1035D000484A1380484A1180484A1380484A138059
:1035E0002E4803F067FE0023237017E6204615934C
:1035F000FCF71AFF044658460D46FCF715FFCDE9C7
:103600000C011298FCF710FFCDE90A014846FCF7BF
:103610000BFFCDE908014046FCF706FFCDE90601A6
:103620003846FCF701FFCDE904013046FCF7FCFE0B
:10363000159BCDE902011846FCF7F6FE2246CDE9BE
:1036400000012B462F491A4805F020FD67E6013C92
:1036500092E60023237090E6013CAFE6002323703E
:10366000ADE6013C22E70023237020E7013C3FE761
:10367000002323703DE700BF9C1300200000C844D6
:10368000740D002038060020D00D0020E40B00202F
:10369000D8090020F610002010E000E0CC05002042
:1036A0004D050020641A002009B800082C150020E0
:1036B00084040020A0050020E0090020380A002032
:1036C000A805002048060020E00B0020A4050020EB
:1036D000C8050020F01000207415002014060020FA
:1036E000100A002090050020140A0020AC050020DC
:1036F0004C0600207C150020F4100020C00D002096
:10370000200600203CB60008B3F5C86F08D34FF47C
:103710007A731F226F49704804F008FC02F06AF8BF
:10372000B6F800B0BBF1000F3FF4E7AE6B4B6C4C4A
:1037300018682168FDF7FEF96A4A20606A4C199002
:1037400021681068FDF7F6F920601890674C68480A
:1037500021680068FDF7EEF920601290654C66481C
:1037600021680068FDF7E6F920608146634C6448F3
:1037700021680068FDF7DEF920600746614C624869
:1037800021680068FDF7D6F9206080465F4C6048EC
:1037900021680068FDF7CEF9206015905D4C5E4809
:1037A00021680068FDF7C6F9DDE9182320600BF1F8
:1037B000FF34A4B205463480002C7FF49EAE11463F
:1037C0001846FDF773FB554E129930604846FDF7D9
:1037D0006DFBDFF878B14146CBF800003846FDF7C5
:1037E00065FBDFF86C911599C9F800002846FDF7D4
:1037F0005DFB4B4F2146C82238604A4804F0DEFF8B
:10380000494B4A4A1B884A4901934A4B45481B8801
:103810000093494B12881B8805F038FC4FF47A73EB
:10382000C82240492C4804F081FBC82221463D486B
:1038300004F0C4FF3068FCF7F7FD044638680D4615
:10384000FCF7F2FDCDE90401D9F80000FCF7ECFD2E
:10385000CDE90201DBF80000FCF7E6FD2246CDE9E8
:1038600000012B4635492F4805F010FC4FF47A73C0
:10387000C8222C49184804F059FB3068FDF728FC91
:10388000013002281DD8DBF80000FDF721FC0130D3
:10389000022816D8D9F80000FDF71AFC01300228DA
:1038A0000FD83868FDF714FC0130022809D8012030
:1038B000FEF7E2FF0022224B1A800122214B1A70F0
:1038C0001BE64FF47A732A221F49034804F02EFBAB
:1038D000F0E700BF93B60008641A0020E40B002054
:1038E00048060020D00D0020E00B0020A405002099
:1038F0009C130020C8050020B0060020F010002016
:103900003C0A002074150020081100201406002035
:10391000600F0020100A00204008002090050020C1
:103920004C06002084040020D8090020A0050020B7
:10393000B2B60008740D0020A8050020F2B60008F9
:10394000F61000208415002021B70008140A00207A
:10395000AC050020FDF720FE944C954D2060FDF74E
:1039600065FE9449FDF7EEF92860FDF77BFFDFF86F
:10397000D4922668C9F800008F493046FDF780FBD5
:10398000002878D030468D49FDF798FB002872D08A
:1039900033468B4A8B498C48FFF79EF82B688B4A3D
:1039A00088498948FFF798F8D9F80030884A85494E
:1039B0008548FFF791F8874B0022D3E90067864BD3
:1039C000304693F8008039460023FCF7EDFF0028CD
:1039D00040F08580B8F1000F49D1DFF818B23046C9
:1039E000DBE900233946CDE9122300227B4BFCF7AB
:1039F000E5FF002847D1D9F80000FCF715FDCDE917
:103A000010012868FCF710FDCDE90E012068FCF7D5
:103A10000BFDCDE90C01724B7249D3E90023CDE9CE
:103A20000A23714B7148D3E90023CDE90823704B79
:103A3000D3E90023CDE906236E4BD3E90023CDE97A
:103A40000423644BD3E90023CDE902236A4BD3E975
:103A50000023CDE90023694BD3E9002305F016FBD1
:103A60004FF47A73C8226149654804F05FFA002375
:103A7000594A137041E5634802F0E6FBFEF7DEFEAB
:103A8000FDF758FF97E70022DDE91201534BFCF7E1
:103A900095FF0028AFD039463046FCF7F5FF5A4A6B
:103AA000034648494848FFF717F84D4BD3E9000152
:103AB000FCF7EAFF43490346544A4348FFF70CF832
:103AC000DBE90001FCF7E0FF514A03463D493E486F
:103AD000FFF702F8404B1B78002BC8D18BE7B8F1F9
:103AE000000FC4D1434E0022D6E900013B4BFCF746
:103AF00065FF00283FF47FAF32490023424A324835
:103B0000FEF7EAFFD6E90001DCE7742B24D1414837
:103B100003F0FAFB0021404804F0D8F804213E48A5
:103B200004F0D4F84FF47A7310223C49344804F07E
:103B3000FDF901233A4A3B49138000220A803A49A1
:103B40000B703A490B703A490B703A490B703A497D
:103B50000B703A4B1A8043E5722B7FF444AD2D482D
:103B600003F0D2FB00212C4804F0B0F804212A48CD
:103B700004F0ACF84FF47A7321223149204804F064
:103B8000D5F90020284B294A187001231370284AC0
:103B90001370284A1370284A1370214B1880214B48
:103BA0001880264B1880FEF767FE19E56006002096
:103BB000DC090020E8C7F53B00007042000020C28D
:103BC0004BB7000898120020320000205DB70008B3
:103BD0006CB70008200A002084150020000039403E
:103BE000280600207BB70008D00B002084040020AA
:103BF00000110020B805002098050020300A0020A0
:103C0000641A0020041A0020E1B70008EDB700088C
:103C1000FAB70008CC0500202C1500201FB80008BA
:103C2000F4100020F6100020380A00205006002072
:103C300078150020E009002038060020200600202A
:103C40002FB80008180A002038B5424D2A88002AEB
:103C50004DD00368B3F1804F49D1037F591E01292C
:103C600045D8092A03D93C4A9268D2073FD5012B8F
:103C70000CBF00210421394803F061FB384C29882E
:103C800023880139184489B22080298000292ED147
:103C9000324804F01BF80421304804F017F80A22D7
:103CA0002388B3FBF2F340F2DC52A3F561639BB2CD
:103CB000934288BF22802B4A98BF2380D36823F485
:103CC000406323F00603D360274B1B88013B072B7F
:103CD0000DD8DFE803F0040D141B22293037234BE5
:103CE00020881D88FCF7D6FF214B43F8250038BDFE
:103CF0001E4B20881D88FCF7CDFF1E4BF5E71B4BA4
:103D000020881D88FCF7C6FF1B4BEEE7174B208869
:103D10001D88FCF7BFFF194BE7E7144B20881D886F
:103D2000FCF7B8FF164BE0E7104B20881D88FCF726
:103D3000B1FF144BD9E70D4B20881D88FCF7AAFF73
:103D4000114BD2E7094B20881D88FCF7A3FF0F4BCE
:103D5000CBE700BF280A0020000801402C150020F6
:103D60000C0A0020000C0140C00D0020200600209D
:103D70003C0A002008110020E40B0020D00D002098
:103D8000600F0020400800209C130020B006002097
:103D90000828F8B504462DD8470107F1080607F5AD
:103DA00084771021384601F0FBF9384601F0CAF952
:103DB00005460028F9D11F2106F5007001F0F0F941
:103DC0000123A340DB430D491BB20A8806F5407668
:103DD0001A400A800A4A11880B401380094B23F8C5
:103DE0001450094B1D55304601F0ACF90028FAD1AA
:103DF0000120F8BD4FF0FF30FBE700BF5805002061
:103E00005A050020640500205C05002008282DE9E3
:103E1000F3410446884617461D467CD8012905D043
:103E20008B1E022B10D96FF004000AE004224FF41D
:103E300070600DEB020101F0E5F9019B23B96FF011
:103E4000020002B0BDE8F081680757D42DB1B8F187
:103E5000010F50D0B8F1020F53D020466601FFF792
:103E600097FF083625F00F01304641EA080101F0BE
:103E700097F96FB94FF6F071284A17887B1C9BB2EF
:103E80008B4205BF4FF440434FF6EF77138013800A
:103E9000390A06F5806001F083F9F9B206F5A060F1
:103EA00006F5807701F07CF90121384601F078F9B8
:103EB000384601F047F90028FAD10123A340DB433B
:103EC00017491BB20A8805F001051A40A5401543A1
:103ED000144A0D80118806F540760B401380124B72
:103EE00023F81400114B1855304601F02BF9002827
:103EF000FAD060B2A5E715F0210FAED16FF0050042
:103F00009FE7A9066BB201D5002BF7DAEA06A4D524
:103F1000002BA2DBF2E74FF0FF3092E736010020E2
:103F2000580500205A050020640500205C0500208B
:103F300008282DE9F04106460D4617465DD8440194
:103F40000834204601F0FEF800F00F00012857D198
:103F500004F54078404601F0F5F8132853D12B784A
:103F60006A7802EB0322AB7803EB0222EB78013B89
:103F700003EB0223033349D8002F4AD004222946F9
:103F800004F5406001F078F9390A04F5805001F039
:103F900007F904F58075F9B204F5885001F000F9CD
:103FA0000421284601F0FCF8284601F0CBF800284F
:103FB000FAD1194B1B8843FA06F6F20713D404F51D
:103FC0000074404601F0BEF8172801D101200AE034
:103FD000204601F0B7F8030707D52046082101F075
:103FE000DFF86FF00C00BDE8F081404601F0AAF860
:103FF0000028E6D16FF00300F5E74FF0FF30F2E75D
:104000006FF00400EFE76FF00200ECE76FF00B00D9
:10401000E9E76FF00A00E6E75805002008282DE9D7
:10402000F84F06468846144674D845010835284698
:1040300001F088F800F00F0001286ED1002C6FD03D
:1040400005F54079484601F07DF8172801D01C2875
:1040500032D1354F3B883341D90711D505F5007A68
:10406000504601F06FF8C20629D51021504601F0E4
:1040700097F8012303FA06F23B8823EA02033B8008
:1040800005F5F85001F05EF8830298B24FF0010A8E
:10409000844228BF04460AFA06FA304601F026F99F
:1040A0008346484601F04EF81728204B12D01C28B2
:1040B00010D03046FFF76CFE6FF0060002E00307F9
:1040C00002D40020BDE8F88F3046FFF761FE6FF0A4
:1040D0000C00F7E71A8812EA0A0F18D05C45F0D8EE
:1040E00041463046224605F5807501F041F9202110
:1040F000284601F055F8284601F024F80028FAD1A6
:104100003B8820464AEA030AA7F800A0DAE75C45A4
:10411000C3D8E5E74FF0FF30D4E76FF00400D1E7F4
:104120006FF00D00CEE700BF5A05002058050020B3
:104130002DE9F84F08280646884614461F46BDF864
:1041400028A000F2978045010835284600F0FAFFC4
:1041500000F00F000238022800F28F80002C00F0DF
:104160008F803B787A7802EB0322BB7803EB022244
:10417000FB7803EB0223002B3CD0BAF1000F41D0B7
:1041800005F54079484600F0DDFF422842D104227F
:10419000394605F5406001F06FF84FEA1A2105F540
:1041A000805000F0FDFF5FFA8AF105F5885000F0BD
:1041B000F7FF05F5F85000F0C5FF800280B24FF020
:1041C000010A844228BF0446DFF8C0B00AFA06FAA2
:1041D000304601F08BF80746484600F0B3FF002850
:1041E00051D0BBF8003013EA0A0F1AD0BC421AD9DA
:1041F000002034E0284600F0A5FF4007BDD46FF052
:104200000B002CE0284600F09DFF4107B8D46FF06A
:104210000A0024E000F0EF002228B8D06FF006007A
:104220001DE0BC42D4D830464146224605F5807692
:1042300001F09EF82021304600F0B2FF304600F039
:1042400081FF0028FAD105F50075284600F07AFFB5
:10425000C20606D52846102100F0A2FF2046BDE880
:10426000F88F0307F1D52846082100F099FF6FF079
:104270000C00F4E74FF0FF30F1E76FF00400EEE7D9
:104280006FF00D00EBE76FF00300E8E75805002042
:104290002DE9F04F082804468A469146984685B095
:1042A00000F2E88047010837384600F04BFF00F085
:1042B0000F02023A022A834600F2DF80B9F1000FB2
:1042C00000F0DE80714E36F81420002A7AD10121E8
:1042D00007F54073A14000932046019101F027F8B3
:1042E0000546009800F02EFF002800F0CC80684BB7
:1042F00001991A880A4202D01DB9284689E0002D8A
:10430000EAD00BF00700032807F5807700F08480DF
:10431000042859D0022840F0A68036F814308BBB10
:10432000082220460DEB020101F04FF840213846EB
:1043300000F036FF384600F005FF0028FAD19DF85E
:1043400008309DF80C2088F800309DF8093088F876
:1043500001309DF80A3088F802309DF80B3088F85B
:1043600003309DF80D3003EB02230E9A13809DF865
:104370000E209DF80F3003EB022326F81430802224
:10438000444B1A5536F8145051464D4528BF4D46FA
:1043900020462A4601F019F84021384600F000FF77
:1043A000384600F0CFFE0028FAD136F81430394AEA
:1043B0005B1B9BB226F8143013B1105D40F0010076
:1043C00010559AE700259CE736F81430002BD9D118
:1043D000204602A9022200F0F8FF4021384600F0F2
:1043E000DFFE384600F0AEFE0028FAD19DF8093015
:1043F0009DF80820023B03EB022340F2EA529BB2F5
:10440000934226F81430BAD92046FFF7C1FC6FF466
:104410007A7005B0BDE8F08F36F81430002BB1D1BA
:10442000204602A9062200F0D0FF4021384600F0C5
:10443000B7FE384600F086FE0028FAD19DF8083015
:104440009DF80C2088F800309DF8093088F801307C
:104450009DF80A3088F802309DF80B3088F8033058
:104460009DF80D3087E72946204600F0DBFF26F84F
:10447000145091E74FF0FF30CBE76FF00400C8E72E
:104480006FF00D00C5E76FF00300C2E76405002080
:10449000580500205C0500200E4B82B09A6942F05E
:1044A00001029A619A6902F001020092009ADA69A7
:1044B00042F08052DA61DB69074A03F080530193CE
:1044C000019B536823F0E06343F08063536002B0C4
:1044D000704700BF001002400000014010B50446C4
:1044E00086B01022002102A804F068F92268154B5A
:1044F0009A4224D1144C4FF44072A369134843F0FC
:104500000803A361A36902A903F008030093009BB9
:104510001223CDE902230323059301F0C3FA0C4AC9
:10452000536843F0E06343F002035360E36943F4EC
:104530000013E361E36903F400130193019B06B0E8
:1045400010BD00BF0054004000100240000C0140AC
:104550000000014008B502680A4B9A4210D10A4A8D
:104560004FF48071D369094823F40013D36101F03B
:1045700075FBBDE808404FF40071044801F06EBBC4
:1045800008BD00BF0054004000100240000C014074
:1045900010B5044686B01022002102A804F00EF9DE
:1045A0002268174B9A4228D103F5EC33DA69154893
:1045B00042F48042DA61DA6902A902F48042009290
:1045C000009A9A6942F008029A619B694FF420426E
:1045D00003F008030193019B0223CDE90223032387
:1045E000059301F05FFA4FF4804100230548CDE9BF
:1045F000021302A9049301F055FA06B010BD00BFE2
:1046000000380040000C014010B504468AB010226A
:10461000002106A804F0D2F82368304A93420BD157
:104620002F4B9A6942F400629A619B6903F400631C
:104630000193019B0AB010BDB3F1804F25D103F562
:104640000433DA69002442F00102DA61DA692548AC
:1046500002F001020292029A9A6906A942F004024B
:104660009A619B69089403F004030393039B01235D
:10467000CDE9063401F016FA1C202246214601F04D
:1046800079F81C2001F0A8F8D4E7174A934210D11A
:10469000134B1D20DA6942F00202DA610022DB6965
:1046A000114603F002030493049B01F063F81D20FC
:1046B000E8E70E4A9342BDD1094B1E20DA6942F069
:1046C0000402DA610022DB69114603F0040305935A
:1046D000059B01F04FF81E20D4E700BF002C0140DD
:1046E00000100240000801400004004000080040A3
:1046F00010B5044686B01022002102A804F05EF82E
:1047000022680D4B9A4215D103F564439A690B4810
:1047100042F004029A619B694FF4706203F0040353
:104720000193019B0223CDE90223032302A90593F0
:1047300001F0B8F906B010BD002C0140000801409E
:1047400010B5044686B01022002102A804F036F805
:104750002268194B9A422DD103F558439A6917489C
:1047600042F480429A619A6902A902F4804200925E
:10477000009A9A6942F008029A619B69402203F00C
:1047800008030193019B0223CDE902230323059330
:1047900001F088F9002380210848CDE9021302A91D
:1047A000049301F07FF9064A536843F0E06343F055
:1047B0000403536006B010BD00380140000C0140F6
:1047C00000000140FEE7FEE7FEE7FEE7FEE7704778
:1047D0007047704710B5084C238801339BB2B3F57E
:1047E0007A7F238003D3FDF775FC00232380BDE887
:1047F000104000F089BF00BF74050020014802F09E
:10480000B8BD00BF2C1500200A22024B02481A80B6
:1048100002F0AFBD280A002068060020000000005A
:104820002DE9F04F00249C4A9C4BA9B01C80D36812
:10483000214623F4406323F00603D360984803F035
:1048400045FA0421964803F041FA964B21469648D2
:104850001C8003F091F90421934803F08DF908219D
:10486000914803F089F90C218F4803F085F98F4BAB
:104870008F4D5A6822F46E4222F0EE0242F42A4230
:1048800042F0AA025A608B4A1188072981BF298801
:104890001480013129802E888749642E0C8840F0CD
:1048A0003C83002C40F04983844A8548136843F0D8
:1048B0000103136002F028FD002200238149CDE9A5
:1048C0001023C1E900238049CDE91223C1E9002367
:1048D0007E49CDE91423C1E900237D49CDE91623A2
:1048E000C1E900237B49CDE91823C1E900237A49B6
:1048F000CDE91A23C1E900237849CDE91C23C1E998
:1049000000237749CDE91E2306917649CDE920237E
:104910000D917549CDE922230C917449CDE92423E9
:104920000B917349CDE926230A917249CDE90E23F3
:10493000099171490594089170490791069B059C5E
:1049400053F8046B069328AB03EBC4056C4B196852
:104950000D9B53F8040B0D93FCF7F4F90146304618
:10496000FCF7E6F8FBF760FD631CDBB2032B28BF06
:10497000002345E91801DDE91289DDE91467059393
:10498000DDE91023CDE90023DDE9000142464B4675
:10499000FCF714F832463B46002800F04B824046B4
:1049A0004946FCF70BF8002840F05482DDE900018D
:1049B00032463B46FCF720F808B9CDE9006728AB42
:1049C00003EBC4054F4B19680C9B1868FCF7BAF948
:1049D0000B9B01461868FCF7ABF8FBF725FD45E992
:1049E0001201DDE91623DDE91889CDE90223DDE9AD
:1049F000020142464B46FBF7E1FFDDE91A6732460A
:104A00003B46002800F0298240464946FBF7D6FF86
:104A1000002840F03282DDE9020132463B46FBF7D6
:104A2000EBFF08B9CDE90267DDE90023284D4FEA25
:104A3000C408D5E90001FBF799FBDDE90223C5E9CC
:104A40000001244DD5E90001FBF790FB28AB03EBF7
:104A5000C4042D4BC5E900011968099B1868FCF7CF
:104A600071F90A9B01461868FCF762F8FBF7DCFC59
:104A700044E90C01DDE91CABDDE91E675046324616
:104A80003B465946FBF79AFFDDE9204522462B4677
:104A9000002800F0F58139E0000C01400C0A0020EC
:104AA0002C150020280A0020780D00200008014065
:104AB00020060020C00D0020F410002010E000E0CF
:104AC000CC0500201806002030060020C80D00206C
:104AD00040060020D80B0020D0090020C00500208F
:104AE000340C0020200E0020EC13002000070020D2
:104AF0008C0A002058110020B00F002090080020E0
:104B000090050020140A0020AC05002030463946EC
:104B1000FBF754FF002840F0C38122462B46504645
:104B20005946FBF769FF08B9A246AB4628AB984443
:104B3000A94B1968089B1868FCF704F9079B014604
:104B40001868FBF7F5FFFBF76FFC48E90601DDE9A4
:104B50002245DDE92489204642464B462946FBF79B
:104B60002DFFDDE9266732463B46002800F09B8199
:104B700040464946FBF722FF002840F0A481324618
:104B80003B4620462946FBF737FF08B934463D46E9
:104B9000924E5246D6E900015B46FBF7E7FAC6E9BA
:104BA00000018F4E2246D6E900012B46FBF7DEFAC4
:104BB000DDE90223C6E90001DDE90001FBF7D6FAD1
:104BC0000022884BFBF788FC06460F46DFF8588228
:104BD00022462B465046C8E900675946FBF7C6FAFD
:104BE0000022804BFBF778FC02460B467E4CC4E962
:104BF0000023FBF771FC324604460D463B46304627
:104C00003946FBF769FC02460B4620462946FBF76E
:104C1000ADFA03F06DFA04460D46744B744EC3E9C9
:104C20000045D6E90023FBF7E7FEB24608B1C6E926
:104C30000045D8E90001FBF7FFFE0028B8BF40425D
:104C4000FBF7E0FB6B4E0446D6E900230D46FBF76D
:104C5000D3FE08B1C6E90045634B674ED3E90001B6
:104C6000FBF7EAFE0028B8BF4042FBF7CBFBD6E9D2
:104C7000002304460D46FBF7BFFE08B1C6E9004518
:104C80000022069B43F8042C0D9B43F8042C0C9B3C
:104C900043F8042B0C930B9B43F8042B0B930A9BB8
:104CA00043F8042B0A93099B43F8042B0993089BB0
:104CB00043F8042B0893079B43F8042B0793069AA9
:104CC0004E4B93427FF43AAE4D4B4E49D3E900230D
:104CD000D1E90001FBF74AFA00224B4BFBF726FD16
:104CE0003BA3D3E90023FBF721FD06460F46DFF87F
:104CF0003C813B4B3949D3E90023C8E90067D1E93E
:104D00000001FBF733FA00223F4BFBF70FFD30A306
:104D1000D3E90023FBF70AFD2DA3D3E900230446C2
:104D20000D46DAE90001DFF80891C9E90045FBF713
:104D3000FDFC364BC3E9000125A3D3E900232D492F
:104D4000D1E90001FBF7F2FC314BC3E9000120A3DC
:104D5000D3E900232849D1E90001FBF7E7FC2D4BFB
:104D60003246C3E900013B4630463946FBF7B4FB07
:104D7000224606462B460F4620462946FBF7ACFB4B
:104D800002460B4630463946FBF7F0F903F0B0F91E
:104D900004460D46154B0022C3E900450023FBF7EE
:104DA00003FE1D4E002800F09180DDE90E34C6E9B7
:104DB00000340022194B1A800122194B1A7019482D
:104DC00029B0BDE8F04F02F0D4BA00BFAFF30080C5
:104DD000000000E0511845404C060020D00900209A
:104DE000C00500200000E03F58060020200A0020F7
:104DF0001806002030060020C80D0020740D002089
:104E0000D80B00204006002000006440B8050020B8
:104E100000110020D00B00202806002020060020D2
:104E200094050020CC05002088150020300A0020C1
:104E300098050020DDE90001FBF7C0FD00287FF4A4
:104E4000BEAD32463B4640464946FBF7D5FD0028FD
:104E50003FF4B3ADCDE90089B1E5DDE90201FBF72F
:104E6000ADFD00287FF4E0AD32463B464046494662
:104E7000FBF7C2FD00283FF4D5ADCDE90289D3E5AB
:104E800050465946FBF79AFD00287FF44FAE224664
:104E90002B4630463946FBF7AFFD00283FF444AEC1
:104EA000B246BB4642E620462946FBF787FD00286E
:104EB0007FF46EAE32463B4640464946FBF79CFDCA
:104EC00000283FF463AE44464D4661E62246D9E9E8
:104ED00000012B46FBF72AFC03F0DCF80022604BB4
:104EE000FBF7FAFA5CA3D3E90023FBF71FFC0446A7
:104EF0000D46D8E9000100220023C6E90045FBF772
:104F00005DFD00283FF455AF22462B460020554951
:104F1000FBF72AF9C6E900014BE774B1012E0CD169
:104F2000514802F0F1F90023504A2B80136843F0F6
:104F3000010313604E4B1E7041E71188481C10801E
:104F4000072925D8DFE801F004112D384954657090
:104F50004849CA6842F00402CA605A6822F0F00266
:104F600042F0400200215A600FE0434A1188434A50
:104F7000D1624049CA6842F00202CA605A6822F00F
:104F80000F0242F0040204215A603D4802F0A6FDDF
:104F900000213C4802F02CFE04213A4802F028FE91
:104FA0000DE73449CA6842F48062CA605A6822F444
:104FB000706242F48062E6E7334A11882F4AD16278
:104FC0002C49CA6842F00402CA605A6822F0F00212
:104FD00042F0400208215A60D7E72649CA6842F4E5
:104FE0000062CA605A6822F4704242F48042F1E7DB
:104FF000264A1188214AD1621E49CA6842F4806259
:10500000CA605A6822F4706242F480620C215A60CD
:10501000BBE71849CA6842F00202CA605A6822F027
:105020000F0242F00402F1E74FF480521A614FF090
:1050300080521A61164A1188104AD1620D49CA6815
:1050400042F40062CA605A6822F4704242F480421C
:1050500088E700BFAFF300804AD8124DFB2109401A
:105060000080664000807640CC05002010E000E023
:1050700094050020000C0140D809002000040040E5
:10508000780D00202C150020A8050020740D0020AC
:10509000A00500200120704708B503F057FB162338
:1050A00003604FF0FF3008BD08B503F04FFB162337
:1050B0000360FEE770B50E4614460025A54201DBED
:1050C000204670BDAFF3008070550135F6E770B52E
:1050D0000E4614460025A54201DB204670BD705DDA
:1050E000AFF300800135F6E74FF0FF3070474FF423
:1050F000005300204B60704701207047002070472C
:105100000B4B0246196810B509B90A4919601868AD
:1051100009490A4C0244091B8A4206D903F016FBCE
:105120000C2303604FF0FF3010BD1A60FCE700BF96
:1051300078050020E01A0020005000200004000044
:105140007047000073B50546144CC5F30726E368A5
:10515000984763699847636AC5F30740EDB20BB19E
:10516000A36A8BB9236A98473046236A9847284632
:10517000236A9847E36998470546A36998472369D6
:105180009847284602B070BD8DF8040003218DF8C1
:1051900005608DF8065001A89847EBE73C01002018
:1051A000F7B50546164C0F46E3689847636998477C
:1051B000A36A45F00406C5F30740F6B2C5F3072518
:1051C00083B9236A98472846236A98473046236A5A
:1051D00098473846236A9847A369984723699847B0
:1051E00003B0F0BD04218DF804008DF805508DF852
:1051F00006608DF807700DEB01009847ECE700BFE3
:105200003C0100202DE9F34105461A4C0E46E368A7
:105210001746984763699847636AC5F30740C5F323
:105220000728EDB20BB1A36AB3B9236A9847404689
:10523000236A98472846236A98473744B74206D1DD
:10524000A36998472369984702B0BDE8F081E369F4
:10525000984706F8010BF1E78DF80400032101A837
:105260008DF805808DF80650984739463046636AB8
:105270009847E5E73C0100202DE9F34105461A4C2B
:105280008846E3681746984763699847A36A45F0DC
:105290000406C5F30740F6B2C5F30725B3B9236A80
:1052A00098472846236A98473046236A98474744D8
:1052B000474506D1A36998472369984702B0BDE8DE
:1052C000F081236A18F8010B9847F1E78DF8040084
:1052D000032101A88DF805508DF8066098473946DE
:1052E0004046A36A9847E5E73C010020F8B5002452
:1052F0004601083606F5005706F504563846FFF70E
:1053000021FF05023046FFF71DFFADB20544ADB2E7
:105310004DB13846FFF716FF04023046FFF712FF83
:10532000A4B20444A4B2AC42E8D12046F8BDF8B51A
:1053300000244601083606F5185706F51C5638466F
:10534000FFF700FF05023046FFF7FCFEADB2054453
:10535000ADB24DB13846FFF7F5FE04023046FFF717
:10536000F1FEA4B20444A4B2AC42E8D12046F8BD98
:105370002DE9F843894614462AB385006F1CFF00C7
:1053800007F510584046FFF7DDFE07F514570646AF
:105390003846FFF7D7FE00EB062086B20235300212
:1053A0002246494600EBC500FFF766FFA1194046BB
:1053B0008CB2C1F30721FFF7F3FE3846E1B2BDE836
:1053C000F843FFF7EDBEBDE8F8832DE9F8438946C1
:1053D00014462AB385006F1CFF0007F5205840468D
:1053E000FFF7B0FE07F5245706463846FFF7AAFE3A
:1053F00000EB062086B2033530022246494600EB18
:10540000C500FFF7FFFEA11940468CB2C1F307218A
:10541000FFF7C6FE3846E1B2BDE8F843FFF7C0BE6D
:10542000BDE8F883F8B54401083404F52057384640
:105430000D46FFF787FE04F5245406462046FFF785
:1054400081FE291801EB062138468DB2C1F30721F0
:10545000FFF7A6FE2046E9B2BDE8F840FFF7A0BE80
:1054600070470078704701707047002070477047A0
:10547000704770477047704770470000054B00B198
:1054800021B9054A5A61054A9A617047C3E9050185
:10549000704700BF3C010020775400087954000891
:1054A000084B10B51C881A46A40500D4FEE700B1CD
:1054B00021B9054BD361054B136210BDC3E9070148
:1054C000FBE700BF3C0100206B5400086F5400084C
:1054D000084B10B51C881A46A40500D4FEE700B19D
:1054E00021B9054B5362054B936210BDC3E9090115
:1054F000FBE700BF3C010020715400087354000812
:105500007FB5062204A94FF41060FFF77BFE04224A
:105510004FF480700DEB0201FFF774FE02A9042224
:105520004FF4A060FFF76EFE042203A94FF47060F1
:10553000FFF768FE80210020FFF732FE0020FFF712
:1055400001FE04A906224FF41060FFF795FE042225
:105550004FF480700DEB0201FFF78EFE02A90422CA
:105560004FF4A060FFF788FE04224FF4706003A997
:10557000FFF782FE07B05DF804FBF8B505460C4660
:10558000FFF7BEFFBDB16E1E32460023073512F88D
:10559000011F0B445BB2102B29DCAA42F7D141F664
:1055A000087542F20807284616F8011F2035FFF754
:1055B000F7FDBD42F7D10CB90020F8BD651E2A46A3
:1055C0000023073412F8011F0B445BB2102B0EDCD2
:1055D0009442F7D141F6086441F60876204615F862
:1055E000011F2034FFF7DCFDB442F7D1E4E74FF0B0
:1055F000FF30E2E710B50446014606224FF4106082
:10560000FFF73AFE04224FF4807004F10E01FFF719
:1056100033FE04224FF4A06004F10A01FFF72CFED0
:1056200004224FF47060A11DFFF726FE064BA27CFA
:105630001A70E27C5A70227D9A70627DDA7094F85A
:105640001921024B1A7010BD7D0500207C05002039
:105650000C480D490D4A002302E0D458C4500433CD
:10566000C4188C42F9D30A4A0A4C002301E01360A3
:105670000432A242FBD3FFF763FD03F06DF8FDF7A0
:105680002FFB704700000020440300206CBC000882
:1056900048030020E01A0020FEE7000038B50E4B5A
:1056A000054618784FF47A73B3FBF0F30B4A106891
:1056B000B0FBF3F000F0B0F8044658B90F2D09D84C
:1056C000024629464FF0FF3000F054F82046044BC4
:1056D0001D6038BD0120FCE7680100203801002072
:1056E0006C010020074A08B51368032043F010033B
:1056F000136000F02DF80020FFF7D0FFFEF7CCFE7E
:10570000002008BD00200240034A044B11681B78AA
:105710000B441360704700BFAC1A002068010020E2
:10572000014B1868704700BFAC1A002038B504461A
:10573000FFF7F6FF0546631C1EBF044B1B78E418F9
:10574000FFF7EEFF431BA342FAD338BD68010020E8
:1057500007490302CA6803F4E06322F4E06212041A
:10576000120C134343F0BF6343F40033CB60704724
:1057700000ED00E0164B30B5DC68C4F30224C4F140
:105780000703251D042B28BF0423062D4FF0FF35EA
:1057900098BF002405FA03F388BF033C21EA030302
:1057A000A34005FA04F422EA0402002843EA0203B3
:1057B000ACBF00F16040074A4FEA0313DBB2ABBF56
:1057C00000F5614000F00F0080F80033135430BD45
:1057D00000ED00E014ED00E0002808DB01234209A1
:1057E00000F01F0003FA00F0014B43F8220070475D
:1057F00000E100E0BFF34F8F0549064BCA6802F491
:10580000E0621343CB60BFF34F8F00BFFDE700BFE3
:1058100000ED00E00400FA050138B0F1807F0AD203
:10582000F021064B064A586082F823100020072218
:1058300098601A6070470120704700BF10E000E0D8
:1058400000ED00E0114AD36813F0100305D01049B1
:10585000CB6943F00203CB611023D268500706D511
:105860000B4943F00403CA6942F00102CA61074AC6
:10587000D169C90708D50648C16941F00401C16171
:10588000D16921F00101D161D3607047002002404D
:10589000B01A0020064B186910F0800007D0054AA6
:1058A0005A6002F188325A601869C0F3C01070471C
:1058B0000020024023016745034A0020136943F09A
:1058C00080031361704700BF00200240F8B5044612
:1058D000FFF726FF114D07462E46EB68D80712D476
:1058E000EB68990644BF2023EB60F368DA0606D420
:1058F000F369DB0703D4F06810F0040007D0FFF76A
:10590000A1FF012003E0631CE7D00CB90320F8BD20
:10591000FFF706FFC01BA042DFD9F7E700200240D7
:105920002DE9F84F254E1F46337E0546012B88464C
:10593000914640D001234CF250303376FFF7C6FF3A
:10594000A8BB012D03D0022D0CBF022504254FF06A
:10595000000A5346DFF868B04FEA0A14C4F1200188
:10596000A4F1200207FA01F129FA04F4F3610C43CF
:1059700027FA02F21443DBF81020A4B242F001022D
:10598000CBF810204CF2503028F81A40FFF79EFF59
:10599000DBF8102022F00102CBF8102038B90AF110
:1059A000010A5FFA8AF295424FF00003D4D800232F
:1059B0003376BDE8F88F0220FBE700BFB01A002065
:1059C000002002400022064BDA61064B1A6942F0C1
:1059D00004021A611A6942F040021A61704700BF5E
:1059E000B01A0020002002400022064BDA61064B6C
:1059F0001A6942F002021A6158611A6942F04002C3
:105A00001A617047B01A0020002002402DE9F041D1
:105A1000224E0546337E8846012B3DD00124347644
:105A200003684CF25030022B13D1FFF74FFF20B127
:105A3000012000233376BDE8F081FFF7C3FF4CF26D
:105A40005030FFF743FF164A136923F00403136134
:105A5000EFE7FFF73BFF0028EAD14FF0FF33C8F82C
:105A600000302046AF680E4CD5E9023203EB8223AA
:105A7000BB42DED93846FFF7B7FF4CF25030FFF794
:105A800025FF236923F00203236110B1C8F80070D9
:105A9000CFE707F58067E7E70220CCE7B01A0020E0
:105AA000002002402DE9F74F00221646644BDFF834
:105AB000A0C1DFF8A0E10D6835FA06F402D103B009
:105AC000BDE8F08F4FF0010808FA06F805EA08046F
:105AD00038EA05057CD14D68032D07D8013D022D1C
