:020000040800F2
:1000000000500020CD5600086D48000875480008D3
:1000100077480008794800087B4800080000000085
:100020000000000000000000000000007D48000803
:100030007F4800080000000081480008854800084B
:1000400015570008155700081557000815570008E0
:1000500015570008155700081557000815570008D0
:1000600015570008155700081557000815570008C0
:1000700015570008155700081557000815570008B0
:1000800015570008155700081557000815570008A0
:100090001557000815570008155700081557000890
:1000A0001557000815570008155700081557000880
:1000B000AD480008B9480008D148000815570008A5
:1000C0001557000815570008155700081557000860
:1000D0001557000815570008155700081557000850
:1000E00015570008155700081557000800000000B4
:1000F0000000000000000000000000000000000000
:0C01000000000000000000005FF808F1A3
:1001100010B5054C237833B9044B13B10448AFF341
:1001200000800123237010BD480300200000000060
:100130009CB5000808B5034B1BB103490348AFF356
:10014000008008BD000000004C0300209CB50008A2
:10015000034613F8012B002AFBD1181A0138704707
:1001600081F0004102E000BF83F0004330B54FEA68
:1001700041044FEA430594EA050F08BF90EA020FD5
:100180001FBF54EA000C55EA020C7FEA645C7FEA68
:10019000655C00F0E2804FEA5454D4EB5555B8BF8B
:1001A0006D420CDD2C4480EA020281EA030382EAFC
:1001B000000083EA010180EA020281EA0303362D8E
:1001C00088BF30BD11F0004F4FEA01314FF4801C61
:1001D0004CEA113102D0404261EB410113F0004F73
:1001E0004FEA03334CEA133302D0524263EB43032A
:1001F00094EA050F00F0A780A4F10104D5F1200EC8
:100200000DDB02FA0EFC22FA05F2801841F1000122
:1002100003FA0EF2801843FA05F359410EE0A5F1F6
:1002200020050EF1200E012A03FA0EFC28BF4CF027
:10023000020C43FA05F3C01851EBE37101F00045DD
:1002400007D54FF0000EDCF1000C7EEB00006EEBEA
:100250000101B1F5801F1BD3B1F5001F0CD3490874
:100260005FEA30004FEA3C0C04F101044FEA4452CB
:1002700012F5800F80F09A80BCF1004F08BF5FEA52
:10028000500C50F1000041EB045141EA050130BD32
:100290005FEA4C0C404141EB0101013C28BFB1F544
:1002A000801FE9D291F0000F04BF01460020B1FA8F
:1002B00081F308BF2033A3F10B03B3F120020CDA62
:1002C0000C3208DD02F1140CC2F10C0201FA0CF040
:1002D00021FA02F10CE002F11402D8BFC2F1200CA5
:1002E00001FA02F120FA0CFCDCBF41EA0C0190405B
:1002F000E41AA2BF01EB0451294330BD6FEA0404A4
:100300001F3C1CDA0C340EDC04F11404C4F120028E
:1003100020FA04F001FA02F340EA030021FA04F3A0
:1003200045EA030130BDC4F10C04C4F1200220FAF7
:1003300002F001FA04F340EA0300294630BD21FA35
:1003400004F0294630BD94F0000F83F4801306BFFB
:1003500081F480110134013D4EE77FEA645C18BFEF
:100360007FEA655C29D094EA050F08BF90EA020F86
:1003700005D054EA000C04BF1946104630BD91EA7E
:10038000030F1EBF0021002030BD5FEA545C05D181
:100390004000494128BF41F0004130BD14F58004C0
:1003A0003CBF01F5801130BD01F0004545F0FE4134
:1003B00041F470014FF0000030BD7FEA645C1ABF69
:1003C000194610467FEA655C1CBF0B46024650EAA0
:1003D000013406BF52EA033591EA030F41F40021CC
:1003E00030BD00BF90F0000F04BF0021704730B552
:1003F0004FF4806404F132044FF000054FF0000127
:1004000050E700BF90F0000F04BF0021704730B5E7
:100410004FF4806404F1320410F0004548BF4042BC
:100420004FF000013EE700BF42004FEAE2014FEA11
:1004300031014FEA02701FBF12F07F4393F07F4FEC
:1004400081F06051704732F07F4208BF704793F0EF
:100450007F4F04BF41F40021704730B54FF4607402
:1004600001F0004521F000411CE700BF50EA010205
:1004700008BF704730B54FF000050AE050EA0102AE
:1004800008BF704730B511F0004502D5404261EB1E
:1004900041014FF4806404F132045FEA915C3FF45F
:1004A000D8AE4FF003025FEADC0C18BF03325FEAFC
:1004B000DC0C18BF033202EBDC02C2F1200300FAAD
:1004C00003FC20FA02F001FA03FE40EA0E0021FAD2
:1004D00002F11444BDE600BF70B54FF0FF0C4CF4C0
:1004E000E06C1CEA11541DBF1CEA135594EA0C0F72
:1004F00095EA0C0F00F0DEF82C4481EA030621EAAD
:100500004C5123EA4C5350EA013518BF52EA0335E7
:1005100041F4801143F4801338D0A0FB02CE4FF099
:100520000005E1FB02E506F00042E0FB03E54FF0C9
:100530000006E1FB03569CF0000F18BF4EF0010EC1
:10054000A4F1FF04B6F5007F64F5407404D25FEABD
:100550004E0E6D4146EB060642EAC62141EA555170
:100560004FEAC52040EA5E504FEACE2EB4F1FD0CB2
:1005700088BFBCF5E06F1ED8BEF1004F08BF5FEA30
:10058000500E50F1000041EB045170BD06F00046E2
:1005900046EA010140EA020081EA0301B4EB5C048F
:1005A000C2BFD4EB0C0541EA045170BD41F4801187
:1005B0004FF0000E013C00F3AB8014F1360FDEBFAC
:1005C000002001F0004170BDC4F10004203C35DA88
:1005D0000C341BDC04F11404C4F1200500FA05F30B
:1005E00020FA04F001FA05F240EA020001F00042AC
:1005F00021F0004110EBD37021FA04F642EB060122
:100600005EEA430E08BF20EAD37070BDC4F10C044B
:10061000C4F1200500FA04F320FA05F001FA04F20F
:1006200040EA020001F0004110EBD37041F10001FB
:100630005EEA430E08BF20EAD37070BDC4F1200506
:1006400000FA05F24EEA020E20FA04F301FA05F26E
:1006500043EA020321FA04F001F0004121FA04F216
:1006600020EA020000EBD3705EEA430E08BF20EAE6
:10067000D37070BD94F0000F0FD101F00046400020
:1006800041EB010111F4801F08BF013CF7D041EAA2
:10069000060195F0000F18BF704703F000465200A6
:1006A00043EB030313F4801F08BF013DF7D043EA77
:1006B0000603704794EA0C0F0CEA135518BF95EA2D
:1006C0000C0F0CD050EA410618BF52EA4306D1D1B4
:1006D00081EA030101F000414FF0000070BD50EAD3
:1006E000410606BF1046194652EA430619D094EA5D
:1006F0000C0F02D150EA013613D195EA0C0F05D147
:1007000052EA03361CBF104619460AD181EA03019A
:1007100001F0004141F0FE4141F470014FF0000052
:1007200070BD41F0FE4141F4780170BD70B54FF0ED
:10073000FF0C4CF4E06C1CEA11541DBF1CEA13556D
:1007400094EA0C0F95EA0C0F00F0A7F8A4EB05044F
:1007500081EA030E52EA03354FEA013100F0888046
:100760004FEA03334FF0805545EA131343EA12630F
:100770004FEA022245EA111545EA10654FEA0026C4
:100780000EF000419D4208BF964244F1FD0404F57D
:10079000407402D25B084FEA3202B61A65EB0305D9
:1007A0005B084FEA32024FF480104FF4002CB6EB96
:1007B000020E75EB030E22BFB61A754640EA0C0016
:1007C0005B084FEA3202B6EB020E75EB030E22BF56
:1007D000B61A754640EA5C005B084FEA3202B6EB97
:1007E000020E75EB030E22BFB61A754640EA9C0056
:1007F0005B084FEA3202B6EB020E75EB030E22BF26
:10080000B61A754640EADC0055EA060E18D04FEAE3
:10081000051545EA16754FEA06164FEAC30343EA83
:1008200052734FEAC2025FEA1C1CC0D111F4801F50
:100830000BD141EA00014FF000004FF0004CB6E749
:1008400011F4801F04BF01430020B4F1FD0C88BFE8
:10085000BCF5E06F3FF6AFAEB5EB030C04BFB6EBF3
:10086000020C5FEA500C50F1000041EB045170BDE6
:100870000EF0004E4EEA113114EB5C04C2BFD4EB13
:100880000C0541EA045170BD41F480114FF0000E97
:10089000013C90E645EA060E8DE60CEA135594EA13
:1008A0000C0F08BF95EA0C0F3FF43BAF94EA0C0F16
:1008B0000AD150EA01347FF434AF95EA0C0F7FF48B
:1008C00025AF104619462CE795EA0C0F06D152EADF
:1008D00003353FF4FDAE1046194622E750EA4106C3
:1008E00018BF52EA43067FF4C5AE50EA41047FF4D4
:1008F0000DAF52EA43057FF4EBAE12E74FF0FF3C39
:1009000006E000BF4FF0010C02E000BF4FF0010C09
:100910004DF804CD4FEA410C7FEA6C5C4FEA430C82
:1009200018BF7FEA6C5C1BD001B050EA410C0CBFD1
:1009300052EA430C91EA030F02BF90EA020F002033
:10094000704710F1000F91EA030F58BF994208BF9A
:1009500090422CBFD8176FEAE37040F00100704757
:100960004FEA410C7FEA6C5C02D150EA013C07D1AE
:100970004FEA430C7FEA6C5CD6D152EA033CD3D0F9
:100980005DF8040B704700BF8446104662468C46F3
:100990001946634600E000BF01B5FFF7B7FF002826
:1009A00048BF10F1000F01BD4DF808EDFFF7F4FF4F
:1009B0000CBF012000205DF808FB00BF4DF808EDDA
:1009C000FFF7EAFF34BF012000205DF808FB00BFFD
:1009D0004DF808EDFFF7E0FF94BF012000205DF81F
:1009E00008FB00BF4DF808EDFFF7CEFF94BF0120D4
:1009F00000205DF808FB00BF4DF808EDFFF7C4FFCD
:100A000034BF012000205DF808FB00BF4FEA410C15
:100A10007FEA6C5C02D150EA013C0AD14FEA430CF8
:100A20007FEA6C5C02D152EA033C02D14FF0000035
:100A300070474FF0010070474FEA410212F5001273
:100A400015D211D56FF47873B3EB625212D94FEA15
:100A5000C12343F0004343EA505311F0004F23FAFF
:100A600002F018BF404270474FF00000704750EA54
:100A7000013005D111F0004008BF6FF00040704711
:100A80004FF00000704700BF4FEA4102B2F1E0436F
:100A900024BFB3F5001CDCF1FE5C0DD901F0004C65
:100AA0004FEAC0024CEA5070B2F1004F40EB8300B5
:100AB00008BF20F00100704711F0804F21D113F1E1
:100AC0003872BCBF01F00040704741F480114FEA1A
:100AD0005252C2F11802C2F1200C10FA0CF320FAA3
:100AE00002F018BF40F001004FEAC1234FEAD323C0
:100AF00003FA0CFC40EA0C0023FA02F34FEA43032A
:100B0000CCE77FEA625307D150EA01331EBF4FF0B2
:100B1000FE4040F44000704701F0004040F0FE40CD
:100B200040F40000704700BF80F0004002E000BFCA
:100B300081F0004142001FBF5FEA410392EA030FC8
:100B40007FEA226C7FEA236C6AD04FEA1262D2EB12
:100B50001363C1BFD218414048404140B8BF5B4217
:100B6000192B88BF704710F0004F40F4000020F0B0
:100B70007F4018BF404211F0004F41F4000121F0C6
:100B80007F4118BF494292EA030F3FD0A2F1010210
:100B900041FA03FC10EB0C00C3F1200301FA03F14E
:100BA00000F0004302D5494260EB4000B0F5000F71
:100BB00013D3B0F1807F06D340084FEA310102F130
:100BC0000102FE2A51D2B1F1004F40EBC25008BFE2
:100BD00020F0010040EA03007047490040EB0000AC
:100BE000013A28BFB0F5000FEDD2B0FA80FCACF1AD
:100BF000080CB2EB0C0200FA0CF0AABF00EBC250DA
:100C000052421843BCBFD0401843704792F0000FC7
:100C100081F4000106BF80F400000132013BB5E71A
:100C20004FEA41037FEA226C18BF7FEA236C21D090
:100C300092EA030F04D092F0000F08BF08467047F5
:100C400090EA010F1CBF0020704712F07F4F04D1C3
:100C5000400028BF40F00040704712F100723CBFD6
:100C600000F50000704700F0004343F0FE4040F400
:100C7000000070477FEA226216BF08467FEA2363BE
:100C80000146420206BF5FEA412390EA010F40F4A9
:100C9000800070474FF0000304E000BF10F00043F5
:100CA00048BF40425FEA000C08BF704743F09643DC
:100CB00001464FF000001CE050EA010208BF7047F7
:100CC0004FF000030AE000BF50EA010208BF70477E
:100CD00011F0004302D5404261EB41015FEA010C93
:100CE00002BF84460146002043F0B64308BFA3F18B
:100CF0008053A3F50003BCFA8CF2083AA3EBC2536D
:100D000010DB01FA02FC634400FA02FCC2F120028B
:100D1000BCF1004F20FA02F243EB020008BF20F0C2
:100D20000100704702F1200201FA02FCC2F1200228
:100D300050EA4C0021FA02F243EB020008BF20EA1D
:100D4000DC7070474FF0FF0C1CEAD0521EBF1CEA4B
:100D5000D15392EA0C0F93EA0C0F6FD01A4480EA39
:100D6000010C400218BF5FEA41211ED04FF0006322
:100D700043EA501043EA5111A0FB01310CF000404E
:100D8000B1F5000F3EBF490041EAD3715B0040EA74
:100D9000010062F17F02FD2A1DD8B3F1004F40EB44
:100DA000C25008BF20F00100704790F0000F0CF017
:100DB000004C08BF49024CEA502040EA51207F3ADB
:100DC000C2BFD2F1FF0340EAC250704740F40000B6
:100DD0004FF00003013A5DDC12F1190FDCBF00F0A7
:100DE00000407047C2F10002410021FA02F1C2F155
:100DF000200200FA02FC5FEA310040F1000053EAF1
:100E00004C0308BF20EADC70704792F0000F00F03E
:100E1000004C02BF400010F4000F013AF9D040EA44
:100E20000C0093F0000F01F0004C02BF490011F4D8
:100E3000000F013BF9D041EA0C018FE70CEAD153D6
:100E400092EA0C0F18BF93EA0C0F0AD030F0004C56
:100E500018BF31F0004CD8D180EA010000F000400A
:100E6000704790F0000F17BF90F0004F084691F0C8
:100E7000000F91F0004F14D092EA0C0F01D1420202
:100E80000FD193EA0C0F03D14B0218BF084608D1CB
:100E900080EA010000F0004040F0FE4040F4000015
:100EA000704740F0FE4040F4400070474FF0FF0CA8
:100EB0001CEAD0521EBF1CEAD15392EA0C0F93EAEF
:100EC0000C0F69D0A2EB030280EA010C49024FEA41
:100ED000402037D04FF0805343EA111143EA1013FA
:100EE0000CF000408B4238BF5B0042F17D024FF4B2
:100EF000000C8B4224BF5B1A40EA0C00B3EB510F8D
:100F000024BFA3EB510340EA5C00B3EB910F24BF75
:100F1000A3EB910340EA9C00B3EBD10F24BFA3EBFA
:100F2000D10340EADC001B0118BF5FEA1C1CE0D1C2
:100F3000FD2A3FF650AF8B4240EBC25008BF20F075
:100F4000010070470CF0004C4CEA50207F32C2BFC9
:100F5000D2F1FF0340EAC250704740F400004FF066
:100F60000003013A37E792F0000F00F0004C02BF97
:100F7000400010F4000F013AF9D040EA0C0093F061
:100F8000000F01F0004C02BF490011F4000F013BBB
:100F9000F9D041EA0C0195E70CEAD15392EA0C0F23
:100FA00008D142027FF47DAF93EA0C0F7FF470AF5B
:100FB000084676E793EA0C0F04D14B023FF44CAF9E
:100FC00008466EE730F0004C18BF31F0004CCAD133
:100FD00030F000427FF45CAF31F000437FF43CAF6F
:100FE0005FE700BF4FF0FF3C06E000BF4FF0010C91
:100FF00002E000BF4FF0010C4DF804CD4FEA400273
:101000004FEA41037FEA226C18BF7FEA236C11D0BC
:1010100001B052EA530C18BF90EA010F58BFB2EB6F
:10102000030088BFC81738BF6FEAE17018BF40F0EF
:10103000010070477FEA226C02D15FEA402C05D1A3
:101040007FEA236CE4D15FEA412CE1D05DF8040B28
:10105000704700BF844608466146FFE70FB5FFF7BB
:10106000C9FF002848BF10F1000F0FBD4DF808ED73
:10107000FFF7F4FF0CBF012000205DF808FB00BF64
:101080004DF808EDFFF7EAFF34BF012000205DF8BE
:1010900008FB00BF4DF808EDFFF7E0FF94BF01200B
:1010A00000205DF808FB00BF4DF808EDFFF7D2FF08
:1010B00094BF012000205DF808FB00BF4DF808ED4B
:1010C000FFF7C8FF34BF012000205DF808FB00BF18
:1010D0004FEA4002B2F1FE4F0FD34FF09E03B3EB45
:1010E00012620DD94FEA002343F0004310F0004F85
:1010F00023FA02F018BF404270474FF000007047DB
:1011000012F1610F01D1420205D110F0004008BF79
:101110006FF0004070474FF00000704742000ED261
:10112000B2F1FE4F0BD34FF09E03B3EB126209D422
:101130004FEA002343F0004323FA02F070474FF0D8
:101140000000704712F1610F01D1420202D14FF04D
:10115000FF3070474FF00000704700BF7BB972B995
:101160000029BEBF00204FF0004106E008BF002864
:101170001CBF6FF000414FF0FF3000F0A1B9ADF19E
:10118000080C6DE904CE002909DB002B1ADB00F006
:1011900035F8DDF804E0DDE9022304B07047404291
:1011A00061EB4101002B1BDB00F028F8DDF804E0C7
:1011B000DDE9022304B0404261EB4101524263EB9E
:1011C00043037047524263EB430300F017F8DDF826
:1011D00004E0DDE9022304B0404261EB41017047C5
:1011E000524263EB430300F009F8DDF804E0DDE967
:1011F000022304B0524263EB430370472DE9F047EA
:10120000089E0D4604468E46002B40F083808A429D
:10121000174647D9B2FA82F34BB1C3F1200105FA60
:1012200003FE20FA01F19F4041EA0E0E9C404FEA76
:101230001748BEFBF8FC1FFA87F908FB1CE20CFB01
:1012400009F0210C41EA024290420AD9BA180CF185
:10125000FF3180F01881904240F21581ACF1020C10
:101260003A44121AB2FBF8F008FB102200FB09F115
:10127000A4B244EA0244A14209D93C1900F1FF3268
:1012800080F00381A14240F2008102383C44641A9C
:10129000002140EA0C401EB10022DC40C6E90042B9
:1012A000BDE8F08702B9FFDEB2FA82F3002B4FD11E
:1012B0008D1A01214FEA124E1FFA82F8B5FBFEFC8F
:1012C0000EFB1C5508FB0CF0220C42EA0545A84217
:1012D00007D97D190CF1FF3202D2A84200F2E98051
:1012E00094462D1AB5FBFEF00EFB105508FB00F8D6
:1012F000A4B244EA0544A04507D93C1900F1FF32E5
:1013000002D2A04500F2D9801046A4EB080440EABE
:101310000C40C0E78B4208D9002E00F0B1800021BC
:10132000C6E900050846BDE8F087B3FA83F1002955
:101330004BD1AB4202D3824200F2B980841A65EBF2
:10134000030301209E46002EAAD0C6E9004EA7E75F
:101350009F40C3F12002D1404FEA174EB1FBFEF08F
:101360001FFA87F80EFB101124FA02F29D4000FBD1
:1013700008FC2A43150C45EA0145AC4504FA03F480
:1013800009D97D1900F1FF3180F08F80AC4540F222
:101390008C8002383D44A5EB0C05B5FBFEF10EFB3D
:1013A000115C01FB08F995B245EA0C45A94507D93E
:1013B0007D1901F1FF3274D2A94572D902393D4439
:1013C000A5EB090541EA004178E7C1F120078B4010
:1013D00022FA07FC4CEA030C25FA07F44FEA1C4EEC
:1013E000B4FBFEF91FFA8CF80EFB194420FA07F340
:1013F00009FB08FA8D401D432B0C43EA0444A24527
:1014000002FA01F200FA01F309D91CEB040409F114
:10141000FF3048D2A24546D9A9F102096444A4EBA1
:101420000A04B4FBFEF00EFB104400FB08FAADB258
:1014300045EA0444A24508D91CEB040400F1FF3539
:101440002DD2A2452BD90238644440EA0940A0FBC2
:101450000289A4EB0A044C45C6464D4619D316D062
:101460005EB1B3EB0E0264EB050404FA07F722FA4F
:1014700001F31F43CC40C6E900740021BDE8F087AA
:10148000314630460CE78C46EBE61046FFE6434516
:10149000E6D2B8EB020E69EB0C050138E0E728460E
:1014A000D3E711468CE78146B9E7084673E708465B
:1014B00049E7ACF1020C3D4413E702383C4424E711
:1014C000704700BF7FB501238DF817104FF48031AE
:1014D000CDE901310DF11701024600910348EC21DD
:1014E00004F00AFF07B05DF804FB00BFB41200204F
:1014F0007FB500234FF480318DF817300123CDE9FB
:1015000001310DF11701024600910448EC2104F06D
:1015100083FF9DF8170007B05DF804FBB4120020AC
:101520001FB5024602234FF480300091CDE901300F
:10153000EC210123024804F06FFF05B05DF804FBC5
:10154000B41200201FB5024602234FF480300091F0
:10155000CDE90130EC210123024804F05DFF05B024
:101560005DF804FBB41200207FB502234FF48031F4
:10157000CDE9013105AB02460093EC210123064879
:1015800004F04AFF9DF814009DF8153043EA00204E
:1015900007B05DF804FB00BFB41200207FB5032341
:1015A0004FF48031CDE9013105AB02460093EC21C7
:1015B0000123084804F030FF9DF815309DF8140011
:1015C0001B0243EA00439DF81600184307B05DF87C
:1015D00004FB00BFB4120020FA2010B5FFF7DEFFB5
:1015E000B0F5000F37D0001104461C4900280A88C6
:1015F000B8BFC41D0028B8BF0F30C2EB2010404355
:101600004FEA4203C3EBE404B1F90230B1F904201C
:1016100048BF00F6FF70634300135043002BB8BF70
:1016200003F2FF730028B8BF00F57F500C4AB8BF23
:101630003F30DB1203EBA033136003EB830313F1A2
:10164000800048BF03F27F100012FFF727FB054917
:10165000FFF72CFC10BD0448FCE700BF0C0600207F
:10166000E40D00200000C8420000C07F2DE9F74FC4
:10167000FFF7B2FFF720FFF791FF864B864E1A68FF
:101680008646B2F5FA374FEAE273A7FB071243F139
:10169000FF3C07FB0CF3CDE90012019A02EB430378
:1016A000B6F90820019302FB0CF1D31707FB0311D5
:1016B000A2FB07230B441903019841EA12514FEA98
:1016C0000239B6F90A2002FB00FA0098D31700FB92
:1016D00003AAA2FB00235344002A73F1000802DA94
:1016E000FF3243F100034FEA122A4AEA036AF28802
:1016F0004FEA232B1AEB09004BEB010B0030A0FB48
:1017000002014BF5004B02FB0B11002871F10003A5
:1017100003DA10F1FF3041F101014A10CB1752EA10
:10172000030100F0B480B6F910A0019900980AFBFB
:1017300001F900994FEAEA7B01FB0B91AAFB0089B2
:10174000B6F90E00894400FB0CFCC11707FB01CC65
:10175000A0FB070161444FEA414C4CEAD03C4704EE
:10176000002017EB08074CEB090CC01940F6354771
:101770004FEA2E1ECEF5801E4FEAEE79B6F90C80A8
:101780004FEAC97A4FEACE714AEA5E0A4FEAC80EBA
:101790004EEB0C0C081AA0FB07016AEB0C0A07FBC6
:1017A0000A11FFF7DBFC002871F100028046894630
:1017B0000B4606DA41F6FF70002318EB000041EB00
:1017C0000303B6F916205913400B40EAC34002FB4D
:1017D00001F7A2FB00ABD31700FB03770AFB01F173
:1017E000BB4400FB0B13AAFB000119440B46002865
:1017F00073F10001024606DA6FF07E4142184FF0A5
:10180000000141EB0303B6F914A0510E0AFB09F7DE
:1018100041EAC31111EB08014FEA63604FEAEA7B2A
:1018200008FB0B7340EB0900AAFB08899944B8F147
:10183000000F79F1000306DA184B18EB03084FF09C
:10184000000349EB03094FEAD84343EA4933CC1874
:101850004FEAE94240EB0205002C75F1000302DA81
:10186000FF3445F100051022230A43EA0560B6F96A
:1018700012302912C3FB0201FEF700FE0022084BC2
:10188000FEF72AFEFFF700F903B0BDE8F08F002055
:10189000FAE700BFE40D00200C060020FFFF070060
:1018A0000000703F10B5FFF797FEFD20FFF75CFECC
:1018B000B0F5004F56D02C4A2C4BB2F91E101B68C5
:1018C0000905C1EB8031B2F92000A3F5963303FB83
:1018D0001010117F10F5804044BF00F5FF407F30AD
:1018E000594392F9224048BF01F2FF7163434FEA26
:1018F000E12148BF03F2FF3301F500419B124B4346
:1019000048BF03F2FF33B2F91A109B1203F500131C
:101910004B4313F5005344BF03F57F533F339B13F1
:10192000C013584303460028BCBF00F5FF437F3374
:10193000DB135B43127E48BF7F33DB11534348BF49
:101940000F33A0EB231020EAE070B0F1C85FA8BF0E
:101950004FF0C8500013FFF79DF94FF06A51FFF7A1
:10196000F1F910BD0248FCE70C060020E40D002050
:101970000000C07FD02038B5FFF7BAFD602840F0E6
:10198000B180B621E020FFF79DFDF320FFF7B0FD09
:10199000C307FAD4544C88202146FFF7C1FDA11C8F
:1019A0008A20FFF7CFFD211D8C20FFF7CBFDA11D65
:1019B0008E20FFF7B5FD04F108019020FFF7C2FD6E
:1019C00004F10A019220FFF7BDFD04F10C019420FF
:1019D000FFF7B8FD04F10E019620FFF7B3FD04F107
:1019E00010019820FFF7AEFD04F112019A20FFF7D5
:1019F000A9FD04F114019C20FFF7A4FD04F11601D8
:101A00009E20FFF79FFDA120FFF772FD04F11A0150
:101A10002076E120FFF796FDE320FFF769FD2077B0
:101A2000E420FFF765FD0546E520FFF761FD00F0C6
:101A30000F0343EA0510E083E620FFF759FD054652
:101A4000E520FFF755FDC0F3071343EA0510208496
:101A5000E720FFF74DFD84F82200F520FFF748FD51
:101A600000F01F0141F0A001F520FFF72BFDF5204C
:101A7000FFF73EFD00F0E30141F00801F520FFF71C
:101A800021FDF420FFF734FD00F01F0141F060015B
:101A9000F420FFF717FDF420FFF72AFD00F0E30123
:101AA00041F00C01F420FFF70DFDF220FFF720FDBF
:101AB00000F0F80141F00301F220FFF703FDF420EC
:101AC000FFF716FD0146F420FFF7FCFCF420FFF7BA
:101AD0000FFDBDE8384000F0FC0141F00301F420A7
:101AE000FFF7F0BC38BD00BF0C06002008B504228B
:101AF0004FF47060084903F0FDFB04224FF4A0602E
:101B0000064903F0F7FBBDE8084004224FF480705B
:101B1000034903F0EFBB00BF6C04002070040020F9
:101B20006803002008B58021002003F077FB002027
:101B300003F046FBFFF7DAFFBDE8084006224FF44A
:101B40001060014903F0D6BBF80D002008B58021D4
:101B5000002003F063FB002003F032FBBDE80840E7
:101B600006224FF41060014903F0C4BBF80D0020B9
:101B700070B5094B094E0A4C1E600A4E0A4D0028EA
:101B800008BF3046002918BF0C46084E2C60306054
:101B900002B11A6070BD00BF0C0000204D1B000890
:101BA000251B0008ED1A0008100000200800002086
:101BB00007B5062269464FF4106003F061FB204B25
:101BC000204A1B681A60204A1268110E1971110C04
:101BD0005971110A9971DA7100214FF40002C3E9B9
:101BE00002211A4AC3E904111078996118775078D4
:101BF000587790789877D078D8771079527983F899
:101C0000200083F8212003F12C0003F1220202F8C6
:101C1000011B8242FBD1002003F16C0102F8010B91
:101C20008A42FBD1002003F1EC0102F8010B914242
:101C3000FBD1074AC3F8EC2003B05DF804FB00BFFA
:101C40000C0E002001010600000E0020F80D0020FF
:101C5000638253631FB5FFF7ABFF2D4B002219685A
:101C60002C4B8A72C1F8F03040F20713A1F8F4301F
:101C7000294BCA72187881F8F600587881F8F70075
:101C8000987881F8F800D87881F8F90018795B79AC
:101C900081F8FA0081F8FB3040F23243A1F8FC30C1
:101CA0001E4B187881F8FE00587881F8FF0098786C
:101CB000DB7881F8000181F8013140F23643A1F868
:101CC0000231174B187881F80401587881F8050122
:101CD000987881F80601DB7801F5097081F8073101
:101CE000FF2381F8083101F2091303F8012B834225
:101CF000FBD14FF0FF33039343230A4800934FF483
:101D0000097203AB007802F067FA05B05DF804FBD6
:101D10000C0E00203501043DF80D00206C0400205D
:101D2000080E0020100E00202DE9F04FA14D8BB0C1
:101D3000287803F03AFB024618B900200BB0BDE842
:101D4000F08F0DF11E039C4C0093216808AB28789E
:101D500002F0F2FABDF81E30432B40F028812168D2
:101D6000964B0C7F1A789442E7D14C7F5A78944274
:101D7000E3D18C7F9A789442DFD1CC7FDA78944299
:101D8000DBD191F820401A799442D6D191F82120E4
:101D90005B799A42D1D18A4A9DF82090177856787B
:101DA0009578D47847EA06032B432343029220D048
:101DB0004F450BD19DF82130B34207D19DF8223019
:101DC000AB4203D19DF82330A34212D07D4B1C7847
:101DD0004C45B2D19DF821505C78A542ADD19DF81B
:101DE00022509C78A542A8D19DF82340DB789C42E4
:101DF000A3D180B201EB000A00209DF8212001F15F
:101E0000F00303929DF822206E4904929DF823204E
:101E10006D4C6E4D6E4E6F4F0592534501D340B2DF
:101E20008CE793F800C0BCF1350F39D013D8BCF162
:101E3000060F08D8BCF1060F08D8DFE80CF02F34E5
:101E4000074607075B00BCF1330F66D003F1020CB5
:101E50005B786344E1E7BCF1E10F00F08C8018D8B7
:101E6000BCF1360F6DD0BCF1E00FEFD193F802E07A
:101E700093F801C084F800E093F803E084F801E0EF
:101E800093F804E084F802E093F805E084F803E0B6
:101E90002DE0BCF1FF0FD9D15346BEE70133BCE7BB
:101EA00098780333B9E793F802C087F800C093F835
:101EB00003C087F801C093F804C087F802C093F804
:101EC00005C087F803C00633A7E793F802E093F84C
:101ED00001C086F800E093F803E086F801E093F88B
:101EE00004E086F802E093F805E086F803E0634436
:101EF000023392E793F802E093F801C085F800E01E
:101F000093F803E085F801E093F804E085F802E037
:101F100093F805E085F803E0E9E793F802C02E4A5C
:101F2000C2F800C093F803E00EEB0C2C93F804E029
:101F30000EEB0C2E93F805C00CEB0E2CC2F800C073
:101F4000C1E793F802C0029A82F800C093F803C078
:101F500081F8009082F801C093F804C082F802C0B2
:101F600093F805C082F803C0039A4A70049A8A70F5
:101F7000059ACA70A7E79A1C964693F801C0C3F168
:101F8000FF2303F57F03DFF85480FE330EEB030BD2
:101F9000DC4507DC13464FF0000E104A634402F89C
:101FA0000CE03AE71EF801BB08F801BBEEE70020A1
:101FB00035E700BF100E00200C0E0020F80D0020A9
:101FC000080E0020040E002074040020640300208A
:101FD0006803002070040020140000206C0300201F
:101FE00037B54FF4D85003F0EBF8032105464FF412
:101FF000D85003F013F941F288330E4800931122B0
:102000000D4B0E49007802F0E7F8044629464FF4DC
:10201000D85003F003F90D340AD0FFF71BFE084B2C
:1020200019681A68521A012AFBD9002003B030BD82
:102030000120FBE7100E00206C040020B8B500085A
:102040008004002000230A21034A1360034A116020
:10205000034A1370704700BF80040020180000205E
:102060007C040020002373B5244C062206460D464E
:102070004FF410602146019303F002F9627823784F
:102080001343A2781343E27813432279134362790E
:1020900013430DD108226270DC222146A2704FF456
:1020A000106006222370E3702371637103F022F93C
:1020B000134B20791E70134BE1781D60124B62792F
:1020C0000C182344414013444A4013440F4A4FF430
:1020D0007060136004220DEB020103F00BF904227F
:1020E0004FF480700DEB020103F004F9FFF7AAFF33
:1020F0000022074B1A7002B070BD00BFF80D00201F
:10210000100E00200C0E002078563412000E002015
:102110007D040020024A136801331360704700BF3A
:1021200080040020044B1A7802705A7842709A7822
:102130008270DB78C37070476C040020044B1A78FF
:1021400002705A7842709A788270DB78C370704758
:1021500068030020044B1A7802705A7842709A780B
:102160008270DB78C370704774040020054A431EF8
:10217000FE30117803F8011F12F8011B09B18342E8
:10218000F7D170476C030020044B1A7802705A781C
:1021900042709A788270DB78C370704770040020B8
:1021A00000F00F00092894BF30303730704700002E
:1021B0002DE9F04385B0FFF7FBFC0023694A6A482C
:1021C000137053709370D370684A13705370937088
:1021D000D370674B1968674BC1F8F03040F20713B2
:1021E000A1F8F430644B1A7893F8038081F8F62054
:1021F0005A781F795E7981F8F7209A780C23A1F834
:10220000FC30122381F8F82081F8F98081F8FA7007
:1022100081F8FB60A3F1120292B2845C5D1CADB246
:1022200001EB0309002C40F093804FEA1810FFF7F0
:10223000B7FF89F8EC004046FFF7B2FF0D4485F880
:10224000EC003809FFF7ACFF9D1CADB20D4485F8DA
:10225000EC003846FFF7A4FFDD1CADB20D4485F855
:10226000EC003009FFF79CFF1D1DADB20D4485F851
:10227000EC003046FFF794FF5D1DADB20D4485F8CC
:10228000EC00981D80B2D51D451B06320D4485F823
:10229000EC203722084480F8EC200820DA1D92B2A6
:1022A0000A4482F8EC001A18012092B20A4482F81B
:1022B000EC00032003F1090292B20A4482F8EC0018
:1022C000062003F10A0292B20A4482F8EC000F20C1
:1022D00003F10B0292B20A4482F8EC003A2003F1B7
:1022E0000C0292B20A4482F8EC003B2003F10D028A
:1022F00092B20A4482F8EC00E02003F10E0292B29E
:102300000A4482F8EC00E12003F10F0292B20A4481
:1023100082F8EC00FF2003F1110210339BB20B4452
:1023200092B283F8EC0002F1EC030B44B2F59C7F0F
:1023300012D34FF0FF3303934323104800934FF41D
:10234000097203AB007801F047FF05B0BDE8F083E8
:102350002B4689F8EC405DE7013203F8014B92B25D
:10236000E4E700BF080E002000000020040E00205B
:102370000C0E00203501013DF80D0020100E00204C
:102380002DE9F04385B0FFF713FC924B92491B787F
:10239000033B012B00F2108100220B689A72DA7263
:1023A0008E4A10781873507858739078D278987352
:1023B000DA738B4B1A788DF80C205A788DF80D2033
:1023C0009A78DB788DF80E208DF80F300968854BF0
:1023D000C1F8F03040F20713A1F8F430824B1A78BC
:1023E000DF7881F8F6205A781E7993F8058081F815
:1023F000F7209A789DF80F3081F8F820FF2B81F8AC
:10240000F97081F8FA6081F8FB8040F0D98040F2E1
:102410003243A1F8FC30714B1A7881F8FE205A78CB
:1024200081F8FF209A78DB7881F8002181F801316A
:1024300040F23643A1F80231694B1A7881F8042141
:102440005A7881F805219A78DB7881F806211C22D8
:1024500081F807310C208B1883F8EC00931C0132B3
:102460008818002280F8EC20604810F8015B5C1CA2
:10247000A4B201EB0309002D40F0A4803809FFF756
:102480008FFE89F8EC003846FFF78AFE0C4484F88A
:10249000EC003009FFF784FE9C1CA4B20C4484F8C5
:1024A000EC003046FFF77CFEDC1CA4B20C4484F840
:1024B000EC004FEA1810FFF773FE1C1DA4B20C4489
:1024C00084F8EC004046FFF76BFE5C1DA4B20C44A0
:1024D00084F8EC00981D80B2D41D041B06320C4415
:1024E00084F8EC203722084480F8EC200A20DA1D1A
:1024F00092B20A4482F8EC00012003F1080292B281
:102500000A4482F8EC00032003F1090292B20A4463
:1025100082F8EC00062003F10A0292B20A4482F823
:10252000EC000F2003F10B0292B20A4482F8EC0097
:102530003A2003F10C0292B20A4482F8EC003B20EC
:1025400003F10D0292B20A4482F8EC001F2003F15D
:102550000E0292B20A4482F8EC00212003F10F022D
:1025600092B20A4482F8EC00E02003F1100292B229
:102570000A4482F8EC00E12003F1110292B20A440D
:1025800082F8EC00FF2003F1120292B20A441333E6
:1025900082F8EC009BB201F1EC02B3F59C7F16DBF4
:1025A0004323134800934FF4097203AB007801F002
:1025B00013FE05B0BDE8F0834FF0FF33039305E74A
:1025C000102247E7234689F8EC5001324DE7D554F5
:1025D0000133E2E77D0400200C0E00206C04002093
:1025E000080E00203501033DF80D002000000020FA
:1025F000100E002070B51C4C94F90030012B1DDC2E
:102600001A4D1B4E2A683168914212D2194B93F928
:102610000030022B0FD0042B0DD0012B01D1FFF77E
:10262000C7FD00232B602B680A3333602378013306
:102630002370012010E0FFF7A3FEF2E70D4B93F9A2
:1026400000201C46022A08D0042A06D0012A09D1FB
:1026500000201870FFF7F6FC70BDFFF7A9FD012000
:102660002070F7E70120F5E77C04002080040020BB
:10267000180000207D04002038B5524C94F9003039
:10268000062B00F09C80504D2878400100F54270E8
:1026900002F096FD222805D000234422022128784A
:1026A00001F008FCFFF740FB94F90030C5B2042BA1
:1026B00031D8DFE803F0030E233D5A000022434BDC
:1026C0001A705A709A70DA70FFF772FD012020704C
:1026D00038BD022D0ED13E4B1A683C4B117C19704F
:1026E000517C5970917CD27C9970DA70FFF748FE6A
:1026F000257010E0BDE83840FFF77CBF052D12D1F2
:10270000FFF76EFC054640B1324B1B689847FFF758
:1027100099FC032323700120DAE7FFF793FC2E4B8B
:102720001B689847E4E7062DE4D1FFF78BFCCDE763
:102730002A4B1B685A1C40D0294A1268B2EB530F2F
:102740003BD9224A274B11781970517859709178EA
:10275000D2789970DA70244A136801331360FFF756
:102760000FFEFFF76FFC0420B1E7052D1FD10022FB
:102770001E4B1A701B4A154B1078197888420BD1E2
:1027800050785978884207D190789978884203D157
:10279000D278DB789A4208D0154B1B689847032003
:1027A000FFF750FC0323237092E70420F8E7062D7F
:1027B000A0D1FFF747FC01232370042088E7052000
:1027C00086E700BF7D040020100E00206C0400206E
:1027D0000C0E0020080000200C0000201400002037
:1027E0008004002078040020000E00207C040020DB
:1027F000100000200122014B1A7070474C05002088
:102800007047000000224FF48051014803F0D2BA13
:10281000000C014001224FF48051014803F0CABA74
:10282000000C01400A464FF0FF330146014804F016
:1028300088BC00BF1412002007B501210DF107006C
:10284000FFF7F0FF9DF8070003B05DF804FB000000
:102850000A464FF0FF330146014804F0D6BA00BFE4
:102860001412002007B501218DF807000DF10700B3
:10287000FFF7EEFF03B05DF804FB000008B50A485F
:102880000A4A0B4BC0E9002300234FF48042C0E901
:102890000233C0E90423C0E90633036203F06AFC93
:1028A00008B172B6FEE708BDB41200200054004023
:1028B000A086010000000000814BF0B51A6803F10A
:1028C000236303F5673376339A4289B072D10128C6
:1028D00000F084807B4BC8221E887B4BB6B21E80E2
:1028E0007A4B00211F887A4BBFB21F80794B7A4800
:1028F0001C887A4BA4B21C80794B1D88794BADB2F1
:102900001D80794B1C80794B1D8005F043FCCDE97F
:1029100000453B46324676496F4806F0A3F84FF42F
:102920007A73C8226C49734805F056FB724BC82273
:102930001C68724B00211C60714B67481E68714B0C
:102940001E6005F027FC2046FDF76EFD044630466C
:102950000D46FDF769FD2246CDE900012B466A4987
:102960005D4806F07FF84FF47A73C8225A496148EF
:1029700005F032FB654B664C1B6800215A1C08BFF2
:10298000644B4FF0C802544814BF2360236005F025
:1029900001FC2068FDF748FD02460B464E485E49A3
:1029A00006F060F84FF47A73C8224B49514805F09D
:1029B00013FB2DE090B949F64043434A1380474A40
:1029C0001380434A1380474A1380514B514A1A607F
:1029D0004FF07E53494A13604A4A13600023CDE901
:1029E0000333012336494D4CCDE90613237002F021
:1029F0008FFF20700028FAD103A904A803F044F83F
:102A000040B10123237002F095FF20700028FAD115
:102A100009B0F0BD012328A7D7E90067284D23702E
:102A200032463B462946032002F0B8FF20700028BA
:102A3000F6D1274B234F1988284B1D88224B1E881F
:102A4000284B46EA01461A88012345EA02452370CD
:102A500032462B463946032002F0A0FF20700028A2
:102A6000F6D10123254E244D237000232946022050
:102A7000326802F093FF20700028F6D10123214E26
:102A80001F4D2370002329460220326802F086FF82
:102A900020700028F6D101231D4E1C4D2370002309
:102AA00029460220326802F079FF20700028F6D112
:102AB000A7E700BFAFF30080769834120000000053
:102AC00000FC000810FC0008EC05002012FC0008C7
:102AD000B405002014FC0008840400208C090020A8
:102AE00016FC0008B80500204E060020EE0D002060
:102AF000CAB500086413002018FC000890050020E7
:102B000020FC0008A0050020F5B5000824FC000802
:102B1000340B00200000A0410FB600084014002034
:102B20002DE9F04104460E461746984642F68822A3
:102B3000002301210220C0B001F0BCF902280546A3
:102B400045D1214642F2437201F046FA012804467B
:102B500007D0284601F070F9FE24204640B0BDE8B9
:102B6000F0814046FDF760FC3246CDE900013B466E
:102B7000184903A805F076FF174B03A820938DF89A
:102B80008440FDF7E5FA0023C4B203A90DF18D00DE
:102B90008DF88540ADF8863022938DF88C3005F0A5
:102BA00081FF0D34E4B22246022020A901F08AFA06
:102BB000002804DC022001F03FF9FD24CDE7241AAF
:102BC00014F0FF04EFD1022001F036F9C5E7FF242D
:102BD000C3E700BF1CB600085A425844F7B5334952
:102BE000334802F089FC3349334802F097FC3349FB
:102BF000334802F0ABFC6B46324A334D10685168E3
:102C000040F2E93403C36946084602F0F4FC0622A8
:102C10004FF410602D4902F06DFB00202C49FFF7A6
:102C200021FA2C492C4A0846FEF7A2FF2E462B4FCC
:102C30002B780BB9013C0ED13378ABB9BFF34F8F72
:102C40002749284BCA6802F4E0621343CB60BFF304
:102C50004F8F00BFFDE7FFF70FFD642002F0A4FDDA
:102C6000384603F03EFDE3E7184CA01DFFF75AFA83
:102C700004F10E00FFF762FA04F10A00FFF784FA8C
:102C800004F11600FFF766FA04F11A00FFF76EFA76
:102C9000A37E43B91449154805F004FF0B4802F020
:102CA000E7FC03B0F0BD04F11A01F4E715280008B1
:102CB0000528000865280008392800085128000860
:102CC0002528000873B600084C0500201C000020D1
:102CD000140E0020F5270008012800080813002022
:102CE00000ED00E00400FA0568B60008D80C0020EA
:102CF000002110B590B0142201A809910B9105F0A4
:102D000049FA4FF4803309220224CDE906234FF417
:102D10000032CDE90D4308924FF46013012206A85A
:102D20000A920C920F9303F0E3FC08B172B6FEE72F
:102D30000F23CDE901344FF480630390CDE90430D3
:102D4000214601A803F0B0FE08B172B6FEE703F019
:102D50006BFE10B010BD00002DE9F04FA44CB9B0CF
:102D600002F0FEFC606A636AA249656AA24A666A6A
:102D700013F0804F676A14BF13460B4615F0005FCF
:102D8000D4F824C014BF15460D4616F0805F14BF5A
:102D900016460E4617F0806F14BF17460F461CF0FC
:102DA000006F0CBF8C469446CDE9027C102712EAD6
:102DB000200238BF0A46CDE900569049904805F0F8
:102DC00051FEFFF795FF3A46002130A805F0E2F9E1
:102DD000A369002243F02003A361A36941F28401A7
:102DE00003F020032093209BA369864843F004034B
:102DF000A361A369012603F004032193219BA36926
:102E0000022543F00803A361A369002403F008032B
:102E10002293229B02F0CEFF002241F21E017A484B
:102E200002F0C8FF41F28403764830A9CDE930367C
:102E3000CDE9324502F074FE41F21E03724830A91A
:102E4000CDE93036CDE932450C2602F069FE4FF46B
:102E5000E1336E486E4DC0E90244C0E90053C0E959
:102E600005640461C46105F089F8054608B172B6CD
:102E7000FEE701463A4625A805F08CF91C222946B2
:102E800029A8CDE9235505F085F92022294630A847
:102E900005F080F95F4C604B1F20C4E900359F238B
:102EA000C4E903358023C4E905032046A56004F086
:102EB00091FB08B172B6FEE74FF48053204625A976
:102EC000259304F045FD08B172B6FEE7204604F0F4
:102ED000ADFB08B172B6FEE70821204604F0FEFB08
:102EE00008B172B6FEE7CDE9237023A9204604F0AD
:102EF0008DFF024608B172B6FEE73023CDE92B0004
:102F0000CDE92930CDE92D002F9029A9204604F0E4
:102F10003FFC08B172B6FEE722682046936929A9F2
:102F200043F008039361042204F032FC08B172B646
:102F3000FEE722682046936929A943F40063936160
:102F4000082204F025FC08B172B6FEE7324620469E
:102F500029A904F01DFC08B172B6FEE722682D48CD
:102F6000D36930A943F40063D36100234FF40052C6
:102F7000CDE93033CDE9323334933592379304F0D1
:102F800073FF054608B172B6FEE70626214801F038
:102F900003FC1022294630A805F0FCF81F4C204BFA
:102FA0004FF08008C4E900364FF6FF732046CDE9A4
:102FB0002955C4E90335A560C4F8188004F00AFB5C
:102FC00008B172B6FEE74FF48057204630A930971B
:102FD00004F0BEFC08B172B6FEE7202329A9CDE9B2
:102FE0002930204604F012FF0546D8B172B6FEE73C
:102FF0000010024080B600087CB6000883B60008C6
:103000008404002000080140000C014064130020EB
:1030100000380140AC130020002C01406C1200204D
:10302000000800400146102225A805F0B3F814223C
:10303000294629A805F0AEF81C22294630A8694C7B
:10304000CDE9235505F0A6F8674B2046C4E90035C5
:1030500049F64043A560C4E90335C4F8188004F07C
:10306000B9FA08B172B6FEE7204625A9259704F003
:103070006FFC08B172B6FEE7204604F0D7FA08B13B
:1030800072B6FEE70821204604F028FB08B172B6AC
:10309000FEE7CDE9296029A9204604F03FFD08B1EB
:1030A00072B6FEE7302323A9CDE92330204604F091
:1030B000ADFE08B172B6FEE700221024494830A9DF
:1030C000CDE930423292349204F062FB054608B1F9
:1030D00072B6FEE72246014625A805F05BF81422E9
:1030E000294630A805F056F82246294629A8CDE9F8
:1030F000235505F04FF84FF080433C4CC4E90035B0
:103100004FF6FF73C4E9033580232046A560A36111
:1031100004F060FA08B172B6FEE74FF4805320461F
:1031200025A9259304F014FC08B172B6FEE72046E9
:1031300004F0A8FA08B172B6FEE704252023204661
:1031400030A9CDE9305304F0E9FC08B172B6FEE7CE
:10315000CDE9230023A9204604F058FE024608B119
:1031600072B6FEE701232990CDE92A302C9029A9D7
:10317000204604F05FFB08B172B6FEE7022320464A
:103180002A4629A9CDE9293304F054FB044608B1A5
:1031900072B6FEE7FFF772FB4FF4827314481549CD
:1031A000C0E90244C0E900134FF40073C0E90634DB
:1031B0000A23C0E90444C0E908448462C36203F0FE
:1031C000CCFD08B172B6FEE706230B480B4AC0E9F6
:1031D000002340F6FF73836003F05CFA80B172B69F
:1031E000FEE700BF1C13002000040040F413002081
:1031F0001412002000380040081300200030004066
:10320000012501228021AC48AC4E02F0D3FD4FF0E5
:10321000FF33C822AA49AB48357004F0DDFE4FF0F9
:10322000FF331222A849A74804F0D6FEA74C00227B
:103230004FF48051A04802F0BDFD2A464FF4805162
:103240009D4802F0B7FD2A464FF48051204602F017
:10325000B1FD4FF0FF330C229D499A4804F0BCFEAB
:103260004FF4FA6002F0A0FAFFF7B8FC4FF0FF331A
:1032700006229849934804F0AFFE4FF0FF330D2229
:103280009549904804F0A8FEFEF774FB4FF0FF3319
:10329000062290498B4804F09FFE0020FFF70CFBAC
:1032A000E36843F01E03E3608C4B1A88CDE91C36BB
:1032B0001AB949F64043894A1380894B1A8812B9D2
:1032C00049F640421A80874B1A8812B949F64042A3
:1032D0001A80854A118811B949F6404111800026AB
:1032E0001A8800240025814BDFF88082DA620122EF
:1032F0007F4B804F1E80804B31461E707F4B804835
:10330000C3E900457F4BC8E900451A707E4BC7E909
:1033100000451E8004F030FD0421794804F02CFDA6
:1033200040F21F32794B4FF0000CDA62784B79484B
:103330001E8064267849794A794B013E40F804CBD7
:1033400041F804CB42F804CB43F804CBF5D1754BDC
:1033500013221E70744B75491E70754B59481E70B0
:10336000744B1E704FF0FF3304F036FE724803F0CA
:10337000F7FF724803F0F4FF714B3246C3E9004592
:10338000704B8021C3E900456F4B4B48C3E90045B2
:103390006E4BC8E90045C7E90045C3E9004502F0A6
:1033A00009FD1D9B1B78002B00F03081684A69489D
:1033B0001368DFF83C9143F00103136003F091F9C7
:1033C00000231D9A1370B9F80030002B00F0CA8258
:1033D000544C614D22782B8822B9554A1278002A24
:1033E00000F0CE81B3F5C86F80F0CD81C8220021F6
:1033F000334804F0CFFE484BDFF8FC901E68484B82
:103400003046D3F80080434BD3F800A0434BD3F8A9
:1034100000B099F80030002B00F05281FDF704F85D
:1034200002460B464D4958460968CDE91E23FDF773
:1034300089FC01465046FDF77BFBFCF7F5FFCDE923
:1034400008015846FCF7F0FFCDE906015046FCF7AD
:10345000EBFFCDE90401424940460968FDF772FCE3
:1034600001463046FDF764FBFCF7DEFFCDE90201C3
:103470004046FCF7D9FFDDE91E23CDE900013949BB
:103480000F4805F0EFFA4FF47A73C8220C490D4843
:1034900004F0A2FD99F80030002B40F0AF802378B3
:1034A000002B00F029811E4B19681B4B1868FDF793
:1034B00041FB2D4907465BE00008014094050020D0
:1034C0008404002064130020C5B60008000C0140ED
:1034D000D7B60008E3B60008E9B60008EC050020FE
:1034E000B40500208C090020B8050020000400402D
:1034F000300B00209805002058060020C005002051
:10350000F4130020EC0D00208E090020002C014057
:10351000C8050020FC0700205C0600209809002058
:10352000480B0020FC05002030060020F6B60008FD
:10353000D70D0020B60500201C1300206C120020BF
:1035400040060020A8050020400B0020F0070020C6
:1035500010E000E008130020380B00209005002048
:10356000A005002009B700080000C844500600204C
:10357000FDF7DEFAFDF7ACFD0028B8BF4042FDF7CD
:103580008DFB4FF07E51FDF799FD002800F0B480CF
:103590005D4E38465D493488FDF790FD002800F007
:1035A000A980013434805A4C2378002B00F0A98084
:1035B000584B1968584B1868FDF7BCFA5349074631
:1035C000FDF7B6FAFDF784FD0028B8BF4042FDF7CD
:1035D00065FB4FF07E51FDF771FD002800F09180F2
:1035E0004E4E384649493488FDF768FD002800F002
:1035F0008680013434802B8801332B80484A494827
:10360000136823F00103136003F0AAFE464C0A235B
:1036100001222146454804F034FD00283FF4C1AEA4
:103620002378632B40F0BE824FF47A731622404910
:103630003E4804F0D1FC3B4803F0BCFE00213D486D
:1036400004F09AFB04213B4804F096FBC8220021B9
:10365000394804F09FFD0123384A1C991370384AF9
:1036600013702B4A1370374A13700023364A1370B5
:10367000364A138049F640420A8023490A80344979
:103680000A8026490A800021324A1160324A1160BC
:10369000324A1160324A1160324A1160324A116076
:1036A0004FF4FA71314A1380314A1180314A138044
:1036B000314A13801B4803F053FE0023237070E649
:1036C000FCF7B2FE064658460F46FCF7ADFECDE9C4
:1036D00004015046FCF7A8FECDE902014046FCF784
:1036E000A3FE3246CDE900013B462449124805F0CD
:1036F000B9F9C8E6013C55E70023237053E7013CC4
:1037000078E70023237076E78C0900200000C84486
:10371000D70D002098090020FC070020B8050020E4
:1037200010E000E06C1200204D0500206413002022
:1037300027B90008F413002084040020FC050020B1
:1037400030060020B605002058060020380B002067
:10375000B4050020E8050020F8070020280B002011
:10376000D80D002090050020A0050020E00D0020CD
:10377000300B00208E090020C805002046B7000845
:10378000B3F5C86F08D34FF47A731F225C495D48C4
:1037900004F022FC02F06CF8B9F80040002C3FF471
:1037A0002DAF594E594B31681868FDF7C3F9584B86
:1037B0003060584E804631681868FDF7BBF9564FA7
:1037C000564B3968306082461868FDF7B3F9DFF868
:1037D0008CB1534B3860DBF8001006461868FDF7D3
:1037E000A9F9013CA4B20746CBF80000A9F80040B3
:1037F000002C7FF403AF51464046FDF757FBDFF83E
:10380000608139468146C8F800003046FDF74EFB1E
:10381000444F064638604846FDF75AFC01300228FE
:1038200068D83046FDF754FC0130022862D83E4B80
:103830003E4E1B6801203360FFF73EF83C4BC82228
:10384000B3F800903B4B2146A3F800903A4B3B481D
:10385000B3F800A03A4BA3F800A004F09BFC394B4E
:10386000CDF804A01B881C9A009312884B46364959
:10387000324805F0F7F84FF47A73C8222F492148EF
:1038800004F0AAFBC82221462C4804F083FC3868C7
:10389000FCF7CAFD8246D8F800008B46FCF7C4FD51
:1038A0005246CDE900015B462849244805F0DAF884
:1038B0004FF47A73C8222149124804F08DFBC822C4
:1038C00021461E4804F066FC3068FCF7ADFD024658
:1038D0000B461A481E4905F0C5F84FF47A73C82202
:1038E0001649084804F078FB002301222B80194B6D
:1038F0001A7083E64FF47A732A221749F1E700BF62
:1039000075B7000864130020E8050020FC070020BC
:1039100098090020F8070020280B00205C060020F2
:10392000480B0020A0050020F8050020340B0020E3
:103930008C0900204E060020B805002084040020D9
:10394000EE0D0020B405002094B70008D0B70008A1
:10395000E7B70008EC0D0020F5B70008D80D0020EF
:1039600090050020FDF738FEA24EA34D3060FDF714
:103970007DFEA249FDF7E6F92860FDF793FFA04C14
:10398000366820609F493046FDF77AFB002800F03A
:10399000F78030469C49FDF791FB002800F0F0804D
:1039A00033469A4A9A499B48FFF7BAF82B689A4AD5
:1039B00097499848FFF7B4F82368984A944995487E
:1039C000FFF7AEF8964B1B78002B40F0D680954B56
:1039D0000022D3E90045002320462946FCF7E4FFF6
:1039E000914E0022914B002840F0D280204629467B
:1039F000FCF7E4FF28B3D6E9000100228B4BFCF76B
:103A0000DDFFF0B129462046FDF73EF8884A03461F
:103A10007F498048FFF784F8864BD3E90001FDF722
:103A200033F80346844A7A497A48FFF779F8D6E9A9
:103A30000001FDF729F8814A034675497548FFF7EB
:103A40006FF87F4C7F4D23687F4A71497F4E7148E4
:103A5000FFF766F87E4F2B687E4A6D496D48FFF789
:103A60005FF8DFF8509233687B4A6949DFF8488293
:103A70006848FFF755F8794A65493B686548FFF79C
:103A80004FF8B8F80030B9F80000DFF830B2C01ACB
:103A9000FDF704F9DFF828A20346714A5C495D4846
:103AA000FFF73EF8BAF80030BBF80000C01AFDF787
:103AB000F5F86C4A034656495648FFF731F8BAF80C
:103AC0000020BBF800309B1A1B93B8F80020B9F80F
:103AD00000309B1A1A933868FCF7A6FCCDE9180150
:103AE0003068FCF7A1FCCDE916012868FCF79CFCC6
:103AF000CDE914012068FCF797FCCDE91201404B99
:103B00001868FCF791FCCDE910013B4B1868FCF7F5
:103B10008BFCCDE90E01374B1868FCF785FCCDE92D
:103B20000C01444B5049D3E90023CDE90A234F4B04
:103B30004F48D3E90023CDE908234E4BD3E90023B6
:103B4000CDE90623384BD3E90023CDE904234A4BC2
:103B5000D3E90023CDE90223484BD3E90023CDE983
:103B60000023304BD3E9002304F07CFF4FF47A7339
:103B7000C8223F49424804F02FFA0022284BB7E6FA
:103B8000404802F09FFBFEF779FEFDF7F3FE19E7D0
:103B9000D6E90001FCF712FF00283FF452AF0023E2
:103BA000234A40E7742B40F08D80374803F002FC35
:103BB0000021364804F0E0F80421344804F0DCF831
:103BC0004FF47A73102232492D4804F005FA01238C
:103BD000304A3149138000220A8030490B70304945
:103BE0000B7030490B7030490B7030490B70304B03
:103BF0001A805FE5F805002008060020E8C7F53BBD
:103C00003806002000007042000020C21FB80008E3
:103C1000D80C00203200002031B8000840B800085D
:103C2000EC0D002040060020A805002000004440C4
:103C30004FB80008D00500205BB8000868B800083D
:103C4000DC0D0020EC07002077B800082C0B0020CA
:103C5000E80D00207AB800087DB8000880B8000898
:103C600083B8000886B8000889B80008F00700206B
:103C700084040020400B00209805002050060020FE
:103C800064130020B41200206C120020F4130020F2
:103C90003DB90008300B0020380B002058060020EA
:103CA000FC05002030060020D70D0020B6050020BE
:103CB000C8050020B8050020EE0D00208C0900206A
:103CC0004E060020722B7FF4F8AC134803F072FB11
:103CD0000021124804F050F80421104804F04CF878
:103CE0004FF47A7321220E490E4804F075F9002032
:103CF0000D4B0E4A1870012313700D4A13700D4AB4
:103D000013700D4A13700D4B18800D4B18800D4B1E
:103D10001880FEF7D1FDCDE46C120020F4130020D2
:103D20004DB900086413002058060020FC0500204F
:103D300030060020D70D0020B6050020300B0020F3
:103D4000380B0020C805002010B5314C2268002A2D
:103D500048D00368B3F1804F44D1037F591E012935
:103D600040D81B2A32D9012B3CD10021294803F02D
:103D70003CFB294B21681A6880B210440139186055
:103D8000216000292ED1234803F0F6FF04212148A9
:103D900003F0F2FF1C21204B1A68B2FBF1F2A2F5EE
:103DA0002852303AB2F5C86F88BF4FF4C8621B4939
:103DB0001A60CA6842F01E02CA60194A1288013AA3
:103DC000032A0FD8DFE802F0060F161D012BCCD016
:103DD0000421CBE7134A18681488FCF75BFF124BE9
:103DE00043F8240010BD0F4A18681488FCF752FFEE
:103DF0000E4BF5E70B4A18681488FCF74BFF0C4B89
:103E0000EEE7084A18681488FCF744FF094BE7E717
:103E100048060020F413002034060020000C014066
:103E20008E090020C80500205C060020480B0020F9
:103E3000FC070020980900200828F8B504462DD872
:103E4000470107F1080607F584771021384601F08D
:103E5000E5F9384601F0B4F905460028F9D11F21EB
:103E600006F5007001F0DAF90123A340DB430D49A8
:103E70001BB20A8806F540761A400A800A4A118861
:103E80000B401380094B23F81450094B1D55304645
:103E900001F096F90028FAD10120F8BD4FF0FF306B
:103EA000FBE700BF580500205A05002064050020EC
:103EB0005C05002008282DE9F34104468846174692
:103EC0001D467CD8012905D08B1E022B10D96FF01E
:103ED00004000AE004224FF470600DEB020101F0CF
:103EE000CFF9019B23B96FF0020002B0BDE8F08169
:103EF000680757D42DB1B8F1010F50D0B8F1020FB7
:103F000053D020466601FFF797FF083625F00F01D2
:103F1000304641EA080101F081F96FB94FF6F071BE
:103F2000284A17887B1C9BB28B4205BF4FF4404345
:103F30004FF6EF7713801380390A06F5806001F0A1
:103F40006DF9F9B206F5A06006F5807701F066F923
:103F50000121384601F062F9384601F031F90028B4
:103F6000FAD10123A340DB4317491BB20A8805F0AD
:103F700001051A40A5401543144A0D80118806F525
:103F800040760B401380124B23F81400114B185548
:103F9000304601F015F90028FAD060B2A5E715F017
:103FA000210FAED16FF005009FE7A9066BB201D5D6
:103FB000002BF7DAEA06A4D5002BA2DBF2E74FF0DC
:103FC000FF3092E736010020580500205A050020F6
:103FD000640500205C05002008282DE9F041064614
:103FE0000D4617465DD844010834204601F0E8F834
:103FF00000F00F00012857D104F54078404601F049
:10400000DFF8132853D12B786A7802EB0322AB78C0
:1040100003EB0222EB78013B03EB0223033349D885
:10402000002F4AD00422294604F5406001F062F9CD
:10403000390A04F5805001F0F1F804F58075F9B201
:1040400004F5885001F0EAF80421284601F0E6F86A
:10405000284601F0B5F80028FAD1194B1B8843FA1D
:1040600006F6F20713D404F50074404601F0A8F8F0
:10407000172801D101200AE0204601F0A1F803072A
:1040800007D52046082101F0C9F86FF00C00BDE803
:10409000F081404601F094F80028E6D16FF003006B
:1040A000F5E74FF0FF30F2E76FF00400EFE76FF055
:1040B0000200ECE76FF00B00E9E76FF00A00E6E7BB
:1040C0005805002008282DE9F84F06468846144672
:1040D00074D845010835284601F072F800F00F0049
:1040E00001286ED1002C6FD005F54079484601F0CB
:1040F00067F8172801D01C2832D1354F3B8833414F
:10410000D90711D505F5007A504601F059F8C206D5
:1041100029D51021504601F081F8012303FA06F257
:104120003B8823EA02033B8005F5F85001F048F88C
:10413000830298B24FF0010A844228BF04460AFA6B
:1041400006FA304601F010F98346484601F038F887
:104150001728204B12D01C2810D03046FFF76CFED9
:104160006FF0060002E0030702D40020BDE8F88FDC
:104170003046FFF761FE6FF00C00F7E71A8812EA8D
:104180000A0F18D05C45F0D841463046224605F566
:10419000807501F02BF92021284601F03FF82846D0
:1041A00001F00EF80028FAD13B8820464AEA030ABB
:1041B000A7F800A0DAE75C45C3D8E5E74FF0FF3089
:1041C000D4E76FF00400D1E76FF00D00CEE700BF39
:1041D0005A050020580500202DE9F84F082806460A
:1041E000884614461F46BDF828A000F29780450176
:1041F0000835284600F0E4FF00F00F0002380228DE
:1042000000F28F80002C00F08F803B787A7802EBF0
:104210000322BB7803EB0222FB7803EB0223002B83
:104220003CD0BAF1000F41D005F54079484600F086
:10423000C7FF422842D10422394605F5406001F00B
:1042400059F84FEA1A2105F5805000F0E7FF5FFAB0
:104250008AF105F5885000F0E1FF05F5F85000F00F
:10426000AFFF800280B24FF0010A844228BF0446AB
:10427000DFF8C0B00AFA06FA304601F075F80746D2
:10428000484600F09DFF002851D0BBF8003013EAEB
:104290000A0F1AD0BC421AD9002034E0284600F098
:1042A0008FFF4007BDD46FF00B002CE0284600F0D4
:1042B00087FF4107B8D46FF00A0024E000F0EF0058
:1042C0002228B8D06FF006001DE0BC42D4D830469A
:1042D0004146224605F5807601F088F820213046D7
:1042E00000F09CFF304600F06BFF0028FAD105F586
:1042F0000075284600F064FFC20606D52846102146
:1043000000F08CFF2046BDE8F88F0307F1D5284662
:10431000082100F083FF6FF00C00F4E74FF0FF304E
:10432000F1E76FF00400EEE76FF00D00EBE76FF0E0
:104330000300E8E7580500202DE9F04F082804465F
:104340008A469146984685B000F2E88047010837D2
:10435000384600F035FF00F00F02023A022A834689
:1043600000F2DF80B9F1000F00F0DE80714E36F808
:104370001420002A7AD1012107F54073A14000934F
:104380002046019101F011F80546009800F018FF51
:10439000002800F0CC80684B01991A880A4202D0AC
:1043A0001DB9284689E0002DEAD00BF0070003284C
:1043B00007F5807700F08480042859D0022840F067
:1043C000A68036F814308BBB082220460DEB020184
:1043D00001F039F84021384600F020FF384600F05F
:1043E000EFFE0028FAD19DF808309DF80C2088F8DF
:1043F00000309DF8093088F801309DF80A3088F8BF
:1044000002309DF80B3088F803309DF80D3003EB37
:1044100002230E9A13809DF80E209DF80F3003EBB7
:10442000022326F814308022444B1A5536F81450D3
:1044300051464D4528BF4D4620462A4601F003F817
:104440004021384600F0EAFE384600F0B9FE002868
:10445000FAD136F81430394A5B1B9BB226F8143077
:1044600013B1105D40F0010010559AE700259CE75C
:1044700036F81430002BD9D1204602A9022200F0D0
:10448000E2FF4021384600F0C9FE384600F098FEB1
:104490000028FAD19DF809309DF80820023B03EB73
:1044A000022340F2EA529BB2934226F81430BAD962
:1044B0002046FFF7C1FC6FF47A7005B0BDE8F08FBD
:1044C00036F81430002BB1D1204602A9062200F0A4
:1044D000BAFF4021384600F0A1FE384600F070FED9
:1044E0000028FAD19DF808309DF80C2088F800309B
:1044F0009DF8093088F801309DF80A3088F80230BC
:104500009DF80B3088F803309DF80D3087E7294679
:10451000204600F0C5FF26F8145091E74FF0FF3019
:10452000CBE76FF00400C8E76FF00D00C5E76FF050
:104530000300C2E764050020580500205C05002048
:104540000E4B82B09A6942F001029A619A6902F0B8
:1045500001020092009ADA6942F08052DA61DB6966
:10456000074A03F080530193019B536823F0E063F3
:1045700043F08063536002B0704700BF00100240F8
:104580000000014010B5044686B01022002102A8A8
:1045900003F000FE2268154B9A4224D1144C4FF4CC
:1045A0004072A369134843F00803A361A36902A9F9
:1045B00003F008030093009B1223CDE90223032399
:1045C000059301F0ADFA0C4A536843F0E06343F001
:1045D00002035360E36943F40013E361E36903F406
:1045E00000130193019B06B010BD00BF00540040B2
:1045F00000100240000C01400000014008B50268B4
:104600000A4B9A4210D10A4A4FF48071D369094883
:1046100023F40013D36101F05FFBBDE808404FF4C1
:104620000071044801F058BB08BD00BF00540040B1
:1046300000100240000C014010B5044686B0102264
:10464000002102A803F0A6FD2268174B9A4228D148
:1046500003F5EC33DA69154842F48042DA61DA692D
:1046600002A902F480420092009A9A6942F008027C
:104670009A619B694FF4204203F008030193019B68
:104680000223CDE902230323059301F049FA4FF4F5
:10469000804100230548CDE9021302A9049301F0EB
:1046A0003FFA06B010BD00BF00380040000C0140CA
:1046B00010B504468AB01022002106A803F06AFD56
:1046C0002368304A93420BD12F4B9A6942F400621F
:1046D0009A619B6903F400630193019B0AB010BDCA
:1046E000B3F1804F25D103F50433DA69002442F099
:1046F0000102DA61DA69254802F001020292029AA7
:104700009A6906A942F004029A619B69089403F031
:1047100004030393039B0123CDE9063401F000FA5F
:104720001C202246214601F063F81C2001F092F87B
:10473000D4E7174A934210D1134B1D20DA6942F097
:104740000202DA610022DB69114603F002030493DE
:10475000049B01F04DF81D20E8E70E4A9342BDD1BD
:10476000094B1E20DA6942F00402DA610022DB699B
:10477000114603F004030593059B01F039F81E2050
:10478000D4E700BF002C01400010024000080140A7
:10479000000400400008004010B5044686B0102216
:1047A000002102A803F0F6FC22680D4B9A4215D1B5
:1047B00003F564439A690B4842F004029A619B69CD
:1047C0004FF4706203F004030193019B0223CDE9CF
:1047D0000223032302A9059301F0A2F906B010BD3C
:1047E000002C01400008014010B5044686B010229C
:1047F000002102A803F0CEFC2268194B9A422DD169
:1048000003F558439A69174842F480429A619A69BD
:1048100002A902F480420092009A9A6942F00802CA
:104820009A619B69402203F008030193019B0223D4
:10483000CDE902230323059301F072F900238021BF
:104840000848CDE9021302A9049301F069F9064A68
:10485000536843F0E06343F00403536006B010BDB7
:1048600000380140000C01400000014008B502F092
:10487000D9F9FEE7FEE7FEE7FEE7FEE7704770477F
:104880007047000010B5084C238801339BB2B3F584
:104890007A7F238003D3FDF73DFC00232380BDE80E
:1048A000104000F06FBF00BF74050020014802F007
:1048B000B6BD00BFF41300201C22024B02481A6050
:1048C00002F0ADBD480600201C13002000000000CF
:1048D0002DE9F04F00250026A44A97B01368294619
:1048E00043F001031360A24BA2481D60A24BA34CEE
:1048F0001D60A34B1E60A34B1E60A34B1E60A34B09
:104900001E6003F08FF904219A4803F08BF9082107
:10491000984803F087F90C21964803F083F99C4AE4
:104920002946D3689B4843F01E03D36003F024FA62
:104930000421984803F020FA636823F46E4323F0BF
:10494000EE0343F42A4343F0AA036360924B0596B7
:104950001A88924E032A81BF32881D80013232802C
:1049600037888F4A642F158840F04283002D40F02D
:104970004F837E4A8B48136843F00103136002F0B3
:1049800019FD002200238849CDE90A23C1E900234B
:104990008649CDE90C23C1E900238549CDE90E23E1
:1049A000C1E900238349CDE91023C1E900238249ED
:1049B000CDE91223C1E900238049CDE914230191F7
:1049C0007F49CDE9082304917E49009503917E49F2
:1049D0000291019BDDF8008053F8045B019316AB54
:1049E00003EBC804794B1968049B53F8040B049338
:1049F000FCF7A8F901462846FCF79AF8FBF714FDE6
:104A000008F10103DBB2032B28BF002344E90C01AA
:104A1000DDE90AABDDE90C6700933246DDE90E45BE
:104A20003B4650465946FBF7C9FF22462B46002815
:104A300000F07E8230463946FBF7C0FF002840F088
:104A4000878222462B4650465946FBF7D5FF08B9C8
:104A5000A246AB46574C5246D4E900015B46FBF7F1
:104A600085FB039BC4E900010793029B069316ABE9
:104A700003EBC808564B1968029B1868FCF762F9EB
:104A8000039B01461868FCF753F8FBF7CDFC48E997
:104A90000601DDE91045DDE91289204642464B4614
:104AA0002946FBF78BFFDDE9146732463B460028B9
:104AB00000F0518240464946FBF780FF002840F055
:104AC0005A8232463B4620462946FBF795FF08B9F5
:104AD00034463D46384E2246D6E900012B46FBF7C8
:104AE00045FB3C4BC6E90001C3E900AB3A4B22460B
:104AF000C3E9004520462B462946FBF7EDFC52460C
:104B000004460D465B4650465946FBF7E5FC024617
:104B10000B4620462946FBF729FB06F011FA04460E
:104B20000D462E4B204EC3E90045D6E90023FBF786
:104B300063FF08B1C6E90045264B1C4ED3E90001CE
:104B4000FBF77AFF0028B8BF4042FBF75BFCD6E9D1
:104B5000002304460D46FBF74FFF08B1C6E90045A8
:104B60001D4B134ED3E900013AE000BF10E000E016
:104B700034060020AC130020480600200008014045
:104B8000DC0D0020EC0700202C0B0020E80D00209D
:104B9000000C0140F41300208E090020C8050020FD
:104BA000300B00206C120020C0050020D80500202A
:104BB00090090020E00500200006002004080020E5
:104BC000A009002064060020500B00209005002062
:104BD000A0050020F00D0020F00500204006002078
:104BE000FBF72AFF0028B8BF4042FBF70BFCD6E9D1
:104BF000002304460D46FBF7FFFE08B1C6E9004559
:104C0000019BAF4C53F8040C2168FBF793FFAD4DAB
:104C1000049B29682060074653F8040CFBF78AFFC1
:104C2000DFF8FCA2079BDAF8001028600646186837
:104C3000FBF780FFDFF8ECB2069BDBF80010CAF848
:104C4000000080461868FBF775FF059A019B8146B6
:104C500043F8042C049BCBF8000043F8042C039B7E
:104C600043F8042B0393029B43F8042B0293019A0D
:104C7000954B93427FF4ADAE38469449FCF716F954
:104C80009249074620603046FCF710F9904B1968AE
:104C9000FCF758F88D49064628604046FCF706F9AF
:104CA0008A49CAF8000080464846FCF7FFF8894B5D
:104CB0001968FCF747F83146CBF8000081463846C2
:104CC000FBF738FF84498246FCF7D0F9E8B98249FE
:104CD0005046FBF72DFFFCF7FBF90028B8BF404218
:104CE0004010FBF7DBFF314682463846FCF7E6F919
:104CF0005146002800F042813846FBF719FF514623
:104D000020603046FBF716FF286029682068FBF713
:104D100011FF71490646FBF70BFFFCF7D9F980EA52
:104D2000E074A4EBE0742046FBF7B8FF4FF07E512F
:104D3000FCF7C4F9B8B1694D322C2888D4BF4FF0C4
:104D40007E57674FFBF7AAFF634904463046FCF7DE
:104D5000B5F9002800F01B8121463846FBF7EAFE32
:104D6000FCF7DCF9288049464046FBF7E3FE5A4948
:104D70000546FBF7DDFEFCF7ABF980EAE074A4EB37
:104D8000E0742046FBF78AFF4FF07E51FCF796F95E
:104D9000B8B1544E322C3088D4BF4FF07E57504FAC
:104DA000FBF77CFF4C4904462846FCF787F90028AE
:104DB00000F0F28021463846FBF7BCFEFCF7AEF966
:104DC000308049490022D1E90001484BFBF7AEFC95
:104DD00039A3D3E90023FBF7A9FC06460F46DFF809
:104DE00048814349C8E90067D1E9000100223F4BEF
:104DF000FBF79CFC30A3D3E90023FBF797FC2EA321
:104E0000D3E9002304460D46DFF820913949C9E96A
:104E10000045D1E90001FBF789FC374BC3E90001EC
:104E200025A3D3E900233549D1E90001FBF77EFC36
:104E3000334BC3E9000120A3D3E900233149D1E971
:104E40000001FBF773FC304B3246C3E900013B46DF
:104E500030463946FBF740FB224606462B460F46B6
:104E600020462946FBF738FB02460B4630463946BA
:104E7000FBF77CF906F064F804460D46234B00224C
:104E8000C3E900450023FBF78FFD214E002800F009
:104E90008880DDE90834C6E9003400221D4B1A8001
:104EA00001221D4B1A701D4817B0BDE8F04F02F0EB
:104EB000B6BA00BFAFF30080000000205C6F47402F
:104EC000DC0D0020EC0700208C0900200000C4420B
:104ED00090050020A00500200000C844B80500206F
:104EE0000000F0418C090020E005002000805840BF
:104EF00000060020C0050020A8050020D8050020DD
:104F0000400B002090090020F00700204006002000
:104F1000D0050020C8050020940500206C12002058
:104F20002C0B0020E80D00205006002098050020E2
:104F300050465946FBF742FD00287FF48BAD2246D0
:104F40002B4630463946FBF757FD00283FF480AD2D
:104F5000B246BB467EE520462946FBF72FFD0028DA
:104F60007FF4B8AD32463B4640464946FBF744FD28
:104F700000283FF4ADAD44464D46ABE53846FBF75F
:104F8000D9FD514620603046FBF7D2FDBCE63946DC
:104F90002046FBF7CDFDE3E639462046FBF7C8FD8A
:104FA0000CE72246D9E900012B46FBF7BFFB05F0D1
:104FB00099FF00224A4BFBF78FFA47A3D3E900235E
:104FC000FBF7B4FB04460D46D8E90001002200239C
:104FD000C6E90045FBF7F2FC00283FF45EAF22462D
:104FE0002B4600203F49FBF7BFF8C6E9000154E714
:104FF00075B1012F0CD13C4802F0DCF900233B4A8B
:105000003380136843F001031360394B1F704AE784
:105010001A88511C1980032A1CD8DFE802F00224E8
:105020003F4C01220421334800F0C4FE0022042139
:10503000304800F0BFFE00212F4AD36823F0080358
:10504000D360636823F4706343F4806363602B4828
:1050500002F09AFD00212A4802F020FE042128488F
:1050600002F01CFE1FE701228021224800F0A2FE70
:10507000002280211F4800F09DFE224B08211A8843
:10508000214BDA621C4AD36823F00203D3606368C1
:1050900023F00F0343F004036360D8E7164A0421AA
:1050A000D36823F01003D360636823F4704343F4A0
:1050B00080436360CBE7154B0C211A88124BDA62F0
:1050C0000D4AD36823F00403D360636823F0F00330
:1050D00043F040036360BAE74AD8124DFB21094010
:1050E00000806640008076406C12002010E000E0F6
:1050F0009405002000080140000C0140AC13002082
:10510000F4130020B8050020000400408C090020A2
:105110000120704708B503F013F8162303604FF021
:10512000FF3008BD08B503F00BF816230360FEE757
:1051300070B50E4614460025A54201DB204670BD21
:10514000AFF3008070550135F6E770B50E46144692
:105150000025A54201DB204670BD705DAFF30080E5
:105160000135F6E74FF0FF3070474FF40053002051
:105170004B60704701207047002070470B4B024680
:10518000196810B509B90A491960186809490A4C23
:105190000244091B8A4206D902F0D2FF0C230360A5
:1051A0004FF0FF3010BD1A60FCE700BF780500200B
:1051B0007814002000500020000400007047000018
:1051C00073B50546144CC5F30726E3689847636931
:1051D0009847636AC5F30740EDB20BB1A36A8BB978
:1051E000236A98473046236A98472846236A984797
:1051F000E36998470546A369984723699847284675
:1052000002B070BD8DF8040003218DF805608DF8A3
:10521000065001A89847EBE73C010020F7B505468A
:10522000164C0F46E368984763699847A36A45F0B0
:105230000406C5F30740F6B2C5F3072583B9236A10
:1052400098472846236A98473046236A9847384645
:10525000236A9847A36998472369984703B0F0BD2C
:1052600004218DF804008DF805508DF806608DF846
:1052700007700DEB01009847ECE700BF3C010020F0
:105280002DE9F34105461A4C0E46E3681746984748
:1052900063699847636AC5F30740C5F30728EDB211
:1052A0000BB1A36AB3B9236A98474046236A98476B
:1052B0002846236A98473744B74206D1A3699847DE
:1052C0002369984702B0BDE8F081E369984706F882
:1052D000010BF1E78DF80400032101A88DF805808A
:1052E0008DF80650984739463046636A9847E5E797
:1052F0003C0100202DE9F34105461A4C8846E3683D
:105300001746984763699847A36A45F00406C5F3B2
:105310000740F6B2C5F30725B3B9236A9847284674
:10532000236A98473046236A98474744474506D141
:10533000A36998472369984702B0BDE8F081236AC2
:1053400018F8010B9847F1E78DF80400032101A834
:105350008DF805508DF80660984739464046A36A97
:105360009847E5E73C010020F8B5002446010836DF
:1053700006F5005706F504563846FFF721FF0502EB
:105380003046FFF71DFFADB20544ADB24DB1384612
:10539000FFF716FF04023046FFF712FFA4B20444E1
:1053A000A4B2AC42E8D12046F8BDF8B500244601CD
:1053B000083606F5185706F51C563846FFF700FF65
:1053C00005023046FFF7FCFEADB20544ADB24DB16B
:1053D0003846FFF7F5FE04023046FFF7F1FEA4B2AF
:1053E0000444A4B2AC42E8D12046F8BD2DE9F8430C
:1053F000894614462AB385006F1CFF0007F5105834
:105400004046FFF7DDFE07F5145706463846FFF71E
:10541000D7FE00EB062086B202353002224649460E
:1054200000EBC500FFF766FFA11940468CB2C1F33F
:105430000721FFF7F3FE3846E1B2BDE8F843FFF776
:10544000EDBEBDE8F8832DE9F843894614462AB33A
:1054500085006F1CFF0007F520584046FFF7B0FE9F
:1054600007F5245706463846FFF7AAFE00EB06204C
:1054700086B2033530022246494600EBC500FFF7ED
:10548000FFFEA11940468CB2C1F30721FFF7C6FE0B
:105490003846E1B2BDE8F843FFF7C0BEBDE8F88387
:1054A000F8B54401083404F5205738460D46FFF797
:1054B00087FE04F5245406462046FFF781FE29188E
:1054C00001EB062138468DB2C1F30721FFF7A6FE96
:1054D0002046E9B2BDE8F840FFF7A0BE704700786B
:1054E00070470170704700207047704770477047E1
:1054F0007047704770470000054B00B121B9054A5D
:105500005A61054A9A617047C3E90501704700BFB7
:105510003C010020F3540008F5540008084B10B576
:105520001C881A46A40500D4FEE700B121B9054B3A
:10553000D361054B136210BDC3E90701FBE700BF50
:105540003C010020E7540008EB540008084B10B55C
:105550001C881A46A40500D4FEE700B121B9054B0A
:105560005362054B936210BDC3E90901FBE700BF1D
:105570003C010020ED540008EF5400087FB50622DE
:1055800004A94FF41060FFF77BFE04224FF48070F3
:105590000DEB0201FFF774FE02A904224FF4A06094
:1055A000FFF76EFE042203A94FF47060FFF768FE58
:1055B00080210020FFF732FE0020FFF701FE04A942
:1055C00006224FF41060FFF795FE04224FF480701E
:1055D0000DEB0201FFF78EFE02A904224FF4A0603A
:1055E000FFF788FE04224FF4706003A9FFF782FEE4
:1055F00007B05DF804FBF8B505460C46FFF7BEFFA3
:10560000BDB16E1E32460023073512F8011F0B4450
:105610005BB2102B29DCAA42F7D141F6087542F2A1
:105620000807284616F8011F2035FFF7F7FDBD4291
:10563000F7D10CB90020F8BD651E2A4600230734B7
:1056400012F8011F0B445BB2102B0EDC9442F7D111
:1056500041F6086441F60876204615F8011F20340B
:10566000FFF7DCFDB442F7D1E4E74FF0FF30E2E7AB
:1056700010B50446014606224FF41060FFF73AFECB
:1056800004224FF4807004F10E01FFF733FE042270
:105690004FF4A06004F10A01FFF72CFE04224FF43E
:1056A0007060A11DFFF726FE064BA27C1A70E27CFB
:1056B0005A70227D9A70627DDA7094F81921024B3B
:1056C0001A7010BD7D0500207C0500200C480D4996
:1056D0000D4A002302E0D458C4500433C4188C424D
:1056E000F9D30A4A0A4C002301E013600432A242B3
:1056F000FBD3FFF763FD02F029FDFDF72DFB70479B
:1057000000000020440300208CBD00084803002056
:1057100078140020FEE7000038B50E4B05461878D7
:105720004FF47A73B3FBF0F30B4A1068B0FBF3F05D
:1057300000F0B0F8044658B90F2D09D802462946A2
:105740004FF0FF3000F054F82046044B1D6038BD88
:105750000120FCE768010020380100206C010020D6
:10576000074A08B51368032043F01003136000F0E4
:105770002DF80020FFF7D0FFFEF7E2FE002008BD65
:1057800000200240034A044B11681B780B4413604D
:10579000704700BF4414002068010020014B1868C6
:1057A000704700BF4414002038B50446FFF7F6FFE9
:1057B0000546631C1EBF044B1B78E418FFF7EEFF81
:1057C000431BA342FAD338BD6801002007490302F6
:1057D000CA6803F4E06322F4E0621204120C13437B
:1057E00043F0BF6343F40033CB60704700ED00E04B
:1057F000164B30B5DC68C4F30224C4F10703251D41
:10580000042B28BF0423062D4FF0FF3598BF00243A
:1058100005FA03F388BF033C21EA0303A34005FA1A
:1058200004F422EA0402002843EA0203ACBF00F1B8
:105830006040074A4FEA0313DBB2ABBF00F561409B
:1058400000F00F0080F80033135430BD00ED00E08D
:1058500014ED00E0002808DB0123420900F01F00DE
:1058600003FA00F0014B43F82200704700E100E02A
:10587000BFF34F8F0549064BCA6802F4E062134339
:10588000CB60BFF34F8F00BFFDE700BF00ED00E02E
:105890000400FA050138B0F1807F0AD2F021064BEE
:1058A000064A586082F823100020072298601A6088
:1058B00070470120704700BF10E000E000ED00E0FD
:1058C000114AD36813F0100305D01049CB6943F097
:1058D0000203CB611023D268500706D50B4943F071
:1058E0000403CA6942F00102CA61074AD169C907C3
:1058F00008D50648C16941F00401C161D16921F0B0
:105900000101D161D360704700200240481400209B
:10591000064B186910F0800007D0054A5A6002F162
:1059200088325A601869C0F3C010704700200240E6
:1059300023016745034A0020136943F08003136184
:10594000704700BF00200240F8B50446FFF726FF6D
:10595000114D07462E46EB68D80712D4EB6899061E
:1059600044BF2023EB60F368DA0606D4F369DB0753
:1059700003D4F06810F0040007D0FFF7A1FF012066
:1059800003E0631CE7D00CB90320F8BDFFF706FF66
:10599000C01BA042DFD9F7E7002002402DE9F84FF5
:1059A000254E1F46337E0546012B8846914640D042
:1059B00001234CF250303376FFF7C6FFA8BB012D10
:1059C00003D0022D0CBF022504254FF0000A5346D8
:1059D000DFF868B04FEA0A14C4F12001A4F12002F4
:1059E00007FA01F129FA04F4F3610C4327FA02F2F1
:1059F0001443DBF81020A4B242F00102CBF81020CF
:105A00004CF2503028F81A40FFF79EFFDBF81020C8
:105A100022F00102CBF8102038B90AF1010A5FFA2E
:105A20008AF295424FF00003D4D800233376BDE8C4
:105A3000F88F0220FBE700BF48140020002002403E
:105A40000022064BDA61064B1A6942F004021A6121
:105A50001A6942F040021A61704700BF48140020E2
:105A6000002002400022064BDA61064B1A6942F020
:105A700002021A6158611A6942F040021A617047C5
:105A800048140020002002402DE9F041224E054636
:105A9000337E8846012B3DD00124347603684CF2D6
:105AA0005030022B13D1FFF74FFF20B1012000230C
:105AB0003376BDE8F081FFF7C3FF4CF25030FFF7BB
:105AC00043FF164A136923F004031361EFE7FFF75E
:105AD0003BFF0028EAD14FF0FF33C8F800302046E2
