:020000040800F2
:100000000050002069480008513C0008593C000895
:100010005B3C00085D3C00085F3C000800000000FD
:10002000000000000000000000000000613C00082B
:10003000633C000800000000653C0008693C0008C3
:10004000B1480008B1480008B1480008B1480008AC
:10005000B1480008B1480008B1480008B14800089C
:10006000B1480008B1480008B1480008B14800088C
:10007000B1480008B1480008B1480008B14800087C
:10008000B1480008B1480008B1480008B14800086C
:10009000B1480008B1480008B1480008B14800085C
:1000A000B1480008B1480008B1480008B14800084C
:1000B000913C00089D3C0008B13C0008B148000894
:1000C000B1480008B1480008B1480008B14800082C
:1000D000B1480008B1480008B1480008B14800081C
:1000E000B1480008B1480008B1480008000000000D
:1000F0000000000000000000000000000000000000
:0C01000000000000000000005FF808F1A3
:1001100010B5054C237833B9044B13B10448AFF341
:1001200000800123237010BD480300200000000060
:10013000DC9E000808B5034B1BB103490348AFF32D
:10014000008008BD000000004C030020DC9E000879
:10015000034613F8012B002AFBD1181A0138704707
:1001600081F0004102E000BF83F0004330B54FEA68
:1001700041044FEA430594EA050F08BF90EA020FD5
:100180001FBF54EA000C55EA020C7FEA645C7FEA68
:10019000655C00F0E2804FEA5454D4EB5555B8BF8B
:1001A0006D420CDD2C4480EA020281EA030382EAFC
:1001B000000083EA010180EA020281EA0303362D8E
:1001C00088BF30BD11F0004F4FEA01314FF4801C61
:1001D0004CEA113102D0404261EB410113F0004F73
:1001E0004FEA03334CEA133302D0524263EB43032A
:1001F00094EA050F00F0A780A4F10104D5F1200EC8
:100200000DDB02FA0EFC22FA05F2801841F1000122
:1002100003FA0EF2801843FA05F359410EE0A5F1F6
:1002200020050EF1200E012A03FA0EFC28BF4CF027
:10023000020C43FA05F3C01851EBE37101F00045DD
:1002400007D54FF0000EDCF1000C7EEB00006EEBEA
:100250000101B1F5801F1BD3B1F5001F0CD3490874
:100260005FEA30004FEA3C0C04F101044FEA4452CB
:1002700012F5800F80F09A80BCF1004F08BF5FEA52
:10028000500C50F1000041EB045141EA050130BD32
:100290005FEA4C0C404141EB0101013C28BFB1F544
:1002A000801FE9D291F0000F04BF01460020B1FA8F
:1002B00081F308BF2033A3F10B03B3F120020CDA62
:1002C0000C3208DD02F1140CC2F10C0201FA0CF040
:1002D00021FA02F10CE002F11402D8BFC2F1200CA5
:1002E00001FA02F120FA0CFCDCBF41EA0C0190405B
:1002F000E41AA2BF01EB0451294330BD6FEA0404A4
:100300001F3C1CDA0C340EDC04F11404C4F120028E
:1003100020FA04F001FA02F340EA030021FA04F3A0
:1003200045EA030130BDC4F10C04C4F1200220FAF7
:1003300002F001FA04F340EA0300294630BD21FA35
:1003400004F0294630BD94F0000F83F4801306BFFB
:1003500081F480110134013D4EE77FEA645C18BFEF
:100360007FEA655C29D094EA050F08BF90EA020F86
:1003700005D054EA000C04BF1946104630BD91EA7E
:10038000030F1EBF0021002030BD5FEA545C05D181
:100390004000494128BF41F0004130BD14F58004C0
:1003A0003CBF01F5801130BD01F0004545F0FE4134
:1003B00041F470014FF0000030BD7FEA645C1ABF69
:1003C000194610467FEA655C1CBF0B46024650EAA0
:1003D000013406BF52EA033591EA030F41F40021CC
:1003E00030BD00BF90F0000F04BF0021704730B552
:1003F0004FF4806404F132044FF000054FF0000127
:1004000050E700BF90F0000F04BF0021704730B5E7
:100410004FF4806404F1320410F0004548BF4042BC
:100420004FF000013EE700BF42004FEAE2014FEA11
:1004300031014FEA02701FBF12F07F4393F07F4FEC
:1004400081F06051704732F07F4208BF704793F0EF
:100450007F4F04BF41F40021704730B54FF4607402
:1004600001F0004521F000411CE700BF50EA010205
:1004700008BF704730B54FF000050AE050EA0102AE
:1004800008BF704730B511F0004502D5404261EB1E
:1004900041014FF4806404F132045FEA915C3FF45F
:1004A000D8AE4FF003025FEADC0C18BF03325FEAFC
:1004B000DC0C18BF033202EBDC02C2F1200300FAAD
:1004C00003FC20FA02F001FA03FE40EA0E0021FAD2
:1004D00002F11444BDE600BF70B54FF0FF0C4CF4C0
:1004E000E06C1CEA11541DBF1CEA135594EA0C0F72
:1004F00095EA0C0F00F0DEF82C4481EA030621EAAD
:100500004C5123EA4C5350EA013518BF52EA0335E7
:1005100041F4801143F4801338D0A0FB02CE4FF099
:100520000005E1FB02E506F00042E0FB03E54FF0C9
:100530000006E1FB03569CF0000F18BF4EF0010EC1
:10054000A4F1FF04B6F5007F64F5407404D25FEABD
:100550004E0E6D4146EB060642EAC62141EA555170
:100560004FEAC52040EA5E504FEACE2EB4F1FD0CB2
:1005700088BFBCF5E06F1ED8BEF1004F08BF5FEA30
:10058000500E50F1000041EB045170BD06F00046E2
:1005900046EA010140EA020081EA0301B4EB5C048F
:1005A000C2BFD4EB0C0541EA045170BD41F4801187
:1005B0004FF0000E013C00F3AB8014F1360FDEBFAC
:1005C000002001F0004170BDC4F10004203C35DA88
:1005D0000C341BDC04F11404C4F1200500FA05F30B
:1005E00020FA04F001FA05F240EA020001F00042AC
:1005F00021F0004110EBD37021FA04F642EB060122
:100600005EEA430E08BF20EAD37070BDC4F10C044B
:10061000C4F1200500FA04F320FA05F001FA04F20F
:1006200040EA020001F0004110EBD37041F10001FB
:100630005EEA430E08BF20EAD37070BDC4F1200506
:1006400000FA05F24EEA020E20FA04F301FA05F26E
:1006500043EA020321FA04F001F0004121FA04F216
:1006600020EA020000EBD3705EEA430E08BF20EAE6
:10067000D37070BD94F0000F0FD101F00046400020
:1006800041EB010111F4801F08BF013CF7D041EAA2
:10069000060195F0000F18BF704703F000465200A6
:1006A00043EB030313F4801F08BF013DF7D043EA77
:1006B0000603704794EA0C0F0CEA135518BF95EA2D
:1006C0000C0F0CD050EA410618BF52EA4306D1D1B4
:1006D00081EA030101F000414FF0000070BD50EAD3
:1006E000410606BF1046194652EA430619D094EA5D
:1006F0000C0F02D150EA013613D195EA0C0F05D147
:1007000052EA03361CBF104619460AD181EA03019A
:1007100001F0004141F0FE4141F470014FF0000052
:1007200070BD41F0FE4141F4780170BD70B54FF0ED
:10073000FF0C4CF4E06C1CEA11541DBF1CEA13556D
:1007400094EA0C0F95EA0C0F00F0A7F8A4EB05044F
:1007500081EA030E52EA03354FEA013100F0888046
:100760004FEA03334FF0805545EA131343EA12630F
:100770004FEA022245EA111545EA10654FEA0026C4
:100780000EF000419D4208BF964244F1FD0404F57D
:10079000407402D25B084FEA3202B61A65EB0305D9
:1007A0005B084FEA32024FF480104FF4002CB6EB96
:1007B000020E75EB030E22BFB61A754640EA0C0016
:1007C0005B084FEA3202B6EB020E75EB030E22BF56
:1007D000B61A754640EA5C005B084FEA3202B6EB97
:1007E000020E75EB030E22BFB61A754640EA9C0056
:1007F0005B084FEA3202B6EB020E75EB030E22BF26
:10080000B61A754640EADC0055EA060E18D04FEAE3
:10081000051545EA16754FEA06164FEAC30343EA83
:1008200052734FEAC2025FEA1C1CC0D111F4801F50
:100830000BD141EA00014FF000004FF0004CB6E749
:1008400011F4801F04BF01430020B4F1FD0C88BFE8
:10085000BCF5E06F3FF6AFAEB5EB030C04BFB6EBF3
:10086000020C5FEA500C50F1000041EB045170BDE6
:100870000EF0004E4EEA113114EB5C04C2BFD4EB13
:100880000C0541EA045170BD41F480114FF0000E97
:10089000013C90E645EA060E8DE60CEA135594EA13
:1008A0000C0F08BF95EA0C0F3FF43BAF94EA0C0F16
:1008B0000AD150EA01347FF434AF95EA0C0F7FF48B
:1008C00025AF104619462CE795EA0C0F06D152EADF
:1008D00003353FF4FDAE1046194622E750EA4106C3
:1008E00018BF52EA43067FF4C5AE50EA41047FF4D4
:1008F0000DAF52EA43057FF4EBAE12E74FF0FF3C39
:1009000006E000BF4FF0010C02E000BF4FF0010C09
:100910004DF804CD4FEA410C7FEA6C5C4FEA430C82
:1009200018BF7FEA6C5C1BD001B050EA410C0CBFD1
:1009300052EA430C91EA030F02BF90EA020F002033
:10094000704710F1000F91EA030F58BF994208BF9A
:1009500090422CBFD8176FEAE37040F00100704757
:100960004FEA410C7FEA6C5C02D150EA013C07D1AE
:100970004FEA430C7FEA6C5CD6D152EA033CD3D0F9
:100980005DF8040B704700BF8446104662468C46F3
:100990001946634600E000BF01B5FFF7B7FF002826
:1009A00048BF10F1000F01BD4DF808EDFFF7F4FF4F
:1009B0000CBF012000205DF808FB00BF4DF808EDDA
:1009C000FFF7EAFF34BF012000205DF808FB00BFFD
:1009D0004DF808EDFFF7E0FF94BF012000205DF81F
:1009E00008FB00BF4DF808EDFFF7CEFF94BF0120D4
:1009F00000205DF808FB00BF4DF808EDFFF7C4FFCD
:100A000034BF012000205DF808FB00BF4FEA410C15
:100A10007FEA6C5C02D150EA013C0AD14FEA430CF8
:100A20007FEA6C5C02D152EA033C02D14FF0000035
:100A300070474FF0010070474FEA410212F5001273
:100A400015D211D56FF47873B3EB625212D94FEA15
:100A5000C12343F0004343EA505311F0004F23FAFF
:100A600002F018BF404270474FF00000704750EA54
:100A7000013005D111F0004008BF6FF00040704711
:100A80004FF00000704700BF4FEA4102B2F1E0436F
:100A900024BFB3F5001CDCF1FE5C0DD901F0004C65
:100AA0004FEAC0024CEA5070B2F1004F40EB8300B5
:100AB00008BF20F00100704711F0804F21D113F1E1
:100AC0003872BCBF01F00040704741F480114FEA1A
:100AD0005252C2F11802C2F1200C10FA0CF320FAA3
:100AE00002F018BF40F001004FEAC1234FEAD323C0
:100AF00003FA0CFC40EA0C0023FA02F34FEA43032A
:100B0000CCE77FEA625307D150EA01331EBF4FF0B2
:100B1000FE4040F44000704701F0004040F0FE40CD
:100B200040F40000704700BF80F0004002E000BFCA
:100B300081F0004142001FBF5FEA410392EA030FC8
:100B40007FEA226C7FEA236C6AD04FEA1262D2EB12
:100B50001363C1BFD218414048404140B8BF5B4217
:100B6000192B88BF704710F0004F40F4000020F0B0
:100B70007F4018BF404211F0004F41F4000121F0C6
:100B80007F4118BF494292EA030F3FD0A2F1010210
:100B900041FA03FC10EB0C00C3F1200301FA03F14E
:100BA00000F0004302D5494260EB4000B0F5000F71
:100BB00013D3B0F1807F06D340084FEA310102F130
:100BC0000102FE2A51D2B1F1004F40EBC25008BFE2
:100BD00020F0010040EA03007047490040EB0000AC
:100BE000013A28BFB0F5000FEDD2B0FA80FCACF1AD
:100BF000080CB2EB0C0200FA0CF0AABF00EBC250DA
:100C000052421843BCBFD0401843704792F0000FC7
:100C100081F4000106BF80F400000132013BB5E71A
:100C20004FEA41037FEA226C18BF7FEA236C21D090
:100C300092EA030F04D092F0000F08BF08467047F5
:100C400090EA010F1CBF0020704712F07F4F04D1C3
:100C5000400028BF40F00040704712F100723CBFD6
:100C600000F50000704700F0004343F0FE4040F400
:100C7000000070477FEA226216BF08467FEA2363BE
:100C80000146420206BF5FEA412390EA010F40F4A9
:100C9000800070474FF0000304E000BF10F00043F5
:100CA00048BF40425FEA000C08BF704743F09643DC
:100CB00001464FF000001CE050EA010208BF7047F7
:100CC0004FF000030AE000BF50EA010208BF70477E
:100CD00011F0004302D5404261EB41015FEA010C93
:100CE00002BF84460146002043F0B64308BFA3F18B
:100CF0008053A3F50003BCFA8CF2083AA3EBC2536D
:100D000010DB01FA02FC634400FA02FCC2F120028B
:100D1000BCF1004F20FA02F243EB020008BF20F0C2
:100D20000100704702F1200201FA02FCC2F1200228
:100D300050EA4C0021FA02F243EB020008BF20EA1D
:100D4000DC7070474FF0FF0C1CEAD0521EBF1CEA4B
:100D5000D15392EA0C0F93EA0C0F6FD01A4480EA39
:100D6000010C400218BF5FEA41211ED04FF0006322
:100D700043EA501043EA5111A0FB01310CF000404E
:100D8000B1F5000F3EBF490041EAD3715B0040EA74
:100D9000010062F17F02FD2A1DD8B3F1004F40EB44
:100DA000C25008BF20F00100704790F0000F0CF017
:100DB000004C08BF49024CEA502040EA51207F3ADB
:100DC000C2BFD2F1FF0340EAC250704740F40000B6
:100DD0004FF00003013A5DDC12F1190FDCBF00F0A7
:100DE00000407047C2F10002410021FA02F1C2F155
:100DF000200200FA02FC5FEA310040F1000053EAF1
:100E00004C0308BF20EADC70704792F0000F00F03E
:100E1000004C02BF400010F4000F013AF9D040EA44
:100E20000C0093F0000F01F0004C02BF490011F4D8
:100E3000000F013BF9D041EA0C018FE70CEAD153D6
:100E400092EA0C0F18BF93EA0C0F0AD030F0004C56
:100E500018BF31F0004CD8D180EA010000F000400A
:100E6000704790F0000F17BF90F0004F084691F0C8
:100E7000000F91F0004F14D092EA0C0F01D1420202
:100E80000FD193EA0C0F03D14B0218BF084608D1CB
:100E900080EA010000F0004040F0FE4040F4000015
:100EA000704740F0FE4040F4400070474FF0FF0CA8
:100EB0001CEAD0521EBF1CEAD15392EA0C0F93EAEF
:100EC0000C0F69D0A2EB030280EA010C49024FEA41
:100ED000402037D04FF0805343EA111143EA1013FA
:100EE0000CF000408B4238BF5B0042F17D024FF4B2
:100EF000000C8B4224BF5B1A40EA0C00B3EB510F8D
:100F000024BFA3EB510340EA5C00B3EB910F24BF75
:100F1000A3EB910340EA9C00B3EBD10F24BFA3EBFA
:100F2000D10340EADC001B0118BF5FEA1C1CE0D1C2
:100F3000FD2A3FF650AF8B4240EBC25008BF20F075
:100F4000010070470CF0004C4CEA50207F32C2BFC9
:100F5000D2F1FF0340EAC250704740F400004FF066
:100F60000003013A37E792F0000F00F0004C02BF97
:100F7000400010F4000F013AF9D040EA0C0093F061
:100F8000000F01F0004C02BF490011F4000F013BBB
:100F9000F9D041EA0C0195E70CEAD15392EA0C0F23
:100FA00008D142027FF47DAF93EA0C0F7FF470AF5B
:100FB000084676E793EA0C0F04D14B023FF44CAF9E
:100FC00008466EE730F0004C18BF31F0004CCAD133
:100FD00030F000427FF45CAF31F000437FF43CAF6F
:100FE0005FE700BF4FF0FF3C06E000BF4FF0010C91
:100FF00002E000BF4FF0010C4DF804CD4FEA400273
:101000004FEA41037FEA226C18BF7FEA236C11D0BC
:1010100001B052EA530C18BF90EA010F58BFB2EB6F
:10102000030088BFC81738BF6FEAE17018BF40F0EF
:10103000010070477FEA226C02D15FEA402C05D1A3
:101040007FEA236CE4D15FEA412CE1D05DF8040B28
:10105000704700BF844608466146FFE70FB5FFF7BB
:10106000C9FF002848BF10F1000F0FBD4DF808ED73
:10107000FFF7F4FF0CBF012000205DF808FB00BF64
:101080004DF808EDFFF7EAFF34BF012000205DF8BE
:1010900008FB00BF4DF808EDFFF7E0FF94BF01200B
:1010A00000205DF808FB00BF4DF808EDFFF7D2FF08
:1010B00094BF012000205DF808FB00BF4DF808ED4B
:1010C000FFF7C8FF34BF012000205DF808FB00BF18
:1010D0004FEA4002B2F1FE4F0FD34FF09E03B3EB45
:1010E00012620DD94FEA002343F0004310F0004F85
:1010F00023FA02F018BF404270474FF000007047DB
:1011000012F1610F01D1420205D110F0004008BF79
:101110006FF0004070474FF00000704708B50422A0
:101120004FF47060084903F0B3F904224FF4A06053
:10113000064903F0ADF9BDE8084004224FF4807081
:10114000034903F0A5B900BF6C040020700400201F
:101150006803002008B58021002003F02DF900204D
:1011600003F0FCF8FFF7DAFFBDE8084006224FF471
:101170001060014903F08CB9E00D002008B5802112
:10118000002003F019F9002003F0E8F8BDE808405A
:1011900006224FF41060014903F07AB9E00D0020F7
:1011A00070B5094B094E0A4C1E600A4E0A4D0028C4
:1011B00008BF3046002918BF0C46084E2C6030602E
:1011C00002B11A6070BD00BF0C0000207D11000844
:1011D000551100081D110008100000200800002013
:1011E00007B5062269464FF4106003F017F9204B4B
:1011F000204A1B681A60204A1268110E1971110CDE
:101200005971110A9971DA7100214FF40002C3E992
:1012100002211A4AC3E904111078996118775078AD
:10122000587790789877D078D8771079527983F872
:10123000200083F8212003F12C0003F1220202F8A0
:10124000011B8242FBD1002003F16C0102F8010B6B
:101250008A42FBD1002003F1EC0102F8010B91421C
:10126000FBD1074AC3F8EC2003B05DF804FB00BFD4
:10127000F40D002001010600E80D0020E00D002023
:10128000638253631FB5FFF7ABFF2D4B0022196834
:101290002C4B8A72C1F8F03040F20713A1F8F430F9
:1012A000294BCA72187881F8F600587881F8F7004F
:1012B000987881F8F800D87881F8F90018795B7986
:1012C00081F8FA0081F8FB3040F23243A1F8FC309B
:1012D0001E4B187881F8FE00587881F8FF00987846
:1012E000DB7881F8000181F8013140F23643A1F842
:1012F0000231174B187881F80401587881F80501FC
:10130000987881F80601DB7801F5097081F80731DA
:10131000FF2381F8083101F2091303F8012B8342FE
:10132000FBD14FF0FF33039343230A4800934FF45C
:10133000097203AB007802F05FF905B05DF804FBB9
:10134000F40D00203501043DE00D00206C04002068
:10135000F00D0020F80D00202DE9F04FA14D8BB0CD
:10136000287803F0F0F8024618B900200BB0BDE869
:10137000F08F0DF11E039C4C0093216808AB287878
:1013800002F0EAF9BDF81E30432B40F028812168B5
:10139000964B0C7F1A789442E7D14C7F5A7894424E
:1013A000E3D18C7F9A789442DFD1CC7FDA78944273
:1013B000DBD191F820401A799442D6D191F82120BE
:1013C0005B799A42D1D18A4A9DF820901778567855
:1013D0009578D47847EA06032B432343029220D022
:1013E0004F450BD19DF82130B34207D19DF82230F3
:1013F000AB4203D19DF82330A34212D07D4B1C7821
:101400004C45B2D19DF821505C78A542ADD19DF8F4
:1014100022509C78A542A8D19DF82340DB789C42BD
:10142000A3D180B201EB000A00209DF8212001F138
:10143000F00303929DF822206E4904929DF8232028
:101440006D4C6E4D6E4E6F4F0592534501D340B2B9
:101450008CE793F800C0BCF1350F39D013D8BCF13C
:10146000060F08D8BCF1060F08D8DFE80CF02F34BF
:10147000074607075B00BCF1330F66D003F1020C8F
:101480005B786344E1E7BCF1E10F00F08C8018D891
:10149000BCF1360F6DD0BCF1E00FEFD193F802E054
:1014A00093F801C084F800E093F803E084F801E0C9
:1014B00093F804E084F802E093F805E084F803E090
:1014C0002DE0BCF1FF0FD9D15346BEE70133BCE795
:1014D00098780333B9E793F802C087F800C093F80F
:1014E00003C087F801C093F804C087F802C093F8DE
:1014F00005C087F803C00633A7E793F802E093F826
:1015000001C086F800E093F803E086F801E093F864
:1015100004E086F802E093F805E086F803E063440F
:10152000023392E793F802E093F801C085F800E0F7
:1015300093F803E085F801E093F804E085F802E011
:1015400093F805E085F803E0E9E793F802C02E4A36
:10155000C2F800C093F803E00EEB0C2C93F804E003
:101560000EEB0C2E93F805C00CEB0E2CC2F800C04D
:10157000C1E793F802C0029A82F800C093F803C052
:1015800081F8009082F801C093F804C082F802C08C
:1015900093F805C082F803C0039A4A70049A8A70CF
:1015A000059ACA70A7E79A1C964693F801C0C3F142
:1015B000FF2303F57F03DFF85480FE330EEB030BAC
:1015C000DC4507DC13464FF0000E104A634402F876
:1015D0000CE03AE71EF801BB08F801BBEEE700207B
:1015E00035E700BFF80D0020F40D0020E00D0020CD
:1015F000F00D0020EC0D0020740400206403002096
:101600006803002070040020140000206C030020F8
:1016100037B54FF4D85002F0A1FE032105464FF430
:10162000D85002F0C9FE41F288330E4800931122CF
:101630000D4B0E49007801F0DFFF044629464FF4B8
:10164000D85002F0B9FE0D340AD0FFF71BFE084B4C
:1016500019681A68521A012AFBD9002003B030BD5C
:101660000120FBE7F80D00206C040020F89E000824
:101670008004002000230A21034A1360034A1160FA
:10168000034A1370704700BF800400201800002038
:101690007C040020002373B5244C062206460D4628
:1016A0004FF410602146019302F0B8FE627823786F
:1016B0001343A2781343E2781343227913436279E8
:1016C00013430DD108226270DC222146A2704FF430
:1016D000106006222370E3702371637102F0D8FE5C
:1016E000134B20791E70134BE1781D60124B627909
:1016F0000C182344414013444A4013440F4A4FF40A
:101700007060136004220DEB020102F0C1FE04229E
:101710004FF480700DEB020102F0BAFEFFF7AAFF52
:101720000022074B1A7002B070BD00BFE00D002010
:10173000F80D0020F40D002078563412E80D00203A
:101740007D040020024A136801331360704700BF14
:1017500080040020044B1A7802705A7842709A78FC
:101760008270DB78C37070476C040020044B1A78D9
:1017700002705A7842709A788270DB78C370704732
:1017800068030020044B1A7802705A7842709A78E5
:101790008270DB78C370704774040020054A431ED2
:1017A000FE30117803F8011F12F8011B09B18342C2
:1017B000F7D170476C030020044B1A7802705A78F6
:1017C00042709A788270DB78C37070477004002092
:1017D00000F00F00092894BF303037307047000008
:1017E0002DE9F04385B0FFF7FBFC0023694A6A4806
:1017F000137053709370D370684A13705370937062
:10180000D370674B1968674BC1F8F03040F207138B
:10181000A1F8F430644B1A7893F8038081F8F6202D
:101820005A781F795E7981F8F7209A780C23A1F80D
:10183000FC30122381F8F82081F8F98081F8FA70E1
:1018400081F8FB60A3F1120292B2845C5D1CADB220
:1018500001EB0309002C40F093804FEA1810FFF7CA
:10186000B7FF89F8EC004046FFF7B2FF0D4485F85A
:10187000EC003809FFF7ACFF9D1CADB20D4485F8B4
:10188000EC003846FFF7A4FFDD1CADB20D4485F82F
:10189000EC003009FFF79CFF1D1DADB20D4485F82B
:1018A000EC003046FFF794FF5D1DADB20D4485F8A6
:1018B000EC00981D80B2D51D451B06320D4485F8FD
:1018C000EC203722084480F8EC200820DA1D92B280
:1018D0000A4482F8EC001A18012092B20A4482F8F5
:1018E000EC00032003F1090292B20A4482F8EC00F2
:1018F000062003F10A0292B20A4482F8EC000F209B
:1019000003F10B0292B20A4482F8EC003A2003F190
:101910000C0292B20A4482F8EC003B2003F10D0263
:1019200092B20A4482F8EC00E02003F10E0292B277
:101930000A4482F8EC00E12003F10F0292B20A445B
:1019400082F8EC00FF2003F1110210339BB20B442C
:1019500092B283F8EC0002F1EC030B44B2F59C7FE9
:1019600012D34FF0FF3303934323104800934FF4F7
:10197000097203AB007801F03FFE05B0BDE8F083CB
:101980002B4689F8EC405DE7013203F8014B92B237
:10199000E4E700BFF00D002000000020EC0D002067
:1019A000F40D00203501013DE00D0020F80D002070
:1019B0002DE9F04385B0FFF713FC924B92491B7859
:1019C000033B012B00F2108100220B689A72DA723D
:1019D0008E4A10781873507858739078D27898732C
:1019E000DA738B4B1A788DF80C205A788DF80D200D
:1019F0009A78DB788DF80E208DF80F300968854BCA
:101A0000C1F8F03040F20713A1F8F430824B1A7895
:101A1000DF7881F8F6205A781E7993F8058081F8EE
:101A2000F7209A789DF80F3081F8F820FF2B81F885
:101A3000F97081F8FA6081F8FB8040F0D98040F2BB
:101A40003243A1F8FC30714B1A7881F8FE205A78A5
:101A500081F8FF209A78DB7881F8002181F8013144
:101A600040F23643A1F80231694B1A7881F804211B
:101A70005A7881F805219A78DB7881F806211C22B2
:101A800081F807310C208B1883F8EC00931C01328D
:101A90008818002280F8EC20604810F8015B5C1C7C
:101AA000A4B201EB0309002D40F0A4803809FFF730
:101AB0008FFE89F8EC003846FFF78AFE0C4484F864
:101AC000EC003009FFF784FE9C1CA4B20C4484F89F
:101AD000EC003046FFF77CFEDC1CA4B20C4484F81A
:101AE000EC004FEA1810FFF773FE1C1DA4B20C4463
:101AF00084F8EC004046FFF76BFE5C1DA4B20C447A
:101B000084F8EC00981D80B2D41D041B06320C44EE
:101B100084F8EC203722084480F8EC200A20DA1DF3
:101B200092B20A4482F8EC00012003F1080292B25A
:101B30000A4482F8EC00032003F1090292B20A443D
:101B400082F8EC00062003F10A0292B20A4482F8FD
:101B5000EC000F2003F10B0292B20A4482F8EC0071
:101B60003A2003F10C0292B20A4482F8EC003B20C6
:101B700003F10D0292B20A4482F8EC001F2003F137
:101B80000E0292B20A4482F8EC00212003F10F0207
:101B900092B20A4482F8EC00E02003F1100292B203
:101BA0000A4482F8EC00E12003F1110292B20A44E7
:101BB00082F8EC00FF2003F1120292B20A441333C0
:101BC00082F8EC009BB201F1EC02B3F59C7F16DBCE
:101BD0004323134800934FF4097203AB007801F0DC
:101BE0000BFD05B0BDE8F0834FF0FF33039305E72D
:101BF000102247E7234689F8EC5001324DE7D554CF
:101C00000133E2E77D040020F40D00206C04002085
:101C1000F00D00203501033DE00D00200000002004
:101C2000F80D002070B51C4C94F90030012B1DDC20
:101C30001A4D1B4E2A683168914212D2194B93F902
:101C40000030022B0FD0042B0DD0012B01D1FFF758
:101C5000C7FD00232B602B680A33336023780133E0
:101C60002370012010E0FFF7A3FEF2E70D4B93F97C
:101C700000201C46022A08D0042A06D0012A09D1D5
:101C800000201870FFF7F6FC70BDFFF7A9FD0120DA
:101C90002070F7E70120F5E77C0400208004002095
:101CA000180000207D04002038B5524C94F9003013
:101CB000062B00F09C80504D2878400100F54270C2
:101CC00002F04CFB222805D0002344220221287870
:101CD00001F000FBFFF740FB94F90030C5B2042B84
:101CE00031D8DFE803F0030E233D5A000022434BB6
:101CF0001A705A709A70DA70FFF772FD0120207026
:101D000038BD022D0ED13E4B1A683C4B117C197028
:101D1000517C5970917CD27C9970DA70FFF748FE43
:101D2000257010E0BDE83840FFF77CBF052D12D1CB
:101D3000FFF76EFC054640B1324B1B689847FFF732
:101D400099FC032323700120DAE7FFF793FC2E4B65
:101D50001B689847E4E7062DE4D1FFF78BFCCDE73D
:101D60002A4B1B685A1C40D0294A1268B2EB530F09
:101D70003BD9224A274B11781970517859709178C4
:101D8000D2789970DA70244A136801331360FFF730
:101D90000FFEFFF76FFC0420B1E7052D1FD10022D5
:101DA0001E4B1A701B4A154B1078197888420BD1BC
:101DB00050785978884207D190789978884203D131
:101DC000D278DB789A4208D0154B1B6898470320DD
:101DD000FFF750FC0323237092E70420F8E7062D59
:101DE000A0D1FFF747FC01232370042088E70520DA
:101DF00086E700BF7D040020F80D00206C04002061
:101E0000F40D0020080000200C0000201400002029
:101E10008004002078040020E80D00207C040020CD
:101E2000100000200122014B1A7070474C05002061
:101E30007047000000224FF48051014803F01AB8A7
:101E4000000C014001224FF48051014803F012B808
:101E5000000C01400A464FF0FF330146014803F0F1
:101E60000EBE00BFFC11002007B501210DF10700D7
:101E7000FFF7F0FF9DF8070003B05DF804FB0000DA
:101E80000A464FF0FF330146014803F05CBC00BF37
:101E9000FC11002007B501218DF807000DF10700A6
:101EA000FFF7EEFF03B05DF804FB00000000000048
:101EB000674BF0B51A6803F1236303F56733763394
:101EC0009A4289B04ED101285DD0624BC8221C884D
:101ED000614BA4B21C80614B00211D88604BADB2E8
:101EE0001D80604B60481E88604BB6B21E80604B00
:101EF0001F88604BBFB21F8004F0EAFD2B462246CC
:101F0000CDE900675C49584805F04AFA4FF47A7306
:101F1000C8225549594804F0FDFC594BC8221C6899
:101F2000584B00211C60584B4F481E68574B1E6091
:101F300004F0CEFD2046FEF777FA044630460D4603
:101F4000FEF772FA2246CDE900012B465049464879
:101F500005F026FA4FF47A73C8224349474804F043
:101F6000D9FC2AE078B946F2A8133B4A13803F4ACD
:101F700013803B4A13803F4A13804FF07E53414AFF
:101F80001360424A13600023CDE903330123304A32
:101F9000404CCDE90623237002F088FD2070002814
:101FA000FAD103A904A802F03DFE40B10123237039
:101FB00002F08EFD20700028FAD109B0F0BD012397
:101FC00021A7D7E90067224D237032463B462946B8
:101FD000032002F0B1FD20700028F6D1204B1D4FE8
:101FE0001988224B1D881C4B1E88224B46EA01464D
:101FF0001A88012345EA0245237032462B463946AA
:10200000032002F099FD20700028F6D101231D4E17
:102010001B4D2370002329460220326802F08CFDFC
:1020200020700028F6D10123184E174D237000238D
:1020300029460220326802F07FFD20700028F6D188
:10204000B4E700BFAFF300807698341200000000C0
:1020500000FC000810FC0008EC05002012FC000841
:10206000B405002014FC0008840400208C09002022
:1020700016FC0008B80500200A9F00084C13002039
:1020800018FC00089005002020FC0008A005002096
:10209000359F0008281400202DE9F04104460E4623
:1020A0001746984642F68822002301210220C0B03C
:1020B00001F010F90228054645D1214642F243724B
:1020C00001F09AF90128044607D0284601F0C4F827
:1020D000FE24204640B0BDE8F0814046FEF7A4F95A
:1020E0003246CDE900013B46184903A805F058F9EE
:1020F000174B03A820938DF88440FEF729F800239E
:10210000C4B203A90DF18D008DF88540ADF886307D
:1021100022938DF88C3005F063F90D34E4B2224639
:10212000022020A901F0DEF9002804DC022001F0E1
:1021300093F8FD24CDE7241A14F0FF04EFD1022018
:1021400001F08AF8C5E7FF24C3E700BF4F9F0008EE
:102150005A425844F7B53349334802F09BFA3349A1
:10216000334802F0A9FA3349334802F0BDFA6B460E
:10217000324A334D1068516840F2E93403C369466E
:10218000084602F006FB06224FF410602D4902F0CB
:102190007FF900202C49FFF77DFA2C492C4A08468C
:1021A000FEF7FEFF2E462B4F2B780BB9013C0ED1CC
:1021B0003378ABB9BFF34F8F2749284BCA6802F475
:1021C000E0621343CB60BFF34F8F00BFFDE7FFF723
:1021D0006BFD642002F0B6FB384602F020FFE3E717
:1021E000184CA01DFFF7B6FA04F10E00FFF7BEFA77
:1021F00004F10A00FFF7E0FA04F11600FFF7C2FA53
:1022000004F11A00FFF7CAFAA37E43B9144915482E
:1022100005F0E6F80B4802F0F9FA03B0F0BD04F15E
:102220001A01F4E7451E0008351E0008951E000837
:10223000691E0008811E0008551E0008A69F0008A0
:102240004C0500201C000020FC0D0020251E00086D
:10225000311E0008F012002000ED00E00400FA0535
:102260009B9F0008C80C0020002110B590B01422DC
:1022700001A809910B9104F02BFC4FF48033092243
:102280000224CDE906234FF40032CDE90D43089234
:102290004FF46013012206A80A920C920F9302F0E9
:1022A000C5FE08B172B6FEE70F23CDE901344FF445
:1022B00080630390CDE90430214601A803F092F831
:1022C00008B172B6FEE703F04DF810B010BD000083
:1022D0002DE9F04FA54CB1B002F010FB606A636AC3
:1022E000A349656AA34A666A13F0804F676A14BF00
:1022F00013460B4615F0005FD4F824C014BF1546F2
:102300000D4616F0805F14BF16460E4617F0806F1C
:1023100014BF17460F461CF0006F0CBF8C46944646
:10232000CDE90056CDE9027C12EA200238BF0A4608
:102330009149924805F034F8FFF796FF10220021EA
:1023400028A804F0C5FBA369002243F02003A36181
:10235000A36941F2840103F020031893189BA36939
:10236000874843F00403A361A369012603F0040333
:102370001993199BA369022543F00803A361A3697C
:10238000002403F008031A931A9B02F073FD002245
:1023900041F21E017B4802F06DFD41F28403784852
:1023A00028A9CDE92836CDE92A4502F087FC41F27B
:1023B0001E03744828A9CDE92836CDE92A4502F044
:1023C0007DFC4FF4E1337048704EC0E90244C0E92F
:1023D00000630C260461C0E90564C46104F06CFA72
:1023E000054608B172B6FEE72027014610221DA857
:1023F00004F06EFB29461C2221A8CDE91B5504F0F0
:1024000067FB29463A4628A804F062FB604C614B02
:10241000A560C4E9003540F21F33C4E903355B25EC
:1024200080232046C4E9055303F072FD08B172B65B
:10243000FEE74FF4805320461DA91D9303F026FFAD
:1024400008B172B6FEE7204603F08EFD08B172B601
:10245000FEE70821204603F0DFFD08B172B6FEE773
:10246000CDE91B701BA9204604F06EF9024608B1A5
:1024700072B6FEE73023CDE92300CDE92130CDE966
:102480002500279021A9204603F020FE08B172B64E
:10249000FEE722682046936921A943F0080393616F
:1024A000042203F013FE08B172B6FEE7226820464C
:1024B000936921A943F400639361082203F006FEA7
:1024C00008B172B6FEE73246204621A903F0FEFDB0
:1024D00008B172B6FEE722682D48D36928A943F4F3
:1024E0000063D36100234FF40052CDE92833CDE9D6
:1024F0002A332C932D922F9304F054F9054608B1FA
:1025000072B6FEE70626224801F038FB1022294663
:1025100028A804F0DDFA204C204B4FF08008C4E9D5
:1025200000364FF6FF732046CDE92155C4E9033547
:10253000A560C4F8188003F0EBFC08B172B6FEE7A2
:102540004FF48057204628A9289703F09FFE08B132
:1025500072B6FEE7202321A9CDE92130204604F000
:10256000F3F80546E0B172B6FEE700BF0010024086
:10257000B39F0008AF9F0008B69F000884040020A6
:1025800000080140000C01404C13002000380140BD
:1025900094130020002C0140541200200008004039
:1025A000014610221DA804F093FA1422294621A8FE
:1025B00004F08EFA1C22294628A8724CCDE91B553E
:1025C00004F086FA704B2046C4E9003549F64043D2
:1025D000A560C4E90335C4F8188003F099FC08B17C
:1025E00072B6FEE720461DA91D9703F04FFE08B105
:1025F00072B6FEE7204603F0B7FC08B172B6FEE7FC
:102600000821204603F008FD08B172B6FEE7CDE9C7
:10261000216021A9204603F01FFF08B172B6FEE732
:1026200030231BA9CDE91B30204604F08DF808B1FA
:1026300072B6FEE700221024524828A9CDE92842AC
:102640002A922C9203F042FD054608B172B6FEE7CD
:10265000224601461DA804F03BFA1422294628A868
:1026600004F036FA2246294621A8CDE91B5504F08C
:102670002FFA4FF08043454CC4E900354FF6FF7305
:10268000C4E9033580232046A560A36103F040FC24
:1026900008B172B6FEE74FF4805320461DA91D9382
:1026A00003F0F4FD08B172B6FEE7204603F088FCA3
:1026B00008B172B6FEE704252023204628A9CDE9FB
:1026C000285303F0C9FE08B172B6FEE7CDE91B003E
:1026D0001BA9204604F038F8024608B172B6FEE79E
:1026E00001232190CDE92230249021A9204603F036
:1026F0003FFD08B172B6FEE702232A46204621A913
:10270000CDE9213303F034FD034608B172B6FEE78C
:102710001F48204A204CC0E90233C0E900424FF470
:102720008042C0E90633C0E90423036202F0A8FB3B
:10273000034608B172B6FEE74FF482721748184993
:10274000C0E90233C0E900124FF40072C0E904335B
:10275000C0E90623C0E9083383620A23C36202F09A
:102760009AFF08B172B6FEE706230E480E4AC0E98A
:10277000002340F6FF73836002F02AFC0446A8B1F0
:1027800072B6FEE70413002000040040DC130020B2
:102790009C120020A086010000540040FC11002083
:1027A00000380040F01200200030004001260122D5
:1027B0008021A948A94F02F05DFB4FF0FF33C822EA
:1027C000A749A8483E7004F0A5F84FF0FF33122245
:1027D000A549A44804F09EF8A44D22464FF4805128
:1027E0009D4802F047FB32464FF480519A4802F070
:1027F00041FB32464FF48051284602F03BFB4FF438
:10280000FA6002F09FF8FFF7A5FC2046FFF750FBA7
:10281000EB6843F01E03EB60954B16971A889B46B6
:102820001AB946F2A813ABF80030924B1A881393EA
:102830001AB946F2A8138F4A13808F4C238813B914
:1028400046F2A81323808D4B1A8814931AB946F2C6
:10285000A8138A4A1380002600272288884B002567
:10286000DA620122874BDFF894A2C3E90067864B46
:10287000DFF87492C3E90067844BDFF884821A7032
:10288000834B294683481D80AAF8005089F80050E0
:10289000C8E9006703F00EFF04217E4803F00AFF39
:1028A0004FF448727C4B4FF0000CDA627B4B7C4853
:1028B0001D8064257B497C4A7C4BCDF854A0CDF823
:1028C0005C90013D40F804CB41F804CB42F804CBC6
:1028D00043F804CBF5D1764B13221D70754B764926
:1028E0001D70764B5F481D70754B1D704FF0FF33A8
:1028F00004F010F8734803F0D1F9734803F0CEF9EF
:10290000724B2A46C3E900675E4B8021C3E900672A
:102910006F4B5148C3E900676E4BC8E90067C3E9D4
:1029200000676D4BC3E9006702F0A4FA169B1B78A1
:10293000002B00F06F81694A6948136843F0010376
:10294000136002F06CFB0023169A1370159B1B8812
:10295000002B00F0BC82564A624B12781B8852B999
:10296000544A12783AB9554A127822B9544A127820
:10297000002A00F00B82B3F5C86F80F00A82C822EB
:102980000021374804F0A4F8464BD3F800A0474B89
:1029900050461D68424BD3F80080434BD3F800905B
:1029A000514B1B78002B00F08E81FDF73DFD4F4B06
:1029B00006460F4648461968FEF7C4F901464046E8
:1029C000FEF7B6F8FDF730FDCDE908014846FDF702
:1029D0002BFDCDE906014046FDF726FDCDE90401BA
:1029E000434B28461968FEF7ADF901465046FEF7FD
:1029F0009FF8FDF719FDCDE902012846FDF714FD0A
:102A00003246CDE900013B463A49154804F0C8FC7E
:102A10004FF47A73C8221249124803F07BFF324BFD
:102A20001B78002B40F0EE80214D2B78002B00F01E
:102A300066811C4B30491E683046FEF779F8FEF778
:102A400047FB0028B8BF4042FEF728F94FF07E51FF
:102A5000FEF734FB56E000BF00080140940500205B
:102A6000840400204C130020F89F0008000C014053
:102A7000EC050020B40500208C090020B8050020DA
:102A80000004004098050020C0050020D40D00205F
:102A90008E090020DC130020002C0140C805002016
:102AA000FC0700205C06002098090020380B00205D
:102AB000FC050020300600200AA00008C70D0020F9
:102AC000B605002004130020541200204006002008
:102AD000A8050020300B0020F007002010E000E0E7
:102AE000F01200202E0B0020580600209005002038
:102AF000A00500201DA00008000048442C0B002069
:102B000050060020002800F0FA80304685492588CC
:102B1000FEF7D4FA002800F0F08001352580824DC0
:102B20002B78002B00F0F080804B7E491E683046E9
:102B3000FDF7FEFFFEF7CCFA0028B8BF4042FEF7D3
:102B4000ADF84FF07E51FEF7B9FA002800F0DC80B6
:102B500030467449BBF80050FEF7B0FA002800F088
:102B6000D1800135ABF80050714D2B78002B00F06F
:102B7000D080704B6B491E683046FDF7D9FFFEF7D9
:102B8000A7FA0028B8BF4042FEF788F84FF07E5100
:102B9000FEF794FA002800F0BC80149B304661498F
:102BA0001D88FEF78BFA002800F0B1800135149BD8
:102BB0001D80614D2B78002B00F0B0805F4B594990
:102BC0001E683046FDF7B4FFFEF782FA0028B8BF52
:102BD0004042FEF763F84FF07E51FEF76FFA00288F
:102BE00000F09C80139B30464E491D88FEF766FA24
:102BF000002800F091800135139B1D80504A1388F6
:102C0000013313804F4A5048136823F001031360C7
:102C100003F044F84D4D0A23012229464C4803F0A5
:102C2000CEFE00283FF482AE2B78632B40F0348236
:102C30004FF47A7316224749454803F06BFE424829
:102C400003F056F80021444803F034FD04214248C3
:102C500003F030FDC8220021404803F039FF012372
:102C60003F4A13991370304A1370314A1370324A35
:102C700013700022179B1A70314B1A8046F2A8136A
:102C80000B801499ABF800300B8000212380354B6A
:102C90001960354B1960354B1960354B1960354B50
:102CA0001960354B1960354B15991A804FF4FA733A
:102CB0000B80334B1A80334B1A80234802F0EEFF0F
:102CC00000232B7032E6FDF7AFFB064648460F4661
:102CD000FDF7AAFBCDE904014046FDF7A5FBCDE9D0
:102CE00002012846FDF7A0FB3246CDE900013B4634
:102CF00025491A4804F054FB8AE6013D0EE70023FB
:102D00002B700CE7013D2DE700232B702CE7013DD4
:102D10004DE700232B704CE7013D6DE700232B703E
:102D20006CE700BF0000484430060020380B00204C
:102D3000C70D0020FC070020B605002098090020E0
:102D40002E0B002010E000E0541200204D05002062
:102D50004C130020B5A10008DC13002084040020DF
:102D6000FC050020E8050020F8070020280B0020C3
:102D7000C80D002090050020A0050020CC0D0020EB
:102D80008E090020C80500205AA00008B3F5C86FBE
:102D900008D34FF47A731F229C499D4803F0BAFD73
:102DA00001F034FE159B1D88002D3FF42BAF994E8A
:102DB000994B31681868FDF7BDFE984B3060984E0E
:102DC000074631681868FDF7B5FEDFF8BC82954B01
:102DD000D8F80010306082461868FDF7ABFE924BC1
:102DE000C8F80000DFF8A4820646D8F8001018687A
:102DF000FDF7A0FE013D159BADB28146C8F800006D
:102E00001D80002D7FF4FEAE51463846FEF74EF889
:102E1000DFF87C824946C8F800003046FEF746F8E5
:102E2000824F2946C8223860814803F051FE149B26
:102E300080491B887E480193139B1B88009323883D
:102E4000BBF8002004F0ACFA4FF47A73C82278493A
:102E50006F4803F05FFDC8222946754803F038FE2D
:102E60003868FDF7E1FA0546D8F800000E46FDF790
:102E7000DBFA2A46CDE9000133466F496C4804F07D
:102E80008FFA4FF47A73C8226949614803F042FD12
:102E9000D8F80000FEF71CF9013002280FD8386876
:102EA000FEF716F90130022809D80120FFF700F8D3
:102EB0000022624B1A800122614B1A70A2E64FF485
:102EC0007A732A225F49524803F024FDF0E7DFF8C5
:102ED000C4A15B4DDAE90067002200233046394681
:102EE00095F80080FDF760FD00287AD1B8F1000F59
:102EF00047D1554B0022D3E9008930463946534B20
:102F0000FDF75CFD00283FD1514B1868FDF78CFAA6
:102F1000CDE910014F4B1868FDF786FACDE90E0197
:102F20004D4B1868FDF780FACDE90C014B4B4C492D
:102F3000D3E90023CDE90A234A4B3D48D3E90023D6
:102F4000CDE90823484BD3E90023CDE906233E4BC6
:102F5000D3E90023CDE90423444BD3E90023CDE991
:102F60000223434BD3E90023CDE90023DAE9002310
:102F700004F016FA4FF47A73C8222D49244803F05E
:102F8000C9FC00232B703DE60022404649462F4BEA
:102F9000FDF714FD0028B7D039463046FDF774FD23
:102FA000344A034634493548FFF776F82B4BD3E9CA
:102FB0000001FDF769FD30490346314A2F48FFF70C
:102FC0006BF8214BD3E90001FDF75EFD2D4A034666
:102FD00029492A48FFF760F8194B1B78002BD0D1FC
:102FE00092E7B8F1000FCCD1174E0022D6E90001CC
:102FF000164BFDF7E3FC002886D01F4900231D4A2D
:103000001E48FFF749F8D6E90001DDE789A000086E
:103010004C130020E8050020FC0700209809002040
:10302000F80700205C060020380B0020A0050020D7
:1030300084040020A8A00008E4A000082E0B0020B3
:10304000D40D0020FDA00008A80500200000444089
:103050003806002008060020F8050020D0050020D2
:1030600027A10008F0070020300B00209805002061
:10307000500600208DA10008C80C0020320000205E
:1030800099A10008A6A10008280B0020C80D002067
:103090009005002040060020742B22D1264802F023
:1030A00027FE0021254803F005FB0421234803F0F7
:1030B00001FB4FF47A7310222149224803F02AFCC5
:1030C0000123159A2049138000220A801F490B70A2
:1030D0001F490B701F490B701F490B701F490B7064
:1030E000E9E5722B7FF4ECAD134802F001FE0021FC
:1030F000124803F0DFFA0421104803F0DBFA4FF422
:103100007A73212216490F4803F004FC00200F4B6C
:103110000F4A1870012313700E4A13700E4A137071
:103120000E4A1370159B1880074B18800D4B1880A2
:10313000FEF7BEFEC1E500BF54120020DC130020E4
:10314000CBA100084C1300202E0B002058060020B5
:10315000FC05002030060020C70D0020B605002029
:10316000DBA10008C805002010B5314C2268002AF8
:1031700048D00368B3F1804F44D1037F591E012921
:1031800040D81B2A32D9012B3CD10021294802F01A
:10319000CAFD294B21681A6880B2104401391860B1
:1031A000216000292ED1234803F084FA042121480C
:1031B00003F080FA1C21204B1A68B2FBF1F2A2F551
:1031C0002852303AB2F5C86F88BF4FF4C8621B4925
:1031D0001A60CA6822F01E02CA60194A1288013AAF
:1031E000032A0FD8DFE802F0060F161D012BCCD002
:1031F0000421CBE7134A18681488FDF74BFD124BE6
:1032000043F8240010BD0F4A18681488FDF742FDEA
:103210000E4BF5E70B4A18681488FDF73BFD0C4B85
:10322000EEE7084A18681488FDF734FD094BE7E714
:1032300048060020DC13002034060020000C01406A
:103240008E090020C80500205C060020380B0020F5
:10325000FC070020980900200828F8B504462DD85E
:10326000470107F1080607F584771021384601F079
:10327000A3F8384601F072F805460028F9D11F215D
:1032800006F5007001F098F80123A340DB430D49D7
:103290001BB20A8806F540761A400A800A4A11884D
:1032A0000B401380094B23F81450094B1D55304631
:1032B00001F054F80028FAD10120F8BD4FF0FF309A
:1032C000FBE700BF580500205A05002064050020D8
:1032D0005C05002008282DE9F3410446884617467E
:1032E0001D467CD8012905D08B1E022B10D96FF00A
:1032F00004000AE004224FF470600DEB020101F0BB
:103300008DF8019B23B96FF0020002B0BDE8F08197
:10331000680757D42DB1B8F1010F50D0B8F1020FA2
:1033200053D020466601FFF797FF083625F00F01BE
:10333000304641EA080101F03FF86FB94FF6F071ED
:10334000284A17887B1C9BB28B4205BF4FF4404331
:103350004FF6EF7713801380390A06F5806001F08D
:103360002BF8F9B206F5A06006F5807701F024F895
:103370000121384601F020F8384600F0EFFF002820
:10338000FAD10123A340DB4317491BB20A8805F099
:1033900001051A40A5401543144A0D80118806F511
:1033A00040760B401380124B23F81400114B185534
:1033B000304600F0D3FF0028FAD060B2A5E715F040
:1033C000210FAED16FF005009FE7A9066BB201D5C2
:1033D000002BF7DAEA06A4D5002BA2DBF2E74FF0C8
:1033E000FF3092E736010020580500205A050020E2
:1033F000640500205C05002008282DE9F041064600
:103400000D4617465DD844010834204600F0A6FF5B
:1034100000F00F00012857D104F54078404600F035
:103420009DFF132853D12B786A7802EB0322AB78E7
:1034300003EB0222EB78013B03EB0223033349D871
:10344000002F4AD00422294604F5406001F020F8FC
:10345000390A04F5805000F0AFFF04F58075F9B229
:1034600004F5885000F0A8FF0421284600F0A4FFCE
:10347000284600F073FF0028FAD1194B1B8843FA45
:1034800006F6F20713D404F50074404600F066FF18
:10349000172801D101200AE0204600F05FFF030752
:1034A00007D52046082100F087FF6FF00C00BDE82B
:1034B000F081404600F052FF0028E6D16FF0030093
:1034C000F5E74FF0FF30F2E76FF00400EFE76FF041
:1034D0000200ECE76FF00B00E9E76FF00A00E6E7A7
:1034E0005805002008282DE9F84F0646884614465E
:1034F00074D845010835284600F030FF00F00F0071
:1035000001286ED1002C6FD005F54079484600F0B7
:1035100025FF172801D01C2832D1354F3B88334175
:10352000D90711D505F5007A504600F017FFC206FD
:1035300029D51021504600F03FFF012303FA06F27F
:103540003B8823EA02033B8005F5F85000F006FFB4
:10355000830298B24FF0010A844228BF04460AFA57
:1035600006FA304600F0CEFF8346484600F0F6FEED
:103570001728204B12D01C2810D03046FFF76CFEC5
:103580006FF0060002E0030702D40020BDE8F88FC8
:103590003046FFF761FE6FF00C00F7E71A8812EA79
:1035A0000A0F18D05C45F0D841463046224605F552
:1035B000807500F0E9FF2021284600F0FDFE284636
:1035C00000F0CCFE0028FAD13B8820464AEA030AE4
:1035D000A7F800A0DAE75C45C3D8E5E74FF0FF3075
:1035E000D4E76FF00400D1E76FF00D00CEE700BF25
:1035F0005A050020580500202DE9F84F08280646F6
:10360000884614461F46BDF828A000F29780450161
:103610000835284600F0A2FE00F00F00023802280C
:1036200000F28F80002C00F08F803B787A7802EBDC
:103630000322BB7803EB0222FB7803EB0223002B6F
:103640003CD0BAF1000F41D005F54079484600F072
:1036500085FE422842D10422394605F5406000F03B
:1036600017FF4FEA1A2105F5805000F0A5FE5FFA1A
:103670008AF105F5885000F09FFE05F5F85000F03E
:103680006DFE800280B24FF0010A844228BF0446DA
:10369000DFF8C0B00AFA06FA304600F033FF0746FA
:1036A000484600F05BFE002851D0BBF8003013EA1A
:1036B0000A0F1AD0BC421AD9002034E0284600F084
:1036C0004DFE4007BDD46FF00B002CE0284600F003
:1036D00045FE4107B8D46FF00A0024E000F0EF0087
:1036E0002228B8D06FF006001DE0BC42D4D8304686
:1036F0004146224605F5807600F046FF20213046FF
:1037000000F05AFE304600F029FE0028FAD105F5F7
:103710000075284600F022FEC20606D52846102174
:1037200000F04AFE2046BDE8F88F0307F1D5284691
:10373000082100F041FE6FF00C00F4E74FF0FF307D
:10374000F1E76FF00400EEE76FF00D00EBE76FF0CC
:103750000300E8E7580500202DE9F04F082804464B
:103760008A469146984685B000F2E88047010837BE
:10377000384600F0F3FD00F00F02023A022A8346B9
:1037800000F2DF80B9F1000F00F0DE80714E36F8F4
:103790001420002A7AD1012107F54073A14000933B
:1037A0002046019100F0CFFE0546009800F0D6FDBE
:1037B000002800F0CC80684B01991A880A4202D098
:1037C0001DB9284689E0002DEAD00BF00700032838
:1037D00007F5807700F08480042859D0022840F053
:1037E000A68036F814308BBB082220460DEB020170
:1037F00000F0F7FE4021384600F0DEFD384600F0CC
:10380000ADFD0028FAD19DF808309DF80C2088F80D
:1038100000309DF8093088F801309DF80A3088F8AA
:1038200002309DF80B3088F803309DF80D3003EB23
:1038300002230E9A13809DF80E209DF80F3003EBA3
:10384000022326F814308022444B1A5536F81450BF
:1038500051464D4528BF4D4620462A4600F0C1FE40
:103860004021384600F0A8FD384600F077FD0028DA
:10387000FAD136F81430394A5B1B9BB226F8143063
:1038800013B1105D40F0010010559AE700259CE748
:1038900036F81430002BD9D1204602A9022200F0BC
:1038A000A0FE4021384600F087FD384600F056FD66
:1038B0000028FAD19DF809309DF80820023B03EB5F
:1038C000022340F2EA529BB2934226F81430BAD94E
:1038D0002046FFF7C1FC6FF47A7005B0BDE8F08FA9
:1038E00036F81430002BB1D1204602A9062200F090
:1038F00078FE4021384600F05FFD384600F02EFD8E
:103900000028FAD19DF808309DF80C2088F8003086
:103910009DF8093088F801309DF80A3088F80230A7
:103920009DF80B3088F803309DF80D3087E7294665
:10393000204600F083FE26F8145091E74FF0FF3048
:10394000CBE76FF00400C8E76FF00D00C5E76FF03C
:103950000300C2E764050020580500205C05002034
:103960000E4B82B09A6942F001029A619A6902F0A4
:1039700001020092009ADA6942F08052DA61DB6952
:10398000074A03F080530193019B536823F0E063DF
:1039900043F08063536002B0704700BF00100240E4
:1039A0000000014010B5044686B01022002102A894
:1039B00003F08EF82268154B9A4224D1144C4FF430
:1039C0004072A369134843F00803A361A36902A9E5
:1039D00003F008030093009B1223CDE90223032385
:1039E000059301F06BF90C4A536843F0E06343F030
:1039F00002035360E36943F40013E361E36903F4F2
:103A000000130193019B06B010BD00BF005400409D
:103A100000100240000C01400000014010B50446B7
:103A200086B01022002102A803F052F82268174B3A
:103A30009A4228D103F5EC33DA69154842F4804202
:103A4000DA61DA6902A902F480420092009A9A6966
:103A500042F008029A619B694FF4204203F0080388
:103A60000193019B0223CDE902230323059301F077
:103A700025F94FF4804100230548CDE9021302A93E
:103A8000049301F01BF906B010BD00BF00380040E0
:103A9000000C014010B504468AB01022002106A88F
:103AA00003F016F82368304A93420BD12F4B9A69E2
:103AB00042F400629A619B6903F400630193019BE5
:103AC0000AB010BDB3F1804F25D103F50433DA6994
:103AD000002442F00102DA61DA69254802F00102AD
:103AE0000292029A9A6906A942F004029A619B69BD
:103AF000089403F004030393039B0123CDE90634E8
:103B000001F0DCF81C202246214600F03FFF1C207B
:103B100000F06EFFD4E7174A934210D1134B1D20DB
:103B2000DA6942F00202DA610022DB69114603F031
:103B300002030493049B00F029FF1D20E8E70E4ACE
:103B40009342BDD1094B1E20DA6942F00402DA61CA
:103B50000022DB69114603F004030593059B00F086
:103B600015FF1E20D4E700BF002C014000100240CA
:103B700000080140000400400008004010B5044661
:103B800086B01022002102A802F0A2FF22680D4B8D
:103B90009A4215D103F564439A690B4842F0040236
:103BA0009A619B694FF4706203F004030193019BD7
:103BB0000223CDE90223032302A9059301F07EF835
:103BC00006B010BD002C01400008014010B50446AD
:103BD00086B01022002102A802F07AFF2268194B59
:103BE0009A422DD103F558439A69174842F480420E
:103BF0009A619A6902A902F480420092009A9A6935
:103C000042F008029A619B69402203F00803019385
:103C1000019B0223CDE902230323059301F04EF813
:103C2000002380210848CDE9021302A9049301F082
:103C300045F8064A536843F0E06343F004035360D9
:103C400006B010BD00380140000C014000000140EA
:103C500008B501F085FCFEE7FEE7FEE7FEE7FEE7BC
:103C6000704770477047000010B5084C2388013337
:103C70009BB2B3F57A7F238003D3FDF763FD002366
:103C80002380BDE8104000F04BBE00BF740500204B
:103C9000014802F062B800BFDC1300201C22024B76
:103CA00002481A6002F059B84806002004130020A8
:103CB0002DE9F04F0024A64A95B01368214643F041
:103CC00001031360A34BA4481C60A44BA44D1C60CB
:103CD00002F046FC0421A04802F042FC08219E4864
:103CE00002F03EFC0C219C4802F03AFC9D4A214621
:103CF000D3689D4843F01E03D36002F0DBFC04212F
:103D0000994802F0D7FC994B5A6822F46E4222F08F
:103D1000EE0242F42A4242F0AA025A60944A118802
:103D2000032981BF29881480013129802E88914977
:103D3000642E0C8840F01482002C40F02182844ACA
:103D40008D48136843F00103136001F0D1FF002296
:103D500000238A49CDE90823C1E900238849CDE938
:103D60000A23C1E900238749CDE90C23C1E90023D7
:103D70008549CDE90E23C1E900238449CDE910230B
:103D8000C1E900238249CDE9122302918149CDE99D
:103D90000623059180490194049180490391029B77
:103DA000DDF8048053F8045B08F1010A029314ABB8
:103DB00003EBC8047A4B1968059B53F8040B059371
:103DC000FCF7C0FF01462846FCF7B2FEFCF72CFBCF
:103DD0005FFA8AF3032B28BF002344E90C01DDE9D5
:103DE00008ABDDE90A6701933246DDE90C453B4645
:103DF00050465946FCF7E2FD22462B46002800F0CB
:103E0000638130463946FCF7D9FD002840F06C81CB
:103E100022462B4650465946FCF7EEFD08B9A2460D
:103E2000AB46594C5246D4E900015B46FCF79EF97B
:103E300014AB03EBC8085B4BC4E900011968039B92
:103E40001868FCF77FFF049B01461868FCF770FEBA
:103E5000FCF7EAFA48E90601DDE90E45DDE91089DB
:103E6000204642464B462946FCF7A8FDDDE912678D
:103E700032463B46002800F03A8140464946FCF76E
:103E80009DFD002840F0438132463B4620462946AE
:103E9000FCF7B2FD08B934463D463C4E2246D6E911
:103EA00000012B46FCF762F93F4BC6E900013F4E8B
:103EB000C3E9004522462B4620462946C6E900AB09
:103EC000FCF70AFB524604460D465B4650465946EF
:103ED000FCF702FB02460B4620462946FCF746F952
:103EE00005F0CEFC04460D46314B244FC3E9004596
:103EF000D7E90023FCF780FDBA4608B1C7E90045C1
:103F0000D6E90001FCF798FD0028B8BF4042FCF755
:103F100079FA1B4E0446D6E900230D46FCF76CFDEA
:103F200008B1C6E90045204B164ED3E90001FCF765
:103F300083FD0028B8BF4042FCF764FAD6E90023AD
:103F400004460D46FCF758FDA0B3C6E9004531E034
:103F500010E000E034060020941300204806002002
:103F6000C8050020000C0140DC13002000080140BF
:103F70008E0900202C0B002054120020C0050020C8
:103F8000D805002090090020E00500200006002050
:103F9000FC070020980900205C060020380B002058
:103FA00090050020A0050020F0050020D80D00207D
:103FB000400600200022029B43F8042C059B43F896
:103FC000042C049B43F8042B0493039B43F8042B19
:103FD0000393029A9A4B93427FF4E1AE99490022EF
:103FE000D1E90001984BFCF7A1FB91A3D3E9002391
:103FF000FCF79CFB06460F46DFF8A8829349C8E908
:104000000067D1E9000100228F4BFCF78FFB88A3EA
:10401000D3E90023FCF78AFB85A3D3E900230446F8
:104020000D46DAE90001DFF88092C9E90045FCF7A6
:104030007DFB874BC3E900017DA3D3E900238549BC
:10404000D1E90001FCF772FB834BC3E9000178A3BF
:10405000D3E900238149D1E90001FCF767FB804BDC
:104060003246C3E900013B4630463946FCF734FA94
:10407000224606462B460F4620462946FCF72CFAD8
:1040800002460B4630463946FCF770F805F0F8FB5F
:1040900004460D46734B0022C3E900450023FCF79C
:1040A00083FC714E002835D0DDE90634C6E90034C2
:1040B00000226E4B1A8001226D4B1A706D4815B0AC
:1040C000BDE8F04F01F049BE50465946FCF776FC7A
:1040D00000287FF4A6AE22462B4630463946FCF730
:1040E0008BFC00283FF49BAEB246BB4699E62046C7
:1040F0002946FCF763FC00287FF4CFAE32463B46EE
:1041000040464946FCF778FC00283FF4C4AE4446DC
:104110004D46C2E62246D9E900012B46FCF706FBD4
:1041200005F080FB0022544BFCF7D6F942A3D3E9FB
:104130000023FCF7FBFA04460D46D8E900010022F3
:104140000023C6E90045FCF739FC0028B0D0224620
:104150002B4600204949FCF707F8C6E90001A7E70C
:1041600074B1012E0CD1434801F0C2FD0023444A32
:104170002B80136843F0010313603D4B1E709DE7D5
:104180001188481C1080032916D8DFE801F0021EB0
:104190002F403C4A11883C4AD1623C49CA6822F00F
:1041A0000802CA6000215A6822F4706242F48062F8
:1041B0005A60374802F086F90021364802F00CFABE
:1041C0000421344802F008FA78E7334A11882E4A6D
:1041D000D1622E49CA6822F00202CA605A680821D8
:1041E00022F00F0242F004025A60E2E72B4A1188E3
:1041F000254AD1622549CA6822F01002CA605A686D
:10420000042122F4704242F480425A60D1E7244AE9
:1042100011881D4AD1621D49CA6822F00402CA6091
:104220005A680C2122F0F00242F040025A60C0E7C6
:10423000000000205C6F47404AD8124DFB21094026
:104240008C090020E00500200000594000060020F5
:10425000A8050020D8050020300B00209009002080
:10426000F007002040060020D0050020C8050020EF
:1042700094050020541200200080664000807640A3
:1042800010E000E0EC05002000040040000C0140BC
:1042900094130020DC130020B8050020B405002092
:1042A0008C0900205006002098050020012070474E
:1042B00008B502F0E3FB162303604FF0FF3008BDA2
:1042C00008B502F0DBFB16230360FEE770B50E466F
:1042D00014460025A54201DB204670BDAFF30080E7
:1042E00070550135F6E770B50E4614460025A54217
:1042F00001DB204670BD705DAFF300800135F6E74D
:104300004FF0FF3070474FF4005300204B60704770
:1043100001207047002070470B4B0246196810B50A
:1043200009B90A491960186809490A4C0244091B6D
:104330008A4206D902F0A2FB0C2303604FF0FF3043
:1043400010BD1A60FCE700BF780500206014002053
:1043500000500020000400007047000073B50546BF
:10436000144CC5F30726E368984763699847636A66
:10437000C5F30740EDB20BB1A36A8BB9236A984726
:104380003046236A98472846236A9847E369984746
:104390000546A369984723699847284602B070BD2F
:1043A0008DF8040003218DF805608DF8065001A8F2
:1043B0009847EBE73C010020F7B50546164C0F4641
:1043C000E368984763699847A36A45F00406C5F314
:1043D0000740F6B2C5F3072583B9236A98472846F4
:1043E000236A98473046236A98473846236A984795
:1043F000A36998472369984703B0F0BD04218DF85D
:1044000004008DF805508DF806608DF807700DEBEF
:1044100001009847ECE700BF3C0100202DE9F34183
:1044200005461A4C0E46E368174698476369984755
:10443000636AC5F30740C5F30728EDB20BB1A36A61
:10444000B3B9236A98474046236A98472846236AA7
:1044500098473744B74206D1A369984723699847DC
:1044600002B0BDE8F081E369984706F8010BF1E777
:104470008DF80400032101A88DF805808DF8065001
:10448000984739463046636A9847E5E73C01002083
:104490002DE9F34105461A4C8846E36817469847CC
:1044A00063699847A36A45F00406C5F30740F6B26E
:1044B000C5F30725B3B9236A98472846236A984766
:1044C0003046236A98474744474506D1A369984731
:1044D0002369984702B0BDE8F081236A18F8010B00
:1044E0009847F1E78DF80400032101A88DF80550E5
:1044F0008DF80660984739464046A36A9847E5E735
:104500003C010020F8B500244601083606F50057A6
:1045100006F504563846FFF721FF05023046FFF73F
:104520001DFFADB20544ADB24DB13846FFF716FFE1
:1045300004023046FFF712FFA4B20444A4B2AC4216
:10454000E8D12046F8BDF8B500244601083606F546
:10455000185706F51C563846FFF700FF050230468F
:10456000FFF7FCFEADB20544ADB24DB13846FFF7E2
:10457000F5FE04023046FFF7F1FEA4B20444A4B2F3
:10458000AC42E8D12046F8BD2DE9F84389461446EF
:104590002AB385006F1CFF0007F510584046FFF74F
:1045A000DDFE07F5145706463846FFF7D7FE00EB49
:1045B000062086B2023530022246494600EBC5008D
:1045C000FFF766FFA11940468CB2C1F30721FFF740
:1045D000F3FE3846E1B2BDE8F843FFF7EDBEBDE8B3
:1045E000F8832DE9F843894614462AB385006F1CE9
:1045F000FF0007F520584046FFF7B0FE07F52457A7
:1046000006463846FFF7AAFE00EB062086B20335C1
:1046100030022246494600EBC500FFF7FFFEA11914
:1046200040468CB2C1F30721FFF7C6FE3846E1B21F
:10463000BDE8F843FFF7C0BEBDE8F883F8B5440114
:10464000083404F5205738460D46FFF787FE04F579
:10465000245406462046FFF781FE291801EB062167
:1046600038468DB2C1F30721FFF7A6FE2046E9B216
:10467000BDE8F840FFF7A0BE7047007870470170B2
:104680007047002070477047704770477047704709
:1046900070470000054B00B121B9054A5A61054A2F
:1046A0009A617047C3E90501704700BF3C010020D3
:1046B0008F46000891460008084B10B51C881A4622
:1046C000A40500D4FEE700B121B9054BD361054B29
:1046D000136210BDC3E90701FBE700BF3C010020E6
:1046E0008346000887460008084B10B51C881A4608
:1046F000A40500D4FEE700B121B9054B5362054B78
:10470000936210BDC3E90901FBE700BF3C01002033
:10471000894600088B4600087FB5062204A94FF49D
:104720001060FFF77BFE04224FF480700DEB020156
:10473000FFF774FE02A904224FF4A060FFF76EFE9B
:10474000042203A94FF47060FFF768FE8021002067
:10475000FFF732FE0020FFF701FE04A906224FF406
:104760001060FFF795FE04224FF480700DEB0201FC
:10477000FFF78EFE02A904224FF4A060FFF788FE27
:1047800004224FF4706003A9FFF782FE07B05DF8C2
:1047900004FBF8B505460C46FFF7BEFFBDB16E1E23
:1047A00032460023073512F8011F0B445BB2102B71
:1047B00029DCAA42F7D141F6087542F208072846DB
:1047C00016F8011F2035FFF7F7FDBD42F7D10CB9F0
:1047D0000020F8BD651E2A460023073412F8011F89
:1047E0000B445BB2102B0EDC9442F7D141F6086407
:1047F00041F60876204615F8011F2034FFF7DCFD4E
:10480000B442F7D1E4E74FF0FF30E2E710B50446D9
:10481000014606224FF41060FFF73AFE04224FF4DF
:10482000807004F10E01FFF733FE04224FF4A06004
:1048300004F10A01FFF72CFE04224FF47060A11D61
:10484000FFF726FE064BA27C1A70E27C5A70227D8E
:104850009A70627DDA7094F81921024B1A7010BDBB
:104860007D0500207C0500200C480D490D4A0023E1
:1048700002E0D458C4500433C4188C42F9D30A4A15
:104880000A4C002301E013600432A242FBD3FFF77D
:1048900063FD02F0F9F8FDF71BFD704700000020F2
:1048A0004403002014A600084803002060140020E0
:1048B000FEE7000038B50E4B054618784FF47A73C2
:1048C000B3FBF0F30B4A1068B0FBF3F000F0B0F864
:1048D000044658B90F2D09D8024629464FF0FF303B
:1048E00000F054F82046044B1D6038BD0120FCE761
:1048F00068010020380100206C010020074A08B53B
:104900001368032043F01003136000F02DF800201B
:10491000FFF7D0FFFFF724F8002008BD0020024079
:10492000034A044B11681B780B441360704700BFA7
:104930002C14002068010020014B1868704700BF4C
:104940002C14002038B50446FFF7F6FF0546631C1B
:104950001EBF044B1B78E418FFF7EEFF431BA34276
:10496000FAD338BD6801002007490302CA6803F47E
:10497000E06322F4E0621204120C134343F0BF63BD
:1049800043F40033CB60704700ED00E0164B30B5C8
:10499000DC68C4F30224C4F10703251D042B28BFDF
:1049A0000423062D4FF0FF3598BF002405FA03F3CA
:1049B00088BF033C21EA0303A34005FA04F422EA7A
:1049C0000402002843EA0203ACBF00F16040074A3A
:1049D0004FEA0313DBB2ABBF00F5614000F00F00FC
:1049E00080F80033135430BD00ED00E014ED00E01A
:1049F000002808DB0123420900F01F0003FA00F041
:104A0000014B43F82200704700E100E0BFF34F8FF5
:104A10000549064BCA6802F4E0621343CB60BFF35A
:104A20004F8F00BFFDE700BF00ED00E00400FA0576
:104A30000138B0F1807F0AD2F021064B064A586057
:104A400082F823100020072298601A607047012026
:104A5000704700BF10E000E000ED00E0114AD368AD
:104A600013F0100305D01049CB6943F00203CB616A
:104A70001023D268500706D50B4943F00403CA69D6
:104A800042F00102CA61074AD169C90708D5064840
:104A9000C16941F00401C161D16921F00101D16115
:104AA000D36070470020024030140020064B186984
:104AB00010F0800007D0054A5A6002F188325A602F
:104AC0001869C0F3C01070470020024023016745F9
:104AD000034A0020136943F080031361704700BF4D
:104AE00000200240F8B50446FFF726FF114D0746A7
:104AF0002E46EB68D80712D4EB68990644BF2023F2
:104B0000EB60F368DA0606D4F369DB0703D4F068D8
:104B100010F0040007D0FFF7A1FF012003E0631CA1
:104B2000E7D00CB90320F8BDFFF706FFC01BA04279
:104B3000DFD9F7E7002002402DE9F84F254E1F4648
:104B4000337E0546012B8846914640D001234CF226
:104B500050303376FFF7C6FFA8BB012D03D0022DDE
:104B60000CBF022504254FF0000A5346DFF868B059
:104B70004FEA0A14C4F12001A4F1200207FA01F15E
:104B800029FA04F4F3610C4327FA02F21443DBF828
:104B90001020A4B242F00102CBF810204CF25030A9
:104BA00028F81A40FFF79EFFDBF8102022F00102E0
:104BB000CBF8102038B90AF1010A5FFA8AF295425F
:104BC0004FF00003D4D800233376BDE8F88F0220DD
:104BD000FBE700BF30140020002002400022064BFB
:104BE000DA61064B1A6942F004021A611A6942F04E
:104BF00040021A61704700BF3014002000200240BC
:104C00000022064BDA61064B1A6942F002021A6171
:104C100058611A6942F040021A617047301400204E
:104C2000002002402DE9F041224E0546337E8846A1
:104C3000012B3DD00124347603684CF25030022B16
:104C400013D1FFF74FFF20B1012000233376BDE8D9
:104C5000F081FFF7C3FF4CF25030FFF743FF164AD5
:104C6000136923F004031361EFE7FFF73BFF00280C
:104C7000EAD14FF0FF33C8F800302046AF680E4C41
:104C8000D5E9023203EB8223BB42DED93846FFF777
:104C9000B7FF4CF25030FFF725FF236923F00203E2
:104CA000236110B1C8F80070CFE707F58067E7E728
:104CB0000220CCE730140020002002402DE9F74FFD
:104CC00000221646644BDFF8A0C1DFF8A0E10D68B2
:104CD00035FA06F402D103B0BDE8F08F4FF00108B9
:104CE00008FA06F805EA080438EA05057CD14D689B
:104CF000032D07D8013D022D00F28880DFE805F082
:104D0000969BA100122D00F099806FD8112D00F014
:104D10008F80FF2C98BF82464FF00F0988BF00F1AB
:104D2000040A4FEA8605DAF8008088BF203D09FAB8
:104D300005FB28EA0B0802FA05F548EA0505CAF85A
:104D40000050D1F804A01AF0805F4DD0434F26F0F8
:104D50000308BD6908F1804845F00105BD61BD69E2
:104D600008F5803805F00105019506F0030B019D5B
:104D70004FEA8B0BD8F8085009FA0BF925EA090914
:104D8000374DA84261D005F58065A8425FD005F592
:104D90008065A8425DD005F58065A8420CBF03255B
:104DA000042505FA0BF545EA0905C8F808501D6801
:104DB0001AF4803F14BF2543A5431D605D681AF4B3
:104DC000003F14BF2543A5435D609D681AF4801F12
:104DD00014BF2543A5439D60DD681AF4001F14BF6E
:104DE0002C4325EA0404DC60013670E71D4FBD4208
:104DF0000CD017D8DFF878904D4507D009F5702909
:104E00004D4503D0A9F580194D4582D18A68D2B1AC
:104E1000012A08BFC0F810804FF0080218BFC0F880
:104E2000148076E76545F1D07545EEE7CA6870E70E
:104E3000CA6804326DE7CA6808326AE7CA680C3289
:104E400067E7002265E7042263E70025A9E701255B
:104E5000A7E70225A5E700BF0004014000100240BB
:104E60000008014000002210000031100000321044
:104E7000000012100AB1016170470904FBE700004D
:104E800070B5044608B9012070BD90F83D3003F0BC
:104E9000FF021BB980F83C20FEF784FD242384F830
:104EA0003D3023681A6822F001021A601A6842F441
:104EB00000421A601A6822F400421A6000F02EFBC9
:104EC0003F4A6368934294BF3E4A3F4A90428CBF38
:104ED00000220122002AD6D13C4E2268B0FBF6F611
:104EE0005168013821F03F01314351603449156A5E
:104EF0008B4281BF4FF4967171434FF47A76B1FBC8
:104F0000F6F125F03F0594BF711C01312943116270
:104F1000D1692B4D21F44F41AB4221F0FF0132D832
:104F20005B00B0FBF3F0431C40F6FC70034242D040
:104F3000C3F30B030B43D3611168D4E9073021F0AD
:104F4000C00103430B4313609168D4E9030321F4C8
:104F50000341034321F0FF010B439360D168D4E97F
:104F6000053021F0FF0103430B43D3601368002099
:104F700043F0010313602023206484F83D30206354
:104F800084F83E0080E7A56855B903EB4303B0FB06
:104F9000F3F30133C3F30B037BB143F40043C9E7DD
:104FA00019256B43B0FBF3F30133C3F30B0323B1B8
:104FB00043F44043BEE70423BCE70123BAE700BF44
:104FC000A08601007F841E00FF083D0040420F00C4
:104FD00038B5044608B34CF6CC4203681A6045F273
:104FE00055521A6042685A6082689A60FFF7A4FCC2
:104FF00005462268D06810F0030003D14AF6AA23C0
:10500000136038BDFFF798FC401B2728F1D92368AF
:10501000DB689B07EDD00320F3E70120F1E74AF6B8
:10502000AA22036800201A60704700002DE9F341AE
:10503000054638B30368DB0710D42B689F075ED49E
:105040002B68190700F195802B685A0700F1BF8083
:10505000E869002840F02C81002029E08F4C63682B
:1050600003F00C03042B07D0636803F00C03082B38
:105070000AD16368DE0307D523689C03DDD56B681E
:10508000002BDAD1012013E06B68B3F5803F12D119
:10509000236843F480332360FFF74EFC0646236801
:1050A0009803CAD4FFF748FC801B6428F7D9032073
:1050B00002B0BDE8F0819BB9236823F480332360FC
:1050C000236823F480232360FFF736FC0646236819
:1050D0009903B2D5FFF730FC801B6428F7D9E6E7C7
:1050E000B3F5A02F236803D143F480232360CFE7D7
:1050F00023F480332360236823F48023CBE7674CB9
:10510000636813F00C0F07D0636803F00C03082BDF
:1051100010D16368DA030DD423689B0702D52B698D
:10512000012BAFD123686A6923F0F80343EAC20375
:10513000236085E72A695A4B6AB101221A60FFF79A
:10514000FBFB064623689F07ECD4FFF7F5FB801BAB
:105150000228F7D9ABE71A60FFF7EEFB0646236893
:1051600098077FF56DAFFFF7E7FB801B0228F6D9A4
:105170009DE7AA69494E4B4BDAB101221A60FFF74D
:10518000DBFB0446736A9B070DD54FF4FA52464B7E
:105190001B68B3FBF2F3019300BF019B5A1E0192FF
:1051A000002BF9D150E7FFF7C7FB001B0228E9D914
:1051B0007DE71A60FFF7C0FB0446736A9F077FF51F
:1051C00043AFFFF7B9FB001B0228F6D96FE7334C5A
:1051D000E369D80024D40127E36943F08053E361F5
:1051E000E36903F080530093009B304E3368D90588
:1051F00018D5EB68012B26D1236A43F00103236203
:10520000FFF79AFB41F288380646236A9B073FD591
:10521000002F3FF41DAFE36923F08053E36117E7EC
:105220000027E2E7336843F480733360FFF784FBC1
:1052300080463368DA05DCD4FFF77EFBA0EB08007C
:105240006428F6D933E7ABB9236A41F2883823F0F2
:1052500001032362236A23F004032362FFF76CFB3C
:105260000646236A9807D3D5FFF766FB801B4045A7
:10527000F7D91CE7052B236A03D143F0040323620B
:10528000BAE723F001032362236A23F00403B6E79D
:10529000FFF752FB801B4045B7D908E700100240DA
:1052A0000000424280044242380100200070004069
:1052B0002A4B5A681C4602F00C02082A3DD00023F3
:1052C000274E022833602BD1FFF736FB07462368B1
:1052D00099011FD42B6AB3F5803F05D16268A96894
:1052E00022F400320A436260696A62680B4322F466
:1052F00074121343636001233360FFF71DFB0546FF
:1053000023689A013FF5A8AEFFF716FB401B022861
:10531000F6D9CCE6FFF710FBC01B0228D7D9C6E6AA
:10532000FFF70AFB054623689B017FF595AEFFF763
:1053300003FB401B0228F6D9B9E601283FF4B8AEBA
:105340005B682A6A03F4803191427FF49BAE6A6AFB
:1053500003F4701393423FF47FAE93E600100240D3
:10536000600042420122014B1A6070474C004242E9
:1053700030B5184B87B002AC03F11005224618680F
:105380005968083303C2AB421446F7D140F20123F7
:105390001149ADF804304B6803F00C02082A17D10C
:1053A000C3F3834206A80244DB0312F8102C0CD589
:1053B0004B680A48C3F34043504306AA134413F80A
:1053C000143CB0FBF3F007B030BD05485043FAE79A
:1053D0000248F8E714A200080010024000127A0008
:1053E00000093D002DE9F0410D46044610B90120A9
:1053F000BDE8F081444A136803F007038B4228D3C9
:1054000021688E0730D4CA0743D43F4A136803F09B
:105410000703AB4265D822683C4D12F0040F6CD1F3
:10542000130706D56B68226923F4605343EAC2036D
:105430006B60FFF79DFF6B68354AC3F30313D35CC2
:10544000D840344B1860344B1868FFF733FA00200B
:10545000CEE7136823F007030B431360136803F0D0
:1054600007038B42C3D1CBE7284B11F0040F1EBFBB
:105470005A6842F4E0625A60080742BF5A6842F430
:1054800060525A605A68A06822F0F00202435A60E3
:10549000B9E762681D4E012A33681AD113F4003F40
:1054A000A5D0736841F2883823F003031343736077
:1054B000FFF742FA07467368626803F00C03B3EB28
:1054C000820FA2D0FFF738FAC01B4045F3D9032062
:1054D0008EE7022A02D113F0007FE1E713F0020FFA
:1054E000DEE7136823F007032B431360136803F010
:1054F0000703AB427FF47BAF8DE76B68E16823F471
:10550000E0630B436B608BE7002002400010024019
:10551000FCA10008380100206C010020044B054A62
:105520005B68C3F30223D35C034A1068D84070471A
:10553000001002400CA2000838010020044B054A6C
:105540005B68C3F3C223D35C034A1068D84070473A
:10555000001002400CA20008380100207047000033
:1055600008B5054B9B681B0604D5FFF7F7FF8022A3
:10557000024B1A7008BD00BF001002400A10024022
:105580002DE9F3411C4616460F460546FFF7D4F9B0
:105590003444241AFFF7D0F98046234B1B68C3F329
:1055A000CB3363432A680193936837EA030301D03E
:1055B00000202EE0731CF7D0FFF7BEF9A0EB080027
:1055C000A04229D32B685A6822F0E0025A606A6828
:1055D000B2F5827F0AD1AA68B2F5004F02D0B2F5C7
:1055E000806F03D11A6822F040021A60AA6AB2F5ED
:1055F000005F07D11A6822F400521A601A6842F458
:1056000000521A60012385F851300023032085F8E9
:10561000503002B0BDE8F081019B002B019B08BF18
:105620000024013BBEE700BF3801002038B5134617
:1056300042680446B2F5827F16D18268B2F5004F07
:1056400002D0B2F5806F0FD12568B2F5806F28685F
:1056500020F04000286007D10A4601212046FFF7CC
:105660008FFF20B9002038BD0A468021F6E7636D20
:10567000032043F020036365F5E710B513460A469F
:1056800080210446FFF77CFF20B10320636D43F0C7
:105690002003636510BD10B50446002851D0436A4D
:1056A000002B4AD14268B2F5827F00D0C36100234B
:1056B000A36294F8513003F0FF0223B9204684F826
:1056C0005020FEF7ABF90223226884F851301368AA
:1056D000A06823F040031360636800F4044003F4FF
:1056E00082730343E068A16900F40060034320690A
:1056F00000F002000343606900F00100034301F47D
:1057000000700343E069090C00F038000343206A8D
:1057100001F0040100F080000343A06A00F400508F
:10572000034313605160D369002023F40063D36105
:105730000123606584F8513010BD0023C0E90433B3
:10574000B5E70120F8E72DE9F7431F4690F8503000
:105750000446012B0D46904600F0A080012380F8FE
:105760005030FFF7E9F894F851308146012BD8B258
:1057700040F09280002D61D0B8F1000F5ED003237D
:1057800084F8513000236365C4E91033A4F83680EF
:10579000A363A387E387A3682668B3F5004F256357
:1057A000A4F8348007D1336823F0400333603368B2
:1057B00043F4804333603368E2685B065EBF33685E
:1057C00043F040033360B2F5006F63683FD113B11B
:1057D000B8F1010F07D135F8023BF3602563E38E82
:1057E000013B9BB2E386E38E9BB2A3B94A4639469E
:1057F0002046FFF742FF00284BD1A36833B901933D
:105800002368DA6801929B680193019B606D003800
:1058100018BF012012E022689368980705D5236B12
:1058200033F8021BD1602363D9E7FFF785F8A0EBBB
:105830000900B842D7D3791CD5D00320012384F8BE
:105840005130002384F8503003B0BDE8F08313B129
:10585000B8F1010F08D12B783373236B0133236325
:10586000E38E013B9BB2E386E38E9BB2002BBDD05F
:1058700023689A68920703D5226B12781A73ECE7B3
:10588000FFF75AF8A0EB0900B842EDD37B1CEBD030
:10589000D3E720236365B0E70220CFE70220D3E7F8
:1058A0002DE9F7431E4690F850300446012B0D4673
:1058B0009146DDF8288000F0E080012380F8503028
:1058C000FFF73AF894F851300746012B6268D9B2D5
:1058D0000AD0B2F5827F40F0CE80A368002B40F062
:1058E000CA80042940F0C780002D3FD0B9F1000FD5
:1058F0003CD0002E3AD094F85130C4F83890042BA4
:105900001CBF052384F8513000236365C4E91033BC
:105910002368E687E6861968A687490658BF19688E
:10592000256358BF41F04001A68658BF1960E16861
:10593000B1F5006F51D10AB1012E07D135F8022B14
:10594000DA60E38E2563013B9BB2E3860125E38E9B
:105950009BB26BB9E38F9BB253B93A46414620469E
:10596000FFF78BFE00287BD02023636501202BE00E
:1059700021688B689A070DD5E38E9BB253B14DB168
:105980000025236B33F8022BCA602363E38E013BAF
:105990009BB2E3868A6812F001020CD0E38F9BB2BF
:1059A0004BB11546C968A36B23F8021BA363E38FB1
:1059B000013B9BB2E387FEF7BFFFC01B4045C6D348
:1059C000B8F1FF3FC3D00320012384F851300023F6
:1059D00084F8503003B0BDE8F0830AB1012E08D13D
:1059E0002A781A73236B01332363E38E013B9BB246
:1059F000E3860125E38E9BB21BB9E38F9BB2002B9C
:105A0000ABD0226893689B070ED5E38E9BB25BB147
:105A100055B10025236B1B781373236B013323636C
:105A2000E38E013B9BB2E3862268916811F001018D
:105A30000DD0E38F9BB253B10D46D268A36B1A70A1
:105A4000A36B0133A363E38F013B9BB2E387FEF7B4
:105A500073FFC01B4045CDD3B8F1FF3FCAD0B2E7BA
:105A6000A368002BB0D123680190DA6801929B688B
:105A70000193019BA8E70220A6E70220AAE72DE9EF
:105A8000F3411D4643680446B3F5827F88461646B7
:105A90000CD1836853B9042380F851301346009524
:105AA0000A46FFF7FDFE02B0BDE8F08194F85030E1
:105AB000012B7DD0012384F85030FEF73DFF94F890
:105AC00051300746012BD8B270D1B8F1000F5BD02E
:105AD000002E59D0042384F851300023A268636556
