:020000040800F2
:1000000000500020293900082D3000083530000844
:1000100037300008393000083B300008000000008D
:100020000000000000000000000000003D3000085B
:100030003F30000800000000413000084530000853
:1000400071390008713900087139000871390008E8
:1000500071390008713900087139000871390008D8
:1000600071390008713900087139000871390008C8
:1000700071390008713900087139000871390008B8
:1000800071390008713900087139000871390008A8
:100090007139000871390008713900087139000898
:1000A0007139000871390008713900087139000888
:1000B0006D3000087930000891300008713900086F
:1000C0007139000871390008713900087139000868
:1000D0007139000871390008713900087139000858
:1000E00071390008713900087139000800000000FA
:1000F0000000000000000000000000000000000000
:0C01000000000000000000005FF808F1A3
:1001100010B5054C237833B9044B13B10448AFF341
:1001200000800123237010BDE001002000000000CA
:100130004492000808B5034B1BB103490348AFF3D1
:10014000008008BD00000000E40100204492000887
:10015000034613F8012B002AFBD1181A0138704707
:1001600081F0004102E000BF83F0004330B54FEA68
:1001700041044FEA430594EA050F08BF90EA020FD5
:100180001FBF54EA000C55EA020C7FEA645C7FEA68
:10019000655C00F0E2804FEA5454D4EB5555B8BF8B
:1001A0006D420CDD2C4480EA020281EA030382EAFC
:1001B000000083EA010180EA020281EA0303362D8E
:1001C00088BF30BD11F0004F4FEA01314FF4801C61
:1001D0004CEA113102D0404261EB410113F0004F73
:1001E0004FEA03334CEA133302D0524263EB43032A
:1001F00094EA050F00F0A780A4F10104D5F1200EC8
:100200000DDB02FA0EFC22FA05F2801841F1000122
:1002100003FA0EF2801843FA05F359410EE0A5F1F6
:1002200020050EF1200E012A03FA0EFC28BF4CF027
:10023000020C43FA05F3C01851EBE37101F00045DD
:1002400007D54FF0000EDCF1000C7EEB00006EEBEA
:100250000101B1F5801F1BD3B1F5001F0CD3490874
:100260005FEA30004FEA3C0C04F101044FEA4452CB
:1002700012F5800F80F09A80BCF1004F08BF5FEA52
:10028000500C50F1000041EB045141EA050130BD32
:100290005FEA4C0C404141EB0101013C28BFB1F544
:1002A000801FE9D291F0000F04BF01460020B1FA8F
:1002B00081F308BF2033A3F10B03B3F120020CDA62
:1002C0000C3208DD02F1140CC2F10C0201FA0CF040
:1002D00021FA02F10CE002F11402D8BFC2F1200CA5
:1002E00001FA02F120FA0CFCDCBF41EA0C0190405B
:1002F000E41AA2BF01EB0451294330BD6FEA0404A4
:100300001F3C1CDA0C340EDC04F11404C4F120028E
:1003100020FA04F001FA02F340EA030021FA04F3A0
:1003200045EA030130BDC4F10C04C4F1200220FAF7
:1003300002F001FA04F340EA0300294630BD21FA35
:1003400004F0294630BD94F0000F83F4801306BFFB
:1003500081F480110134013D4EE77FEA645C18BFEF
:100360007FEA655C29D094EA050F08BF90EA020F86
:1003700005D054EA000C04BF1946104630BD91EA7E
:10038000030F1EBF0021002030BD5FEA545C05D181
:100390004000494128BF41F0004130BD14F58004C0
:1003A0003CBF01F5801130BD01F0004545F0FE4134
:1003B00041F470014FF0000030BD7FEA645C1ABF69
:1003C000194610467FEA655C1CBF0B46024650EAA0
:1003D000013406BF52EA033591EA030F41F40021CC
:1003E00030BD00BF90F0000F04BF0021704730B552
:1003F0004FF4806404F132044FF000054FF0000127
:1004000050E700BF90F0000F04BF0021704730B5E7
:100410004FF4806404F1320410F0004548BF4042BC
:100420004FF000013EE700BF42004FEAE2014FEA11
:1004300031014FEA02701FBF12F07F4393F07F4FEC
:1004400081F06051704732F07F4208BF704793F0EF
:100450007F4F04BF41F40021704730B54FF4607402
:1004600001F0004521F000411CE700BF50EA010205
:1004700008BF704730B54FF000050AE050EA0102AE
:1004800008BF704730B511F0004502D5404261EB1E
:1004900041014FF4806404F132045FEA915C3FF45F
:1004A000D8AE4FF003025FEADC0C18BF03325FEAFC
:1004B000DC0C18BF033202EBDC02C2F1200300FAAD
:1004C00003FC20FA02F001FA03FE40EA0E0021FAD2
:1004D00002F11444BDE600BF70B54FF0FF0C4CF4C0
:1004E000E06C1CEA11541DBF1CEA135594EA0C0F72
:1004F00095EA0C0F00F0DEF82C4481EA030621EAAD
:100500004C5123EA4C5350EA013518BF52EA0335E7
:1005100041F4801143F4801338D0A0FB02CE4FF099
:100520000005E1FB02E506F00042E0FB03E54FF0C9
:100530000006E1FB03569CF0000F18BF4EF0010EC1
:10054000A4F1FF04B6F5007F64F5407404D25FEABD
:100550004E0E6D4146EB060642EAC62141EA555170
:100560004FEAC52040EA5E504FEACE2EB4F1FD0CB2
:1005700088BFBCF5E06F1ED8BEF1004F08BF5FEA30
:10058000500E50F1000041EB045170BD06F00046E2
:1005900046EA010140EA020081EA0301B4EB5C048F
:1005A000C2BFD4EB0C0541EA045170BD41F4801187
:1005B0004FF0000E013C00F3AB8014F1360FDEBFAC
:1005C000002001F0004170BDC4F10004203C35DA88
:1005D0000C341BDC04F11404C4F1200500FA05F30B
:1005E00020FA04F001FA05F240EA020001F00042AC
:1005F00021F0004110EBD37021FA04F642EB060122
:100600005EEA430E08BF20EAD37070BDC4F10C044B
:10061000C4F1200500FA04F320FA05F001FA04F20F
:1006200040EA020001F0004110EBD37041F10001FB
:100630005EEA430E08BF20EAD37070BDC4F1200506
:1006400000FA05F24EEA020E20FA04F301FA05F26E
:1006500043EA020321FA04F001F0004121FA04F216
:1006600020EA020000EBD3705EEA430E08BF20EAE6
:10067000D37070BD94F0000F0FD101F00046400020
:1006800041EB010111F4801F08BF013CF7D041EAA2
:10069000060195F0000F18BF704703F000465200A6
:1006A00043EB030313F4801F08BF013DF7D043EA77
:1006B0000603704794EA0C0F0CEA135518BF95EA2D
:1006C0000C0F0CD050EA410618BF52EA4306D1D1B4
:1006D00081EA030101F000414FF0000070BD50EAD3
:1006E000410606BF1046194652EA430619D094EA5D
:1006F0000C0F02D150EA013613D195EA0C0F05D147
:1007000052EA03361CBF104619460AD181EA03019A
:1007100001F0004141F0FE4141F470014FF0000052
:1007200070BD41F0FE4141F4780170BD70B54FF0ED
:10073000FF0C4CF4E06C1CEA11541DBF1CEA13556D
:1007400094EA0C0F95EA0C0F00F0A7F8A4EB05044F
:1007500081EA030E52EA03354FEA013100F0888046
:100760004FEA03334FF0805545EA131343EA12630F
:100770004FEA022245EA111545EA10654FEA0026C4
:100780000EF000419D4208BF964244F1FD0404F57D
:10079000407402D25B084FEA3202B61A65EB0305D9
:1007A0005B084FEA32024FF480104FF4002CB6EB96
:1007B000020E75EB030E22BFB61A754640EA0C0016
:1007C0005B084FEA3202B6EB020E75EB030E22BF56
:1007D000B61A754640EA5C005B084FEA3202B6EB97
:1007E000020E75EB030E22BFB61A754640EA9C0056
:1007F0005B084FEA3202B6EB020E75EB030E22BF26
:10080000B61A754640EADC0055EA060E18D04FEAE3
:10081000051545EA16754FEA06164FEAC30343EA83
:1008200052734FEAC2025FEA1C1CC0D111F4801F50
:100830000BD141EA00014FF000004FF0004CB6E749
:1008400011F4801F04BF01430020B4F1FD0C88BFE8
:10085000BCF5E06F3FF6AFAEB5EB030C04BFB6EBF3
:10086000020C5FEA500C50F1000041EB045170BDE6
:100870000EF0004E4EEA113114EB5C04C2BFD4EB13
:100880000C0541EA045170BD41F480114FF0000E97
:10089000013C90E645EA060E8DE60CEA135594EA13
:1008A0000C0F08BF95EA0C0F3FF43BAF94EA0C0F16
:1008B0000AD150EA01347FF434AF95EA0C0F7FF48B
:1008C00025AF104619462CE795EA0C0F06D152EADF
:1008D00003353FF4FDAE1046194622E750EA4106C3
:1008E00018BF52EA43067FF4C5AE50EA41047FF4D4
:1008F0000DAF52EA43057FF4EBAE12E74FF0FF3C39
:1009000006E000BF4FF0010C02E000BF4FF0010C09
:100910004DF804CD4FEA410C7FEA6C5C4FEA430C82
:1009200018BF7FEA6C5C1BD001B050EA410C0CBFD1
:1009300052EA430C91EA030F02BF90EA020F002033
:10094000704710F1000F91EA030F58BF994208BF9A
:1009500090422CBFD8176FEAE37040F00100704757
:100960004FEA410C7FEA6C5C02D150EA013C07D1AE
:100970004FEA430C7FEA6C5CD6D152EA033CD3D0F9
:100980005DF8040B704700BF8446104662468C46F3
:100990001946634600E000BF01B5FFF7B7FF002826
:1009A00048BF10F1000F01BD4DF808EDFFF7F4FF4F
:1009B0000CBF012000205DF808FB00BF4DF808EDDA
:1009C000FFF7EAFF34BF012000205DF808FB00BFFD
:1009D0004DF808EDFFF7E0FF94BF012000205DF81F
:1009E00008FB00BF4DF808EDFFF7CEFF94BF0120D4
:1009F00000205DF808FB00BF4DF808EDFFF7C4FFCD
:100A000034BF012000205DF808FB00BF4FEA410C15
:100A10007FEA6C5C02D150EA013C0AD14FEA430CF8
:100A20007FEA6C5C02D152EA033C02D14FF0000035
:100A300070474FF0010070474FEA410212F5001273
:100A400015D211D56FF47873B3EB625212D94FEA15
:100A5000C12343F0004343EA505311F0004F23FAFF
:100A600002F018BF404270474FF00000704750EA54
:100A7000013005D111F0004008BF6FF00040704711
:100A80004FF00000704700BF4FEA4102B2F1E0436F
:100A900024BFB3F5001CDCF1FE5C0DD901F0004C65
:100AA0004FEAC0024CEA5070B2F1004F40EB8300B5
:100AB00008BF20F00100704711F0804F21D113F1E1
:100AC0003872BCBF01F00040704741F480114FEA1A
:100AD0005252C2F11802C2F1200C10FA0CF320FAA3
:100AE00002F018BF40F001004FEAC1234FEAD323C0
:100AF00003FA0CFC40EA0C0023FA02F34FEA43032A
:100B0000CCE77FEA625307D150EA01331EBF4FF0B2
:100B1000FE4040F44000704701F0004040F0FE40CD
:100B200040F40000704700BF80F0004002E000BFCA
:100B300081F0004142001FBF5FEA410392EA030FC8
:100B40007FEA226C7FEA236C6AD04FEA1262D2EB12
:100B50001363C1BFD218414048404140B8BF5B4217
:100B6000192B88BF704710F0004F40F4000020F0B0
:100B70007F4018BF404211F0004F41F4000121F0C6
:100B80007F4118BF494292EA030F3FD0A2F1010210
:100B900041FA03FC10EB0C00C3F1200301FA03F14E
:100BA00000F0004302D5494260EB4000B0F5000F71
:100BB00013D3B0F1807F06D340084FEA310102F130
:100BC0000102FE2A51D2B1F1004F40EBC25008BFE2
:100BD00020F0010040EA03007047490040EB0000AC
:100BE000013A28BFB0F5000FEDD2B0FA80FCACF1AD
:100BF000080CB2EB0C0200FA0CF0AABF00EBC250DA
:100C000052421843BCBFD0401843704792F0000FC7
:100C100081F4000106BF80F400000132013BB5E71A
:100C20004FEA41037FEA226C18BF7FEA236C21D090
:100C300092EA030F04D092F0000F08BF08467047F5
:100C400090EA010F1CBF0020704712F07F4F04D1C3
:100C5000400028BF40F00040704712F100723CBFD6
:100C600000F50000704700F0004343F0FE4040F400
:100C7000000070477FEA226216BF08467FEA2363BE
:100C80000146420206BF5FEA412390EA010F40F4A9
:100C9000800070474FF0000304E000BF10F00043F5
:100CA00048BF40425FEA000C08BF704743F09643DC
:100CB00001464FF000001CE050EA010208BF7047F7
:100CC0004FF000030AE000BF50EA010208BF70477E
:100CD00011F0004302D5404261EB41015FEA010C93
:100CE00002BF84460146002043F0B64308BFA3F18B
:100CF0008053A3F50003BCFA8CF2083AA3EBC2536D
:100D000010DB01FA02FC634400FA02FCC2F120028B
:100D1000BCF1004F20FA02F243EB020008BF20F0C2
:100D20000100704702F1200201FA02FCC2F1200228
:100D300050EA4C0021FA02F243EB020008BF20EA1D
:100D4000DC7070474FF0FF0C1CEAD0521EBF1CEA4B
:100D5000D15392EA0C0F93EA0C0F6FD01A4480EA39
:100D6000010C400218BF5FEA41211ED04FF0006322
:100D700043EA501043EA5111A0FB01310CF000404E
:100D8000B1F5000F3EBF490041EAD3715B0040EA74
:100D9000010062F17F02FD2A1DD8B3F1004F40EB44
:100DA000C25008BF20F00100704790F0000F0CF017
:100DB000004C08BF49024CEA502040EA51207F3ADB
:100DC000C2BFD2F1FF0340EAC250704740F40000B6
:100DD0004FF00003013A5DDC12F1190FDCBF00F0A7
:100DE00000407047C2F10002410021FA02F1C2F155
:100DF000200200FA02FC5FEA310040F1000053EAF1
:100E00004C0308BF20EADC70704792F0000F00F03E
:100E1000004C02BF400010F4000F013AF9D040EA44
:100E20000C0093F0000F01F0004C02BF490011F4D8
:100E3000000F013BF9D041EA0C018FE70CEAD153D6
:100E400092EA0C0F18BF93EA0C0F0AD030F0004C56
:100E500018BF31F0004CD8D180EA010000F000400A
:100E6000704790F0000F17BF90F0004F084691F0C8
:100E7000000F91F0004F14D092EA0C0F01D1420202
:100E80000FD193EA0C0F03D14B0218BF084608D1CB
:100E900080EA010000F0004040F0FE4040F4000015
:100EA000704740F0FE4040F4400070474FF0FF0CA8
:100EB0001CEAD0521EBF1CEAD15392EA0C0F93EAEF
:100EC0000C0F69D0A2EB030280EA010C49024FEA41
:100ED000402037D04FF0805343EA111143EA1013FA
:100EE0000CF000408B4238BF5B0042F17D024FF4B2
:100EF000000C8B4224BF5B1A40EA0C00B3EB510F8D
:100F000024BFA3EB510340EA5C00B3EB910F24BF75
:100F1000A3EB910340EA9C00B3EBD10F24BFA3EBFA
:100F2000D10340EADC001B0118BF5FEA1C1CE0D1C2
:100F3000FD2A3FF650AF8B4240EBC25008BF20F075
:100F4000010070470CF0004C4CEA50207F32C2BFC9
:100F5000D2F1FF0340EAC250704740F400004FF066
:100F60000003013A37E792F0000F00F0004C02BF97
:100F7000400010F4000F013AF9D040EA0C0093F061
:100F8000000F01F0004C02BF490011F4000F013BBB
:100F9000F9D041EA0C0195E70CEAD15392EA0C0F23
:100FA00008D142027FF47DAF93EA0C0F7FF470AF5B
:100FB000084676E793EA0C0F04D14B023FF44CAF9E
:100FC00008466EE730F0004C18BF31F0004CCAD133
:100FD00030F000427FF45CAF31F000437FF43CAF6F
:100FE0005FE700BF4FF0FF3C06E000BF4FF0010C91
:100FF00002E000BF4FF0010C4DF804CD4FEA400273
:101000004FEA41037FEA226C18BF7FEA236C11D0BC
:1010100001B052EA530C18BF90EA010F58BFB2EB6F
:10102000030088BFC81738BF6FEAE17018BF40F0EF
:10103000010070477FEA226C02D15FEA402C05D1A3
:101040007FEA236CE4D15FEA412CE1D05DF8040B28
:10105000704700BF844608466146FFE70FB5FFF7BB
:10106000C9FF002848BF10F1000F0FBD4DF808ED73
:10107000FFF7F4FF0CBF012000205DF808FB00BF64
:101080004DF808EDFFF7EAFF34BF012000205DF8BE
:1010900008FB00BF4DF808EDFFF7E0FF94BF01200B
:1010A00000205DF808FB00BF4DF808EDFFF7D2FF08
:1010B00094BF012000205DF808FB00BF4DF808ED4B
:1010C000FFF7C8FF34BF012000205DF808FB00BF18
:1010D0004FEA4002B2F1FE4F0FD34FF09E03B3EB45
:1010E00012620DD94FEA002343F0004310F0004F85
:1010F00023FA02F018BF404270474FF000007047DB
:1011000012F1610F01D1420205D110F0004008BF79
:101110006FF0004070474FF00000704742000ED261
:10112000B2F1FE4F0BD34FF09E03B3EB126209D422
:101130004FEA002343F0004323FA02F070474FF0D8
:101140000000704712F1610F01D1420202D14FF04D
:10115000FF3070474FF00000704700BF7BB972B995
:101160000029BEBF00204FF0004106E008BF002864
:101170001CBF6FF000414FF0FF3000F0A1B9ADF19E
:10118000080C6DE904CE002909DB002B1ADB00F006
:1011900035F8DDF804E0DDE9022304B07047404291
:1011A00061EB4101002B1BDB00F028F8DDF804E0C7
:1011B000DDE9022304B0404261EB4101524263EB9E
:1011C00043037047524263EB430300F017F8DDF826
:1011D00004E0DDE9022304B0404261EB41017047C5
:1011E000524263EB430300F009F8DDF804E0DDE967
:1011F000022304B0524263EB430370472DE9F047EA
:10120000089E0D4604468E46002B40F083808A429D
:10121000174647D9B2FA82F34BB1C3F1200105FA60
:1012200003FE20FA01F19F4041EA0E0E9C404FEA76
:101230001748BEFBF8FC1FFA87F908FB1CE20CFB01
:1012400009F0210C41EA024290420AD9BA180CF185
:10125000FF3180F01881904240F21581ACF1020C10
:101260003A44121AB2FBF8F008FB102200FB09F115
:10127000A4B244EA0244A14209D93C1900F1FF3268
:1012800080F00381A14240F2008102383C44641A9C
:10129000002140EA0C401EB10022DC40C6E90042B9
:1012A000BDE8F08702B9FFDEB2FA82F3002B4FD11E
:1012B0008D1A01214FEA124E1FFA82F8B5FBFEFC8F
:1012C0000EFB1C5508FB0CF0220C42EA0545A84217
:1012D00007D97D190CF1FF3202D2A84200F2E98051
:1012E00094462D1AB5FBFEF00EFB105508FB00F8D6
:1012F000A4B244EA0544A04507D93C1900F1FF32E5
:1013000002D2A04500F2D9801046A4EB080440EABE
:101310000C40C0E78B4208D9002E00F0B1800021BC
:10132000C6E900050846BDE8F087B3FA83F1002955
:101330004BD1AB4202D3824200F2B980841A65EBF2
:10134000030301209E46002EAAD0C6E9004EA7E75F
:101350009F40C3F12002D1404FEA174EB1FBFEF08F
:101360001FFA87F80EFB101124FA02F29D4000FBD1
:1013700008FC2A43150C45EA0145AC4504FA03F480
:1013800009D97D1900F1FF3180F08F80AC4540F222
:101390008C8002383D44A5EB0C05B5FBFEF10EFB3D
:1013A000115C01FB08F995B245EA0C45A94507D93E
:1013B0007D1901F1FF3274D2A94572D902393D4439
:1013C000A5EB090541EA004178E7C1F120078B4010
:1013D00022FA07FC4CEA030C25FA07F44FEA1C4EEC
:1013E000B4FBFEF91FFA8CF80EFB194420FA07F340
:1013F00009FB08FA8D401D432B0C43EA0444A24527
:1014000002FA01F200FA01F309D91CEB040409F114
:10141000FF3048D2A24546D9A9F102096444A4EBA1
:101420000A04B4FBFEF00EFB104400FB08FAADB258
:1014300045EA0444A24508D91CEB040400F1FF3539
:101440002DD2A2452BD90238644440EA0940A0FBC2
:101450000289A4EB0A044C45C6464D4619D316D062
:101460005EB1B3EB0E0264EB050404FA07F722FA4F
:1014700001F31F43CC40C6E900740021BDE8F087AA
:10148000314630460CE78C46EBE61046FFE6434516
:10149000E6D2B8EB020E69EB0C050138E0E728460E
:1014A000D3E711468CE78146B9E7084673E708465B
:1014B00049E7ACF1020C3D4413E702383C4424E711
:1014C000704700BF7FB501238DF817104FF48031AE
:1014D000CDE901310DF11701024600910348EC21DD
:1014E00003F026F807B05DF804FB00BFE80B00200E
:1014F0007FB500234FF480318DF817300123CDE9FB
:1015000001310DF11701024600910448EC2103F06E
:101510009FF89DF8170007B05DF804FBE80B00206A
:101520001FB5024602234FF480300091CDE901300F
:10153000EC210123024803F08BF805B05DF804FBB1
:10154000E80B00201FB5024602234FF480300091C3
:10155000CDE90130EC210123024803F079F805B010
:101560005DF804FBE80B00207FB502234FF48031C7
:10157000CDE9013105AB02460093EC210123064879
:1015800003F066F89DF814009DF8153043EA00203A
:1015900007B05DF804FB00BFE80B00207FB5032314
:1015A0004FF48031CDE9013105AB02460093EC21C7
:1015B0000123084803F04CF89DF815309DF81400FD
:1015C0001B0243EA00439DF81600184307B05DF87C
:1015D00004FB00BFE80B0020FA2010B5FFF7DEFF88
:1015E000B0F5000F37D0001104461C4900280A88C6
:1015F000B8BFC41D0028B8BF0F30C2EB2010404355
:101600004FEA4203C3EBE404B1F90230B1F904201C
:1016100048BF00F6FF70634300135043002BB8BF70
:1016200003F2FF730028B8BF00F57F500C4AB8BF23
:101630003F30DB1203EBA033136003EB830313F1A2
:10164000800048BF03F27F100012FFF727FB054917
:10165000FFF72CFC10BD0448FCE700BF5C03002032
:10166000340B00200000C8420000C07F2DE9F74F76
:10167000FFF7B2FFF720FFF791FF864B864E1A68FF
:101680008646B2F5FA374FEAE273A7FB071243F139
:10169000FF3C07FB0CF3CDE90012019A02EB430378
:1016A000B6F90820019302FB0CF1D31707FB0311D5
:1016B000A2FB07230B441903019841EA12514FEA98
:1016C0000239B6F90A2002FB00FA0098D31700FB92
:1016D00003AAA2FB00235344002A73F1000802DA94
:1016E000FF3243F100034FEA122A4AEA036AF28802
:1016F0004FEA232B1AEB09004BEB010B0030A0FB48
:1017000002014BF5004B02FB0B11002871F10003A5
:1017100003DA10F1FF3041F101014A10CB1752EA10
:10172000030100F0B480B6F910A0019900980AFBFB
:1017300001F900994FEAEA7B01FB0B91AAFB0089B2
:10174000B6F90E00894400FB0CFCC11707FB01CC65
:10175000A0FB070161444FEA414C4CEAD03C4704EE
:10176000002017EB08074CEB090CC01940F6354771
:101770004FEA2E1ECEF5801E4FEAEE79B6F90C80A8
:101780004FEAC97A4FEACE714AEA5E0A4FEAC80EBA
:101790004EEB0C0C081AA0FB07016AEB0C0A07FBC6
:1017A0000A11FFF7DBFC002871F100028046894630
:1017B0000B4606DA41F6FF70002318EB000041EB00
:1017C0000303B6F916205913400B40EAC34002FB4D
:1017D00001F7A2FB00ABD31700FB03770AFB01F173
:1017E000BB4400FB0B13AAFB000119440B46002865
:1017F00073F10001024606DA6FF07E4142184FF0A5
:10180000000141EB0303B6F914A0510E0AFB09F7DE
:1018100041EAC31111EB08014FEA63604FEAEA7B2A
:1018200008FB0B7340EB0900AAFB08899944B8F147
:10183000000F79F1000306DA184B18EB03084FF09C
:10184000000349EB03094FEAD84343EA4933CC1874
:101850004FEAE94240EB0205002C75F1000302DA81
:10186000FF3445F100051022230A43EA0560B6F96A
:1018700012302912C3FB0201FEF700FE0022084BC2
:10188000FEF72AFEFFF700F903B0BDE8F08F002055
:10189000FAE700BF340B00205C030020FFFF0700C5
:1018A0000000703F10B5FFF797FEFD20FFF75CFECC
:1018B000B0F5004F56D02C4A2C4BB2F91E101B68C5
:1018C0000905C1EB8031B2F92000A3F5963303FB83
:1018D0001010117F10F5804044BF00F5FF407F30AD
:1018E000594392F9224048BF01F2FF7163434FEA26
:1018F000E12148BF03F2FF3301F500419B124B4346
:1019000048BF03F2FF33B2F91A109B1203F500131C
:101910004B4313F5005344BF03F57F533F339B13F1
:10192000C013584303460028BCBF00F5FF437F3374
:10193000DB135B43127E48BF7F33DB11534348BF49
:101940000F33A0EB231020EAE070B0F1C85FA8BF0E
:101950004FF0C8500013FFF79DF94FF06A51FFF7A1
:10196000F1F910BD0248FCE75C030020340B0020B5
:101970000000C07FD02038B5FFF7BAFD602840F0E6
:10198000B180B621E020FFF79DFDF320FFF7B0FD09
:10199000C307FAD4544C88202146FFF7C1FDA11C8F
:1019A0008A20FFF7CFFD211D8C20FFF7CBFDA11D65
:1019B0008E20FFF7B5FD04F108019020FFF7C2FD6E
:1019C00004F10A019220FFF7BDFD04F10C019420FF
:1019D000FFF7B8FD04F10E019620FFF7B3FD04F107
:1019E00010019820FFF7AEFD04F112019A20FFF7D5
:1019F000A9FD04F114019C20FFF7A4FD04F11601D8
:101A00009E20FFF79FFDA120FFF772FD04F11A0150
:101A10002076E120FFF796FDE320FFF769FD2077B0
:101A2000E420FFF765FD0546E520FFF761FD00F0C6
:101A30000F0343EA0510E083E620FFF759FD054652
:101A4000E520FFF755FDC0F3071343EA0510208496
:101A5000E720FFF74DFD84F82200F520FFF748FD51
:101A600000F01F0141F0A001F520FFF72BFDF5204C
:101A7000FFF73EFD00F0E30141F00801F520FFF71C
:101A800021FDF420FFF734FD00F01F0141F060015B
:101A9000F420FFF717FDF420FFF72AFD00F0E30123
:101AA00041F00C01F420FFF70DFDF220FFF720FDBF
:101AB00000F0F80141F00301F220FFF703FDF420EC
:101AC000FFF716FD0146F420FFF7FCFCF420FFF7BA
:101AD0000FFDBDE8384000F0FC0141F00301F420A7
:101AE000FFF7F0BC38BD00BF5C030020024A13685A
:101AF00001331360704700BFFC01002008B50A489D
:101B00000A4A0B4BC0E9002300234FF48042C0E98E
:101B10000233C0E90423C0E90633036202F046FC45
:101B200008B172B6FEE708BDE80B00200054004083
:101B3000A086010000000000814BF0B51A6803F197
:101B4000236303F5673376339A4289B072D1012853
:101B500000F084807B4BC8221E887B4BB6B21E806F
:101B60007A4B00211F887A4BBFB21F80794B7A488D
:101B70001C887A4BA4B21C80794B1D88794BADB27E
:101B80001D80794B1C80794B1D8004F05DF9CDE9F7
:101B900000453B46324676496F4804F0BDFD4FF4A0
:101BA0007A73C8226C49734804F070F8724BC822EB
:101BB0001C68724B00211C60714B67481E68714B9A
:101BC0001E6004F041F92046FEF72EFC0446304624
:101BD0000D46FEF729FC2246CDE900012B466A4955
:101BE0005D4804F099FD4FF47A73C8225A49614860
:101BF00004F04CF8654B664C1B6800215A1C08BF6A
:101C0000644B4FF0C802544814BF2360236004F0B3
:101C10001BF92068FEF708FC02460B464E485E4959
:101C200004F07AFD4FF47A73C8224B49514804F00E
:101C30002DF82DE090B949F64043434A1380474AB6
:101C40001380434A1380474A1380514B514A1A600C
:101C50004FF07E53494A13604A4A13600023CDE98E
:101C60000333012336494D4CCDE90613237001F0AF
:101C70006BFF20700028FAD103A904A802F020F815
:101C800040B10123237001F071FF20700028FAD1C8
:101C900009B0F0BD012328A7D7E90067284D2370BC
:101CA00032463B462946032001F094FF207000286D
:101CB000F6D1274B234F1988284B1D88224B1E88AD
:101CC000284B46EA01461A88012345EA024523705B
:101CD00032462B463946032001F07CFF2070002855
:101CE000F6D10123254E244D2370002329460220DE
:101CF000326801F06FFF20700028F6D10123214ED9
:101D00001F4D2370002329460220326801F062FF34
:101D100020700028F6D101231D4E1C4D2370002396
:101D200029460220326801F055FF20700028F6D1C4
:101D3000A7E700BFAFF300807698341200000000E0
:101D400000FC000810FC00083C03002012FC000806
:101D50000403002014FC000800020020DC06002020
:101D600016FC0008080300209E0300203E0B002004
:101D700060920008980C002018FC0008E002002087
:101D800020FC0008F00200208B92000824FC0008D0
:101D9000840800200000A041A5920008740D0020D6
:101DA000002110B590B0142201A809910B9104F004
:101DB0004BF84FF4803309220224CDE906234FF477
:101DC0000032CDE90D4308924FF46013012206A8BA
:101DD0000A920C920F9302F0A7FD08B172B6FEE7CB
:101DE0000F23CDE901344FF480630390CDE9043033
:101DF000214601A802F074FF08B172B6FEE702F0B6
:101E00002FFF10B010BD00002DE9F04FA44CBBB067
:101E100001F0D4FD606A636AA249656AA24A666AF3
:101E200013F0804F676A14BF13460B4615F0005F2E
:101E3000D4F824C014BF15460D4616F0805F14BFB9
:101E400016460E4617F0806F14BF17460F461CF05B
:101E5000006F0CBF8C469446CDE9027C102712EA35
:101E6000200238BF0A46CDE900569049904804F058
:101E700053FCFFF795FF3A46002132A803F0E4FF38
:101E8000A369002243F02003A361A36941F2840106
:101E900003F020032293229BA369864843F00403A6
:101EA000A361A369012603F004032393239BA36981
:101EB000022543F00803A361A369002403F008038B
:101EC0002493249B02F092F8002241F21E017A48EA
:101ED00002F08CF841F28403764832A9CDE932361B
:101EE000CDE9344501F038FF41F21E03724832A9B2
:101EF000CDE93236CDE934450C2601F02DFF4FF403
:101F0000E1336E486E4DC0E90244C0E90053C0E9B8
:101F100005640461C46103F08BFE054608B172B626
:101F2000FEE701463A4627A803F08EFF1C22294609
:101F30002BA8CDE9255503F087FF2022294632A89A
:101F400003F082FF5F4C604B1F20C4E900359F23E4
:101F5000C4E903358023C4E905032046A56003F0E6
:101F600093F908B172B6FEE74FF48053204627A9D3
:101F7000279303F047FB08B172B6FEE7204603F053
:101F8000AFF908B172B6FEE70821204603F000FA67
:101F900008B172B6FEE7CDE9257025A9204603F009
:101FA0008FFD024608B172B6FEE73023CDE92D0061
:101FB000CDE92B30CDE92F0031902BA9204603F03D
:101FC00041FA08B172B6FEE72268204693692BA950
:101FD00043F008039361042203F034FA08B172B6A7
:101FE000FEE72268204693692BA943F400639361BE
:101FF000082203F027FA08B172B6FEE732462046FF
:102000002BA903F01FFA08B172B6FEE722682D482B
:10201000D36932A943F40063D36100234FF4005223
:10202000CDE93233CDE9343336933792399303F027
:1020300075FD054608B172B6FEE70626214800F098
:102040008BFF1022294632A803F0FEFE1F4C204BC6
:102050004FF08008C4E900364FF6FF732046CDE903
:102060002B55C4E90335A560C4F8188003F00CF9BA
:1020700008B172B6FEE74FF48057204632A9329776
:1020800003F0C0FA08B172B6FEE720232BA9CDE910
:102090002B30204603F014FD0546D8B172B6FEE79A
:1020A00000100240B6920008B2920008B9920008EF
:1020B0000002002000080140000C0140980C0020A4
:1020C00000380140E00C0020002C0140A00B002053
:1020D000000800400146102227A803F0B5FE142294
:1020E00029462BA803F0B0FE1C22294632A8694CD1
:1020F000CDE9255503F0A8FE674B2046C4E900351D
:1021000049F64043A560C4E90335C4F8188003F0DC
:10211000BBF808B172B6FEE7204627A9279703F05F
:1021200071FA08B172B6FEE7204603F0D9F808B19B
:1021300072B6FEE70821204603F02AF908B172B60C
:10214000FEE7CDE92B602BA9204603F041FB08B147
:1021500072B6FEE7302325A9CDE92530204603F0ED
:10216000AFFC08B172B6FEE700221024494832A93C
:10217000CDE932423492369203F064F9054608B153
:1021800072B6FEE72246014627A803F05DFE142240
:10219000294632A803F058FE224629462BA8CDE94D
:1021A000255503F051FE4FF080433C4CC4E9003507
:1021B0004FF6FF73C4E9033580232046A560A36171
:1021C00003F062F808B172B6FEE74FF48053204680
:1021D00027A9279303F016FA08B172B6FEE7204646
:1021E00003F0AAF808B172B6FEE7042520232046C2
:1021F00032A9CDE9325303F0EBFA08B172B6FEE72B
:10220000CDE9250025A9204603F05AFC024608B175
:1022100072B6FEE701232B90CDE92C302E902BA92E
:10222000204603F061F908B172B6FEE702232046AA
:102230002A462BA9CDE92B3303F056F9044608B101
:1022400072B6FEE7FFF75AFC4FF482731448154943
:10225000C0E90244C0E900134FF40073C0E906343A
:102260000A23C0E90444C0E908448462C36202F05E
:1022700005FE08B172B6FEE706230B480B4AC0E91B
:10228000002340F6FF73836002F020FB80B172B63A
:10229000FEE700BF500C002000040040280D002085
:1022A000480B0020003800403C0C0020003000406B
:1022B00001228021AA4801F099FE0123A94CC822DD
:1022C000A9492370A9484FF0FF3303F0DFFC4FF01A
:1022D000FF331222A649A54803F0D8FC00224FF490
:1022E00080519F4801F082FE4FF0FF330D22A1493B
:1022F0009E4803F0CBFCFFF73DFB4FF0FF33062277
:102300009D499A4803F0C2FC0020FFF715FC9B4A48
:10231000D36843F01E03D360994B1F941A881D9312
:102320001AB949F64043964A1380964B1A881E9371
:102330001AB949F64043934A1380934C238813B942
:1023400049F640432380914D2B8813B949F6404309
:102350002B804FF000080026002722888C4BDFF8E6
:10236000A8B2DA6201228B4BDFF8A0A283F80080CA
:10237000894BDFF89C92C3E90067884B41461A708D
:10238000874B8848A3F80080ABF80080CAE9006753
:10239000C9E9006703F04AFB0421824803F046FBC9
:1023A00040F21F32804B4FF0000CDA627F4B8048C6
:1023B000A3F800804FF064087E497F4A7F4BCDF838
:1023C00070B0B8F1010840F804CB41F804CB42F8F2
:1023D00004CB43F804CBF4D1794B132283F800806B
:1023E000784B794983F80080784B604883F8008007
:1023F000774B83F800804FF0FF3303F047FC7548BC
:1024000002F008FE744802F005FE744B4246C3E930
:102410000067734B8021C3E90067724B5048C3E9E2
:102420000067714BCAE90067C9E90067C3E9006743
:1024300001F0DCFD4D4F1F9B1B78002B00F02A8123
:102440006A4A6B48136843F00103136002F065FAAF
:1024500000231F9A13701C9B1B88002B00F0948292
:10246000574A644B12781B8822B9584A1278002ABE
:1024700000F0C081B3F5C86F80F0BF81C822002191
:10248000394803F0E1FC4B4BD3F800804B4B4046FE
:102490001E68474BD3F800A0474BD3F800B03D4B24
:1024A0001B78002B00F04E81FDF7BEFF02460B4665
:1024B000514958460968CDE92023FEF743FC0146FF
:1024C0005046FEF735FBFDF7AFFFCDE90801584652
:1024D000FDF7AAFFCDE906015046FDF7A5FFCDE9BE
:1024E0000401464930460968FEF72CFC0146404687
:1024F000FEF71EFBFDF798FFCDE902013046FDF720
:1025000093FFDDE92023CDE900013D49164804F0A1
:1025100003F94FF47A73C8223846134903F0B6FB27
:102520001C4B1B78002B40F0AD80254E3378002BE0
:1025300000F02481214B19681E4B1868FEF7FAFA47
:1025400030498046FEF7F4FAFEF7C2FD0028B8BF16
:102550004042FEF7A3FB4FF07E51FEF7AFFD59E07E
:1025600000080140E402002000020020980C002036
:10257000FB9200080D9300081A930008000C01401C
:102580003C03002004030020DC0600200803002098
:1025900000040040A8030020100300203C0B002092
:1025A000DE060020280D0020002C0140180300202A
:1025B0004C050020AC030020E8060020980800200D
:1025C0004C0300208003002020930008270B0020EC
:1025D00006030020500C0020A00B002090030020D8
:1025E000F8020020900800204005002010E000E0E4
:1025F0003C0C002088080020E0020020F0020020AF
:10260000339300080000C84480080020A003002085
:10261000E8020020002800F0B18040465B4926888F
:10262000FEF74CFD002800F0A78001362680584EAA
:102630003378002B00F0A780564B1968564B18686A
:10264000FEF778FA51498046FEF772FAFEF740FD30
:102650000028B8BF4042FEF721FB4FF07E51FEF745
:102660002DFD002800F08F80404648492E88FEF757
:1026700025FD002800F0858001362E80474A13880A
:1026800001331380464A4748136823F0010313605F
:1026900002F0C0FC444E0A2301223146384603F0C2
:1026A0004AFB00283FF4C7AE3378632B40F04882E2
:1026B0004FF47A7316223D493D4803F0E7FA394852
:1026C00002F0D2FC00213B4803F0B0F90421394864
:1026D00003F0ACF9C8220021374803F0B5FB012311
:1026E000364A1D991370364A1370294A1370354AB9
:1026F00013700022344B1A70284B1A8049F640435D
:102700000B801E9923800B8000212B802F4B19609A
:102710002F4B19602F4B19602F4B19602F4B1960ED
:102720002F4B19602F4B1C991A804FF4FA730B80B2
:102730002D4B1A802D4B1A801A4802F06BFC002397
:10274000337077E6FDF770FE804658468946FDF700
:102750006BFECDE904015046FDF766FECDE90201AE
:102760003046FDF761FE4246CDE900014B46204967
:10277000114803F0D1FFCCE6013E57E70023337048
:1027800055E7013E79E70023337077E70000C8443E
:10279000270B0020E80600204C05002088080020B8
:1027A00010E000E0A00B0020C8020020E794000821
:1027B000980C0020280D0020000200204C0300206F
:1027C0008003002006030020A80300203803002017
:1027D0004805002078080020280B0020E002002097
:1027E000F0020020300B0020DE060020180300203D
:1027F00070930008B3F5C86F08D34FF47A731F22A3
:10280000A749384603F042FA01F04EF91C9B1E8896
:10281000002E3FF437AFDFF80883A24BD8F8001042
:102820001868FEF787F9A04BC8F80000DFF8F482BB
:102830008146D8F800101868FEF77CF9DFF8E8A2A6
:102840009A4BDAF80010C8F8000083461868FEF7C3
:1028500071F9974B974A1968CAF8000080461068CA
:10286000FEF768F9924B013E18601C9BB6B2824697
:102870001E80002E7FF406AF59464846FEF716FB31
:10288000DFF8A89251468346C9F800004046FEF79B
:102890000DFBDFF89CA28046CAF800005846FEF700
:1028A00017FC013002286AD84046FEF711FC0130BF
:1028B000022864D8804BDFF87C821B680120C8F8AE
:1028C0000030FFF739F9B4F800B07C4B7C4AA3F82C
:1028D00000B02B88314613807A48C822209303F039
:1028E000B3FA209B1D9A01931E9B77491B8875485C
:1028F000009312885B4603F00FFF4FF47A73C822EF
:102900007049384603F0C2F9C82231466D4803F0D9
:102910009BFADAF80000FDF787FD8246D9F800003F
:102920008B46FDF781FD5246CDE900015B466749C4
:10293000644803F0F1FE4FF47A73C82261493846C7
:1029400003F0A4F9C82231465E4803F07DFAD8F8B6
:102950000000FDF769FD02460B465A485C4903F04A
:10296000DBFE4FF47A73C8225649384603F08EF9DD
:102970000022584B1A800122574B1A7082E64FF4FE
:102980007A732A225549F0E7FEF726FE4A4EDFF811
:10299000A8813060FEF76AFE5149FEF7D3F9C8F806
:1029A0000000FEF77FFFDFF89491D6F800A0C9F889
:1029B00000004C495046FEF763FB20B150464A499F
:1029C000FEF77CFB30B9494801F098FDFFF796F817
:1029D000FEF7D0FF404B1B78002B5ED1374A23888F
:1029E00012889B1A364A1B9312882B889B1A1A93BB
:1029F0003F4B1868FDF718FDCDE918013D4B1868ED
:102A0000FDF712FDCDE916013B4B1868FDF70CFDF3
:102A1000CDE91401394B1868FDF706FDCDE9120127
:102A2000D9F80000FDF700FDCDE91001D8F800004D
:102A3000FDF7FAFCCDE90E013068FDF7F5FCCDE9B4
:102A40000C012F4B2F49D3E90023CDE90A232E4B4C
:102A50001C48D3E90023CDE908232C4BD3E90023FC
:102A6000CDE906232A4BD3E90023CDE90423294BE2
:102A7000D3E90023CDE90223274BD3E90023CDE995
:102A80000023264BD3E9002303F046FE4FF47A736C
:102A9000C82238460B4903F0F9F800220E4B6CE7C8
:102AA0009F9300084C050020E8060020AC0300209E
:102AB000280B002098080020480300209E030020D7
:102AC0003E0B002000020020BE930008FA9300088D
:102AD00011940008880800203C0B00201F94000877
:102AE000E8C7F53B00007042000020C2E80B002060
:102AF000380B00207C0800203C0500202C0B002017
:102B00002003002049940008400500209008002080
:102B1000F8020020E8020020A0030020900300201B
:102B2000380300204805002078080020E00200203B
:102B3000F0020020840800205803002088030020B1
:102B4000742B22D1264802F08FFA0021254802F08A
:102B50006DFF0421234802F069FF4FF47A731022BD
:102B60002149224803F092F801231C9A204913803E
:102B700000220A801F490B701F490B701F490B7000
:102B80001F490B701F490B70D4E5722B7FF4D7AD32
:102B9000134802F069FA0021124802F047FF0421AD
:102BA000104802F043FF4FF47A73212216490F4870
:102BB00003F06CF800200F4B0F4A187001231370BC
:102BC0000E4A13700E4A13700E4A13701C9B188025
:102BD000074B18800D4B1880FEF7AEFFACE500BF29
:102BE000A00B0020280D0020FD940008980C002068
:102BF00088080020A80300204C0300208003002048
:102C0000270B0020060300200D9500081803002064
:102C100010B5314C2268002A48D00368B3F1804FC8
:102C200044D1037F591E012940D81B2A32D9012BD8
:102C30003CD10021294802F032FA294B21681A6858
:102C400080B2104401391860216000292ED1234838
:102C500002F0ECFE0421214802F0E8FE1C21204B8A
:102C60001A68B2FBF1F2A2F52852303AB2F5C86FF9
:102C700088BF4FF4C8621B491A60CA6842F01E023E
:102C8000CA60194A1288013A032A0FD8DFE802F015
:102C9000060F161D012BCCD00421CBE7134A186870
:102CA0001488FDF7F7FF124B43F8240010BD0F4ABC
:102CB00018681488FDF7EEFF0E4BF5E70B4A18680D
:102CC0001488FDF7E7FF0C4BEEE7084A18681488F4
:102CD000FDF7E0FF094BE7E798030020280D0020EF
:102CE00084030020000C0140DE06002018030020B1
:102CF000AC030020980800204C050020E8060020C6
:102D00000E4B82B09A6942F001029A619A6902F010
:102D100001020092009ADA6942F08052DA61DB69BE
:102D2000074A03F080530193019B536823F0E0634B
:102D300043F08063536002B0704700BF0010024050
:102D40000000014010B5044686B01022002102A800
:102D500003F07AF82268154B9A4224D1144C4FF4B0
:102D60004072A369134843F00803A361A36902A951
:102D700003F008030093009B1223CDE902230323F1
:102D8000059300F0E9FF0C4A536843F0E06343F019
:102D900002035360E36943F40013E361E36903F45E
:102DA00000130193019B06B010BD00BF005400400A
:102DB00000100240000C01400000014008B502680C
:102DC0000A4B9A4210D10A4A4FF48071D3690948DC
:102DD00023F40013D36101F09BF8BDE808404FF4E1
:102DE0000071044801F094B808BD00BF00540040D1
:102DF00000100240000C014010B5044686B01022BD
:102E0000002102A803F020F82268174B9A4228D12B
:102E100003F5EC33DA69154842F48042DA61DA6985
:102E200002A902F480420092009A9A6942F00802D4
:102E30009A619B694FF4204203F008030193019BC0
:102E40000223CDE902230323059300F085FF4FF40D
:102E5000804100230548CDE9021302A9049300F044
:102E60007BFF06B010BD00BF00380040000C0140E1
:102E700010B504468AB01022002106A802F0E4FF33
:102E80002368304A93420BD12F4B9A6942F4006277
:102E90009A619B6903F400630193019B0AB010BD22
:102EA000B3F1804F25D103F50433DA69002442F0F1
:102EB0000102DA61DA69254802F001020292029AFF
:102EC0009A6906A942F004029A619B69089403F08A
:102ED00004030393039B0123CDE9063400F03CFF78
:102EE0001C202246214600F09FFD1C2000F0CEFD54
:102EF000D4E7174A934210D1134B1D20DA6942F0F0
:102F00000202DA610022DB69114603F00203049336
:102F1000049B00F089FD1D20E8E70E4A9342BDD1D5
:102F2000094B1E20DA6942F00402DA610022DB69F3
:102F3000114603F004030593059B00F075FD1E2068
:102F4000D4E700BF002C01400010024000080140FF
:102F5000000400400008004010B5044686B010226E
:102F6000002102A802F070FF22680D4B9A4215D191
:102F700003F564439A690B4842F004029A619B6925
:102F80004FF4706203F004030193019B0223CDE927
:102F90000223032302A9059300F0DEFE06B010BD54
:102FA000002C01400008014010B5044686B01022F4
:102FB000002102A802F048FF2268194B9A422DD145
:102FC00003F558439A69174842F480429A619A6916
:102FD00002A902F480420092009A9A6942F0080223
:102FE0009A619B69402203F008030193019B02232D
:102FF000CDE902230323059300F0AEFE00238021D8
:103000000848CDE9021302A9049300F0A5FE064A80
:10301000536843F0E06343F00403536006B010BD0F
:1030200000380140000C01400000014008B501F0EB
:1030300015FFFEE7FEE7FEE7FEE7FEE77047704795
:103040007047000010B5084C238801339BB2B3F5DC
:103050007A7F238003D3FEF749FD00232380BDE858
:10306000104000F0BDBC00BFD2020020014802F0B9
:1030700030B800BF280D00201C22024B02481A6005
:1030800002F027B898030020500C00200000000038
:103090002DE9F04F00250026A44A97B01368294671
:1030A00043F001031360A24BA2481D60A24BA34C46
:1030B0001D60A34B1E60A34B1E60A34B1E60A34B61
:1030C0001E6002F009FC04219A4802F005FC082168
:1030D000984802F001FC0C21964802F0FDFB9C4A46
:1030E0002946D3689B4843F01E03D36002F09EFC40
:1030F0000421984802F09AFC636823F46E4323F09D
:10310000EE0343F42A4343F0AA036360924B05960F
:103110001A88924E032A81BF32881D800132328084
:1031200037888F4A642F158840F01583002D40F0B2
:1031300022837E4A8B48136843F00103136001F039
:1031400093FF002200238849CDE90A23C1E9002327
:103150008649CDE90C23C1E900238549CDE90E2339
:10316000C1E900238349CDE91023C1E90023824945
:10317000CDE91223C1E900238049CDE9142301914F
:103180007F49CDE9082304917E49009503917E494A
:103190000291019BDDF8008053F8045B019316ABAC
:1031A00003EBC804794B1968049B53F8040B049390
:1031B000FDF7C8FD01462846FDF7BAFCFDF734F9D6
:1031C00008F10103DBB2032B28BF002344E90C0103
:1031D000DDE90AABDDE90C6700933246DDE90E4517
:1031E0003B4650465946FDF7E9FB22462B46002850
:1031F00000F01C8230463946FDF7E0FB002840F025
:10320000258222462B4650465946FDF7F5FB08B964
:10321000A246AB46574C5246D4E900015B46FCF748
:10322000A5FF039BC4E900010793029B069316AB1D
:1032300003EBC808564B1968029B1868FDF782FD1E
:10324000039B01461868FDF773FCFDF7EDF848E9AC
:103250000601DDE91045DDE91289204642464B466C
:103260002946FDF7ABFBDDE9146732463B460028F3
:1032700000F0EF8140464946FDF7A0FB002840F0F2
:10328000F88132463B4620462946FDF7B5FB08B992
:1032900034463D46384E2246D6E900012B46FCF71F
:1032A00065FF3C4BC6E90001C3E900AB3A4B22463F
:1032B000C3E9004520462B462946FDF70DF9524645
:1032C00004460D465B4650465946FDF705F9024651
:1032D0000B4620462946FCF749FF05F085FC0446CD
:1032E0000D462E4B204EC3E90045D6E90023FDF7DD
:1032F00083FB08B1C6E90045264B1C4ED3E900010B
:10330000FDF79AFB0028B8BF4042FDF77BF8D6E9ED
:10331000002304460D46FDF76FFB08B1C6E90045E2
:103320001D4B134ED3E900013AE000BF10E000E06E
:1033300084030020E00C00209803002000080140D6
:103340002C0B00203C0500207C080020380B0020BE
:10335000000C0140280D0020DE060020180300208C
:1033600080080020A00B002010030020280300206C
:10337000E006002030030020500300205405002008
:10338000F0060020B4030020A0080020E002002086
:10339000F0020020400B002040030020900300209A
:1033A000FDF74AFB0028B8BF4042FDF72BF8D6E9ED
:1033B000002304460D46FDF71FFB08B1C6E9004592
:1033C000019BDFF8309353F8040CD9F80010FDF797
:1033D000B1FBDFF82483049BD8F80010C9F8000083
:1033E000834653F8040CFDF7A5FBAB4F079B3968E8
:1033F000C8F8000006461868FDF79CFBDFF8FCA241
:10340000069BDAF80010386005461868FDF792FB55
:10341000059A019B044643F8042C049BCAF800005B
:1034200043F8042C039B43F8042B0393029B43F8BB
:10343000042B0293019A994B93427FF4AAAE58460B
:103440009749FDF733FD96498346C9F80000304699
:10345000FDF72CFD934A1168FDF774FC9049064670
:10346000C8F800002846FDF721FD8D493860054663
:103470002046FDF71BFD8C4A1168FDF763FC3146C1
:10348000CAF8000004465846FDF754FB87498046B9
:10349000FDF74EFBFDF71CFE80EAE076A6EBE0763A
:1034A0003046FDF7FBFB4FF07E51FDF707FEC0B144
:1034B0007F4F322E3888D4BF4FF07E59DFF8F89115
:1034C000FDF7ECFB794906464046FDF7F7FD00287D
:1034D00000F0D28031464846FDF72CFBFDF71EFE7A
:1034E000388021462846FDF725FB70490546FDF743
:1034F0001FFBFDF7EDFD80EAE074A4EBE0742046CD
:10350000FDF7CCFB4FF07E51FDF7D8FDB8B1694E09
:10351000322C3088D4BF4FF07E57674FFDF7BEFB8B
:10352000624904462846FDF7C9FD002800F0A9803D
:1035300021463846FDF7FEFAFDF7F0FD30805F4981
:103540000022D1E900015E4BFDF7F0F850A3D3E96A
:103550000023FDF7EBF806460F46DFF8A481594932
:10356000C8E90067D1E900010022554BFDF7DEF8FC
:1035700047A3D3E90023FDF7D9F845A3D3E90023F6
:1035800004460D46DFF87C914F49C9E90045D1E971
:103590000001FDF7CBF84D4BC3E900013CA3D3E993
:1035A00000234B49D1E90001FDF7C0F8494BC3E9BD
:1035B000000137A3D3E900234749D1E90001FDF712
:1035C000B5F8464B3246C3E900013B463046394622
:1035D000FCF782FF224606462B460F462046294628
:1035E000FCF77AFF02460B4630463946FCF7BEFD33
:1035F00005F0FAFA04460D46394B0022C3E90045AE
:103600000023FDF7D1F9374E00287DD0DDE90834DD
:10361000C6E900340022344B1A800122334B1A7061
:10362000334817B0BDE8F04F01F053BD504659463E
:10363000FDF7C4F900287FF4EDAD22462B46304655
:103640003946FDF7D9F900283FF4E2ADB246BB4652
:10365000E0E520462946FDF7B1F900287FF41AAECF
:1036600032463B4640464946FDF7C6F900283FF43E
:103670000FAE44464D460DE649463046FDF758FA32
:103680002CE739462046FDF753FA55E7AFF30080A3
:10369000000000205C6F47407C080020DC06002012
:1036A0000000C442E0020020F00200200000C844F4
:1036B00008030020DC0600200000F0413003002059
:1036C000008058405003002010030020F802002022
:1036D0002803002090080020E0060020400500207C
:1036E000900300202003002018030020E4020020A3
:1036F000A00B00202C0B00203C050020380B0020E4
:10370000A0030020E80200202246D9E900012B4650
:10371000FDF70CF805F03AFA00224B4BFCF7DCFE03
:1037200047A3D3E90023FDF701F804460D46D8E985
:10373000000100220023C6E90045FDF73FF90028FB
:103740003FF468AF22462B4600204049FCF70CFDB1
:10375000C6E900015EE775B1012F0CD13C4801F0CC
:1037600083FC00233B4A3380136843F0010313605A
:10377000394B1F7054E71A88511C1980032A1CD832
:10378000DFE802F002243F4C01220421334800F01C
:103790002DFC00220421314800F028FC0021304A91
:1037A000D36823F00803D360636823F4706343F4A1
:1037B000806363602B4802F041F800212A4802F040
:1037C000C7F80421284802F0C3F829E70122802124
:1037D000224800F00BFC00228021204800F006FC6B
:1037E000224B08211A88224BDA621D4AD36823F043
:1037F0000203D360636823F00F0343F004036360A4
:10380000D8E7174A0421D36823F01003D360636814
:1038100023F4704343F480436360CBE7154B0C21E2
:103820001A88134BDA620E4AD36823F00403D3607C
:10383000636823F0F00343F040036360BAE700BF1E
:103840004AD8124DFB210940008066400080764036
:10385000A00B002010E000E0E4020020000801407E
:10386000000C0140E00C0020280D0020080300207F
:1038700000040040DC0600200120704708B502F07B
:10388000B9FA162303604FF0FF3008BD08B502F007
:10389000B1FA16230360FEE770B50E461446002504
:1038A000A54201DB204670BDAFF3008070550135A5
:1038B000F6E770B50E4614460025A54201DB20460A
:1038C00070BD705DAFF300800135F6E74FF0FF305B
:1038D00070474FF4005300204B6070470120704741
:1038E000002070470B4B0246196810B509B90A4908
:1038F0001960186809490A4C0244091B8A4206D912
:1039000002F078FA0C2303604FF0FF3010BD1A600C
:10391000FCE700BFD4020020B00D002000500020C2
:1039200000040000704700000C480D490D4A0023B8
:1039300002E0D458C4500433C4188C42F9D30A4A64
:103940000A4C002301E013600432A242FBD3FFF7CC
:10395000E9FF02F055FAFEF757FA70470000002021
:10396000E00100204C990008E0010020B00D00208B
:10397000FEE7000038B50E4B054618784FF47A7311
:10398000B3FBF0F30B4A1068B0FBF3F000F09EF8C5
:10399000044658B90F2D09D8024629464FF0FF308A
:1039A00000F042F82046044B1D6038BD0120FCE7C2
:1039B000040000200000002008000020074A08B58D
:1039C0001368032043F01003136000F01BF800207D
:1039D000FFF7D0FFFFF794F9002008BD0020024058
:1039E000034A044B11681B780B441360704700BFF7
:1039F000780D002004000020014B1868704700BFBC
:103A0000780D002007490302CA6803F4E06322F43A
:103A1000E0621204120C134343F0BF6343F400331B
:103A2000CB60704700ED00E0164B30B5DC68C4F3A6
:103A30000224C4F10703251D042B28BF0423062DEF
:103A40004FF0FF3598BF002405FA03F388BF033C0D
:103A500021EA0303A34005FA04F422EA0402002841
:103A600043EA0203ACBF00F16040074A4FEA031388
:103A7000DBB2ABBF00F5614000F00F0080F800330F
:103A8000135430BD00ED00E014ED00E0002808DB29
:103A90000123420900F01F0003FA00F0014B43F834
:103AA0002200704700E100E0BFF34F8F0549064B4D
:103AB000CA6802F4E0621343CB60BFF34F8F00BFCC
:103AC000FDE700BF00ED00E00400FA050138B0F1A9
:103AD000807F0AD2F021064B064A586082F82310F4
:103AE0000020072298601A6070470120704700BFCD
:103AF00010E000E000ED00E0114AD36813F010037D
:103B000005D01049CB6943F00203CB611023D26882
:103B1000500706D50B4943F00403CA6942F001027D
:103B2000CA61074AD169C90708D50648C16941F089
:103B30000401C161D16921F00101D161D3607047F5
:103B400000200240800D0020064B186910F0800014
:103B500007D0054A5A6002F188325A601869C0F3EA
:103B6000C01070470020024023016745034A00202F
:103B7000136943F080031361704700BF00200240C7
:103B8000F8B50446FFF738FF114D07462E46EB689F
:103B9000D80712D4EB68990644BF2023EB60F36882
:103BA000DA0606D4F369DB0703D4F06810F00400EA
:103BB00007D0FFF7A1FF012003E0631CE7D00CB999
:103BC0000320F8BDFFF718FFC01BA042DFD9F7E7BD
:103BD000002002402DE9F84F254E1F46337E054652
:103BE000012B8846914640D001234CF25030337669
:103BF000FFF7C6FFA8BB012D03D0022D0CBF022585
:103C000004254FF0000A5346DFF868B04FEA0A1463
:103C1000C4F12001A4F1200207FA01F129FA04F409
:103C2000F3610C4327FA02F21443DBF81020A4B22C
:103C300042F00102CBF810204CF2503028F81A4024
:103C4000FFF79EFFDBF8102022F00102CBF81020D6
:103C500038B90AF1010A5FFA8AF295424FF000037F
:103C6000D4D800233376BDE8F88F0220FBE700BFED
:103C7000800D0020002002400022064BDA61064B36
:103C80001A6942F004021A611A6942F040021A618C
:103C9000704700BF800D0020002002400022064B2C
:103CA000DA61064B1A6942F002021A6158611A6918
:103CB00042F040021A617047800D0020002002404F
:103CC0002DE9F041224E0546337E8846012B3DD03A
:103CD0000124347603684CF25030022B13D1FFF7E5
:103CE0004FFF20B1012000233376BDE8F081FFF7BC
:103CF000C3FF4CF25030FFF743FF164A136923F01D
:103D000004031361EFE7FFF73BFF0028EAD14FF010
:103D1000FF33C8F800302046AF680E4CD5E90232B8
:103D200003EB8223BB42DED93846FFF7B7FF4CF2E4
:103D30005030FFF725FF236923F00203236110B100
:103D4000C8F80070CFE707F58067E7E70220CCE707
:103D5000800D0020002002402DE9F74F002216467A
:103D6000644BDFF8A0C1DFF8A0E10D6835FA06F476
:103D700002D103B0BDE8F08F4FF0010808FA06F851
:103D800005EA080438EA05057CD14D68032D07D8FB
:103D9000013D022D00F28880DFE805F0969BA1002E
:103DA000122D00F099806FD8112D00F08F80FF2C1C
:103DB00098BF82464FF00F0988BF00F1040A4FEA0E
:103DC0008605DAF8008088BF203D09FA05FB28EA5D
:103DD0000B0802FA05F548EA0505CAF80050D1F8C3
:103DE00004A01AF0805F4DD0434F26F00308BD6950
:103DF00008F1804845F00105BD61BD6908F58038CE
:103E000005F00105019506F0030B019D4FEA8B0BB0
:103E1000D8F8085009FA0BF925EA0909374DA842E4
:103E200061D005F58065A8425FD005F58065A842A0
:103E30005DD005F58065A8420CBF0325042505FA71
:103E40000BF545EA0905C8F808501D681AF4803FCB
:103E500014BF2543A5431D605D681AF4003F14BFDD
:103E60002543A5435D609D681AF4801F14BF254358
:103E7000A5439D60DD681AF4001F14BF2C4325EA9A
:103E80000404DC60013670E71D4FBD420CD017D82A
:103E9000DFF878904D4507D009F570294D4503D0DE
:103EA000A9F580194D4582D18A68D2B1012A08BF8F
:103EB000C0F810804FF0080218BFC0F8148076E7F1
:103EC0006545F1D07545EEE7CA6870E7CA68043207
:103ED0006DE7CA6808326AE7CA680C3267E70022F1
:103EE00065E7042263E70025A9E70125A7E7022586
:103EF000A5E700BF00040140001002400008014097
:103F000000002210000031100000321000001210DA
:103F10002DE9F74F4FF0040B00224FF0010A4FF04C
:103F20000F0800EB0B0301932E4B31FA02F402D180
:103F300003B0BDE8F08F0AFA02F70F4049D022F033
:103F4000030404F18044284D04F5803402F0030C8E
:103F5000A6684FEA8C0C08FA0CF9A84209EA060E8A
:103F600039D005F58065A84237D005F58065A842AF
:103F700035D005F58065A8420CBF0325042505FA58
:103F80000CF575456FEA07060FD1A56825EA090506
:103F9000A5601C6834401C605C6834405C609C68B0
:103FA00034409C60DC683440DC60FF2F94BF0746DF
:103FB000019F4FEA82043D6888BF203C08FA04FC58
:103FC00025EA0C050BFA04F425433D60C46826403D
:103FD000C6600132A9E70025D1E70125CFE7022518
:103FE000CDE700BF00040140000801400AB10161B3
:103FF00070470904FBE7016800224B6913F48063F2
:1040000010D06FF480634B612023026380F83D3051
:1040100080F83E20036C80F83C2043F004030364E6
:1040200001207047184670472DE9F04104460F46BD
:10403000164698462568686927EA000080B2B8B13C
:104040006B695A0516D52B68202243F400732B6048
:104050006FF480636B610023236384F83D2084F850
:104060003E30226C42F004020120226484F83C308D
:10407000BDE8F081731CDED0FFF7BEFCA0EB0800AA
:10408000B04201D8002ED5D100232022236384F82A
:104090003D2084F83E30226C42F02002E4E770B507
:1040A00004460D46164623685B695B0701D5002070
:1040B00070BD2046FFF79FFFA8B96A1CF3D0FFF739
:1040C0009BFC801BA84201D8002DECD100232022AC
:1040D000236384F83D2084F83E30226C84F83C3021
:1040E00042F0200222640120E2E770B504460D464A
:1040F000164621684B6913F0400301D0002010E000
:104100004A69D2060ED56FF010024A61202223635D
:1041100084F83D2084F83E30226C0120226484F82B
:104120003C3070BDFFF768FC801BA84201D8002D11
:10413000DFD100232022236384F83D2084F83E3021
:10414000226C42F02002E8E72DE9F84606460F46C9
:1041500091461D464FEA114A3368BAF1010F0CBF70
:104160005C699C6927EA0404A4B2B4FA84F4640983
:10417000A14501D0002017E06A1CEED0FFF73CFCFF
:10418000089BC01AA84201D8002DE5D100232022A7
:104190000120336386F83D2086F83E30326C86F885
:1041A0003C3042F020023264BDE8F88670B5044627
:1041B0000D46164623685B691B0601D5002070BDBD
:1041C0002046FFF718FFA8B96A1CF3D0FFF714FCCC
:1041D000801BA84201D8002DECD1002320222363AC
:1041E00084F83D2084F83E30226C84F83C3042F064
:1041F000200222640120E2E72DE9F043154602681F
:104200009946136885B043F480731360DDE90C7838
:104210000E463B4600224FF00111CDF800800446C7
:10422000FFF792FF236838B11B68DB0502D54FF416
:104230000073236403200AE006F0FE061E613A467E
:10424000434620461749FFF7EFFE18B1012005B09D
:10425000BDE8F083236803905A69394603929B694D
:10426000424603932046039BFFF7A0FF40B1236C17
:10427000042B01BF2268136843F400731360E5E761
:10428000B9F1010F236802D1EDB21D61DFE72A0AFF
:104290001A61394642462046FFF788FF0028E6D1DA
:1042A0002368F1E7020001002DE9FF479A46DDE9A6
:1042B0000C78036815461A680E4642F480621A604C
:1042C0001A684FF0011142F480721A603B460022D6
:1042D000CDF800800446FFF737FF236848B11B681C
:1042E000DB0502D54FF400732364032004B0BDE85E
:1042F000F0875FFA86F906F0FE061E613A464346ED
:1043000020462949FFF790FE08B10120EEE7236817
:1043100003905A69394603929B69424603932046AB
:10432000039BFFF743FF40B1236C042B01BF2268BE
:10433000136843F400731360E7E7BAF1010F2368D1
:104340001AD1EDB24246394620461D61FFF72EFFD5
:1043500002460028E8D1216820460B6843F48073A8
:104360000B603B464FF00111CDF80080FFF7ECFEEB
:10437000226860B11368B3E72A0A1A6139464246D7
:104380002046FFF713FF0028CED12368D9E749F074
:1043900001031361204643463A460349FFF744FEB2
:1043A000003818BF0120A1E70200010070B50446E3
:1043B00008B9012070BD90F83D3003F0FF021BB931
:1043C00080F83C20FEF7BEFC242384F83D302368AF
:1043D0001A6822F001021A601A6842F400421A6058
:1043E0001A6822F400421A6000F016FD3F4A636822
:1043F000934294BF3E4A3F4A90428CBF0022012222
:10440000002AD6D13C4E2268B0FBF6F6516801383E
:1044100021F03F01314351603449156A8B4281BF1D
:104420004FF4967171434FF47A76B1FBF6F125F0B3
:104430003F0594BF711C013129431162D1692B4D95
:1044400021F44F41AB4221F0FF0132D85B00B0FBB9
:10445000F3F0431C40F6FC70034242D0C3F30B035D
:104460000B43D3611168D4E9073021F0C001034345
:104470000B4313609168D4E9030321F40341034320
:1044800021F0FF010B439360D168D4E9053021F09E
:10449000FF0103430B43D3601368002043F0010383
:1044A00013602023206484F83D30206384F83E00AC
:1044B00080E7A56855B903EB4303B0FBF3F3013381
:1044C000C3F30B037BB143F40043C9E719256B43E6
:1044D000B0FBF3F30133C3F30B0323B143F44043C5
:1044E000BEE70423BCE70123BAE700BFA0860100B2
:1044F0007F841E00FF083D0040420F0010B50446B7
:1045000098B12423026880F83D30136823F001033A
:104510001360FEF753FC0020206484F83C0084F80C
:104520003D00206384F83E0010BD0120FCE7000040
:104530002DE9F743044699460F4690460C9EFFF737
:104540005BFA94F83D300546202B03D0022003B0DF
:10455000BDE8F08300901923012220463A49FFF775
:10456000F3FD0028F2D194F83C30012BEED001236A
:10457000206884F83C3003684246D90758BF036876
:1045800039465CBF43F001030360036823F4006312
:104590000360212384F83D30402384F83E3000231B
:1045A00023640A9B20466362BDF82C30CDE9006588
:1045B0006385638D2385254BE3624B46FFF71CFE25
:1045C00000282AD00120C2E7FFF7F0FD40B1236C9C
:1045D000042B01BF2268136843F400731360F1E7F2
:1045E000636A27681A4612F8011B39616262628D9C
:1045F000218D013A92B262857A69481E80B25207D3
:1046000020850AD548B15A7802333A616362638DD6
:104610000239013B9BB221856385238D2A463146B1
:104620002046002BD0D1FFF73AFD0028CFD12268D9
:10463000136843F400731360202384F83C0084F86B
:104640003D3084F83E0082E7020010000000FFFFCA
:104650002DE9F04399460023044689B003930D46A3
:104660009046129FFFF7C8F994F83D300646202B7C
:1046700004D00225284609B0BDE8F0830090192334
:10468000012220468D49FFF75FFD0028F1D194F803
:104690003C30012BEDD00123206884F83C300368C6
:1046A0002946DB0758BF036842465CBF43F001035D
:1046B0000360036823F400630360222384F83D3021
:1046C000402384F83E3000232364109B204663621D
:1046D000BDF84430CDE900766385638D2385784B42
:1046E000E3624B46FFF7E0FD054608B10125C1E74F
:1046F000228D2368C2B904905A6904929A6904927F
:10470000049A1A6842F400721A60DFF8B881DFF880
:10471000B891238D002B37D1202284F83C3084F8C7
:104720003D2084F83E30A5E7012A11D11A6822F411
:1047300080621A6072B6236805905A6905929A6978
:104740000592059A1A6842F400721A6062B6DCE7B4
:10475000022A1A680ED142F400621A6072B6236807
:1047600006905A6906929A690692069A1A6822F485
:104770008062EAE742F480621A6007905A69079201
:104780009B690793079BC0E7032B78D8012B15D1B2
:10479000324639462046FFF7A8FC0028A6D12368F8
:1047A0001A69636A1A70636A01336362238D013B7D
:1047B0002385638D013B9BB26385AAE7022B4FF0F3
:1047C00000023B4641462046009618D1FFF7BCFC4C
:1047D00000288BD172B623681A6842F400721A60FE
:1047E0001A69636A1A70636A01336362238D013B3D
:1047F0002385638D013B9BB2638562B6CFE7FFF7EC
:10480000A3FC00287FF472AF2268136823F480634E
:10481000136072B623681A69636A1A7046F2A812A6
:10482000616A4B1C6362238D013B2385638D013BD1
:104830009BB26385D9F80030B3FBF2F223235343D4
:104840000393039B013B0393039B6BB920222363D8
:1048500084F83D2084F83E30226C42F0200222642D
:1048600062B684F83C3041E723685A695007E8D5BE
:104870001A6842F400721A601B694B70B3E7324643
:1048800039462046FFF731FC00287FF42FAF23681C
:104890001A69636A1A70626A531C6362238D013B52
:1048A0002385638D013B9BB2638523685969490762
:1048B0007FF52FAF1B69537075E700BF0200100032
:1048C0000000FFFF040001000000002038B504468E
:1048D00008B34CF6CC4203681A6045F255521A6090
:1048E00042685A6082689A60FFF786F80546226837
:1048F000D06810F0030003D14AF6AA23136038BD34
:10490000FFF77AF8401B2728F1D92368DB689B075B
:10491000EDD00320F3E70120F1E74AF6AA2203686D
:1049200000201A60704700002DE9F341054638B3B6
:104930000368DB0710D42B689F075ED42B68190728
:1049400000F195802B685A0700F1BF80E8690028C4
:1049500040F02C81002029E08F4C636803F00C03A9
:10496000042B07D0636803F00C03082B0AD163689B
:10497000DE0307D523689C03DDD56B68002BDAD1F5
:10498000012013E06B68B3F5803F12D1236843F434
:1049900080332360FFF730F8064623689803CAD4B3
:1049A000FFF72AF8801B6428F7D9032002B0BDE87E
:1049B000F0819BB9236823F480332360236823F4B8
:1049C00080232360FFF718F8064623689903B2D5C1
:1049D000FFF712F8801B6428F7D9E6E7B3F5A02F9C
:1049E000236803D143F480232360CFE723F480338B
:1049F0002360236823F48023CBE7674C636813F0BC
:104A00000C0F07D0636803F00C03082B10D1636808
:104A1000DA030DD423689B0702D52B69012BAFD194
:104A200023686A6923F0F80343EAC203236085E739
:104A30002A695A4B6AB101221A60FEF7DDFF064669
:104A400023689F07ECD4FEF7D7FF801B0228F7D915
:104A5000ABE71A60FEF7D0FF0646236898077FF59C
:104A60006DAFFEF7C9FF801B0228F6D99DE7AA6942
:104A7000494E4B4BDAB101221A60FEF7BDFF0446E6
:104A8000736A9B070DD54FF4FA52464B1B68B3FB74
:104A9000F2F3019300BF019B5A1E0192002BF9D142
:104AA00050E7FEF7A9FF001B0228E9D97DE71A604D
:104AB000FEF7A2FF0446736A9F077FF543AFFEF738
:104AC0009BFF001B0228F6D96FE7334CE369D8003F
:104AD00024D40127E36943F08053E361E36903F0E1
:104AE00080530093009B304E3368D90518D5EB688E
:104AF000012B26D1236A43F001032362FEF77CFFDA
:104B000041F288380646236A9B073FD5002F3FF4C1
:104B10001DAFE36923F08053E36117E70027E2E765
:104B2000336843F480733360FEF766FF8046336872
:104B3000DA05DCD4FEF760FFA0EB08006428F6D9A4
:104B400033E7ABB9236A41F2883823F001032362CB
:104B5000236A23F004032362FEF74EFF0646236A0E
:104B60009807D3D5FEF748FF801B4045F7D91CE7CF
:104B7000052B236A03D143F004032362BAE723F031
:104B800001032362236A23F00403B6E7FEF734FF30
:104B9000801B4045B7D908E70010024000004242A0
:104BA0008004424200000020007000402A4B5A68F6
:104BB0001C4602F00C02082A3DD00023274E022892
:104BC00033602BD1FEF718FF0746236899011FD4E5
:104BD0002B6AB3F5803F05D16268A96822F40032E0
:104BE0000A436260696A62680B4322F474121343D9
:104BF000636001233360FEF7FFFE054623689A01D8
:104C00003FF5A8AEFEF7F8FE401B0228F6D9CCE629
:104C1000FEF7F2FEC01B0228D7D9C6E6FEF7ECFE6F
:104C2000054623689B017FF595AEFEF7E5FE401B28
:104C30000228F6D9B9E601283FF4B8AE5B682A6AC3
:104C400003F4803191427FF49BAE6A6A03F47013DF
:104C500093423FF47FAE93E6001002406000424270
:104C60000122014B1A6070474C00424230B5184B8C
:104C700087B002AC03F11005224618685968083362
:104C800003C2AB421446F7D140F201231149ADF8FB
:104C900004304B6803F00C02082A17D1C3F3834297
:104CA00006A80244DB0312F8102C0CD54B680A4806
:104CB000C3F34043504306AA134413F8143CB0FB1B
:104CC000F3F007B030BD05485043FAE70248F8E773
:104CD000469500080010024000127A0000093D00CD
:104CE0002DE9F0410D46044610B90120BDE8F081E0
:104CF000444A136803F007038B4228D321688E07C8
:104D000030D4CA0743D43F4A136803F00703AB42C9
:104D100065D822683C4D12F0040F6CD1130706D5FC
:104D20006B68226923F4605343EAC2036B60FFF7A8
:104D30009DFF6B68354AC3F30313D35CD840344BF3
:104D40001860344B1868FEF715FE0020CEE7136894
:104D500023F007030B431360136803F007038B4230
:104D6000C3D1CBE7284B11F0040F1EBF5A6842F4A1
:104D7000E0625A60080742BF5A6842F460525A60C3
:104D80005A68A06822F0F00202435A60B9E76268EC
:104D90001D4E012A33681AD113F4003FA5D0736861
:104DA00041F2883823F0030313437360FEF724FEB7
:104DB00007467368626803F00C03B3EB820FA2D05E
:104DC000FEF71AFEC01B4045F3D903208EE7022AE6
:104DD00002D113F0007FE1E713F0020FDEE7136862
:104DE00023F007032B431360136803F00703AB4260
:104DF0007FF47BAF8DE76B68E16823F4E0630B43DE
:104E00006B608BE700200240001002402E950008E6
:104E10000000002008000020044B054A5B68C3F333
:104E20000223D35C034A1068D84070470010024048
:104E30003E95000800000020044B054A5B68C3F360
:104E4000C223D35C034A1068D84070470010024068
:104E50003E950008000000207047000008B5054B93
:104E60009B681B0604D5FFF7F7FF8022024B1A70E0
:104E700008BD00BF001002400A10024010B50446F1
:104E8000002851D0436A002B4AD14268B2F5827F94
:104E900000D0C3610023A36294F8513003F0FF02F5
:104EA00023B9204684F85020FDF7A6FF022322688C
:104EB00084F851301368A06823F0400313606368DE
:104EC00000F4044003F482730343E068A16900F432
:104ED00000600343206900F002000343606900F0B2
:104EE0000100034301F400700343E069090C00F082
:104EF00038000343206A01F0040100F080000343FE
:104F0000A06A00F40050034313605160D36900208D
:104F100023F40063D3610123606584F8513010BD30
:104F20000023C0E90433B5E70120F8E7036A70B550
:104F300023F001030362036A446882690D6822F06A
:104F400073022A438D6823F002032B430A4DA842C3
:104F50000BD1CD6823F008032B4324F44074D1E92E
:104F60000556354323F004032C43446082614A68AC
:104F70004263036270BD00BF002C0140036A70B53C
:104F800023F480730362036A4468C2690D6822F0E7
:104F900073022A438D6823F4007343EA05230B4D03
:104FA000A8420DD1CD6823F4006343EA052324F41D
:104FB0004054D1E90556354323F4806344EA05148F
:104FC0004460C2614A68C263036270BD002C014044
:104FD000036A30B523F480530362036A4468C269EC
:104FE0000D6822F4E64242EA05228D6823F400535C
:104FF00043EA0533064DA84202BF4D6924F48044BC
:1050000044EA85144460C2614A680264036230BDA8
:10501000002C014090F83D30012B20D1022380F874
:105020003D300368DA6842F00102DA600D4A9342CB
:105030000AD0B3F1804F07D0A2F59432934203D047
:1050400002F58062934204D19A6802F00702062AB0
:1050500003D01A6842F001021A6000207047012054
:10506000704700BF002C01400368DA6822F001029B
:10507000DA6041F21112196A114208D140F2444239
:10508000196A114202BF1A6822F001021A60012354
:1050900080F83D30002070477047704770470829FE
:1050A00010D004D841B1042909D0002070470C2940
:1050B000FBD10368186C70470368586B704703682E
:1050C000986B70470368D86B70477047704770479C
:1050D0007047036810B51A69044691070ED5DA685F
:1050E00092070BD56FF002021A61012202779B69C9
:1050F0009B0777D0FDF78CFD0023237723681A697F
:10510000500710D5DA6851070DD56FF004021A6107
:10511000022222779B69204613F4407F68D0FDF776
:1051200077FD0023237723681A6912070FD5DA6801
:1051300010070CD56FF008021A6104222277DB6990
:10514000204699075AD0FDF763FD00232377236893
:105150001A69D20610D5DA68D0060DD56FF01002A4
:105160001A6108222277DB69204613F4407F4BD076
:10517000FDF74EFD0023237723681A69D10708D570
:10518000DA68D20705D56FF0010220461A61FFF7F1
:105190009CFF23681A69100608D5DA68110605D540
:1051A0006FF0800220461A6100F0DFFC23681A6964
:1051B000520608D5DA68500605D56FF04002204641
:1051C0001A61FFF785FF23681A69910622D5DA680C
:1051D00092061FD56FF020022046BDE810401A61EC
:1051E00000F0C2BCFFF772FF2046FFF770FF83E7B5
:1051F000FFF76CFF2046FFF76AFF92E7FFF766FFB5
:105200002046FFF764FFA0E7FFF760FF2046FFF7A7
:105210005EFFAFE710BD00001A4A036890420AD053
:10522000B0F1804F07D0A2F59432904203D002F53E
:105230008062904215D14A6823F070031343114AEB
:1052400090420AD0B0F1804F07D0A2F5943290423C
:1052500003D002F58062904203D1CA6823F4407300
:1052600013434A6923F08003134303608B68C362CE
:105270000B688362034B984204BF0B6903630123ED
:1052800043617047002C014010B5044630B390F8DC
:105290003D3003F0FF021BB980F83C20FDF7E8FD2C
:1052A0000223206884F83D30211DFFF7B5FF01235C
:1052B000002084F8463084F83E3084F83F3084F88B
:1052C000403084F8413084F8423084F8433084F828
:1052D000443084F8453084F83D3010BD0120FCE7AF
:1052E00010B5044630B390F83D3003F0FF021BB90F
:1052F00080F83C20FFF7D0FE0223206884F83D3080
:10530000211DFFF789FF0123002084F8463084F82F
:105310003E3084F83F3084F8403084F8413084F8DF
:10532000423084F8433084F8443084F8453084F8BF
:105330003D3010BD0120FCE710B5044630B390F8B5
:105340003D3003F0FF021BB980F83C20FFF7A5FEBB
:105350000223206884F83D30211DFFF75DFF012303
:10536000002084F8463084F83E3084F83F3084F8DA
:10537000403084F8413084F8423084F8433084F877
:10538000443084F8453084F83D3010BD0120FCE7FE
:1053900038B50D46044630B390F83D3003F0FF02B7
:1053A0001BB980F83C20FFF779FE0223206884F8BF
:1053B0003D30211DFFF730FF236800201A6822F0DE
:1053C00008021A601A682A431A60012384F84630DA
:1053D00084F83E3084F83F3084F8423084F843301B
:1053E00084F83D3038BD0120FCE70000036A70B549
:1053F00023F010030362036A446882690D6822F493
:10540000E64242EA05228D6823F0200343EA0513B1
:105410000B4DA8420DD1CD6823F0800343EA05135C
:1054200024F44064D1E90556354323F0400344EAAF
:105430008504446082614A688263036270BD00BF74
:10544000002C014010B590F83C300446012B1ED0D2
:105450000123082A80F83C3015D006D85AB1042A16
:105460000DD0002084F83C0010BD0C2AF9D1006852
:10547000FFF7AEFDF5E70068FFF758FDF1E70068BC
:10548000FFF7B4FFEDE70068FFF778FDE9E70220DA
:10549000EAE7000070B5046A124E24F001040462C9
:1054A000B0428469056A19D0B0F1804F16D0A6F5D4
:1054B0009436B04212D006F58066B0420ED044F069
:1054C00001021B0122F0F002DBB2134301F00A01DA
:1054D00025F00A0211438361016270BD24F00304C8
:1054E0002243EEE7002C0140F8B590F83C3004462A
:1054F000012B0E46154679D0012380F83C30F36825
:10550000006806C975B9FFF7C5FF2368B1689A69D5
:1055100022F00C029A619A690A439A61002084F889
:105520003C00F8BD042DB66822D1056A090125F0BA
:10553000100505628769D0F820E027F4407C1D0340
:105540004CEA022C2CF4704CADB22EF0A00E01F0FF
:10555000A00145EA0C0541EA0E01856101628369FB
:1055600023F440638361836943EA06268661D5E7B5
:10557000082D056A1CD125F480750562C769056A86
:1055800027F0030717431B010902DBB227F0F007DE
:1055900025F4007501F400711F432943C7610162BE
:1055A000C36923F00C03C361C3691E43C661B5E739
:1055B00025F480550562C569076A25F4407545EAFA
:1055C00002251B03090325F470459BB227F40057FD
:1055D00001F400512B433943C3610162C36923F4D1
:1055E0004063C361C36943EA0626DFE7022098E708
:1055F00010B584680A4324F47F4442EA032222431C
:10560000826010BD70B590F83C300446012B4FF01D
:10561000020027D0012384F83D00206884F83C3044
:10562000836823F47F4323F0770383600B68602B48
:105630004DD032D8402B62D015D8202B03D009D8BA
:1056400033F0100208D1826822F07002134343F055
:10565000070320E0302BF6D00123002084F83D30F2
:1056600084F83C0070BD502BF6D14A68CE68016AC0
:10567000056A21F00A0125F00105056283690A43E4
:1056800023F0F00343EA061383610262836823F088
:10569000700343F057038360DEE7702B0CD0B3F543
:1056A000005FD9D1CB68D1E90121FFF7A1FF2268C2
:1056B000936843F4804308E0CB68D1E90121FFF708
:1056C00097FF2268936843F077039360C4E74D68BF
:1056D000CE68016A21F0100101628269036A22F436
:1056E000704223F0A00343EA051342EA06328261C6
:1056F0000362836823F0700343F06703CBE74A68D3
:10570000CE68016A056A21F00A0125F001050562EB
:1057100083690A4323F0F00343EA061383610262BC
:10572000836823F0700343F04703B4E7006838B59B
:1057300083684A6823F070030C68134323F007035F
:105740002343602A83602ED005D8402A0BD0502AEC
:1057500019D0002038BD702AFBD10B69D1E9022194
:10576000FFF746FFF5E7052C30D0026A036A0969A6
:1057700023F001030362836923F0F00343EA01137A
:1057800083610262E5E78A680D69016A046A21F0B3
:105790000A0124F00104046283690A4323F0F00340
:1057A00043EA0513ECE78C680D69016A21F01001EA
:1057B00001628269036A22F4704223F0A00342EA84
:1057C000053243EA041382610362C2E70120C1E7A4
:1057D00038B590F83C300446012B4FF002031CD042
:1057E000012580F83D3080F83C50FFF79FFF30B135
:1057F0000023284684F83D5084F83C3038BD2368A7
:10580000DA6822F04002DA60DA6822F48042DA6074
:1058100084F83D5084F83C00F0E71846EEE710B5F8
:105820000124036A01F01F018C4023EA0403036290
:10583000036A8A401A43026210BD000010B5044694
:1058400029B990F83E30012B1DD0012010BD04294C
:1058500007D190F83F30012BF7D1022380F83F3079
:1058600014E0082907D190F84030012BEDD1022334
:1058700080F840300AE090F84130012BE5D1022356
:1058800080F8413002E0022380F83E300122206897
:10589000FFF7C5FF23680E4A93420AD15A6C42F4BF
:1058A00000425A649A6802F00702062A0BD10020CF
:1058B000CCE7B3F1804FF5D0064A9342F2D002F51F
:1058C00080629342EED01A6842F001021A60EEE75D
:1058D000002C01400004004038B504460022006856
:1058E0000D46FFF79CFF2368184A93420DD141F201
:1058F0001112196A114208D140F24442196A114248
:1059000002BF5A6C22F400425A6441F21112196A21
:10591000114208D140F24442196A114202BF1A688A
:1059200022F001021A6001231DB984F83E300020E4
:1059300038BD042D02D184F83F30F8E7082D0CBFA4
:1059400084F8403084F84130F1E700BF002C01407A
:1059500010B5044691BB90F83E0094F84230C0B2B6
:105960000128DBB25ED1012B5DD102232068002922
:105970003AD184F83E3084F84230C36843F00203E1
:10598000C3600122FFF74BFF2368274A93420AD0E6
:10599000B3F1804F07D0A2F59432934203D002F5C1
:1059A0008062934204D19A6802F00702062A03D06B
:1059B0001A6842F001021A60002034E0042905D17F
:1059C00090F83F0094F84330C0B2C9E708290BBFF4
:1059D00090F8400094F8410094F8443094F8453031
:1059E0000CBFC0B2C0B2BBE7042907D184F83F3076
:1059F00084F84330C36843F00403C1E7082907D1A2
:105A000084F8403084F84430C36843F00803B7E7B3
:105A10000C2984F8413084F84530B2D1C36843F092
:105A20001003ADE7012010BD002C0140082938B556
:105A300004460D4600682DD01DD811B3042925D089
:105A400000222946FFF7EBFE41F211122368196A82
:105A5000114208D140F24442196A114202BF1A6849
:105A600022F001021A600123C5B984F83E3084F89F
:105A70004230002038BD0C29E2D1C36823F0100366
:105A800002E0C36823F00203C360D9E7C36823F0D0
:105A90000403F9E7C36823F00803F5E7042D04D1F4
:105AA00084F83F3084F84330E3E7082D0BBF84F8D7
:105AB000403084F8413084F8443084F84530D8E7E9
:105AC00030B590F83C300246012B4FF0020022D056
:105AD000136882F83D005C680D6824F070042C4364
