:020000040800F2
:10000000005000209D2B0008992400089B24000824
:100010009D2400089F240008A1240008000000007F
:10002000000000000000000000000000A324000801
:10003000A524000800000000A7240008A924000847
:10004000E52B0008E52B0008E52B0008E52B000850
:10005000E52B0008E52B0008E52B0008E52B000840
:10006000E52B0008E52B0008E52B0008E52B000830
:10007000E52B0008E52B0008E52B0008E52B000820
:10008000E52B0008E52B0008E52B0008E52B000810
:10009000E52B0008E52B0008E52B0008E52B000800
:1000A000E52B0008E52B0008E52B0008E52B0008F0
:1000B000D1240008DD240008F1240008E52B000805
:1000C000E52B0008E52B0008E52B0008E52B0008D0
:1000D000E52B0008E52B0008E52B0008E52B0008C0
:1000E000E52B0008E52B0008E52B000800000000C8
:1000F0000000000000000000000000000000000000
:0C01000000000000000000005FF808F1A3
:1001100010B5054C237833B9044B13B10448AFF341
:1001200000800123237010BDE001002000000000CA
:10013000247C000808B5034B1BB103490348AFF307
:10014000008008BD00000000E4010020247C0008BD
:10015000034613F8012B002AFBD1181A0138704707
:1001600081F0004102E000BF83F0004330B54FEA68
:1001700041044FEA430594EA050F08BF90EA020FD5
:100180001FBF54EA000C55EA020C7FEA645C7FEA68
:10019000655C00F0E2804FEA5454D4EB5555B8BF8B
:1001A0006D420CDD2C4480EA020281EA030382EAFC
:1001B000000083EA010180EA020281EA0303362D8E
:1001C00088BF30BD11F0004F4FEA01314FF4801C61
:1001D0004CEA113102D0404261EB410113F0004F73
:1001E0004FEA03334CEA133302D0524263EB43032A
:1001F00094EA050F00F0A780A4F10104D5F1200EC8
:100200000DDB02FA0EFC22FA05F2801841F1000122
:1002100003FA0EF2801843FA05F359410EE0A5F1F6
:1002200020050EF1200E012A03FA0EFC28BF4CF027
:10023000020C43FA05F3C01851EBE37101F00045DD
:1002400007D54FF0000EDCF1000C7EEB00006EEBEA
:100250000101B1F5801F1BD3B1F5001F0CD3490874
:100260005FEA30004FEA3C0C04F101044FEA4452CB
:1002700012F5800F80F09A80BCF1004F08BF5FEA52
:10028000500C50F1000041EB045141EA050130BD32
:100290005FEA4C0C404141EB0101013C28BFB1F544
:1002A000801FE9D291F0000F04BF01460020B1FA8F
:1002B00081F308BF2033A3F10B03B3F120020CDA62
:1002C0000C3208DD02F1140CC2F10C0201FA0CF040
:1002D00021FA02F10CE002F11402D8BFC2F1200CA5
:1002E00001FA02F120FA0CFCDCBF41EA0C0190405B
:1002F000E41AA2BF01EB0451294330BD6FEA0404A4
:100300001F3C1CDA0C340EDC04F11404C4F120028E
:1003100020FA04F001FA02F340EA030021FA04F3A0
:1003200045EA030130BDC4F10C04C4F1200220FAF7
:1003300002F001FA04F340EA0300294630BD21FA35
:1003400004F0294630BD94F0000F83F4801306BFFB
:1003500081F480110134013D4EE77FEA645C18BFEF
:100360007FEA655C29D094EA050F08BF90EA020F86
:1003700005D054EA000C04BF1946104630BD91EA7E
:10038000030F1EBF0021002030BD5FEA545C05D181
:100390004000494128BF41F0004130BD14F58004C0
:1003A0003CBF01F5801130BD01F0004545F0FE4134
:1003B00041F470014FF0000030BD7FEA645C1ABF69
:1003C000194610467FEA655C1CBF0B46024650EAA0
:1003D000013406BF52EA033591EA030F41F40021CC
:1003E00030BD00BF90F0000F04BF0021704730B552
:1003F0004FF4806404F132044FF000054FF0000127
:1004000050E700BF90F0000F04BF0021704730B5E7
:100410004FF4806404F1320410F0004548BF4042BC
:100420004FF000013EE700BF42004FEAE2014FEA11
:1004300031014FEA02701FBF12F07F4393F07F4FEC
:1004400081F06051704732F07F4208BF704793F0EF
:100450007F4F04BF41F40021704730B54FF4607402
:1004600001F0004521F000411CE700BF50EA010205
:1004700008BF704730B54FF000050AE050EA0102AE
:1004800008BF704730B511F0004502D5404261EB1E
:1004900041014FF4806404F132045FEA915C3FF45F
:1004A000D8AE4FF003025FEADC0C18BF03325FEAFC
:1004B000DC0C18BF033202EBDC02C2F1200300FAAD
:1004C00003FC20FA02F001FA03FE40EA0E0021FAD2
:1004D00002F11444BDE600BF70B54FF0FF0C4CF4C0
:1004E000E06C1CEA11541DBF1CEA135594EA0C0F72
:1004F00095EA0C0F00F0DEF82C4481EA030621EAAD
:100500004C5123EA4C5350EA013518BF52EA0335E7
:1005100041F4801143F4801338D0A0FB02CE4FF099
:100520000005E1FB02E506F00042E0FB03E54FF0C9
:100530000006E1FB03569CF0000F18BF4EF0010EC1
:10054000A4F1FF04B6F5007F64F5407404D25FEABD
:100550004E0E6D4146EB060642EAC62141EA555170
:100560004FEAC52040EA5E504FEACE2EB4F1FD0CB2
:1005700088BFBCF5E06F1ED8BEF1004F08BF5FEA30
:10058000500E50F1000041EB045170BD06F00046E2
:1005900046EA010140EA020081EA0301B4EB5C048F
:1005A000C2BFD4EB0C0541EA045170BD41F4801187
:1005B0004FF0000E013C00F3AB8014F1360FDEBFAC
:1005C000002001F0004170BDC4F10004203C35DA88
:1005D0000C341BDC04F11404C4F1200500FA05F30B
:1005E00020FA04F001FA05F240EA020001F00042AC
:1005F00021F0004110EBD37021FA04F642EB060122
:100600005EEA430E08BF20EAD37070BDC4F10C044B
:10061000C4F1200500FA04F320FA05F001FA04F20F
:1006200040EA020001F0004110EBD37041F10001FB
:100630005EEA430E08BF20EAD37070BDC4F1200506
:1006400000FA05F24EEA020E20FA04F301FA05F26E
:1006500043EA020321FA04F001F0004121FA04F216
:1006600020EA020000EBD3705EEA430E08BF20EAE6
:10067000D37070BD94F0000F0FD101F00046400020
:1006800041EB010111F4801F08BF013CF7D041EAA2
:10069000060195F0000F18BF704703F000465200A6
:1006A00043EB030313F4801F08BF013DF7D043EA77
:1006B0000603704794EA0C0F0CEA135518BF95EA2D
:1006C0000C0F0CD050EA410618BF52EA4306D1D1B4
:1006D00081EA030101F000414FF0000070BD50EAD3
:1006E000410606BF1046194652EA430619D094EA5D
:1006F0000C0F02D150EA013613D195EA0C0F05D147
:1007000052EA03361CBF104619460AD181EA03019A
:1007100001F0004141F0FE4141F470014FF0000052
:1007200070BD41F0FE4141F4780170BD70B54FF0ED
:10073000FF0C4CF4E06C1CEA11541DBF1CEA13556D
:1007400094EA0C0F95EA0C0F00F0A7F8A4EB05044F
:1007500081EA030E52EA03354FEA013100F0888046
:100760004FEA03334FF0805545EA131343EA12630F
:100770004FEA022245EA111545EA10654FEA0026C4
:100780000EF000419D4208BF964244F1FD0404F57D
:10079000407402D25B084FEA3202B61A65EB0305D9
:1007A0005B084FEA32024FF480104FF4002CB6EB96
:1007B000020E75EB030E22BFB61A754640EA0C0016
:1007C0005B084FEA3202B6EB020E75EB030E22BF56
:1007D000B61A754640EA5C005B084FEA3202B6EB97
:1007E000020E75EB030E22BFB61A754640EA9C0056
:1007F0005B084FEA3202B6EB020E75EB030E22BF26
:10080000B61A754640EADC0055EA060E18D04FEAE3
:10081000051545EA16754FEA06164FEAC30343EA83
:1008200052734FEAC2025FEA1C1CC0D111F4801F50
:100830000BD141EA00014FF000004FF0004CB6E749
:1008400011F4801F04BF01430020B4F1FD0C88BFE8
:10085000BCF5E06F3FF6AFAEB5EB030C04BFB6EBF3
:10086000020C5FEA500C50F1000041EB045170BDE6
:100870000EF0004E4EEA113114EB5C04C2BFD4EB13
:100880000C0541EA045170BD41F480114FF0000E97
:10089000013C90E645EA060E8DE60CEA135594EA13
:1008A0000C0F08BF95EA0C0F3FF43BAF94EA0C0F16
:1008B0000AD150EA01347FF434AF95EA0C0F7FF48B
:1008C00025AF104619462CE795EA0C0F06D152EADF
:1008D00003353FF4FDAE1046194622E750EA4106C3
:1008E00018BF52EA43067FF4C5AE50EA41047FF4D4
:1008F0000DAF52EA43057FF4EBAE12E74FF0FF3C39
:1009000006E000BF4FF0010C02E000BF4FF0010C09
:100910004DF804CD4FEA410C7FEA6C5C4FEA430C82
:1009200018BF7FEA6C5C1BD001B050EA410C0CBFD1
:1009300052EA430C91EA030F02BF90EA020F002033
:10094000704710F1000F91EA030F58BF994208BF9A
:1009500090422CBFD8176FEAE37040F00100704757
:100960004FEA410C7FEA6C5C02D150EA013C07D1AE
:100970004FEA430C7FEA6C5CD6D152EA033CD3D0F9
:100980005DF8040B704700BF8446104662468C46F3
:100990001946634600E000BF01B5FFF7B7FF002826
:1009A00048BF10F1000F01BD4DF808EDFFF7F4FF4F
:1009B0000CBF012000205DF808FB00BF4DF808EDDA
:1009C000FFF7EAFF34BF012000205DF808FB00BFFD
:1009D0004DF808EDFFF7E0FF94BF012000205DF81F
:1009E00008FB00BF4DF808EDFFF7CEFF94BF0120D4
:1009F00000205DF808FB00BF4DF808EDFFF7C4FFCD
:100A000034BF012000205DF808FB00BF4FEA410C15
:100A10007FEA6C5C02D150EA013C0AD14FEA430CF8
:100A20007FEA6C5C02D152EA033C02D14FF0000035
:100A300070474FF0010070474FEA410212F5001273
:100A400015D211D56FF47873B3EB625212D94FEA15
:100A5000C12343F0004343EA505311F0004F23FAFF
:100A600002F018BF404270474FF00000704750EA54
:100A7000013005D111F0004008BF6FF00040704711
:100A80004FF00000704700BF80F0004002E000BF60
:100A900081F0004142001FBF5FEA410392EA030F69
:100AA0007FEA226C7FEA236C6AD04FEA1262D2EBB3
:100AB0001363C1BFD218414048404140B8BF5B42B8
:100AC000192B88BF704710F0004F40F4000020F051
:100AD0007F4018BF404211F0004F41F4000121F067
:100AE0007F4118BF494292EA030F3FD0A2F10102B1
:100AF00041FA03FC10EB0C00C3F1200301FA03F1EF
:100B000000F0004302D5494260EB4000B0F5000F11
:100B100013D3B0F1807F06D340084FEA310102F1D0
:100B20000102FE2A51D2B1F1004F40EBC25008BF82
:100B300020F0010040EA03007047490040EB00004C
:100B4000013A28BFB0F5000FEDD2B0FA80FCACF14D
:100B5000080CB2EB0C0200FA0CF0AABF00EBC2507A
:100B600052421843BCBFD0401843704792F0000F68
:100B700081F4000106BF80F400000132013BB5E7BB
:100B80004FEA41037FEA226C18BF7FEA236C21D031
:100B900092EA030F04D092F0000F08BF0846704796
:100BA00090EA010F1CBF0020704712F07F4F04D164
:100BB000400028BF40F00040704712F100723CBF77
:100BC00000F50000704700F0004343F0FE4040F4A1
:100BD000000070477FEA226216BF08467FEA23635F
:100BE0000146420206BF5FEA412390EA010F40F44A
:100BF000800070474FF0000304E000BF10F0004396
:100C000048BF40425FEA000C08BF704743F096437C
:100C100001464FF000001CE050EA010208BF704797
:100C20004FF000030AE000BF50EA010208BF70471E
:100C300011F0004302D5404261EB41015FEA010C33
:100C400002BF84460146002043F0B64308BFA3F12B
:100C50008053A3F50003BCFA8CF2083AA3EBC2530D
:100C600010DB01FA02FC634400FA02FCC2F120022C
:100C7000BCF1004F20FA02F243EB020008BF20F063
:100C80000100704702F1200201FA02FCC2F12002C9
:100C900050EA4C0021FA02F243EB020008BF20EABE
:100CA000DC7070474FF0FF0C1CEAD0521EBF1CEAEC
:100CB000D15392EA0C0F93EA0C0F6FD01A4480EADA
:100CC000010C400218BF5FEA41211ED04FF00063C3
:100CD00043EA501043EA5111A0FB01310CF00040EF
:100CE000B1F5000F3EBF490041EAD3715B0040EA15
:100CF000010062F17F02FD2A1DD8B3F1004F40EBE5
:100D0000C25008BF20F00100704790F0000F0CF0B7
:100D1000004C08BF49024CEA502040EA51207F3A7B
:100D2000C2BFD2F1FF0340EAC250704740F4000056
:100D30004FF00003013A5DDC12F1190FDCBF00F047
:100D400000407047C2F10002410021FA02F1C2F1F5
:100D5000200200FA02FC5FEA310040F1000053EA91
:100D60004C0308BF20EADC70704792F0000F00F0DF
:100D7000004C02BF400010F4000F013AF9D040EAE5
:100D80000C0093F0000F01F0004C02BF490011F479
:100D9000000F013BF9D041EA0C018FE70CEAD15377
:100DA00092EA0C0F18BF93EA0C0F0AD030F0004CF7
:100DB00018BF31F0004CD8D180EA010000F00040AB
:100DC000704790F0000F17BF90F0004F084691F069
:100DD000000F91F0004F14D092EA0C0F01D14202A3
:100DE0000FD193EA0C0F03D14B0218BF084608D16C
:100DF00080EA010000F0004040F0FE4040F40000B6
:100E0000704740F0FE4040F4400070474FF0FF0C48
:100E10001CEAD0521EBF1CEAD15392EA0C0F93EA8F
:100E20000C0F69D0A2EB030280EA010C49024FEAE1
:100E3000402037D04FF0805343EA111143EA10139A
:100E40000CF000408B4238BF5B0042F17D024FF452
:100E5000000C8B4224BF5B1A40EA0C00B3EB510F2D
:100E600024BFA3EB510340EA5C00B3EB910F24BF16
:100E7000A3EB910340EA9C00B3EBD10F24BFA3EB9B
:100E8000D10340EADC001B0118BF5FEA1C1CE0D163
:100E9000FD2A3FF650AF8B4240EBC25008BF20F016
:100EA000010070470CF0004C4CEA50207F32C2BF6A
:100EB000D2F1FF0340EAC250704740F400004FF007
:100EC0000003013A37E792F0000F00F0004C02BF38
:100ED000400010F4000F013AF9D040EA0C0093F002
:100EE000000F01F0004C02BF490011F4000F013B5C
:100EF000F9D041EA0C0195E70CEAD15392EA0C0FC4
:100F000008D142027FF47DAF93EA0C0F7FF470AFFB
:100F1000084676E793EA0C0F04D14B023FF44CAF3E
:100F200008466EE730F0004C18BF31F0004CCAD1D3
:100F300030F000427FF45CAF31F000437FF43CAF0F
:100F40005FE700BF4FF0FF3C06E000BF4FF0010C31
:100F500002E000BF4FF0010C4DF804CD4FEA400213
:100F60004FEA41037FEA226C18BF7FEA236C11D05D
:100F700001B052EA530C18BF90EA010F58BFB2EB10
:100F8000030088BFC81738BF6FEAE17018BF40F090
:100F9000010070477FEA226C02D15FEA402C05D144
:100FA0007FEA236CE4D15FEA412CE1D05DF8040BC9
:100FB000704700BF844608466146FFE70FB5FFF75C
:100FC000C9FF002848BF10F1000F0FBD4DF808ED14
:100FD000FFF7F4FF0CBF012000205DF808FB00BF05
:100FE0004DF808EDFFF7EAFF34BF012000205DF85F
:100FF00008FB00BF4DF808EDFFF7E0FF94BF0120AC
:1010000000205DF808FB00BF4DF808EDFFF7D2FFA8
:1010100094BF012000205DF808FB00BF4DF808EDEB
:10102000FFF7C8FF34BF012000205DF808FB00BFB8
:101030004FEA4002B2F1FE4F0FD34FF09E03B3EBE5
:1010400012620DD94FEA002343F0004310F0004F25
:1010500023FA02F018BF404270474FF0000070477B
:1010600012F1610F01D1420205D110F0004008BF1A
:101070006FF0004070474FF000007047024A13685D
:1010800001331360704700BFFC0100200000000026
:10109000674BF0B51A6803F1236303F567337633C2
:1010A0009A4289B04ED101285DD0624BC8221C887B
:1010B000614BA4B21C80614B00211D88604BADB216
:1010C0001D80604B60481E88604BB6B21E80604B2E
:1010D0001F88604BBFB21F8003F0A8FB2B4622463F
:1010E000CDE900675C49584804F008F84FF47A737A
:1010F000C8225549594803F0BBFA594BC8221C680D
:10110000584B00211C60584B4F481E68574B1E60BF
:1011100003F08CFB2046FFF787F9044630460D4666
:10112000FFF782F92246CDE900012B465049464897
:1011300003F0E4FF4FF47A73C8224349474803F0B1
:1011400097FA2AE078B946F2A8133B4A13803F4A3F
:1011500013803B4A13803F4A13804FF07E53414A2D
:101160001360424A13600023CDE903330123304A60
:10117000404CCDE90623237001F020FE20700028AA
:10118000FAD103A904A801F0D5FE40B101232370D0
:1011900001F026FE20700028FAD109B0F0BD01232D
:1011A00021A7D7E90067224D237032463B462946E6
:1011B000032001F049FE20700028F6D1204B1D4F7E
:1011C0001988224B1D881C4B1E88224B46EA01467B
:1011D0001A88012345EA0245237032462B463946D8
:1011E000032001F031FE20700028F6D101231D4EAE
:1011F0001B4D2370002329460220326801F024FE93
:1012000020700028F6D10123184E174D23700023BB
:1012100029460220326801F017FE20700028F6D11E
:10122000B4E700BFAFF300807698341200000000EE
:1012300000FC000810FC00083C03002012FC000821
:101240000403002014FC000800020020DC0600203B
:1012500016FC000808030020407C0008800C0020D9
:1012600018FC0008E002002020FC0008F00200202A
:101270006B7C00085C0D0020002110B590B014229A
:1012800001A809910B9103F0D1FA4FF480330922A0
:101290000224CDE906234FF40032CDE90D43089234
:1012A0004FF46013012206A80A920C920F9302F0E9
:1012B00045F808B172B6FEE70F23CDE901344FF4CB
:1012C00080630390CDE90430214601A802F00CFAB6
:1012D00008B172B6FEE710B010BD00002DE9F04F66
:1012E000A54CB3B001F0A4FC606A636AA349656AC7
:1012F000A34A666A13F0804F676A14BF13460B4611
:1013000015F0005FD4F824C014BF15460D4616F042
:10131000805F14BF16460E4617F0806F14BF174645
:101320000F461CF0006F0CBF8C469446CDE900566A
:10133000CDE9027C12EA200238BF0A469149924860
:1013400003F0DCFEFFF798FF102200212AA803F02B
:101350006DFAA369002243F02003A361A36941F25F
:10136000840103F020031A931A9BA369874843F072
:101370000403A361A369012603F004031B931B9BD1
:10138000A369022543F00803A361A369002403F0C5
:1013900008031C931C9B01F0F5FE002241F21E0184
:1013A0007B4801F0EFFE41F2840378482AA9CDE999
:1013B0002A36CDE92C4501F009FE41F21E0374489E
:1013C0002AA9CDE92A36CDE92C4501F0FFFD4FF4DD
:1013D000E1337048704EC0E90244C0E900630C2656
:1013E0000461C0E90564C46103F014F9054608B15D
:1013F00072B6FEE72027014610221FA803F016FA56
:1014000029461C2223A8CDE91D5503F00FFA2946D1
:101410003A462AA803F00AFA604C614BA560C4E979
:10142000003540F21F33C4E903355B258023204695
:10143000C4E9055302F01AFC08B172B6FEE74FF496
:10144000805320461FA91F9302F0CEFD08B172B64B
:10145000FEE7204602F036FC08B172B6FEE708212E
:10146000204602F087FC08B172B6FEE7CDE91D7098
:101470001DA9204603F016F8024608B172B6FEE731
:101480003023CDE92500CDE92330CDE9270029908F
:1014900023A9204602F0C8FC08B172B6FEE7226814
:1014A0002046936923A943F008039361042202F0C4
:1014B000BBFC08B172B6FEE722682046936923A9F7
:1014C00043F400639361082202F0AEFC08B172B6E7
:1014D000FEE73246204623A902F0A6FC08B172B608
:1014E000FEE722682D48D3692AA943F40063D3613B
:1014F00000234FF40052CDE92A33CDE92C332E934B
:101500002F92319302F0FCFF054608B172B6FEE758
:101510000626224800F056FF102229462AA803F08A
:1015200085F9204C204B4FF08008C4E900364FF677
:10153000FF732046CDE92355C4E90335A560C4F8FF
:10154000188002F093FB08B172B6FEE74FF48057A3
:1015500020462AA92A9702F047FD08B172B6FEE795
:10156000202323A9CDE92330204602F09BFF054626
:10157000E0B172B6FEE700BF00100240897C0008AF
:10158000857C00088C7C00080002002000080140D7
:10159000000C0140800C002000380140C80C0020E5
:1015A000002C0140880B002000080040014610225A
:1015B0001FA803F03BF91422294623A803F036F9AB
:1015C0001C2229462AA8724CCDE91D5503F02EF99C
:1015D000704B2046C4E9003549F64043A560C4E994
:1015E0000335C4F8188002F041FB08B172B6FEE77B
:1015F00020461FA91F9702F0F7FC08B172B6FEE75C
:10160000204602F05FFB08B172B6FEE708212046D3
:1016100002F0B0FB08B172B6FEE7CDE9236023A962
:10162000204602F0C7FD08B172B6FEE730231DA9BF
:10163000CDE91D30204602F035FF08B172B6FEE755
:101640000022102452482AA9CDE92A422C922E9237
:1016500002F0EAFB054608B172B6FEE722460146F3
:101660001FA803F0E3F8142229462AA803F0DEF8A5
:101670002246294623A8CDE91D5503F0D7F84FF09F
:101680008043454CC4E900354FF6FF73C4E9033588
:1016900080232046A560A36102F0E8FA08B172B683
:1016A000FEE74FF4805320461FA91F9302F09CFCD5
:1016B00008B172B6FEE7204602F030FB08B172B600
:1016C000FEE70425202320462AA9CDE92A5302F06B
:1016D00071FD08B172B6FEE7CDE91D001DA92046D7
:1016E00002F0E0FE024608B172B6FEE70123239045
:1016F000CDE92430269023A9204602F0E7FB08B16B
:1017000072B6FEE702232A46204623A9CDE92333F9
:1017100002F0DCFB034608B172B6FEE71F48204A20
:10172000204CC0E90233C0E900424FF48042C0E9D6
:101730000633C0E90423036201F02AFD034608B121
:1017400072B6FEE74FF4827217481849C0E90233B7
:10175000C0E900124FF40072C0E90433C0E9062367
:10176000C0E9083383620A23C36202F079F808B142
:1017700072B6FEE706230E480E4AC0E9002340F683
:10178000FF73836001F0ACFD0446A8B172B6FEE7BA
:10179000380C002000040040100D0020D00B002069
:1017A000A086010000540040300B002000380040AB
:1017B000240C00200030004001228021A34801F0C9
:1017C000E1FC0123A24DC822A2492B70A2484FF090
:1017D000FF3302F04DFF4FF0FF3312229F499E4826
:1017E00002F046FF22464FF48051984801F0CAFCAF
:1017F0002046FFF74DFC9A4AD36843F01E03D3609E
:10180000984B18951A8812931AB946F2A813954A5C
:101810001380954B1A8813931AB946F2A813924A6B
:101820001380924C238813B946F2A8132380904B5F
:101830001A8814931AB946F2A8138D4A1380002609
:10184000002722888B4B0025DA6201228A4BDFF8C1
:10185000A0A2C3E90067894BDFF88492C3E900675F
:10186000874BDFF890821A70864B294686481D8088
:10187000AAF8005089F80050C8E9006702F0C8FDD6
:101880000421814802F0C4FD40F22A327F4B4FF020
:10189000000CDA627E4B7F481D8064257E497F4ABA
:1018A0007F4BCDF854A0CDF86490013D40F804CBB7
:1018B00041F804CB42F804CB43F804CBF5D1794B83
:1018C00013221D70784B79491D70794B62481D7049
:1018D000784B1D704FF0FF3302F0CAFE764802F0DD
:1018E0008BF8764802F088F8754B2A46C3E9006702
:1018F000614B8021C3E90067724B5448C3E900671C
:10190000714BC8E90067C3E90067704B4FF07E5820
:10191000C3E9006701F036FC6D4E4F4F189B1B78F2
:10192000002B00F06E816B4A6B48136843F0010393
:10193000136001F0FCFC0023189A1370159B1B88A0
:10194000002B00F0CA82574A644B12781B8852B9A8
:10195000554A12783AB9564A127822B9554A12783D
:10196000002A00F00B82B3F5C86F80F00A82C8220B
:101970000021384802F05AFF474B594AD3F800A0DB
:10198000474B12781D68434B5046D3F80090434BA9
:10199000D3F800B0002A00F08D81FEF745FD514AD2
:1019A000CDE9160111685846FFF77CF90146484613
:1019B000FFF76EF8FEF738FDCDE908015846FEF74F
:1019C00033FDCDE906014846FEF72EFDCDE90401C1
:1019D000454B28461968FFF765F901465046FFF761
:1019E00057F8FEF721FDCDE902012846FEF71CFD60
:1019F000DDE91623CDE900013C49164803F07EFBE2
:101A00004FF47A73C8223846124902F031FE344B43
:101A10001B78002B40F0ED80224D2B78002B00F03E
:101A200067811D4B3146D3F800904846FFF730F8E8
:101A3000FFF7FEFA0028B8BF4042FFF7DFF8414643
:101A4000FFF7ECFA002800F0538155E00008014050
:101A5000E402002000020020800C0020CE7C000860
:101A6000000C01403C03002004030020DC060020A1
:101A70000803002000040040E802002010030020BA
:101A8000240B0020DE060020100D0020002C014059
:101A9000180300204C050020AC030020E8060020BD
:101AA000880800204C03002080030020E07C000810
:101AB000170B002006030020380C0020880B0020A4
:101AC00090030020F802002080080020400500203C
:101AD00000804A4410E000E0240C00207E08002032
:101AE000A8030020E0020020F0020020F37C0008A0
:101AF0007C080020A0030020314648462588FFF7D7
:101B00008DFA002800F0F28001352580814D2B7878
:101B1000002B00F0F280804B3146D3F8009048460D
:101B2000FEF7B6FFFFF784FA0028B8BF4042FFF780
:101B300065F84146FFF772FA002800F0DE80129B3C
:101B4000314648461D88FFF769FA002800F0D38027
:101B50000135129B1D80714D2B78002B00F0D28037
:101B60006F4B7049D3F800904846FEF791FFFFF79E
:101B70005FFA0028B8BF4042FFF740F84146FFF740
:101B80004DFA002800F0BE80149B314648461D885F
:101B9000FFF744FA002800F0B3800135149B1D8044
:101BA000614D2B78002B00F0B280604B3146D3F8AA
:101BB00000904846FEF76CFFFFF73AFA0028B8BFDE
:101BC0004042FFF71BF84146FFF728FA002800F0D3
:101BD0009E80139B314648461D88FFF71FFA002858
:101BE00000F093800135139B1D80514A1388013307
:101BF0001380504A5048136823F00103136001F02A
:101C0000FBFE4E4D0A2301222946384602F085FD8F
:101C100000283FF483AE2B78632B40F0A3814FF470
:101C20007A7316224649474802F022FD424801F0E5
:101C30000DFF0021444802F0EBFB0421424802F072
:101C4000E7FBC8220021414802F0F0FD0123404A91
:101C5000129913702F4A1370304A1370324A13705E
:101C60000022199B1A70324B1A8046F2A8130B807F
:101C7000139923800B8014990B800021354B196038
:101C8000354B1960354B1960354B1960354B196070
:101C9000354B1960354B15991A804FF4FA730B8048
:101CA000334B1A80334B1A80234801F0A5FE0023E2
:101CB0002B7032E6FEF7B8FB02460B465846CDE9DC
:101CC0001623FEF7B1FBCDE904014846FEF7ACFB55
:101CD000CDE902012846FEF7A7FBDDE91623CDE991
:101CE00000012549194803F009FA89E6013D0CE78E
:101CF00000232B700AE7013D2BE700232B702AE716
:101D0000013D4BE700232B704AE7013D6BE70023C1
:101D10002B706AE78003002088080020170B002042
:101D20004C0500200000484406030020E80600207F
:101D30007E08002010E000E0880B0020C802002090
:101D4000637E0008800C0020100D0020000200209F
:101D50004C030020380300204805002078080020AC
:101D6000180B0020E0020020F00200201C0B0020D5
:101D7000DE06002018030020307D0008B3F5C86F90
:101D800008D34FF47A731F229E49384602F070FC44
:101D900000F0C4FF159B1D88002D3FF42AAFDFF82B
:101DA000E892994BD9F800101868FEF773FE974B2C
:101DB000C9F80000DFF8D4928246D9F800101868FC
:101DC000FEF768FEDFF8C8B2914BDBF80010C9F8E7
:101DD000000016901868FEF75DFE8E4BCBF80000F1
:101DE000DFF8B0B28146DBF800101868FEF752FE4B
:101DF000013D159AADB21580CBF80000169A002D62
:101E00007FF4F7AE114616905046FEF7FFFFDFF85D
:101E100088B2169BCBF8000019464846FEF7F6FF3D
:101E2000DFF878A2C8222946CAF800007A4802F0F2
:101E3000FDFC149B129A1B8878490193139B7648EA
:101E40001B8800932388128803F058F94FF47A73A3
:101E5000C8227149384602F00BFCC82229466E4858
:101E600002F0E4FCDAF80000FEF7DEFA02460B4668
:101E7000DBF80000CDE91623FEF7D6FADDE91623DC
:101E8000CDE900016649644803F038F94FF47A73EC
:101E9000C8226149384602F0EBFBDBF80000FFF78F
:101EA000C7F80130022810D8DAF80000FFF7C0F8B0
:101EB0000130022809D80120FFF7EAF80022594B27
:101EC0001A800122584B1A7093E64FF47A732A2233
:101ED0003846564902F0CCFBF0E7534D2B78002BE7
:101EE0003DD1534B1868FEF79FFACDE91001514BD5
:101EF0001868FEF799FACDE90E014F4B1868FEF706
:101F000093FACDE90C014D4B4D49D3E90023CDE9BE
:101F10000A234C4B4048D3E90023CDE908234A4B20
:101F2000D3E90023CDE90623484BD3E90023CDE9CB
:101F30000423474BD3E90023CDE90223454BD3E9E2
:101F40000023CDE90023444BD3E9002303F0D6F866
:101F50004FF47A73C82238462F4902F089FB0023D8
:101F60002B7046E6742B22D13C4801F06FFD002116
:101F70003B4802F04DFA0421394802F049FA4FF487
:101F80007A7310223749384802F072FB0123159A00
:101F90002449138000220A8034490B7034490B70A5
:101FA00034490B7034490B7034490B707AE6722B4C
:101FB0007FF47DAE294801F049FD0021284802F058
:101FC00027FA0421264802F023FA4FF47A732122DB
:101FD0002B49254802F04CFB0020244B244A187062
:101FE00001231370234A1370234A1370234A13707A
:101FF000159B18800B4B1880224B1880FFF748F870
:1020000052E600BF5F7D00084C050020E806002076
:10201000AC03002088080020000200207E7D00081C
:10202000BA7D00087E080020240B0020D37D000824
:1020300088030020580300204803002020030020CC
:10204000FD7D00084005002080080020F8020020E7
:10205000E8020020A003002090030020880B00204D
:10206000100D0020797E0008800C0020A8030020BD
:102070004C03002080030020170B002006030020E3
:10208000897E00081803002038030020480500203E
:1020900078080020180B0020E0020020F002002049
:1020A00038B5364D04462A68002A50D00368B3F18B
:1020B000804F4CD1037F591E012948D81B2A01D9D2
:1020C000012B44D1012280212D4801F05BF88021B1
:1020D00000222B4801F056F8237F2A48012B0CBF21
:1020E0000021042101F0CDFC274C2968236880B22F
:1020F000184401392060296049BB224802F088F960
:102100000421204802F084F91C222368B3FBF2F377
:10211000A3F52A53373BB3F5C86F88BF4FF4C863A4
:102120001A4A2360D36823F01E03D360184B1B8820
:10213000013B032B0BD8DFE803F0020B1219154B00
:1021400020681D88FEF756FD134B43F8250038BD67
:10215000104B20681D88FEF74DFD104BF5E70D4B29
:1021600020681D88FEF746FD0D4BEEE7094B206801
:102170001D88FEF73FFD0B4BE7E700BF98030020EB
:1021800000080140100D002084030020000C0140D5
:10219000DE06002018030020AC0300208808002081
:1021A0004C050020E80600200E4B82B09A6942F0F0
:1021B00001029A619A6902F001020092009ADA69BA
:1021C00042F08052DA61DB69074A03F080530193E1
:1021D000019B536823F0E06343F08063536002B0D7
:1021E000704700BF001002400000014010B50446D7
:1021F00086B01022002102A802F018FB2268154BBD
:102200009A4224D1144C4FF44072A369134843F00E
:102210000803A361A36902A903F008030093009BCC
:102220001223CDE902230323059300F0CFFE0C4ACD
:10223000536843F0E06343F002035360E36943F4FF
:102240000013E361E36903F400130193019B06B0FB
:1022500010BD00BF0054004000100240000C0140BF
:102260000000014010B5044686B01022002102A8EB
:1022700002F0DCFA2268174B9A4228D103F5EC33BE
:10228000DA69154842F48042DA61DA6902A902F497
:1022900080420092009A9A6942F008029A619B6912
:1022A0004FF4204203F008030193019B0223CDE980
:1022B00002230323059300F089FE4FF4804100239D
:1022C0000548CDE9021302A9049300F07FFE06B091
:1022D00010BD00BF00380040000C014010B504469E
:1022E0008AB01022002106A802F0A0FA2368304A22
:1022F00093420BD12F4B9A6942F400629A619B6919
:1023000003F400630193019B0AB010BDB3F1804F49
:1023100025D103F50433DA69002442F00102DA61C1
:10232000DA69254802F001020292029A9A6906A926
:1023300042F004029A619B69089403F0040303933A
:10234000039B0123CDE9063400F040FE1C20224609
:10235000214600F0A3FC1C2000F0D2FCD4E7174A71
:10236000934210D1134B1D20DA6942F00202DA6168
:102370000022DB69114603F002030493049B00F082
:102380008DFC1D20E8E70E4A9342BDD1094B1E206B
:10239000DA6942F00402DA610022DB69114603F0D7
:1023A00004030593059B00F079FC1E20D4E700BFD1
:1023B000002C0140001002400008014000040040D1
:1023C0000008004010B5044686B01022002102A883
:1023D00002F02CFA22680D4B9A4215D103F56443A2
:1023E0009A690B4842F004029A619B694FF470624B
:1023F00003F004030193019B0223CDE9022303238D
:1024000002A9059300F0E2FD06B010BD002C0140CA
:102410000008014010B5044686B01022002102A831
:1024200002F004FA2268194B9A422DD103F5584361
:102430009A69174842F480429A619A6902A902F4A3
:1024400080420092009A9A6942F008029A619B6960
:10245000402203F008030193019B0223CDE90223EC
:102460000323059300F0B2FD002380210848CDE945
:10247000021302A9049300F0A9FD064A536843F031
:10248000E06343F00403536006B010BD0038014020
:10249000000C014000000140FEE7FEE7FEE7FEE71A
:1024A000FEE770477047704710B5084C238801332A
:1024B0009BB2B3F57A7F238003D3FEF7DFFD0023C1
:1024C0002380BDE8104000F0C5BB00BFD202002051
:1024D000014801F0F0BA00BF100D00201C22024B91
:1024E00002481A6001F0E7BA98030020380C002077
:1024F0002DE9F04F0024A64A95B01368214643F019
:1025000001031360A34BA4481C60A44BA44D1C60A2
:1025100001F0D4FE0421A04801F0D0FE08219E481D
:1025200001F0CCFE0C219C4801F0C8FE9D4A2146DA
:10253000D3689D4843F01E03D36001F069FF042176
:10254000994801F065FF994B5A6822F46E4222F0D7
:10255000EE0242F42A4242F0AA025A60944A1188DA
:10256000032981BF29881480013129802E8891494F
:10257000642E0C8840F01482002C40F02182844AA2
:102580008D48136843F00103136001F05FFA0022E5
:1025900000238A49CDE90823C1E900238849CDE910
:1025A0000A23C1E900238749CDE90C23C1E90023AF
:1025B0008549CDE90E23C1E900238449CDE91023E3
:1025C000C1E900238249CDE9122302918149CDE975
:1025D0000623059180490194049180490391029B4F
:1025E000DDF8048053F8045B08F1010A029314AB90
:1025F00003EBC8047A4B1968059B53F8040B059349
:10260000FEF750FB01462846FEF742FAFDF70CFFA5
:102610005FFA8AF3032B28BF002344E90C01DDE9AC
:1026200008ABDDE90A6701933246DDE90C453B461C
:1026300050465946FEF7C2F922462B46002800F0C4
:10264000638130463946FEF7B9F9002840F06C81C5
:1026500022462B4650465946FEF7CEF908B9A24607
:10266000AB46594C5246D4E900015B46FDF77EFD6E
:1026700014AB03EBC8085B4BC4E900011968039B6A
:102680001868FEF70FFB049B01461868FEF700FA76
:10269000FDF7CAFE48E90601DDE90E45DDE91089CE
:1026A000204642464B462946FEF788F9DDE9126787
:1026B00032463B46002800F03A8140464946FEF744
:1026C0007DF9002840F0438132463B4620462946AA
:1026D000FEF792F908B934463D463C4E2246D6E90B
:1026E00000012B46FDF742FD3F4BC6E900013F4E7E
:1026F000C3E9004522462B4620462946C6E900ABE1
:10270000FDF7EAFE524604460D465B4650465946E2
:10271000FDF7E2FE02460B4620462946FDF726FD60
:1027200004F052FF04460D46314B244FC3E90045E7
:10273000D7E90023FEF760F9BA4608B1C7E90045BA
:10274000D6E90001FEF778F90028B8BF4042FDF74E
:1027500059FE1B4E0446D6E900230D46FEF74CF900
:1027600008B1C6E90045204B164ED3E90001FEF73B
:1027700063F90028B8BF4042FDF744FED6E90023C4
:1027800004460D46FEF738F9A0B3C6E9004531E02E
:1027900010E000E084030020C80C00209803002013
:1027A00018030020000C0140100D0020000801401B
:1027B000DE0600207C080020880B0020100300208B
:1027C00028030020E00600203003002050030020F2
:1027D0004C050020E8060020AC03002088080020FB
:1027E000E0020020F002002040030020280B00201F
:1027F000900300200022029B43F8042C059B43F821
:10280000042C049B43F8042B0493039B43F8042BF0
:102810000393029A9A4B93427FF4E1AE99490022C6
:10282000D1E90001984BFDF781FF91A3D3E9002383
:10283000FDF77CFF06460F46DFF8A8829349C8E9FA
:102840000067D1E9000100228F4BFDF76FFF88A3DD
:10285000D3E90023FDF76AFF85A3D3E900230446EB
:102860000D46DAE90001DFF88092C9E90045FDF77D
:102870005DFF874BC3E900017DA3D3E900238549B0
:10288000D1E90001FDF752FF834BC3E9000178A3B2
:10289000D3E900238149D1E90001FDF747FF804BCF
:1028A0003246C3E900013B4630463946FDF714FE87
:1028B000224606462B460F4620462946FDF70CFECB
:1028C00002460B4630463946FDF750FC04F07CFECC
:1028D00004460D46734B0022C3E900450023FEF772
:1028E00063F8714E002835D0DDE90634C6E90034BE
:1028F00000226E4B1A8001226D4B1A706D4815B084
:10290000BDE8F04F01F0D7B850465946FEF756F8EB
:1029100000287FF4A6AE22462B4630463946FEF705
:102920006BF800283FF49BAEB246BB4699E62046C2
:102930002946FEF743F800287FF4CFAE32463B46E7
:1029400040464946FEF758F800283FF4C4AE4446D6
:102950004D46C2E62246D9E900012B46FDF7E6FEC8
:1029600004F004FE0022544BFDF7B6FD42A3D3E968
:102970000023FDF7DBFE04460D46D8E900010022E6
:102980000023C6E90045FEF719F80028B0D022461A
:102990002B4600204949FDF7E7FBC6E90001A7E700
:1029A00074B1012E0CD1434801F050F80023444A81
:1029B0002B80136843F0010313603D4B1E709DE7AD
:1029C0001188481C1080032916D8DFE801F0021E88
:1029D0002F403C4A11883C4AD1623C49CA6822F0E7
:1029E0000802CA6000215A6822F4706242F48062D0
:1029F0005A60374801F014FC0021364801F09AFC77
:102A00000421344801F096FC78E7334A11882E4AB5
:102A1000D1622E49CA6822F00202CA605A680821AF
:102A200022F00F0242F004025A60E2E72B4A1188BA
:102A3000254AD1622549CA6822F01002CA605A6844
:102A4000042122F4704242F480425A60D1E7244AC1
:102A500011881D4AD1621D49CA6822F00402CA6069
:102A60005A680C2122F0F00242F040025A60C0E79E
:102A7000000000205C6F47404AD8124DFB210940FE
:102A8000DC060020300300200000594050030020E5
:102A9000F80200202803002080080020E006002023
:102AA0004005002090030020200300201803002090
:102AB000E4020020880B0020008066400080764001
:102AC00010E000E03C03002000040040000C014046
:102AD000C80C0020100D0020080300200403002073
:102AE000DC060020A0030020E8020020012070473F
:102AF00008B501F071FE162303604FF0FF3008BDEA
:102B000008B501F069FE16230360FEE770B50E46B6
:102B100014460025A54201DB204670BDAFF30080BE
:102B200070550135F6E770B50E4614460025A542EE
:102B300001DB204670BD705DAFF300800135F6E724
:102B40004FF0FF3070474FF4005300204B60704748
:102B500001207047002070470B4B0246196810B5E2
:102B600009B90A491960186809490A4C0244091B45
:102B70008A4206D901F030FE0C2303604FF0FF308B
:102B800010BD1A60FCE700BFD4020020980D0020A1
:102B90000050002000040000704700000C480D4960
:102BA0000D4A002302E0D458C4500433C4188C42A8
:102BB000F9D30A4A0A4C002301E013600432A2420E
:102BC000FBD3FFF7E9FF01F00DFEFEF787FB70472F
:102BD00000000020E0010020BC820008E00100208D
:102BE000980D0020FEE7000038B50E4B054618781A
:102BF0004FF47A73B3FBF0F30B4A1068B0FBF3F0B9
:102C000000F09EF8044658B90F2D09D8024629460F
:102C10004FF0FF3000F042F82046044B1D6038BDF5
:102C20000120FCE704000020000000200800002034
:102C3000074A08B51368032043F01003136000F03F
:102C40001BF80020FFF7D0FFFFF7AEFA002008BD09
:102C500000200240034A044B11681B780B441360A8
:102C6000704700BF600D002004000020014B186871
:102C7000704700BF600D002007490302CA6803F4D3
:102C8000E06322F4E0621204120C134343F0BF63CA
:102C900043F40033CB60704700ED00E0164B30B5D5
:102CA000DC68C4F30224C4F10703251D042B28BFEC
:102CB0000423062D4FF0FF3598BF002405FA03F3D7
:102CC00088BF033C21EA0303A34005FA04F422EA87
:102CD0000402002843EA0203ACBF00F16040074A47
:102CE0004FEA0313DBB2ABBF00F5614000F00F0009
:102CF00080F80033135430BD00ED00E014ED00E027
:102D0000002808DB0123420900F01F0003FA00F04D
:102D1000014B43F82200704700E100E0BFF34F8F02
:102D20000549064BCA6802F4E0621343CB60BFF367
:102D30004F8F00BFFDE700BF00ED00E00400FA0583
:102D40000138B0F1807F0AD2F021064B064A586064
:102D500082F823100020072298601A607047012033
:102D6000704700BF10E000E000ED00E0114AD368BA
:102D700013F0100305D01049CB6943F00203CB6177
:102D80001023D268500706D50B4943F00403CA69E3
:102D900042F00102CA61074AD169C90708D506484D
:102DA000C16941F00401C161D16921F00101D16122
:102DB000D360704700200240680D0020064B186960
:102DC00010F0800007D0054A5A6002F188325A603C
:102DD0001869C0F3C0107047002002402301674506
:102DE000034A0020136943F080031361704700BF5A
:102DF00000200240F8B50446FFF738FF114D0746A2
:102E00002E46EB68D80712D4EB68990644BF2023FE
:102E1000EB60F368DA0606D4F369DB0703D4F068E5
:102E200010F0040007D0FFF7A1FF012003E0631CAE
:102E3000E7D00CB90320F8BDFFF718FFC01BA04274
:102E4000DFD9F7E7002002402DE9F84F254E1F4655
:102E5000337E0546012B8846914640D001234CF233
:102E600050303376FFF7C6FFA8BB012D03D0022DEB
:102E70000CBF022504254FF0000A5346DFF868B066
:102E80004FEA0A14C4F12001A4F1200207FA01F16B
:102E900029FA04F4F3610C4327FA02F21443DBF835
:102EA0001020A4B242F00102CBF810204CF25030B6
:102EB00028F81A40FFF79EFFDBF8102022F00102ED
:102EC000CBF8102038B90AF1010A5FFA8AF295426C
:102ED0004FF00003D4D800233376BDE8F88F0220EA
:102EE000FBE700BF680D0020002002400022064BD7
:102EF000DA61064B1A6942F004021A611A6942F05B
:102F000040021A61704700BF680D00200020024097
:102F10000022064BDA61064B1A6942F002021A617E
:102F200058611A6942F040021A617047680D00202A
:102F3000002002402DE9F041224E0546337E8846AE
:102F4000012B3DD00124347603684CF25030022B23
:102F500013D1FFF74FFF20B1012000233376BDE8E6
:102F6000F081FFF7C3FF4CF25030FFF743FF164AE2
:102F7000136923F004031361EFE7FFF73BFF002819
:102F8000EAD14FF0FF33C8F800302046AF680E4C4E
:102F9000D5E9023203EB8223BB42DED93846FFF784
:102FA000B7FF4CF25030FFF725FF236923F00203EF
:102FB000236110B1C8F80070CFE707F58067E7E735
:102FC0000220CCE7680D0020002002402DE9F74FD9
:102FD00000221646644BDFF8A0C1DFF8A0E10D68BF
:102FE00035FA06F402D103B0BDE8F08F4FF00108C6
:102FF00008FA06F805EA080438EA05057CD14D68A8
:10300000032D07D8013D022D00F28880DFE805F08E
:10301000969BA100122D00F099806FD8112D00F021
:103020008F80FF2C98BF82464FF00F0988BF00F1B8
:10303000040A4FEA8605DAF8008088BF203D09FAC5
:1030400005FB28EA0B0802FA05F548EA0505CAF867
:103050000050D1F804A01AF0805F4DD0434F26F005
:103060000308BD6908F1804845F00105BD61BD69EF
:1030700008F5803805F00105019506F0030B019D68
:103080004FEA8B0BD8F8085009FA0BF925EA090921
:10309000374DA84261D005F58065A8425FD005F59F
:1030A0008065A8425DD005F58065A8420CBF032568
:1030B000042505FA0BF545EA0905C8F808501D680E
:1030C0001AF4803F14BF2543A5431D605D681AF4C0
:1030D000003F14BF2543A5435D609D681AF4801F1F
:1030E00014BF2543A5439D60DD681AF4001F14BF7B
:1030F0002C4325EA0404DC60013670E71D4FBD4215
:103100000CD017D8DFF878904D4507D009F5702915
:103110004D4503D0A9F580194D4582D18A68D2B1B9
:10312000012A08BFC0F810804FF0080218BFC0F88D
:10313000148076E76545F1D07545EEE7CA6870E71B
:10314000CA6804326DE7CA6808326AE7CA680C3296
:1031500067E7002265E7042263E70025A9E7012568
:10316000A7E70225A5E700BF0004014000100240C8
:103170000008014000002210000031100000321051
:10318000000012100AB1016170470904FBE700005A
:1031900070B5044608B9012070BD90F83D3003F0C9
:1031A000FF021BB980F83C20FFF720F8242384F8A5
:1031B0003D3023681A6822F001021A601A6842F44E
:1031C00000421A601A6822F400421A6000F028FBDC
:1031D0003F4A6368934294BF3E4A3F4A90428CBF45
:1031E00000220122002AD6D13C4E2268B0FBF6F61E
:1031F0005168013821F03F01314351603449156A6B
:103200008B4281BF4FF4967171434FF47A76B1FBD4
:10321000F6F125F03F0594BF711C0131294311627D
:10322000D1692B4D21F44F41AB4221F0FF0132D83F
:103230005B00B0FBF3F0431C40F6FC70034242D04D
:10324000C3F30B030B43D3611168D4E9073021F0BA
:10325000C00103430B4313609168D4E9030321F4D5
:103260000341034321F0FF010B439360D168D4E98C
:10327000053021F0FF0103430B43D36013680020A6
:1032800043F0010313602023206484F83D30206361
:1032900084F83E0080E7A56855B903EB4303B0FB13
:1032A000F3F30133C3F30B037BB143F40043C9E7EA
:1032B00019256B43B0FBF3F30133C3F30B0323B1C5
:1032C00043F44043BEE70423BCE70123BAE700BF51
:1032D000A08601007F841E00FF083D0040420F00D1
:1032E00038B5044608B34CF6CC4203681A6045F280
:1032F00055521A6042685A6082689A60FFF7B6FCBD
:1033000005462268D06810F0030003D14AF6AA23CC
:10331000136038BDFFF7AAFC401B2728F1D92368AA
:10332000DB689B07EDD00320F3E70120F1E74AF6C5
:10333000AA22036800201A60704700002DE9F341BB
:10334000054638B30368DB0710D42B689F075ED4AB
:103350002B68190700F195802B685A0700F1BF8090
:10336000E869002840F02C81002029E08F4C636838
:1033700003F00C03042B07D0636803F00C03082B45
:103380000AD16368DE0307D523689C03DDD56B682B
:10339000002BDAD1012013E06B68B3F5803F12D126
:1033A000236843F480332360FFF760FC06462368FC
:1033B0009803CAD4FFF75AFC801B6428F7D903206E
:1033C00002B0BDE8F0819BB9236823F48033236009
:1033D000236823F480232360FFF748FC0646236814
:1033E0009903B2D5FFF742FC801B6428F7D9E6E7C2
:1033F000B3F5A02F236803D143F480232360CFE7E4
:1034000023F480332360236823F48023CBE7674CC5
:10341000636813F00C0F07D0636803F00C03082BEC
:1034200010D16368DA030DD423689B0702D52B699A
:10343000012BAFD123686A6923F0F80343EAC20382
:10344000236085E72A695A4B6AB101221A60FFF7A7
:103450000DFC064623689F07ECD4FFF707FC801B92
:103460000228F7D9ABE71A60FFF700FC064623688D
:1034700098077FF56DAFFFF7F9FB801B0228F6D99F
:103480009DE7AA69494E4B4BDAB101221A60FFF75A
:10349000EDFB0446736A9B070DD54FF4FA52464B79
:1034A0001B68B3FBF2F3019300BF019B5A1E01920C
:1034B000002BF9D150E7FFF7D9FB001B0228E9D90F
:1034C0007DE71A60FFF7D2FB0446736A9F077FF51A
:1034D00043AFFFF7CBFB001B0228F6D96FE7334C55
:1034E000E369D80024D40127E36943F08053E36102
:1034F000E36903F080530093009B304E3368D90595
:1035000018D5EB68012B26D1236A43F0010323620F
:10351000FFF7ACFB41F288380646236A9B073FD58C
:10352000002F3FF41DAFE36923F08053E36117E7F9
:103530000027E2E7336843F480733360FFF796FBBC
:1035400080463368DA05DCD4FFF790FBA0EB080077
:103550006428F6D933E7ABB9236A41F2883823F0FF
:1035600001032362236A23F004032362FFF77EFB37
:103570000646236A9807D3D5FFF778FB801B4045A2
:10358000F7D91CE7052B236A03D143F00403236218
:10359000BAE723F001032362236A23F00403B6E7AA
:1035A000FFF764FB801B4045B7D908E700100240D5
:1035B00000004242800442420000002000700040AF
:1035C0002A4B5A681C4602F00C02082A3DD0002300
:1035D000274E022833602BD1FFF748FB07462368AC
:1035E00099011FD42B6AB3F5803F05D16268A968A1
:1035F00022F400320A436260696A62680B4322F473
:1036000074121343636001233360FFF72FFB0546F9
:1036100023689A013FF5A8AEFFF728FB401B02285C
:10362000F6D9CCE6FFF722FBC01B0228D7D9C6E6A5
:10363000FFF71CFB054623689B017FF595AEFFF75E
:1036400015FB401B0228F6D9B9E601283FF4B8AEB5
:103650005B682A6A03F4803191427FF49BAE6A6A08
:1036600003F4701393423FF47FAE93E600100240E0
:103670006000424230B5184B87B002AC03F1100530
:10368000224618685968083303C2AB421446F7D182
:1036900040F201231149ADF804304B6803F00C02ED
:1036A000082A17D1C3F3834206A80244DB0312F8A9
:1036B000102C0CD54B680A48C3F34043504306AA6C
:1036C000134413F8143CB0FBF3F007B030BD0548C9
:1036D0005043FAE70248F8E7C27E000800100240B3
:1036E00000127A0000093D002DE9F0410D46044624
:1036F00010B90120BDE8F081444A136803F00703C4
:103700008B4228D321688E0730D4CA0743D43F4A5E
:10371000136803F00703AB4265D822683C4D12F0F2
:10372000040F6CD1130706D56B68226923F460532C
:1037300043EAC2036B60FFF79DFF6B68354AC3F332
:103740000313D35CD840344B1860344B1868FFF730
:103750004BFA0020CEE7136823F007030B431360F6
:10376000136803F007038B42C3D1CBE7284B11F05A
:10377000040F1EBF5A6842F4E0625A60080742BF55
:103780005A6842F460525A605A68A06822F0F00207
:1037900002435A60B9E762681D4E012A33681AD1A4
:1037A00013F4003FA5D0736841F2883823F0030377
:1037B00013437360FFF75AFA07467368626803F0B1
:1037C0000C03B3EB820FA2D0FFF750FAC01B4045A9
:1037D000F3D903208EE7022A02D113F0007FE1E73C
:1037E00013F0020FDEE7136823F007032B43136087
:1037F000136803F00703AB427FF47BAF8DE76B6880
:10380000E16823F4E0630B436B608BE70020024028
:1038100000100240AA7E00080000002008000020DE
:10382000044B054A5B68C3F30223D35C034A106868
:10383000D840704700100240BA7E00080000002007
:10384000044B054A5B68C3F3C223D35C034A106888
:10385000D840704700100240BA7E000800000020E7
:1038600010B50446002851D0436A002B4AD1426863
:10387000B2F5827F00D0C3610023A36294F8513077
:1038800003F0FF0223B9204684F85020FEF7EAFC3B
:103890000223226884F851301368A06823F04003A3
:1038A0001360636800F4044003F482730343E06828
:1038B000A16900F400600343206900F002000343A3
:1038C000606900F00100034301F400700343E06904
:1038D000090C00F038000343206A01F0040100F0F5
:1038E00080000343A06A00F400500343136051605A
:1038F000D369002023F40063D3610123606584F859
:10390000513010BD0023C0E90433B5E70120F8E7CA
:10391000036A70B523F001030362036A4468826995
:103920000D6822F073022A438D6823F002032B43B3
:103930000A4DA8420BD1CD6823F008032B4324F491
:103940004074D1E90556354323F004032C43446009
:1039500082614A684263036270BD00BF002C01406F
:10396000036A70B523F480730362036A4468C26912
:103970000D6822F073022A438D6823F4007343EA32
:1039800005230B4DA8420DD1CD6823F4006343EA13
:10399000052324F44054D1E90556354323F48063CC
:1039A00044EA05144460C2614A68C263036270BDA0
:1039B000002C0140036A30B523F480530362036A8C
:1039C0004468C2690D6822F4E64242EA05228D6825
:1039D00023F4005343EA0533064DA84202BF4D6964
:1039E00024F4804444EA85144460C2614A68026455
:1039F000036230BD002C014090F83D30012B20D1F6
:103A0000022380F83D300368DA6842F00102DA6090
:103A10000D4A93420AD0B3F1804F07D0A2F59432F9
:103A2000934203D002F58062934204D19A6802F077
:103A30000702062A03D01A6842F001021A60002029
:103A400070470120704700BF002C01400368DA680E
:103A500022F00102DA6041F21112196A114208D112
:103A600040F24442196A114202BF1A6822F0010270
:103A70001A60012380F83D3000207047704770477E
:103A80007047082910D004D841B1042909D000207A
:103A900070470C29FBD10368186C70470368586B9A
:103AA00070470368986B70470368D86B704770471E
:103AB000704770477047036810B51A69044691074C
:103AC0000ED5DA6892070BD56FF002021A61012257
:103AD00002779B699B0777D0FEF7E2FA00232377F2
:103AE00023681A69500710D5DA6851070DD56FF0B1
:103AF00004021A61022222779B69204613F4407F58
:103B000068D0FEF7CDFA0023237723681A691207DD
:103B10000FD5DA6810070CD56FF008021A6104227D
:103B20002277DB69204699075AD0FEF7B9FA0023BD
:103B3000237723681A69D20610D5DA68D0060DD526
:103B40006FF010021A6108222277DB69204613F415
:103B5000407F4BD0FEF7A4FA0023237723681A692D
:103B6000D10708D5DA68D20705D56FF001022046E3
:103B70001A61FFF79CFF23681A69100608D5DA68F6
:103B8000110605D56FF0800220461A6100F0DFFCB7
:103B900023681A69520608D5DA68500605D56FF011
:103BA000400220461A61FFF785FF23681A699106D3
:103BB00022D5DA6892061FD56FF020022046BDE8B4
:103BC00010401A6100F0C2BCFFF772FF2046FFF7F9
:103BD00070FF83E7FFF76CFF2046FFF76AFF92E76D
:103BE000FFF766FF2046FFF764FFA0E7FFF760FFDF
:103BF0002046FFF75EFFAFE710BD00001A4A0368DA
:103C000090420AD0B0F1804F07D0A2F59432904292
:103C100003D002F58062904215D14A6823F0700308
:103C20001343114A90420AD0B0F1804F07D0A2F559
:103C30009432904203D002F58062904203D1CA6868
:103C400023F4407313434A6923F080031343036052
:103C50008B68C3620B688362034B984204BF0B6995
:103C60000363012343617047002C014010B50446F3
:103C700030B390F83D3003F0FF021BB980F83C20D0
:103C8000FEF72CFB0223206884F83D30211DFFF74E
:103C9000B5FF0123002084F8463084F83E3084F8D4
:103CA0003F3084F8403084F8413084F8423084F862
:103CB000433084F8443084F8453084F83D3010BDFA
:103CC0000120FCE710B5044630B390F83D3003F016
:103CD000FF021BB980F83C20FFF7D0FE02232068CA
:103CE00084F83D30211DFFF789FF0123002084F86F
:103CF000463084F83E3084F83F3084F8403084F811
:103D0000413084F8423084F8433084F8443084F8F9
:103D1000453084F83D3010BD0120FCE710B5044665
:103D200030B390F83D3003F0FF021BB980F83C201F
:103D3000FFF7A5FE0223206884F83D30211DFFF720
:103D40005DFF0123002084F8463084F83E3084F87B
:103D50003F3084F8403084F8413084F8423084F8B1
:103D6000433084F8443084F8453084F83D3010BD49
:103D70000120FCE738B50D46044630B390F83D30DD
:103D800003F0FF021BB980F83C20FFF779FE022305
:103D9000206884F83D30211DFFF730FF23680020A4
:103DA0001A6822F008021A601A682A431A6001236E
:103DB00084F8463084F83E3084F83F3084F842304E
:103DC00084F8433084F83D3038BD0120FCE7000022
:103DD000036A70B523F010030362036A44688269C2
:103DE0000D6822F4E64242EA05228D6823F02003A2
:103DF00043EA05130B4DA8420DD1CD6823F0800393
:103E000043EA051324F44064D1E90556354323F011
:103E1000400344EA8504446082614A688263036225
:103E200070BD00BF002C014010B590F83C30044636
:103E3000012B1ED00123082A80F83C3015D006D86B
:103E40005AB1042A0DD0002084F83C0010BD0C2A81
:103E5000F9D10068FFF7AEFDF5E70068FFF758FD00
:103E6000F1E70068FFF7B4FFEDE70068FFF778FDC2
:103E7000E9E70220EAE7000070B5046A124E24F078
:103E800001040462B0428469056A19D0B0F1804F20
:103E900016D0A6F59436B04212D006F58066B04230
:103EA0000ED044F001021B0122F0F002DBB21343FA
:103EB00001F00A0125F00A0211438361016270BD1D
:103EC00024F003042243EEE7002C0140F8B590F8FB
:103ED0003C300446012B0E46154679D0012380F86C
:103EE0003C30F368006806C975B9FFF7C5FF236861
:103EF000B1689A6922F00C029A619A690A439A6140
:103F0000002084F83C00F8BD042DB66822D1056A73
:103F1000090125F0100505628769D0F820E027F433
:103F2000407C1D034CEA022C2CF4704CADB22EF0F8
:103F3000A00E01F0A00145EA0C0541EA0E018561E1
:103F40000162836923F440638361836943EA06263F
:103F50008661D5E7082D056A1CD125F480750562B8
:103F6000C769056A27F0030717431B010902DBB283
:103F700027F0F00725F4007501F400711F43294371
:103F8000C7610162C36923F00C03C361C3691E43A7
:103F9000C661B5E725F480550562C569076A25F451
:103FA000407545EA02251B03090325F470459BB2C1
:103FB00027F4005701F400512B433943C3610162D8
:103FC000C36923F44063C361C36943EA0626DFE79C
:103FD000022098E710B584680A4324F47F4442EA3B
:103FE00003222243826010BD70B590F83C30044635
:103FF000012B4FF0020027D0012384F83D002068F8
:1040000084F83C30836823F47F4323F07703836094
:104010000B68602B4DD032D8402B62D015D8202BA6
:1040200003D009D833F0100208D1826822F0700260
:10403000134343F0070320E0302BF6D00123002088
:1040400084F83D3084F83C0070BD502BF6D14A68AE
:10405000CE68016A056A21F00A0125F001050562B2
:1040600083690A4323F0F00343EA06138361026283
:10407000836823F0700343F057038360DEE7702BFF
:104080000CD0B3F5005FD9D1CB68D1E90121FFF79E
:10409000A1FF2268936843F4804308E0CB68D1E92C
:1040A0000121FFF797FF2268936843F0770393603D
:1040B000C4E74D68CE68016A21F01001016282698F
:1040C000036A22F4704223F0A00343EA051342EA94
:1040D000063282610362836823F0700343F0670352
:1040E000CBE74A68CE68016A056A21F00A0125F02B
:1040F0000105056283690A4323F0F00343EA0613CE
:1041000083610262836823F0700343F04703B4E7DE
:10411000006838B583684A6823F070030C6813435D
:1041200023F007032343602A83602ED005D8402A5A
:104130000BD0502A19D0002038BD702AFBD10B6952
:10414000D1E90221FFF746FFF5E7052C30D0026ADE
:10415000036A096923F001030362836923F0F00312
:1041600043EA011383610262E5E78A680D69016A27
:10417000046A21F00A0124F00104046283690A43FD
:1041800023F0F00343EA0513ECE78C680D69016A3C
:1041900021F0100101628269036A22F4704223F067
:1041A000A00342EA053243EA041382610362C2E7D4
:1041B0000120C1E738B590F83C300446012B4FF0A0
:1041C00002031CD0012580F83D3080F83C50FFF7F9
:1041D0009FFF30B10023284684F83D5084F83C30DE
:1041E00038BD2368DA6822F04002DA60DA6822F427
:1041F0008042DA6084F83D5084F83C00F0E71846CD
:10420000EEE710B50124036A01F01F018C4023EA98
:1042100004030362036A8A401A43026210BD00006D
:1042200010B5044629B990F83E30012B1DD001206D
:1042300010BD042907D190F83F30012BF7D102239C
:1042400080F83F3014E0082907D190F84030012B66
:10425000EDD1022380F840300AE090F84130012B84
:10426000E5D1022380F8413002E0022380F83E309D
:1042700001222068FFF7C5FF23680E4A93420AD146
:104280005A6C42F400425A649A6802F00702062A05
:104290000BD10020CCE7B3F1804FF5D0064A934212
:1042A000F2D002F580629342EED01A6842F0010229
:1042B0001A60EEE7002C01400004004038B50446C7
:1042C000002200680D46FFF79CFF2368184A9342BE
:1042D0000DD141F21112196A114208D140F2444243
:1042E000196A114202BF5A6C22F400425A6441F228
:1042F0001112196A114208D140F24442196A11425E
:1043000002BF1A6822F001021A6001231DB984F865
:104310003E30002038BD042D02D184F83F30F8E74C
:10432000082D0CBF84F8403084F84130F1E700BF1D
:10433000002C014010B5044691BB90F83E0094F863
:104340004230C0B20128DBB25ED1012B5DD1022325
:10435000206800293AD184F83E3084F84230C3689E
:1043600043F00203C3600122FFF74BFF2368274A93
:1043700093420AD0B3F1804F07D0A2F59432934212
:1043800003D002F58062934204D19A6802F00702DA
:10439000062A03D01A6842F001021A60002034E0B5
:1043A000042905D190F83F0094F84330C0B2C9E722
:1043B00008290BBF90F8400094F8410094F844306D
:1043C00094F845300CBFC0B2C0B2BBE7042907D196
:1043D00084F83F3084F84330C36843F00403C1E7F6
:1043E000082907D184F8403084F84430C36843F08A
:1043F0000803B7E70C2984F8413084F84530B2D17E
:10440000C36843F01003ADE7012010BD002C01404C
:10441000082938B504460D4600682DD01DD811B3C3
:10442000042925D000222946FFF7EBFE41F21112A4
:104430002368196A114208D140F24442196A1142B4
:1044400002BF1A6822F001021A600123C5B984F87C
:104450003E3084F84230002038BD0C29E2D1C368D8
:1044600023F0100302E0C36823F00203C360D9E71E
:10447000C36823F00403F9E7C36823F00803F5E7F2
:10448000042D04D184F83F3084F84330E3E7082D4D
:104490000BBF84F8403084F8413084F8443084F80D
:1044A0004530D8E730B590F83C300246012B4FF04C
:1044B000020022D0136882F83D005C680D6824F089
:1044C00070042C4398685C600C4CA3420AD0B3F192
:1044D000804F07D0A4F59434A34203D004F5806440
:1044E000A34204D1496820F0800001439960012370
:1044F000002082F83D3082F83C0030BD002C0140A5
:1045000090F83C30012B1FD0CB688A6823F44073AD
:1045100013434A6823F4806313430A6823F4006357
:1045200013430A6923F4805313434A6923F4005365
:104530001343CA6923F4804313430268536400237E
:1045400080F83C301846704702207047704770472B
:1045500010B504460368C1681A6922F440520A4340
:104560001A6182680069D9680243606921F4B05118
:1045700021F00C0102430A43DA605A69A16922F46E
:1045800040720A435A610E4A934215D1FFF758F917
:1045900019234343626820689200B3FBF2F364225C
:1045A000B3FBF2F102FB11331B013233B3FBF2F325
:1045B00003EB0113836010BDFFF732F9E8E700BF9A
:1045C00000380140F8B504460E4617461D462268DD
:1045D000136836EA030301D1002014E06B1CF7D006
:1045E00095B923680320DA6822F4D072DA605A6938
:1045F00022F001025A61202384F83D3084F83E30D5
:10460000002384F83C30F8BDFEF730FBC01B854228
:10461000DDD2E6E710B5044640B390F83D3003F034
:10462000FF021BB980F83C20FDF7F4FE242322682A
:1046300084F83D30D368204623F40053D360FFF75D
:1046400087FF236800201A6922F490421A615A6990
:1046500022F02A025A61DA6842F40052DA6020231A
:10466000206484F83D3084F83E3010BD0120FCE722
:104670002DE9F843994690F83D300446202B0E462C
:10468000174648D1002944D0002A42D090F83C3047
:10469000012B40D00123002580F83C302123056404
:1046A00080F83D30FEF7E2FAA3688046B3F5805FFC
:1046B000A784E78403D123690BB935461E4600233E
:1046C00084F83C30E38C9BB253B94B4642464021C0
:1046D0002046FFF777FF50B9202384F83D3007E0EC
:1046E0004B46424680212046FFF76CFF10B1032065
:1046F000BDE8F88322684EB935F8023BC3F30803DE
:104700005360E18C013989B2E184DBE716F8013BA3
:10471000F6E70120ECE70220EAE72DE9F8431F461F
:1047200090F83E300446202B0E4691464FD100298A
:104730004BD0002A49D090F83C30012B47D00123C0
:10474000002580F83C302223056480F83E30056364
:10475000FEF78CFAA3688046B3F5805FA4F82C902E
:10476000A4F82E9003D123690BB935461E460023C9
:1047700084F83C30E08D80B220B9202384F83E30AC
:10478000BDE8F8833B46424620212046FFF71AFF4A
:10479000F8B923684EB95B68C3F3080325F8023BF8
:1047A000E38D013B9BB2E385E4E7A268B2F5805F4D
:1047B00002D032B9226922B95968C9B206F8011B80
:1047C000EEE7596801F07F01F8E70120D8E7022001
:1047D000D6E70320D4E70000014B1868704700BFFC
:1047E0000C00002070B500260C4D0D4C641BA4106D
:1047F000A64209D103F016FA00260A4D0A4C641BA2
:10480000A410A64205D170BD55F8043B9847013667
:10481000EEE755F8043B98470136F2E7B48200080A
:10482000B4820008B4820008B8820008034602443B
:10483000934200D1704703F8011BF9E7002B2DE9E3
:10484000F0471F46BBBF03F100431F4600232D2343
:1048500088B01446129A109D1370149BDDF84CA07A
:1048600023F02008B8F1460F05D0B8F1450F00D16C
:104870000135022300E0032307AA049206AACDE92A
:1048800002A2CDE9003522463B4600F0E5FCB8F136
:10489000470F064602D1119BDB0722D5B8F1460F20
:1048A00006EB050910D13378302B0AD10022002302
:1048B00020463946FCF778F818B9C5F10105CAF861
:1048C0000050DAF80030994400220023204639468F
:1048D000FCF76AF808B1CDF81C903022079B4B45D5
:1048E00007D33046079B159A9B1B136008B0BDE8A1
:1048F000F087591C07911A70F0E70346F7B50029B5
:1049000003F8022BB6BF2D222B22494209294270FF
:104910002BDD0DF10704A4460A2791FBF7F60A46A2
:10492000A64607FB1615632A05F13005314604F14A
:10493000FF340EF8015CF0DC3031AEF1020504F812
:10494000011C2946441C61450AD30DF10902A2EB62
:104950000E02654588BF00221344181A03B0F0BD4B
:1049600011F8012B04F8012FEDE73023303183706B
:10497000C170031DF1E700002DE9F04F91B00C4626
:10498000DDF8688016461F46054601F053FA0368B5
:1049900018460993FBF7DCFB00230E93D8F8003090
:1049A0000A90073323F0070303F1080294F81890E4
:1049B000D4F800B0C8F80020D3E90023C4E91223DA
:1049C000D4E9128A2AF000430B934FF0FF3240469D
:1049D0009C4B0B99FCF71AF870BB4FF0FF32404626
:1049E000984B0B99FBF7F4FF30BB002200234046A5
:1049F0005146FBF7E3FF10B12D2384F84330924B6F
:104A00009248B9F1470F94BF9846804603234FF070
:104A1000000A23612BF00403236033462146284615
:104A200000970FAA00F0D4F9013040F090804FF0C9
:104A3000FF3011B0BDE8F08F424653464046514624
:104A4000FBF7E4FF48B1BAF1000FB8BF2D2380484F
:104A5000B8BF84F843307F4BD3E7636809F0DF01C8
:104A60005A1C42D106236360002206920EAACDE9A9
:104A700004920DAA4BF4806303920DF13302CDE949
:104A800001322360636842460093284653460B91E7
:104A9000FFF7D4FE0B99804647290D9908D1C81C11
:104AA00002DB6368994240DDA9F102095FFA89F9E6
:104AB000B9F1650F1FD84A46013904F150000D9134
:104AC000FFF71BFF0E9A82461318012A236102DCAE
:104AD0002268D20701D5013323619DF83330002BC2
:104AE0009BD02D2384F8433097E74729BCD1002B76
:104AF000BAD10123B7E7B9F1660F18D1002963686D
:104B00000BDD216113B92268D00702D501330B44B4
:104B100023614FF0000AA165DFE713B92268D207CD
:104B200001D50233F4E70123F2E74FF067090E9B4A
:104B3000994205DB23682161D807EAD54B1CE7E7DA
:104B40000029CCBF0122C1F102021344E0E723682F
:104B50005A0507D42369424631462846B8470130F2
:104B60002BD164E7B9F1650F40F2DD80D4E9120181
:104B700000220023FBF718FF002833D00123314621
:104B80002846354AB84701303FF451AFDDE90D23DF
:104B90009A4202DB2368D8070FD5DDE909233146A5
:104BA0002846B84701303FF442AF4FF0000804F107
:104BB0001A090E9B013B434509DC23689B0700F162
:104BC0000281E0680F9B9842B8BF184631E7012385
:104BD0004A4631462846B84701303FF428AF08F12D
:104BE0000108E6E70D9B002B38DC012331462846FF
:104BF000194AB84701303FF41AAFDDE90D231343DA
:104C000002D12368D907D8D5DDE9092331462846E2
:104C1000B84701303FF40BAF4FF0000904F11A0A16
:104C20000D9B5B424B4501DC0E9B94E701235246F2
:104C300031462846B84701303FF4F9AE09F1010981
:104C4000EEE700BFFFFFEF7FD87E0008DC7E0008A4
:104C5000E47E0008E07E0008E87E00080E9AA36D5E
:104C60009A42A8BF1A46002A914637DC4FF0000B43
:104C700029EAE97904F11A02D4F858A0AAEB090349
:104C80005B4533DCDDE90D239A423BDB2368DA0721
:104C900038D40E9A0D99A2EB0A03A2EB01099945AB
:104CA000A8BF9946B9F1000F34DC4FF0000829EA9B
:104CB000E97904F11A0ADDE90D239B1AA3EB090334
:104CC00043457FF77AAF0123524631462846B8471D
:104CD00001303FF4ACAE08F10108ECE71346314671
:104CE00042462846B8470130C0D1A0E601233146EC
:104CF00028460B92B84701303FF499AE0B9A0BF15E
:104D0000010BB9E73146DDE909232846B8470130F0
:104D1000BFD18CE64B463146284608EB0A02B8471D
:104D20000130C2D183E60E9A012A01DCDB0737D5B8
:104D30000123424631462846B84701303FF477AE5A
:104D4000DDE9092331462846B84701303FF46FAE0C
:104D5000D4E9120100220023FBF726FED8B90E9BEE
:104D600008F10102013B31462846B84701300ED117
:104D70005DE601234A4631462846B84701303FF4F4
:104D800056AE08F101080E9B013B4345F1DC53464A
:104D900004F15002E0E64FF0000804F11A09F2E7CE
:104DA00001234246DFE701234A4631462846B847F9
:104DB00001303FF43CAE08F10108E3680F995B1A3B
:104DC0004345F0DCFDE64FF0000804F11909F4E773
:104DD0002DE9F047164699468A680B6907469342C3
:104DE000B8BF1346336091F843200C46DDF82080AD
:104DF0000AB1013333602368990642BF3368023336
:104E00003360256815F0060506D104F1190AE36838
:104E100032689B1AAB4228DC94F84320131E2268A8
:104E200018BF012392062DD44946384604F14302A7
:104E3000C047013020D02368E56803F00603042B47
:104E400018BF002532684FF00006A36808BFAD1AEE
:104E5000226908BF25EAE5759342C4BF9B1AED1885
:104E60001A34B5421AD1002008E0012352464946BF
:104E70003846C047013003D14FF0FF30BDE8F0871E
:104E80000135C4E73020E11881F843005A1C94F83A
:104E900045102244023382F84310C5E7012322461D
:104EA00049463846C0470130E6D00136D9E7000010
:104EB0002DE9FF470C46277E9146782F80469A467B
:104EC0000C9904F1430207D8622F0AD8002F00F092
:104ED000D980582F00F0A48004F1420684F8427073
:104EE0003AE0A7F16303152BF6D801A050F823F0A0
:104EF000494F00085D4F0008D94E0008D94E000800
:104F0000D94E0008D94E00085D4F0008D94E000860
:104F1000D94E0008D94E0008D94E00086B50000841
:104F20008D4F00084D500008D94E0008D94E00089A
:104F30008D500008D94E00088D4F0008D94E00084A
:104F4000D94E0008555000080B6804F142061A1D9E
:104F50001B680A6084F842300123A4E025680868D1
:104F60002E0600F104030AD505680B60002D03DA54
:104F70002D236D4284F843300A235E4819E015F072
:104F8000400F05680B6018BF2DB2EFE70B6825686E
:104F9000181D0860280601D51D6802E06906FBD5CA
:104FA0001D886F2F0CBF08230A235248002184F864
:104FB00043106668002EA8BF2168A660A4BF21F038
:104FC000040121600DB9002E4DD01646B5FBF3F15A
:104FD00003FB1157C75D06F8017D2F46BB420D4606
:104FE000F4D9082B0BD12368DF0708D52369616842
:104FF0009942DEBF302306F8013C06F1FF36921BD2
:1050000022614B4621464046CDF800A003AAFFF797
:10501000DFFE01304CD14FF0FF3004B0BDE8F08727
:10502000344884F845700E68236856F8045B1F0600
:105030000E6014D5D90744BF43F0200323601DB987
:10504000236823F0200323601023AFE7236843F095
:10505000200323607823284884F84530E3E75E0680
:1050600048BFADB2E6E71646BBE70B6826681D1DD4
:1050700060690D6035061B6801D5186002E0710695
:10508000FBD51880002316462361BAE70B681A1D6A
:105090000A601E6800213046626800F0D7FE08B141
:1050A000801B606063682361002384F84330A8E7B5
:1050B0003246494640462369D0470130ABD0236889
:1050C0009B0713D4E068039B9842B8BF1846A4E737
:1050D0000123324649464046D04701309BD0013536
:1050E000E36803995B1AAB42F2DCEBE7002504F1BD
:1050F0001906F5E7EA7E0008FB7E00080EB46FF0A3
:10510000004100B59CB01DAB029006900791049140
:105110000848094953F8042B0591006802A9019336
:1051200001F042FB0022029B1A701CB05DF804EBF8
:1051300003B070470C0000200802FFFF2DE9F74F75
:1051400003690C690746A342C0F28380013C00F169
:10515000140501F1140805EB8403019358F8243079
:1051600055F8242001339A42B2FBF3F64FEA840B40
:1051700008EB840932D34FF0000E4046AC46F246AD
:1051800050F8042B93B206FB03E3120C4FEA134EC4
:1051900006FB02E29BB2AAEB0303DCF800A04FEA95
:1051A000124E1FFA8AFA53441FFA82FADCF80020E2
:1051B0008145CAEB124202EB23429BB243EA02430F
:1051C0004FEA224A4CF8043BDAD255F80B302BB99F
:1051D000019B043B9D421A462FD33C61384601F0A7
:1051E000CBF8002825DB28464FF0000C013658F894
:1051F000041BD0F800E08BB2ACEB03031FFA8EF275
:1052000013440A0CC2EB1E4202EB23429BB243EA58
:105210000243C1454FEA224C40F8043BE7D255F81F
:10522000242005EB840322B9043B9D421A460AD38D
:105230003C61304603B0BDE8F08F1268043B002AA1
:10524000CBD1013CC6E71268043B002AF0D1013CF7
:10525000EBE70020EEE700002DE9F04F16461F4671
:10526000446A99B00546CDE90467DDF8948074B9C5
:10527000102000F0E3FD0246686220B9EA21AE4B3F
:10528000AE4801F0A1FBC0E901440460C4606B6A50
:10529000196851B15A68012393404A608B602846CF
:1052A00000F030FE00226B6A1A603B1EAFBF002385
:1052B000012223F000430593A8BFC8F80030DDF8B1
:1052C00014909F4BB8BFC8F8002033EA090319D1E6
:1052D00042F20F73249A1360C9F31303334300F0AF
:1052E0008085269B53B9974B22E0974B0893083350
:1052F000269A1360089819B0BDE8F08F914B089377
:105300000333F5E7DDE90434CDE90C34DDE90C01C4
:1053100000220023FBF748FB804658B10123249A62
:105320001360269B002B00F0598588481860431EA7
:105330000893DFE716AB019317AB00932846DDE92E
:105340000C2301F0C5F8C9F30A548246002C7ED024
:10535000DDE90C010D9BA4F2FF34C3F3130343F00A
:105360007F5141F44011CDF84C800022784BFAF780
:10537000FBFE6BA3D3E90023FBF7AEF86AA3D3E9E6
:105380000023FAF7F3FE064620460F46FBF73AF8ED
:1053900067A3D3E90023FBF79FF802460B4630468C
:1053A0003946FAF7E3FE06460F46FBF745FB0022B7
:1053B0008146002330463946FBF700FB48B148469A
:1053C000FBF720F832463B46FBF7EEFA08B909F145
:1053D000FF39B9F1160F57D8DDE90C015D4B03EB2E
:1053E000C903D3E90023FBF7E9FA00284ED00023D4
:1053F00009F1FF390F93169B1C1B631E099349BFCC
:10540000C4F1010300230693002354BF06930993BC
:10541000B9F1000F3CDB099BCDF838904B44099360
:1054200000230A93229B092B6CD8052BC4BF043B95
:105430002293229BC8BF0024A3F10203D8BF0124FA
:10544000032B00F28B80DFE803F02D4F4D5BDDE98D
:1054500016431C4404F23243202BC3BFC3F1400364
:1054600004F2124009FA03F3C3F12003C6BF26FA7F
:1054700000F0184306FA03F0FAF7B4FF0123A1F194
:10548000F871013C139370E70123B3E70F90B2E783
:10549000069BA3EB09030693C9F100030A930023BB
:1054A0000E93BFE700230B93239B002B59DC4FF097
:1054B000010B5B46CDF808B0CDF88CB00022686ACD
:1054C0004260042202F114069E4241684FD92846E8
:1054D00000F0D8FC089000284DD102464FF4D57159
:1054E0001D4BCDE60123DEE700230B93239B09EB45
:1054F000030B0BF10103012B0293B8BF0123DDE77E
:105500000123F2E7012400230B9422934FF0FF3B89
:1055100000221223CDF808B02392CFE7AFF300802A
:1055200061436F63A787D23FB3C8608B288AC63FA9
:10553000FB799F501344D33F197F0008307F000848
:105540000000F07F157F00080C7F0008E97E00084E
:105550000000F83F288000088F7F000801230B938C
:10556000D4E7DDF88CB05B46CDF808B0A6E7013192
:1055700041605200A6E76B6A089A1A60029B0E2BE4
:1055800000F2A880002C00F0A580B9F1000F34DDF6
:105590009A4A09F00F0302EBC30319F4807FD3E9A1
:1055A0000034CDE910344FEA291416D0DDE90C019E
:1055B000934B0327D3E90823FBF7B8F8CDE904019F
:1055C00004F00F048E4E54B9DDE91023DDE9040127
:1055D000FBF7ACF8CDE9040129E00227F2E7E10787
:1055E00008D5DDE91001D6E90023FAF775FFCDE90A
:1055F0001001013764100836E5E700F0A580DDE909
:105600000C01C9F100047D4B04F00F0203EBC2034F
:10561000D3E90023FAF760FF02270023CDE9040154
:10562000774E2411002C40F08480002BD2D10F9BA8
:10563000002B00F08B80DDE90434CDE91034DDE986
:10564000100100226F4BFBF7B9F900287ED0029BB6
:10565000002B7BD0BBF1000F38DDDDE9100100220B
:10566000694BFAF739FF5C46CDE9040109F1FF38CF
:1056700001373846FAF7C6FEDDE90423FAF72CFFB6
:105680000022624BFAF772FDA1F15076CDE91001CC
:105690001196002C5DD1DDE9040100225C4BFAF784
:1056A00063FD02460B46CDE904233346109AFBF70F
:1056B000A3F9002840F09E82DDE90401109A06F16A
:1056C0000043FBF77BF9002840F09282DDE90C34BF
:1056D000CDE90434179B002BC0F25381B9F10E0FB2
:1056E00000F34F81454B03EBC903D3E90034CDE907
:1056F0000634239B002B80F2DB80029B002B00F3FF
:10570000D78040F07482DDE906010022404BFAF7B1
:10571000E3FEDDE90423FBF765F9029C2646002839
:1057200040F04A823123089F09F1010907F8013B43
:1057300046E2E20705D5D6E90023FAF7CDFE0123BC
:105740000137641008366DE7022770E7C846029CEF
:105750008FE70899294B214412910B9903EBC4035D
:10576000DDE9106753E90223002955D000202949BB
:10577000FAF7DCFF3B463246FAF7F6FCCDE91001BA
:10578000089FDDE90401FBF757F90446FAF73AFEF2
:1057900002460B46DDE90401FAF7E6FC02460B4639
:1057A0003034CDE90423DDE9102307F8014BFBF782
:1057B00005F9002874D1DDE9042300201149FAF726
:1057C000D3FCDDE91023FBF7F9F8002840F0B680A0
:1057D000129B9F423FF47AAFDDE9100100220A4B91
:1057E000FAF77AFE0022CDE91001DDE90401064B4B
:1057F000FAF772FECDE90401C3E700BF2880000874
:10580000008000080000F03F0000244000001C4021
:10581000000014400000E03F30463946FAF75CFED5
:10582000129BCDE91001089C1493DDE90401FBF7FC
:1058300003F91590FAF7E6FD02460B46DDE904018F
:10584000FAF792FC159B0646303304F8013B129B95
:105850000F469C424FF0000224D1DDE91001B34B0A
:10586000FAF784FC02460B4630463946FBF7C4F88B
:10587000002862D1DDE910230020AC49FAF774FC5E
:1058800002460B4630463946FBF798F800283FF4AD
:105890001DAF149F7B1E149317F8013C302BF8D0DA
:1058A000C1463AE0A24BFAF717FECDE90401BCE786
:1058B000089FDDE90623DDE90401FAF737FFFBF76E
:1058C000BBF80446FAF79EFDDDE90623FAF704FE6D
:1058D00004F130060B460246DDE90401FAF744FC08
:1058E00007F8016B089E029BBE1BB3423AD10246E9
:1058F0000B46FAF73BFC02460B46CDE90223DDE9F5
:105900000623FBF779F858BBDDE90623DDE9020140
:10591000FBF74AF808B1E10722D42846514600F0C7
:10592000F1FA00233B70249B09F101001860269BCB
:10593000002B3FF4DFAC1F60DCE427463B461F46EC
:1059400013F8012D392A07D1089A9A42F7D130224B
:10595000089908F101080A701A7801321A709FE755
:10596000C846EBE70022724BFAF7B6FD02460B463B
:10597000CDE9042300220023FBF716F8002898D075
:10598000CBE70B9A002A00F0CD80229A012A00F37F
:10599000AF80139A002A00F0A78003F233430A9CD9
:1059A000069F069A01211A440692099A28461A442B
:1059B000099200F061FB0646002F0CDD099B002BCD
:1059C00009DDBB42A8BF3B46069AFF1AD21A0692CF
:1059D000099AD31A09930A9BF3B10B9B002B00F091
:1059E000A980002C10DD31462246284600F0FEFB3F
:1059F000524601460646284600F054FB8046514672
:105A0000284600F07FFAC2460A9B1A1B04D0514672
:105A1000284600F0EBFB82460121284600F02CFBD3
:105A20000E9B0446002B40F387801A460146284609
:105A300000F0DCFB229B0446012B40F380804FF0FA
:105A40000008236904EB8303186900F0C7FAC0F16A
:105A50002000099B184410F01F0000F09280C0F154
:105A60002003042B40F38A80C0F11C00069B0744EE
:105A700003440693099B03440993069B002B05DD11
:105A800051461A46284600F00BFC8246099B002B23
:105A900005DD21461A46284600F002FC04460F9B0D
:105AA000002B70D02146504600F066FC00286ADAD0
:105AB000002351460A22284600F046FA0B9B8246F4
:105AC00009F1FF39002B00F09381314600230A22AF
:105AD000284600F039FABBF1000F064600F3938028
