:020000040800F2
:1000000000500020AD5600087D48000885480008D3
:1000100087480008894800088B4800080000000055
:100020000000000000000000000000008D480008F3
:100030008F4800080000000091480008954800081B
:10004000F5560008F5560008F5560008F556000864
:10005000F5560008F5560008F5560008F556000854
:10006000F5560008F5560008F5560008F556000844
:10007000F5560008F5560008F5560008F556000834
:10008000F5560008F5560008F5560008F556000824
:10009000F5560008F5560008F5560008F556000814
:1000A000F5560008F5560008F5560008F556000804
:1000B000BD480008C9480008E1480008F556000896
:1000C000F5560008F5560008F5560008F5560008E4
:1000D000F5560008F5560008F5560008F5560008D4
:1000E000F5560008F5560008F55600080000000017
:1000F0000000000000000000000000000000000000
:0C01000000000000000000005FF808F1A3
:1001100010B5054C237833B9044B13B10448AFF341
:1001200000800123237010BD480300200000000060
:100130006CB5000808B5034B1BB103490348AFF386
:10014000008008BD000000004C0300206CB50008D2
:10015000034613F8012B002AFBD1181A0138704707
:1001600081F0004102E000BF83F0004330B54FEA68
:1001700041044FEA430594EA050F08BF90EA020FD5
:100180001FBF54EA000C55EA020C7FEA645C7FEA68
:10019000655C00F0E2804FEA5454D4EB5555B8BF8B
:1001A0006D420CDD2C4480EA020281EA030382EAFC
:1001B000000083EA010180EA020281EA0303362D8E
:1001C00088BF30BD11F0004F4FEA01314FF4801C61
:1001D0004CEA113102D0404261EB410113F0004F73
:1001E0004FEA03334CEA133302D0524263EB43032A
:1001F00094EA050F00F0A780A4F10104D5F1200EC8
:100200000DDB02FA0EFC22FA05F2801841F1000122
:1002100003FA0EF2801843FA05F359410EE0A5F1F6
:1002200020050EF1200E012A03FA0EFC28BF4CF027
:10023000020C43FA05F3C01851EBE37101F00045DD
:1002400007D54FF0000EDCF1000C7EEB00006EEBEA
:100250000101B1F5801F1BD3B1F5001F0CD3490874
:100260005FEA30004FEA3C0C04F101044FEA4452CB
:1002700012F5800F80F09A80BCF1004F08BF5FEA52
:10028000500C50F1000041EB045141EA050130BD32
:100290005FEA4C0C404141EB0101013C28BFB1F544
:1002A000801FE9D291F0000F04BF01460020B1FA8F
:1002B00081F308BF2033A3F10B03B3F120020CDA62
:1002C0000C3208DD02F1140CC2F10C0201FA0CF040
:1002D00021FA02F10CE002F11402D8BFC2F1200CA5
:1002E00001FA02F120FA0CFCDCBF41EA0C0190405B
:1002F000E41AA2BF01EB0451294330BD6FEA0404A4
:100300001F3C1CDA0C340EDC04F11404C4F120028E
:1003100020FA04F001FA02F340EA030021FA04F3A0
:1003200045EA030130BDC4F10C04C4F1200220FAF7
:1003300002F001FA04F340EA0300294630BD21FA35
:1003400004F0294630BD94F0000F83F4801306BFFB
:1003500081F480110134013D4EE77FEA645C18BFEF
:100360007FEA655C29D094EA050F08BF90EA020F86
:1003700005D054EA000C04BF1946104630BD91EA7E
:10038000030F1EBF0021002030BD5FEA545C05D181
:100390004000494128BF41F0004130BD14F58004C0
:1003A0003CBF01F5801130BD01F0004545F0FE4134
:1003B00041F470014FF0000030BD7FEA645C1ABF69
:1003C000194610467FEA655C1CBF0B46024650EAA0
:1003D000013406BF52EA033591EA030F41F40021CC
:1003E00030BD00BF90F0000F04BF0021704730B552
:1003F0004FF4806404F132044FF000054FF0000127
:1004000050E700BF90F0000F04BF0021704730B5E7
:100410004FF4806404F1320410F0004548BF4042BC
:100420004FF000013EE700BF42004FEAE2014FEA11
:1004300031014FEA02701FBF12F07F4393F07F4FEC
:1004400081F06051704732F07F4208BF704793F0EF
:100450007F4F04BF41F40021704730B54FF4607402
:1004600001F0004521F000411CE700BF50EA010205
:1004700008BF704730B54FF000050AE050EA0102AE
:1004800008BF704730B511F0004502D5404261EB1E
:1004900041014FF4806404F132045FEA915C3FF45F
:1004A000D8AE4FF003025FEADC0C18BF03325FEAFC
:1004B000DC0C18BF033202EBDC02C2F1200300FAAD
:1004C00003FC20FA02F001FA03FE40EA0E0021FAD2
:1004D00002F11444BDE600BF70B54FF0FF0C4CF4C0
:1004E000E06C1CEA11541DBF1CEA135594EA0C0F72
:1004F00095EA0C0F00F0DEF82C4481EA030621EAAD
:100500004C5123EA4C5350EA013518BF52EA0335E7
:1005100041F4801143F4801338D0A0FB02CE4FF099
:100520000005E1FB02E506F00042E0FB03E54FF0C9
:100530000006E1FB03569CF0000F18BF4EF0010EC1
:10054000A4F1FF04B6F5007F64F5407404D25FEABD
:100550004E0E6D4146EB060642EAC62141EA555170
:100560004FEAC52040EA5E504FEACE2EB4F1FD0CB2
:1005700088BFBCF5E06F1ED8BEF1004F08BF5FEA30
:10058000500E50F1000041EB045170BD06F00046E2
:1005900046EA010140EA020081EA0301B4EB5C048F
:1005A000C2BFD4EB0C0541EA045170BD41F4801187
:1005B0004FF0000E013C00F3AB8014F1360FDEBFAC
:1005C000002001F0004170BDC4F10004203C35DA88
:1005D0000C341BDC04F11404C4F1200500FA05F30B
:1005E00020FA04F001FA05F240EA020001F00042AC
:1005F00021F0004110EBD37021FA04F642EB060122
:100600005EEA430E08BF20EAD37070BDC4F10C044B
:10061000C4F1200500FA04F320FA05F001FA04F20F
:1006200040EA020001F0004110EBD37041F10001FB
:100630005EEA430E08BF20EAD37070BDC4F1200506
:1006400000FA05F24EEA020E20FA04F301FA05F26E
:1006500043EA020321FA04F001F0004121FA04F216
:1006600020EA020000EBD3705EEA430E08BF20EAE6
:10067000D37070BD94F0000F0FD101F00046400020
:1006800041EB010111F4801F08BF013CF7D041EAA2
:10069000060195F0000F18BF704703F000465200A6
:1006A00043EB030313F4801F08BF013DF7D043EA77
:1006B0000603704794EA0C0F0CEA135518BF95EA2D
:1006C0000C0F0CD050EA410618BF52EA4306D1D1B4
:1006D00081EA030101F000414FF0000070BD50EAD3
:1006E000410606BF1046194652EA430619D094EA5D
:1006F0000C0F02D150EA013613D195EA0C0F05D147
:1007000052EA03361CBF104619460AD181EA03019A
:1007100001F0004141F0FE4141F470014FF0000052
:1007200070BD41F0FE4141F4780170BD70B54FF0ED
:10073000FF0C4CF4E06C1CEA11541DBF1CEA13556D
:1007400094EA0C0F95EA0C0F00F0A7F8A4EB05044F
:1007500081EA030E52EA03354FEA013100F0888046
:100760004FEA03334FF0805545EA131343EA12630F
:100770004FEA022245EA111545EA10654FEA0026C4
:100780000EF000419D4208BF964244F1FD0404F57D
:10079000407402D25B084FEA3202B61A65EB0305D9
:1007A0005B084FEA32024FF480104FF4002CB6EB96
:1007B000020E75EB030E22BFB61A754640EA0C0016
:1007C0005B084FEA3202B6EB020E75EB030E22BF56
:1007D000B61A754640EA5C005B084FEA3202B6EB97
:1007E000020E75EB030E22BFB61A754640EA9C0056
:1007F0005B084FEA3202B6EB020E75EB030E22BF26
:10080000B61A754640EADC0055EA060E18D04FEAE3
:10081000051545EA16754FEA06164FEAC30343EA83
:1008200052734FEAC2025FEA1C1CC0D111F4801F50
:100830000BD141EA00014FF000004FF0004CB6E749
:1008400011F4801F04BF01430020B4F1FD0C88BFE8
:10085000BCF5E06F3FF6AFAEB5EB030C04BFB6EBF3
:10086000020C5FEA500C50F1000041EB045170BDE6
:100870000EF0004E4EEA113114EB5C04C2BFD4EB13
:100880000C0541EA045170BD41F480114FF0000E97
:10089000013C90E645EA060E8DE60CEA135594EA13
:1008A0000C0F08BF95EA0C0F3FF43BAF94EA0C0F16
:1008B0000AD150EA01347FF434AF95EA0C0F7FF48B
:1008C00025AF104619462CE795EA0C0F06D152EADF
:1008D00003353FF4FDAE1046194622E750EA4106C3
:1008E00018BF52EA43067FF4C5AE50EA41047FF4D4
:1008F0000DAF52EA43057FF4EBAE12E74FF0FF3C39
:1009000006E000BF4FF0010C02E000BF4FF0010C09
:100910004DF804CD4FEA410C7FEA6C5C4FEA430C82
:1009200018BF7FEA6C5C1BD001B050EA410C0CBFD1
:1009300052EA430C91EA030F02BF90EA020F002033
:10094000704710F1000F91EA030F58BF994208BF9A
:1009500090422CBFD8176FEAE37040F00100704757
:100960004FEA410C7FEA6C5C02D150EA013C07D1AE
:100970004FEA430C7FEA6C5CD6D152EA033CD3D0F9
:100980005DF8040B704700BF8446104662468C46F3
:100990001946634600E000BF01B5FFF7B7FF002826
:1009A00048BF10F1000F01BD4DF808EDFFF7F4FF4F
:1009B0000CBF012000205DF808FB00BF4DF808EDDA
:1009C000FFF7EAFF34BF012000205DF808FB00BFFD
:1009D0004DF808EDFFF7E0FF94BF012000205DF81F
:1009E00008FB00BF4DF808EDFFF7CEFF94BF0120D4
:1009F00000205DF808FB00BF4DF808EDFFF7C4FFCD
:100A000034BF012000205DF808FB00BF4FEA410C15
:100A10007FEA6C5C02D150EA013C0AD14FEA430CF8
:100A20007FEA6C5C02D152EA033C02D14FF0000035
:100A300070474FF0010070474FEA410212F5001273
:100A400015D211D56FF47873B3EB625212D94FEA15
:100A5000C12343F0004343EA505311F0004F23FAFF
:100A600002F018BF404270474FF00000704750EA54
:100A7000013005D111F0004008BF6FF00040704711
:100A80004FF00000704700BF4FEA4102B2F1E0436F
:100A900024BFB3F5001CDCF1FE5C0DD901F0004C65
:100AA0004FEAC0024CEA5070B2F1004F40EB8300B5
:100AB00008BF20F00100704711F0804F21D113F1E1
:100AC0003872BCBF01F00040704741F480114FEA1A
:100AD0005252C2F11802C2F1200C10FA0CF320FAA3
:100AE00002F018BF40F001004FEAC1234FEAD323C0
:100AF00003FA0CFC40EA0C0023FA02F34FEA43032A
:100B0000CCE77FEA625307D150EA01331EBF4FF0B2
:100B1000FE4040F44000704701F0004040F0FE40CD
:100B200040F40000704700BF80F0004002E000BFCA
:100B300081F0004142001FBF5FEA410392EA030FC8
:100B40007FEA226C7FEA236C6AD04FEA1262D2EB12
:100B50001363C1BFD218414048404140B8BF5B4217
:100B6000192B88BF704710F0004F40F4000020F0B0
:100B70007F4018BF404211F0004F41F4000121F0C6
:100B80007F4118BF494292EA030F3FD0A2F1010210
:100B900041FA03FC10EB0C00C3F1200301FA03F14E
:100BA00000F0004302D5494260EB4000B0F5000F71
:100BB00013D3B0F1807F06D340084FEA310102F130
:100BC0000102FE2A51D2B1F1004F40EBC25008BFE2
:100BD00020F0010040EA03007047490040EB0000AC
:100BE000013A28BFB0F5000FEDD2B0FA80FCACF1AD
:100BF000080CB2EB0C0200FA0CF0AABF00EBC250DA
:100C000052421843BCBFD0401843704792F0000FC7
:100C100081F4000106BF80F400000132013BB5E71A
:100C20004FEA41037FEA226C18BF7FEA236C21D090
:100C300092EA030F04D092F0000F08BF08467047F5
:100C400090EA010F1CBF0020704712F07F4F04D1C3
:100C5000400028BF40F00040704712F100723CBFD6
:100C600000F50000704700F0004343F0FE4040F400
:100C7000000070477FEA226216BF08467FEA2363BE
:100C80000146420206BF5FEA412390EA010F40F4A9
:100C9000800070474FF0000304E000BF10F00043F5
:100CA00048BF40425FEA000C08BF704743F09643DC
:100CB00001464FF000001CE050EA010208BF7047F7
:100CC0004FF000030AE000BF50EA010208BF70477E
:100CD00011F0004302D5404261EB41015FEA010C93
:100CE00002BF84460146002043F0B64308BFA3F18B
:100CF0008053A3F50003BCFA8CF2083AA3EBC2536D
:100D000010DB01FA02FC634400FA02FCC2F120028B
:100D1000BCF1004F20FA02F243EB020008BF20F0C2
:100D20000100704702F1200201FA02FCC2F1200228
:100D300050EA4C0021FA02F243EB020008BF20EA1D
:100D4000DC7070474FF0FF0C1CEAD0521EBF1CEA4B
:100D5000D15392EA0C0F93EA0C0F6FD01A4480EA39
:100D6000010C400218BF5FEA41211ED04FF0006322
:100D700043EA501043EA5111A0FB01310CF000404E
:100D8000B1F5000F3EBF490041EAD3715B0040EA74
:100D9000010062F17F02FD2A1DD8B3F1004F40EB44
:100DA000C25008BF20F00100704790F0000F0CF017
:100DB000004C08BF49024CEA502040EA51207F3ADB
:100DC000C2BFD2F1FF0340EAC250704740F40000B6
:100DD0004FF00003013A5DDC12F1190FDCBF00F0A7
:100DE00000407047C2F10002410021FA02F1C2F155
:100DF000200200FA02FC5FEA310040F1000053EAF1
:100E00004C0308BF20EADC70704792F0000F00F03E
:100E1000004C02BF400010F4000F013AF9D040EA44
:100E20000C0093F0000F01F0004C02BF490011F4D8
:100E3000000F013BF9D041EA0C018FE70CEAD153D6
:100E400092EA0C0F18BF93EA0C0F0AD030F0004C56
:100E500018BF31F0004CD8D180EA010000F000400A
:100E6000704790F0000F17BF90F0004F084691F0C8
:100E7000000F91F0004F14D092EA0C0F01D1420202
:100E80000FD193EA0C0F03D14B0218BF084608D1CB
:100E900080EA010000F0004040F0FE4040F4000015
:100EA000704740F0FE4040F4400070474FF0FF0CA8
:100EB0001CEAD0521EBF1CEAD15392EA0C0F93EAEF
:100EC0000C0F69D0A2EB030280EA010C49024FEA41
:100ED000402037D04FF0805343EA111143EA1013FA
:100EE0000CF000408B4238BF5B0042F17D024FF4B2
:100EF000000C8B4224BF5B1A40EA0C00B3EB510F8D
:100F000024BFA3EB510340EA5C00B3EB910F24BF75
:100F1000A3EB910340EA9C00B3EBD10F24BFA3EBFA
:100F2000D10340EADC001B0118BF5FEA1C1CE0D1C2
:100F3000FD2A3FF650AF8B4240EBC25008BF20F075
:100F4000010070470CF0004C4CEA50207F32C2BFC9
:100F5000D2F1FF0340EAC250704740F400004FF066
:100F60000003013A37E792F0000F00F0004C02BF97
:100F7000400010F4000F013AF9D040EA0C0093F061
:100F8000000F01F0004C02BF490011F4000F013BBB
:100F9000F9D041EA0C0195E70CEAD15392EA0C0F23
:100FA00008D142027FF47DAF93EA0C0F7FF470AF5B
:100FB000084676E793EA0C0F04D14B023FF44CAF9E
:100FC00008466EE730F0004C18BF31F0004CCAD133
:100FD00030F000427FF45CAF31F000437FF43CAF6F
:100FE0005FE700BF4FF0FF3C06E000BF4FF0010C91
:100FF00002E000BF4FF0010C4DF804CD4FEA400273
:101000004FEA41037FEA226C18BF7FEA236C11D0BC
:1010100001B052EA530C18BF90EA010F58BFB2EB6F
:10102000030088BFC81738BF6FEAE17018BF40F0EF
:10103000010070477FEA226C02D15FEA402C05D1A3
:101040007FEA236CE4D15FEA412CE1D05DF8040B28
:10105000704700BF844608466146FFE70FB5FFF7BB
:10106000C9FF002848BF10F1000F0FBD4DF808ED73
:10107000FFF7F4FF0CBF012000205DF808FB00BF64
:101080004DF808EDFFF7EAFF34BF012000205DF8BE
:1010900008FB00BF4DF808EDFFF7E0FF94BF01200B
:1010A00000205DF808FB00BF4DF808EDFFF7D2FF08
:1010B00094BF012000205DF808FB00BF4DF808ED4B
:1010C000FFF7C8FF34BF012000205DF808FB00BF18
:1010D0004FEA4002B2F1FE4F0FD34FF09E03B3EB45
:1010E00012620DD94FEA002343F0004310F0004F85
:1010F00023FA02F018BF404270474FF000007047DB
:1011000012F1610F01D1420205D110F0004008BF79
:101110006FF0004070474FF00000704742000ED261
:10112000B2F1FE4F0BD34FF09E03B3EB126209D422
:101130004FEA002343F0004323FA02F070474FF0D8
:101140000000704712F1610F01D1420202D14FF04D
:10115000FF3070474FF00000704700BF7BB972B995
:101160000029BEBF00204FF0004106E008BF002864
:101170001CBF6FF000414FF0FF3000F0A1B9ADF19E
:10118000080C6DE904CE002909DB002B1ADB00F006
:1011900035F8DDF804E0DDE9022304B07047404291
:1011A00061EB4101002B1BDB00F028F8DDF804E0C7
:1011B000DDE9022304B0404261EB4101524263EB9E
:1011C00043037047524263EB430300F017F8DDF826
:1011D00004E0DDE9022304B0404261EB41017047C5
:1011E000524263EB430300F009F8DDF804E0DDE967
:1011F000022304B0524263EB430370472DE9F047EA
:10120000089E0D4604468E46002B40F083808A429D
:10121000174647D9B2FA82F34BB1C3F1200105FA60
:1012200003FE20FA01F19F4041EA0E0E9C404FEA76
:101230001748BEFBF8FC1FFA87F908FB1CE20CFB01
:1012400009F0210C41EA024290420AD9BA180CF185
:10125000FF3180F01881904240F21581ACF1020C10
:101260003A44121AB2FBF8F008FB102200FB09F115
:10127000A4B244EA0244A14209D93C1900F1FF3268
:1012800080F00381A14240F2008102383C44641A9C
:10129000002140EA0C401EB10022DC40C6E90042B9
:1012A000BDE8F08702B9FFDEB2FA82F3002B4FD11E
:1012B0008D1A01214FEA124E1FFA82F8B5FBFEFC8F
:1012C0000EFB1C5508FB0CF0220C42EA0545A84217
:1012D00007D97D190CF1FF3202D2A84200F2E98051
:1012E00094462D1AB5FBFEF00EFB105508FB00F8D6
:1012F000A4B244EA0544A04507D93C1900F1FF32E5
:1013000002D2A04500F2D9801046A4EB080440EABE
:101310000C40C0E78B4208D9002E00F0B1800021BC
:10132000C6E900050846BDE8F087B3FA83F1002955
:101330004BD1AB4202D3824200F2B980841A65EBF2
:10134000030301209E46002EAAD0C6E9004EA7E75F
:101350009F40C3F12002D1404FEA174EB1FBFEF08F
:101360001FFA87F80EFB101124FA02F29D4000FBD1
:1013700008FC2A43150C45EA0145AC4504FA03F480
:1013800009D97D1900F1FF3180F08F80AC4540F222
:101390008C8002383D44A5EB0C05B5FBFEF10EFB3D
:1013A000115C01FB08F995B245EA0C45A94507D93E
:1013B0007D1901F1FF3274D2A94572D902393D4439
:1013C000A5EB090541EA004178E7C1F120078B4010
:1013D00022FA07FC4CEA030C25FA07F44FEA1C4EEC
:1013E000B4FBFEF91FFA8CF80EFB194420FA07F340
:1013F00009FB08FA8D401D432B0C43EA0444A24527
:1014000002FA01F200FA01F309D91CEB040409F114
:10141000FF3048D2A24546D9A9F102096444A4EBA1
:101420000A04B4FBFEF00EFB104400FB08FAADB258
:1014300045EA0444A24508D91CEB040400F1FF3539
:101440002DD2A2452BD90238644440EA0940A0FBC2
:101450000289A4EB0A044C45C6464D4619D316D062
:101460005EB1B3EB0E0264EB050404FA07F722FA4F
:1014700001F31F43CC40C6E900740021BDE8F087AA
:10148000314630460CE78C46EBE61046FFE6434516
:10149000E6D2B8EB020E69EB0C050138E0E728460E
:1014A000D3E711468CE78146B9E7084673E708465B
:1014B00049E7ACF1020C3D4413E702383C4424E711
:1014C000704700BF7FB501238DF817104FF48031AE
:1014D000CDE901310DF11701024600910348EC21DD
:1014E00004F0FAFE07B05DF804FB00BFBC12002058
:1014F0007FB500234FF480318DF817300123CDE9FB
:1015000001310DF11701024600910448EC2104F06D
:1015100073FF9DF8170007B05DF804FBBC120020B4
:101520001FB5024602234FF480300091CDE901300F
:10153000EC210123024804F05FFF05B05DF804FBD5
:10154000BC1200201FB5024602234FF480300091E8
:10155000CDE90130EC210123024804F04DFF05B034
:101560005DF804FBBC1200207FB502234FF48031EC
:10157000CDE9013105AB02460093EC210123064879
:1015800004F03AFF9DF814009DF8153043EA00205E
:1015900007B05DF804FB00BFBC1200207FB5032339
:1015A0004FF48031CDE9013105AB02460093EC21C7
:1015B0000123084804F020FF9DF815309DF8140021
:1015C0001B0243EA00439DF81600184307B05DF87C
:1015D00004FB00BFBC120020FA2010B5FFF7DEFFAD
:1015E000B0F5000F37D0001104461C4900280A88C6
:1015F000B8BFC41D0028B8BF0F30C2EB2010404355
:101600004FEA4203C3EBE404B1F90230B1F904201C
:1016100048BF00F6FF70634300135043002BB8BF70
:1016200003F2FF730028B8BF00F57F500C4AB8BF23
:101630003F30DB1203EBA033136003EB830313F1A2
:10164000800048BF03F27F100012FFF727FB054917
:10165000FFF72CFC10BD0448FCE700BF0C0600207F
:10166000E80D00200000C8420000C07F2DE9F74FC0
:10167000FFF7B2FFF720FFF791FF864B864E1A68FF
:101680008646B2F5FA374FEAE273A7FB071243F139
:10169000FF3C07FB0CF3CDE90012019A02EB430378
:1016A000B6F90820019302FB0CF1D31707FB0311D5
:1016B000A2FB07230B441903019841EA12514FEA98
:1016C0000239B6F90A2002FB00FA0098D31700FB92
:1016D00003AAA2FB00235344002A73F1000802DA94
:1016E000FF3243F100034FEA122A4AEA036AF28802
:1016F0004FEA232B1AEB09004BEB010B0030A0FB48
:1017000002014BF5004B02FB0B11002871F10003A5
:1017100003DA10F1FF3041F101014A10CB1752EA10
:10172000030100F0B480B6F910A0019900980AFBFB
:1017300001F900994FEAEA7B01FB0B91AAFB0089B2
:10174000B6F90E00894400FB0CFCC11707FB01CC65
:10175000A0FB070161444FEA414C4CEAD03C4704EE
:10176000002017EB08074CEB090CC01940F6354771
:101770004FEA2E1ECEF5801E4FEAEE79B6F90C80A8
:101780004FEAC97A4FEACE714AEA5E0A4FEAC80EBA
:101790004EEB0C0C081AA0FB07016AEB0C0A07FBC6
:1017A0000A11FFF7DBFC002871F100028046894630
:1017B0000B4606DA41F6FF70002318EB000041EB00
:1017C0000303B6F916205913400B40EAC34002FB4D
:1017D00001F7A2FB00ABD31700FB03770AFB01F173
:1017E000BB4400FB0B13AAFB000119440B46002865
:1017F00073F10001024606DA6FF07E4142184FF0A5
:10180000000141EB0303B6F914A0510E0AFB09F7DE
:1018100041EAC31111EB08014FEA63604FEAEA7B2A
:1018200008FB0B7340EB0900AAFB08899944B8F147
:10183000000F79F1000306DA184B18EB03084FF09C
:10184000000349EB03094FEAD84343EA4933CC1874
:101850004FEAE94240EB0205002C75F1000302DA81
:10186000FF3445F100051022230A43EA0560B6F96A
:1018700012302912C3FB0201FEF700FE0022084BC2
:10188000FEF72AFEFFF700F903B0BDE8F08F002055
:10189000FAE700BFE80D00200C060020FFFF07005C
:1018A0000000703F10B5FFF797FEFD20FFF75CFECC
:1018B000B0F5004F56D02C4A2C4BB2F91E101B68C5
:1018C0000905C1EB8031B2F92000A3F5963303FB83
:1018D0001010117F10F5804044BF00F5FF407F30AD
:1018E000594392F9224048BF01F2FF7163434FEA26
:1018F000E12148BF03F2FF3301F500419B124B4346
:1019000048BF03F2FF33B2F91A109B1203F500131C
:101910004B4313F5005344BF03F57F533F339B13F1
:10192000C013584303460028BCBF00F5FF437F3374
:10193000DB135B43127E48BF7F33DB11534348BF49
:101940000F33A0EB231020EAE070B0F1C85FA8BF0E
:101950004FF0C8500013FFF79DF94FF06A51FFF7A1
:10196000F1F910BD0248FCE70C060020E80D00204C
:101970000000C07FD02038B5FFF7BAFD602840F0E6
:10198000B180B621E020FFF79DFDF320FFF7B0FD09
:10199000C307FAD4544C88202146FFF7C1FDA11C8F
:1019A0008A20FFF7CFFD211D8C20FFF7CBFDA11D65
:1019B0008E20FFF7B5FD04F108019020FFF7C2FD6E
:1019C00004F10A019220FFF7BDFD04F10C019420FF
:1019D000FFF7B8FD04F10E019620FFF7B3FD04F107
:1019E00010019820FFF7AEFD04F112019A20FFF7D5
:1019F000A9FD04F114019C20FFF7A4FD04F11601D8
:101A00009E20FFF79FFDA120FFF772FD04F11A0150
:101A10002076E120FFF796FDE320FFF769FD2077B0
:101A2000E420FFF765FD0546E520FFF761FD00F0C6
:101A30000F0343EA0510E083E620FFF759FD054652
:101A4000E520FFF755FDC0F3071343EA0510208496
:101A5000E720FFF74DFD84F82200F520FFF748FD51
:101A600000F01F0141F0A001F520FFF72BFDF5204C
:101A7000FFF73EFD00F0E30141F00801F520FFF71C
:101A800021FDF420FFF734FD00F01F0141F060015B
:101A9000F420FFF717FDF420FFF72AFD00F0E30123
:101AA00041F00C01F420FFF70DFDF220FFF720FDBF
:101AB00000F0F80141F00301F220FFF703FDF420EC
:101AC000FFF716FD0146F420FFF7FCFCF420FFF7BA
:101AD0000FFDBDE8384000F0FC0141F00301F420A7
:101AE000FFF7F0BC38BD00BF0C06002008B504228B
:101AF0004FF47060084903F0EDFB04224FF4A0603E
:101B0000064903F0E7FBBDE8084004224FF480706B
:101B1000034903F0DFBB00BF6C0400207004002009
:101B20006803002008B58021002003F067FB002037
:101B300003F036FBFFF7DAFFBDE8084006224FF45A
:101B40001060014903F0C6BB000E002008B58021DB
:101B5000002003F053FB002003F022FBBDE8084007
:101B600006224FF41060014903F0B4BB000E0020C0
:101B700070B5094B094E0A4C1E600A4E0A4D0028EA
:101B800008BF3046002918BF0C46084E2C60306054
:101B900002B11A6070BD00BF0C0000204D1B000890
:101BA000251B0008ED1A0008100000200800002086
:101BB00007B5062269464FF4106003F051FB204B35
:101BC000204A1B681A60204A1268110E1971110C04
:101BD0005971110A9971DA7100214FF40002C3E9B9
:101BE00002211A4AC3E904111078996118775078D4
:101BF000587790789877D078D8771079527983F899
:101C0000200083F8212003F12C0003F1220202F8C6
:101C1000011B8242FBD1002003F16C0102F8010B91
:101C20008A42FBD1002003F1EC0102F8010B914242
:101C3000FBD1074AC3F8EC2003B05DF804FB00BFFA
:101C4000140E002001010600080E0020000E0020E6
:101C5000638253631FB5FFF7ABFF2D4B002219685A
:101C60002C4B8A72C1F8F03040F20713A1F8F4301F
:101C7000294BCA72187881F8F600587881F8F70075
:101C8000987881F8F800D87881F8F90018795B79AC
:101C900081F8FA0081F8FB3040F23243A1F8FC30C1
:101CA0001E4B187881F8FE00587881F8FF0098786C
:101CB000DB7881F8000181F8013140F23643A1F868
:101CC0000231174B187881F80401587881F8050122
:101CD000987881F80601DB7801F5097081F8073101
:101CE000FF2381F8083101F2091303F8012B834225
:101CF000FBD14FF0FF33039343230A4800934FF483
:101D0000097203AB007802F06FFA05B05DF804FBCE
:101D1000140E00203501043D000E00206C0400204C
:101D2000100E0020180E00202DE9F04FA14D8BB0B1
:101D3000287803F02AFB024618B900200BB0BDE852
:101D4000F08F0DF11E039C4C0093216808AB28789E
:101D500002F0FAFABDF81E30432B40F028812168CA
:101D6000964B0C7F1A789442E7D14C7F5A78944274
:101D7000E3D18C7F9A789442DFD1CC7FDA78944299
:101D8000DBD191F820401A799442D6D191F82120E4
:101D90005B799A42D1D18A4A9DF82090177856787B
:101DA0009578D47847EA06032B432343029220D048
:101DB0004F450BD19DF82130B34207D19DF8223019
:101DC000AB4203D19DF82330A34212D07D4B1C7847
:101DD0004C45B2D19DF821505C78A542ADD19DF81B
:101DE00022509C78A542A8D19DF82340DB789C42E4
:101DF000A3D180B201EB000A00209DF8212001F15F
:101E0000F00303929DF822206E4904929DF823204E
:101E10006D4C6E4D6E4E6F4F0592534501D340B2DF
:101E20008CE793F800C0BCF1350F39D013D8BCF162
:101E3000060F08D8BCF1060F08D8DFE80CF02F34E5
:101E4000074607075B00BCF1330F66D003F1020CB5
:101E50005B786344E1E7BCF1E10F00F08C8018D8B7
:101E6000BCF1360F6DD0BCF1E00FEFD193F802E07A
:101E700093F801C084F800E093F803E084F801E0EF
:101E800093F804E084F802E093F805E084F803E0B6
:101E90002DE0BCF1FF0FD9D15346BEE70133BCE7BB
:101EA00098780333B9E793F802C087F800C093F835
:101EB00003C087F801C093F804C087F802C093F804
:101EC00005C087F803C00633A7E793F802E093F84C
:101ED00001C086F800E093F803E086F801E093F88B
:101EE00004E086F802E093F805E086F803E0634436
:101EF000023392E793F802E093F801C085F800E01E
:101F000093F803E085F801E093F804E085F802E037
:101F100093F805E085F803E0E9E793F802C02E4A5C
:101F2000C2F800C093F803E00EEB0C2C93F804E029
:101F30000EEB0C2E93F805C00CEB0E2CC2F800C073
:101F4000C1E793F802C0029A82F800C093F803C078
:101F500081F8009082F801C093F804C082F802C0B2
:101F600093F805C082F803C0039A4A70049A8A70F5
:101F7000059ACA70A7E79A1C964693F801C0C3F168
:101F8000FF2303F57F03DFF85480FE330EEB030BD2
:101F9000DC4507DC13464FF0000E104A634402F89C
:101FA0000CE03AE71EF801BB08F801BBEEE70020A1
:101FB00035E700BF180E0020140E0020000E002090
:101FC000100E00200C0E002074040020640300207A
:101FD0006803002070040020140000206C0300201F
:101FE00037B54FF4D85003F0DBF8032105464FF422
:101FF000D85003F003F941F288330E4800931122C0
:102000000D4B0E49007802F0EFF8044629464FF4D4
:10201000D85003F0F3F80D340AD0FFF71BFE084B3D
:1020200019681A68521A012AFBD9002003B030BD82
:102030000120FBE7180E00206C04002088B5000882
:102040008004002000230A21034A1360034A116020
:10205000034A1370704700BF80040020180000205E
:102060007C040020002373B5244C062206460D464E
:102070004FF410602146019303F0F2F86278237860
:102080001343A2781343E27813432279134362790E
:1020900013430DD108226270DC222146A2704FF456
:1020A000106006222370E3702371637103F012F94C
:1020B000134B20791E70134BE1781D60124B62792F
:1020C0000C182344414013444A4013440F4A4FF430
:1020D0007060136004220DEB020103F0FBF8042290
:1020E0004FF480700DEB020103F0F4F8FFF7AAFF44
:1020F0000022074B1A7002B070BD00BF000E002016
:10210000180E0020140E002078563412080E0020FD
:102110007D040020024A136801331360704700BF3A
:1021200080040020044B1A7802705A7842709A7822
:102130008270DB78C37070476C040020044B1A78FF
:1021400002705A7842709A788270DB78C370704758
:1021500068030020044B1A7802705A7842709A780B
:102160008270DB78C370704774040020054A431EF8
:10217000FE30117803F8011F12F8011B09B18342E8
:10218000F7D170476C030020044B1A7802705A781C
:1021900042709A788270DB78C370704770040020B8
:1021A00000F00F00092894BF30303730704700002E
:1021B0002DE9F04385B0FFF7FBFC0023694A6A482C
:1021C000137053709370D370684A13705370937088
:1021D000D370674B1968674BC1F8F03040F20713B2
:1021E000A1F8F430644B1A7893F8038081F8F62054
:1021F0005A781F795E7981F8F7209A780C23A1F834
:10220000FC30122381F8F82081F8F98081F8FA7007
:1022100081F8FB60A3F1120292B2845C5D1CADB246
:1022200001EB0309002C40F093804FEA1810FFF7F0
:10223000B7FF89F8EC004046FFF7B2FF0D4485F880
:10224000EC003809FFF7ACFF9D1CADB20D4485F8DA
:10225000EC003846FFF7A4FFDD1CADB20D4485F855
:10226000EC003009FFF79CFF1D1DADB20D4485F851
:10227000EC003046FFF794FF5D1DADB20D4485F8CC
:10228000EC00981D80B2D51D451B06320D4485F823
:10229000EC203722084480F8EC200820DA1D92B2A6
:1022A0000A4482F8EC001A18012092B20A4482F81B
:1022B000EC00032003F1090292B20A4482F8EC0018
:1022C000062003F10A0292B20A4482F8EC000F20C1
:1022D00003F10B0292B20A4482F8EC003A2003F1B7
:1022E0000C0292B20A4482F8EC003B2003F10D028A
:1022F00092B20A4482F8EC00E02003F10E0292B29E
:102300000A4482F8EC00E12003F10F0292B20A4481
:1023100082F8EC00FF2003F1110210339BB20B4452
:1023200092B283F8EC0002F1EC030B44B2F59C7F0F
:1023300012D34FF0FF3303934323104800934FF41D
:10234000097203AB007801F04FFF05B0BDE8F083E0
:102350002B4689F8EC405DE7013203F8014B92B25D
:10236000E4E700BF100E0020000000200C0E00204B
:10237000140E00203501013D000E0020180E002033
:102380002DE9F04385B0FFF713FC924B92491B787F
:10239000033B012B00F2108100220B689A72DA7263
:1023A0008E4A10781873507858739078D278987352
:1023B000DA738B4B1A788DF80C205A788DF80D2033
:1023C0009A78DB788DF80E208DF80F300968854BF0
:1023D000C1F8F03040F20713A1F8F430824B1A78BC
:1023E000DF7881F8F6205A781E7993F8058081F815
:1023F000F7209A789DF80F3081F8F820FF2B81F8AC
:10240000F97081F8FA6081F8FB8040F0D98040F2E1
:102410003243A1F8FC30714B1A7881F8FE205A78CB
:1024200081F8FF209A78DB7881F8002181F801316A
:1024300040F23643A1F80231694B1A7881F8042141
:102440005A7881F805219A78DB7881F806211C22D8
:1024500081F807310C208B1883F8EC00931C0132B3
:102460008818002280F8EC20604810F8015B5C1CA2
:10247000A4B201EB0309002D40F0A4803809FFF756
:102480008FFE89F8EC003846FFF78AFE0C4484F88A
:10249000EC003009FFF784FE9C1CA4B20C4484F8C5
:1024A000EC003046FFF77CFEDC1CA4B20C4484F840
:1024B000EC004FEA1810FFF773FE1C1DA4B20C4489
:1024C00084F8EC004046FFF76BFE5C1DA4B20C44A0
:1024D00084F8EC00981D80B2D41D041B06320C4415
:1024E00084F8EC203722084480F8EC200A20DA1D1A
:1024F00092B20A4482F8EC00012003F1080292B281
:102500000A4482F8EC00032003F1090292B20A4463
:1025100082F8EC00062003F10A0292B20A4482F823
:10252000EC000F2003F10B0292B20A4482F8EC0097
:102530003A2003F10C0292B20A4482F8EC003B20EC
:1025400003F10D0292B20A4482F8EC001F2003F15D
:102550000E0292B20A4482F8EC00212003F10F022D
:1025600092B20A4482F8EC00E02003F1100292B229
:102570000A4482F8EC00E12003F1110292B20A440D
:1025800082F8EC00FF2003F1120292B20A441333E6
:1025900082F8EC009BB201F1EC02B3F59C7F16DBF4
:1025A0004323134800934FF4097203AB007801F002
:1025B0001BFE05B0BDE8F0834FF0FF33039305E742
:1025C000102247E7234689F8EC5001324DE7D554F5
:1025D0000133E2E77D040020140E00206C0400208B
:1025E000100E00203501033D000E002000000020E9
:1025F000180E002070B51C4C94F90030012B1DDC26
:102600001A4D1B4E2A683168914212D2194B93F928
:102610000030022B0FD0042B0DD0012B01D1FFF77E
:10262000C7FD00232B602B680A3333602378013306
:102630002370012010E0FFF7A3FEF2E70D4B93F9A2
:1026400000201C46022A08D0042A06D0012A09D1FB
:1026500000201870FFF7F6FC70BDFFF7A9FD012000
:102660002070F7E70120F5E77C04002080040020BB
:10267000180000207D04002038B5524C94F9003039
:10268000062B00F09C80504D2878400100F54270E8
:1026900002F086FD222805D000234422022128785A
:1026A00001F010FCFFF740FB94F90030C5B2042B99
:1026B00031D8DFE803F0030E233D5A000022434BDC
:1026C0001A705A709A70DA70FFF772FD012020704C
:1026D00038BD022D0ED13E4B1A683C4B117C19704F
:1026E000517C5970917CD27C9970DA70FFF748FE6A
:1026F000257010E0BDE83840FFF77CBF052D12D1F2
:10270000FFF76EFC054640B1324B1B689847FFF758
:1027100099FC032323700120DAE7FFF793FC2E4B8B
:102720001B689847E4E7062DE4D1FFF78BFCCDE763
:102730002A4B1B685A1C40D0294A1268B2EB530F2F
:102740003BD9224A274B11781970517859709178EA
:10275000D2789970DA70244A136801331360FFF756
:102760000FFEFFF76FFC0420B1E7052D1FD10022FB
:102770001E4B1A701B4A154B1078197888420BD1E2
:1027800050785978884207D190789978884203D157
:10279000D278DB789A4208D0154B1B689847032003
:1027A000FFF750FC0323237092E70420F8E7062D7F
:1027B000A0D1FFF747FC01232370042088E7052000
:1027C00086E700BF7D040020180E00206C04002066
:1027D000140E0020080000200C000020140000202F
:1027E0008004002078040020080E00207C040020D3
:1027F000100000200122014B1A7070474C05002088
:102800007047000000224FF48051014803F0C2BA23
:10281000000C014001224FF48051014803F0BABA84
:10282000000C01400A464FF0FF330146014804F016
:1028300072BC00BF1C12002007B501210DF107007A
:10284000FFF7F0FF9DF8070003B05DF804FB000000
:102850000A464FF0FF330146014804F0C0BA00BFFA
:102860001C12002007B501218DF807000DF10700AB
:10287000FFF7EEFF03B05DF804FB000008B50A485F
:102880000A4A0B4BC0E9002300234FF48042C0E901
:102890000233C0E90423C0E90633036203F05AFCA3
:1028A00008B172B6FEE708BDBC120020005400401B
:1028B000A086010000000000814BF0B51A6803F10A
:1028C000236303F5673376339A4289B072D10128C6
:1028D00000F084807B4BC8221E887B4BB6B21E80E2
:1028E0007A4B00211F887A4BBFB21F80794B7A4800
:1028F0001C887A4BA4B21C80794B1D88794BADB2F1
:102900001D80794B1C80794B1D8005F02BFCCDE997
:1029100000453B46324676496F4806F08BF84FF447
:102920007A73C8226C49734805F040FB724BC82289
:102930001C68724B00211C60714B67481E68714B0C
:102940001E6005F00FFC2046FDF76EFD0446304684
:102950000D46FDF769FD2246CDE900012B466A4987
:102960005D4806F067F84FF47A73C8225A49614807
:1029700005F01CFB654B664C1B6800215A1C08BF08
:10298000644B4FF0C802544814BF2360236005F025
:10299000E9FB2068FDF748FD02460B464E485E49BC
:1029A00006F048F84FF47A73C8224B49514805F0B5
:1029B000FDFA2DE090B949F64043434A1380474A57
:1029C0001380434A1380474A1380514B514A1A607F
:1029D0004FF07E53494A13604A4A13600023CDE901
:1029E0000333012336494D4CCDE90613237002F021
:1029F0007FFF20700028FAD103A904A803F034F85F
:102A000040B10123237002F085FF20700028FAD125
:102A100009B0F0BD012328A7D7E90067284D23702E
:102A200032463B462946032002F0A8FF20700028CA
:102A3000F6D1274B234F1988284B1D88224B1E881F
:102A4000284B46EA01461A88012345EA02452370CD
:102A500032462B463946032002F090FF20700028B2
:102A6000F6D10123254E244D237000232946022050
:102A7000326802F083FF20700028F6D10123214E36
:102A80001F4D2370002329460220326802F076FF92
:102A900020700028F6D101231D4E1C4D2370002309
:102AA00029460220326802F069FF20700028F6D122
:102AB000A7E700BFAFF30080769834120000000053
:102AC00000FC000810FC0008EC05002012FC0008C7
:102AD000B405002014FC0008840400208C090020A8
:102AE00016FC0008B80500204E060020F20D00205C
:102AF0009AB500086C13002018FC0008900500200F
:102B000020FC0008A0050020C5B5000824FC000832
:102B1000340B00200000A041DFB500084414002061
:102B20002DE9F0470446884691469A4642F68822A7
:102B3000002301210220C0B001F0C4F90228074699
:102B40002A4D07D0FF242B8801332B80204640B02C
:102B5000BDE8F0870026214642F243722E8001F044
:102B600043FA0128044607D02B88384601332B80CE
:102B7000FE2401F069F9E9E750462E80FDF754FC88
:102B80004246CDE900014B46194903A805F052FF22
:102B9000184B03A820938DF88440FDF7D9FA03A9B8
:102BA000C4B20DF18D008DF88540ADF88660229697
:102BB0008DF88C6005F05EFF0D34E4B222460220F1
:102BC00020A901F087FA002807DC2B8802200133B6
:102BD0002B80FD2401F038F9B8E7241A14F0FF0423
:102BE0002E80EBD1022001F02FF9AFE7DC0D0020A1
:102BF000ECB500085A425844F7B53349334802F05F
:102C00006BFC3349334802F079FC3349334802F016
:102C10008DFC6B46324A334D1068516840F2E934FE
:102C200003C36946084602F0D6FC06224FF4106042
:102C30002D4902F04FFB00202C49FFF713FA2C49D5
:102C40002C4A0846FEF794FF2E462B4F2B780BB9E3
:102C5000013C0ED13378ABB9BFF34F8F2749284BD6
:102C6000CA6802F4E0621343CB60BFF34F8F00BF2A
:102C7000FDE7FFF701FD642002F086FD384603F012
:102C80001AFDE3E7184CA01DFFF74CFA04F10E0003
:102C9000FFF754FA04F10A00FFF776FA04F1160080
:102CA000FFF758FA04F11A00FFF760FAA37E43B960
:102CB0001449154805F0DEFE0B4802F0C9FC03B0CC
:102CC000F0BD04F11A01F4E71528000805280008F2
:102CD0006528000839280008512800082528000820
:102CE00043B600084C0500201C0000201C0E0020EC
:102CF000F5270008012800081013002000ED00E06F
:102D00000400FA0538B60008D80C0020002110B5E0
:102D100090B0142201A809910B9105F023FA4FF409
:102D2000803309220224CDE906234FF40032CDE995
:102D30000D4308924FF46013012206A80A920C92E8
:102D40000F9303F0BFFC08B172B6FEE70F23CDE985
:102D500001344FF480630390CDE90430214601A88B
:102D600003F08CFE08B172B6FEE703F047FE10B028
:102D700010BD00002DE9F04FA54CB9B002F0E0FC09
:102D8000606A636AA349656AA34A666A13F0804F62
:102D9000676A14BF13460B4615F0005FD4F824C0D1
:102DA00014BF15460D4616F0805F14BF16460E463A
:102DB00017F0806F14BF17460F461CF0006F0CBF52
:102DC0008C469446CDE9027C102712EA200238BFD7
:102DD0000A46CDE900569149914805F02BFEFFF7D0
:102DE00095FF3A46002130A805F0BCF9A3690022FE
:102DF00043F02003A361A36941F2840103F020039F
:102E00002093209BA369874843F00403A361A3692F
:102E1000012603F004032193219BA369022543F0BB
:102E20000803A361A369002403F008032293229BF3
:102E300002F0B0FF002241F21E017B4802F0AAFF1F
:102E400041F28403774830A9CDE93036CDE93245E7
:102E500002F056FE41F21E03734830A9CDE9303628
:102E6000CDE932450C2602F04BFE4FF4E1336F48BA
:102E70006F4DC0E90244C0E90053C0E90564046134
:102E8000C46105F065F8054608B172B6FEE7014673
:102E90003A4625A805F066F91C22294629A8CDE95D
:102EA000235505F05FF92022294630A805F05AF98C
:102EB000604C614B5B20C4E9003540F21F33C4E92C
:102EC00003358023C4E905032046A56004F06CFBAC
:102ED00008B172B6FEE74FF48053204625A925932A
:102EE00004F020FD08B172B6FEE7204604F088FB2E
:102EF00008B172B6FEE70821204604F0D9FB08B1FC
:102F000072B6FEE7CDE9237023A9204604F068FFDE
:102F1000024608B172B6FEE73023CDE92B00CDE9B9
:102F20002930CDE92D002F9029A9204604F01AFC64
:102F300008B172B6FEE722682046936929A943F0DA
:102F400008039361042204F00DFC08B172B6FEE799
:102F500022682046936929A943F4006393610822FB
:102F600004F000FC08B172B6FEE73246204629A9FB
:102F700004F0F8FB08B172B6FEE722682D48D36969
:102F800030A943F40063D36100234FF40052CDE92C
:102F90003033CDE9323334933592379304F04EFF1A
:102FA000054608B172B6FEE70626224801F0FCFB92
:102FB0001022294630A805F0D5F8204C204B4FF0C0
:102FC0008008C4E900364FF6FF732046CDE9295545
:102FD000C4E90335A560C4F8188004F0E5FA08B127
:102FE00072B6FEE74FF48057204630A9309704F0C0
:102FF00099FC08B172B6FEE7202329A9CDE9293052
:10300000204604F0EDFE0546E0B172B6FEE700BFD3
:103010000010024050B600084CB6000853B6000835
:103020008404002000080140000C01406C130020C3
:1030300000380140B0130020002C01407412002021
:10304000000800400146102225A805F08BF8142244
:10305000294629A805F086F81C22294630A8694C83
:10306000CDE9235505F07EF8674B2046C4E90035CD
:1030700049F64043A560C4E90335C4F8188004F05C
:1030800093FA08B172B6FEE7204625A9259704F009
:1030900049FC08B172B6FEE7204604F0B1FA08B167
:1030A00072B6FEE70821204604F002FB08B172B6B2
:1030B000FEE7CDE9296029A9204604F019FD08B1F1
:1030C00072B6FEE7302323A9CDE92330204604F071
:1030D00087FE08B172B6FEE700221024494830A9E5
:1030E000CDE930423292349204F03CFB054608B1FF
:1030F00072B6FEE72246014625A805F033F81422F1
:10310000294630A805F02EF82246294629A8CDE9FF
:10311000235505F027F84FF080433C4CC4E90035B7
:103120004FF6FF73C4E9033580232046A560A361F1
:1031300004F03AFA08B172B6FEE74FF48053204625
:1031400025A9259304F0EEFB08B172B6FEE72046F0
:1031500004F082FA08B172B6FEE704252023204667
:1031600030A9CDE9305304F0C3FC08B172B6FEE7D4
:10317000CDE9230023A9204604F032FE024608B11F
:1031800072B6FEE701232990CDE92A302C9029A9B7
:10319000204604F039FB08B172B6FEE70223204650
:1031A0002A4629A9CDE9293304F02EFB044608B1AB
:1031B00072B6FEE7FFF762FB4FF4827314481549BD
:1031C000C0E90244C0E900134FF40073C0E90634BB
:1031D0000A23C0E90444C0E908448462C36203F0DE
:1031E000A6FD08B172B6FEE706230B480B4AC0E9FC
:1031F000002340F6FF73836003F03CFA80B172B69F
:10320000FEE700BF2413002000040040F813002054
:103210001C12002000380040101300200030004035
:103220000125002701228021AB48AC4E02F0B2FDFF
:103230004FF0FF33C822AA49AA48357004F0B6FE01
:103240004FF0FF331222A849A64804F0AFFEA74C66
:1032500000224FF48051A04802F09CFD2A464FF412
:1032600080519D4802F096FD2A464FF48051204639
:1032700002F090FD4FF0FF330C229D49994804F075
:1032800095FE4FF4FA6002F07FFA9A4DFFF7B4FC16
:103290004FF0FF3306229849924804F087FE4FF022
:1032A000FF330D2295498F482F8004F07FFEFEF7F3
:1032B00061FB4FF0FF3306228F498A4804F076FE07
:1032C0003846FFF7F9FAE36843F01E03E3608C4BDE
:1032D000CDE91C651A8812B949F640421A80894B1B
:1032E0001A8812B949F640421A80874B1A8812B9D7
:1032F00049F640421A80854A118811B949F6404181
:10330000118000261A8800240025814BDFF87C827A
:10331000DA6201227F4B804F1E80804B31461E7047
:103320007F4B8048C3E900457F4BC8E900451A70D0
:103330007E4BC7E900451E8004F008FD0421794852
:1033400004F004FD40F21F32794B4FF0000CDA62BA
:10335000784B79481E8064267849794A794B013E3A
:1033600040F804CB41F804CB42F804CB43F804CB3B
:10337000F5D1754B13221E70744B75491E70754B39
:1033800058481E70744B1E704FF0FF3304F00EFE51
:10339000724803F0CFFF724803F0CCFF714B324606
:1033A000C3E90045704B8021C3E900456F4B4A4893
:1033B000C3E900456E4BC8E90045C7E90045C3E9CC
:1033C000004502F0E7FC1C9B1B78002B00F03081CD
:1033D000684A69481368DFF83C9143F001031360C1
:1033E00003F069F900231C9A1370B9F80030002B20
:1033F00000F0CE82544C614D22782B8822B9554A78
:103400001278002A00F0D081B3F5C86F80F0CF8128
:10341000C8220021324804F0A5FE484BDFF8FC909A
:103420001E68484B3046D3F80080434BD3F800A0C9
:10343000434BD3F800B099F80030002B00F05281D4
:10344000FCF7F2FF02460B464D4958460968CDE9A4
:103450001E23FDF777FC01465046FDF769FBFCF79C
:10346000E3FFCDE908015846FCF7DEFFCDE9060190
:103470005046FCF7D9FFCDE90401424940460968AE
:10348000FDF760FC01463046FDF752FBFCF7CCFF30
:10349000CDE902014046FCF7C7FFDDE91E23CDE977
:1034A000000139490E4805F0C5FA4FF47A73C82275
:1034B0000B490C4804F07AFD99F80030002B40F0DD
:1034C000AF802378002B00F029811E4B19681B4B1D
:1034D0001868FDF72FFB5BE0000801409405002011
:1034E000840400206C13002095B60008000C0140F5
:1034F000A7B60008DC0D0020B3B60008B9B6000876
:10350000EC050020B40500208C090020B80500203F
:1035100000040040300B00209805002058060020D1
:10352000C0050020F8130020F00D00208E090020B7
:10353000002C0140C8050020FC0700205C0600208C
:1035400098090020480B0020FC05002030060020D0
:10355000C6B60008D70D0020B605002024130020B1
:103560007412002040060020A8050020400B002017
:10357000F007002010E000E010130020380B0020BE
:1035800090050020A0050020D9B6000850060020B4
:1035900066490746FDF7CCFAFDF79AFD0028B8BF4B
:1035A0004042FDF77BFB4FF07E51FDF787FD002881
:1035B00000F0B4805E4E38465C493488FDF77EFDED
:1035C000002800F0A980013434805A4C2378002B65
:1035D00000F0A980584B1968584B1868FDF7AAFAF3
:1035E00052490746FDF7A4FAFDF772FD0028B8BF5F
:1035F0004042FDF753FB4FF07E51FDF75FFD002881
:1036000000F091804E4E384648493488FDF756FD0B
:10361000002800F08680013434802B8801332B8011
:10362000484A4948136823F00103136003F082FEFF
:10363000464C0A2301222146454804F00CFD00288F
:103640003FF4C1AE2378632B40F01A834FF47A73B2
:10365000162240493E4804F0A9FC3B4803F094FE82
:1036600000213D4804F072FB04213B4804F06EFB4E
:10367000C8220021394804F075FD0123384A394930
:103680001370394A13702B4A1370384A1370002391
:10369000374A1370374A138049F640420A8024495A
:1036A0000A8035490A8026490A800021334A116080
:1036B000334A1160334A1160334A1160334A116052
:1036C000334A11604FF4FA71324A1380324A118042
:1036D000324A1380324A13801B4803F02BFE00232A
:1036E000237070E6FCF7A0FE064658460F46FCF72E
:1036F0009BFECDE904015046FCF796FECDE90201A0
:103700004046FCF791FE3246CDE900013B46254993
:10371000124805F08FF9C8E6013C55E700232370F5
:1037200053E7013C78E70023237076E70000C844A4
:103730008C090020D70D002098090020FC070020EC
:10374000B805002010E000E0741200204D050020B4
:103750006C130020F7B80008F81300208404002040
:10376000FC050020EC05002030060020B6050020F6
:1037700058060020380B0020B4050020E805002082
:10378000F8070020280B0020D80D0020900500200D
:10379000A0050020E40D0020300B00208E09002041
:1037A000C805002016B70008B3F5C86F08D34FF45A
:1037B0007A731F225C495D4804F0F8FB02F048F878
:1037C000B9F80040002C3FF42BAF594E594B3168EB
:1037D0001868FDF7AFF9584B3060584E8046316895
:1037E0001868FDF7A7F9564F564B39683060824686
:1037F0001868FDF79FF9DFF890B1534B3860DBF89C
:10380000001006461868FDF795F9013CA4B207467A
:10381000CBF80000A9F80040002C7FF401AF51461E
:103820004046FDF743FBDFF8648139468146C8F81E
:1038300000003046FDF73AFB444F064638604846E4
:10384000FDF746FC0130022868D83046FDF740FC01
:103850000130022862D83E4B3E4E1B680120336087
:10386000FFF72AF83C4BC822B3F800903B4B2146A7
:10387000A3F800903A4B3B48B3F800A03A4BA3F8AA
:1038800000A004F06FFC394BCDF804A01B88384A27
:10389000009312884B463749324805F0CBF84FF475
:1038A0007A73C8222F49214804F080FBC8222146A0
:1038B0002C4804F057FC3868FCF7B6FD8246D8F86F
:1038C00000008B46FCF7B0FD5246CDE900015B4697
:1038D0002949244805F0AEF84FF47A73C8222149EB
:1038E000124804F063FBC82221461E4804F03AFC4B
:1038F0003068FCF799FD02460B461A481F4905F04F
:1039000099F84FF47A73C8221649084804F04EFB20
:10391000002301222B801A4B1A7081E64FF47A7330
:103920002A221849F1E700BF45B700086C130020B0
:10393000E8050020FC07002098090020F807002077
:10394000280B00205C060020480B0020A00500206A
:10395000F8050020340B00208C0900204E060020C2
:10396000B805002084040020F20D0020B4050020DA
:10397000EC05002064B70008A0B70008B7B700083E
:10398000F00D0020C5B70008D80D002090050020DC
:10399000FDF722FE914E924D3060FDF767FE914992
:1039A000FDF7D0F92860FDF77DFF8F4C3668206069
:1039B0008E493046FDF764FB002800F0FD8030465C
:1039C0008B49FDF77BFB002800F0F6803346894ADF
:1039D00089498A48FFF7A4F82B68894A86498748AD
:1039E000FFF79EF82368874A83498448FFF798F8D1
:1039F000854B1B78002B40F0DC801D9B1B88642BC3
:103A000001D901F025FF814B0022D3E900450023B5
:103A100020462946FCF7C8FF7D4E00227D4B00283A
:103A200040F0D28020462946FCF7C8FF28B3D6E9EB
:103A300000010022774BFCF7C1FFF0B12946204678
:103A4000FDF722F8744A03466B496C48FFF768F8A3
:103A5000724BD3E90001FDF717F80346704A664937
:103A60006648FFF75DF8D6E90001FDF70DF86D4AED
:103A7000034661496148FFF753F86B4C6B4D23686F
:103A80006B4A5D496B4E5D48FFF74AF86A4F2B68F9
:103A90006A4A59495948FFF743F8DFF8D491336827
:103AA000674A5549DFF8CC815448FFF739F8654A31
:103AB00051493B685148FFF733F8B8F80030B9F87E
:103AC0000000DFF8B4B1C01AFDF7E8F8DFF8ACA1E8
:103AD00003465D4A48494948FFF722F8BAF80030E2
:103AE000BBF80000C01AFDF7D9F8584A034642490E
:103AF0004248FFF715F8BAF80020BBF800309B1ACF
:103B00001B93B8F80020B9F800309B1A1A93386854
:103B1000FCF78AFCCDE918013068FCF785FCCDE99B
:103B200016012868FCF780FCCDE914012068FCF739
:103B30007BFCCDE912012C4B1868FCF775FCCDE934
:103B40001001274B1868FCF76FFCCDE90E01234BE1
:103B50001868FCF769FCCDE90C01304B3C49D3E90E
:103B60000023CDE90A233B4B3B48D3E90023CDE9B1
:103B700008233A4BD3E90023CDE90623244BD3E9AC
:103B80000023CDE90423364BD3E90023CDE90223FA
:103B9000344BD3E90023CDE900231C4BD3E90023A8
:103BA00004F048FF4FF47A73C8222B492E4804F0E2
:103BB000FDF90022144BAFE62C4802F073FBFEF730
:103BC0005DFEFDF7D7FE13E7D6E90001FCF7F6FE30
:103BD00000283FF452AF00230F4A40E7F8050020C9
:103BE00008060020E8C7F53B3806002000007042B8
:103BF000000020C2EFB70008D80C002032000020DF
:103C000001B8000810B80008F00D002040060020A0
:103C1000A8050020000044401FB80008D00500207F
:103C20002BB8000838B80008E00D0020EC07002091
:103C300047B800082C0B0020EC0D00204AB8000803
:103C40004DB8000850B8000853B8000856B800082E
:103C500059B80008F007002084040020400B002021
:103C600098050020500600206C130020BC12002094
:103C7000B8050020F20D00208C0900204E0600201F
:103C8000742B24D1274803F07FFB0021264804F041
:103C90005DF80421244804F059F84FF47A73102297
:103CA0002249234804F082F90123224A2249138041
:103CB00000220A8021490B7021490B7021490B70A9
:103CC00021490B7021490B70214B1A8004E5722B9E
:103CD0007FF405AD134803F057FB0021124804F0B0
:103CE00035F80421104804F031F84FF47A7321229A
:103CF00018490F4804F05AF90020104B104A187068
:103D0000012313700F4A13700F4A13700F4A137078
:103D1000084B1880084B18800D4B1880FEF7CCFD1F
:103D2000DAE400BF74120020F81300200DB9000877
:103D30006C130020300B0020380B002058060020A8
:103D4000FC05002030060020D70D0020B60500201D
:103D5000C80500201DB9000810B5314C2268002AA2
:103D600048D00368B3F1804F44D1037F591E012925
:103D700040D81B2A32D9012B3CD10021294803F01D
:103D80001EFB294B21681A6880B210440139186063
:103D9000216000292ED1234803F0D8FF04212148B7
:103DA00003F0D4FF1C21204B1A68B2FBF1F2A2F5FC
:103DB0002852303AB2F5C86F88BF4FF4C8621B4929
:103DC0001A60CA6842F01E02CA60194A1288013A93
:103DD000032A0FD8DFE802F0060F161D012BCCD006
:103DE0000421CBE7134A18681488FCF753FF124BE1
:103DF00043F8240010BD0F4A18681488FCF74AFFE6
:103E00000E4BF5E70B4A18681488FCF743FF0C4B80
:103E1000EEE7084A18681488FCF73CFF094BE7E70F
:103E200048060020F813002034060020000C014052
:103E30008E090020C80500205C060020480B0020E9
:103E4000FC070020980900200828F8B504462DD862
:103E5000470107F1080607F584771021384601F07D
:103E6000CDF9384601F09CF905460028F9D11F210B
:103E700006F5007001F0C2F90123A340DB430D49B0
:103E80001BB20A8806F540761A400A800A4A118851
:103E90000B401380094B23F81450094B1D55304635
:103EA00001F07EF90028FAD10120F8BD4FF0FF3073
:103EB000FBE700BF580500205A05002064050020DC
:103EC0005C05002008282DE9F34104468846174682
:103ED0001D467CD8012905D08B1E022B10D96FF00E
:103EE00004000AE004224FF470600DEB020101F0BF
:103EF000B7F9019B23B96FF0020002B0BDE8F08171
:103F0000680757D42DB1B8F1010F50D0B8F1020FA6
:103F100053D020466601FFF797FF083625F00F01C2
:103F2000304641EA080101F069F96FB94FF6F071C6
:103F3000284A17887B1C9BB28B4205BF4FF4404335
:103F40004FF6EF7713801380390A06F5806001F091
:103F500055F9F9B206F5A06006F5807701F04EF943
:103F60000121384601F04AF9384601F019F90028D4
:103F7000FAD10123A340DB4317491BB20A8805F09D
:103F800001051A40A5401543144A0D80118806F515
:103F900040760B401380124B23F81400114B185538
:103FA000304601F0FDF80028FAD060B2A5E715F020
:103FB000210FAED16FF005009FE7A9066BB201D5C6
:103FC000002BF7DAEA06A4D5002BA2DBF2E74FF0CC
:103FD000FF3092E736010020580500205A050020E6
:103FE000640500205C05002008282DE9F041064604
:103FF0000D4617465DD844010834204601F0D0F83C
:1040000000F00F00012857D104F54078404601F038
:10401000C7F8132853D12B786A7802EB0322AB78C8
:1040200003EB0222EB78013B03EB0223033349D875
:10403000002F4AD00422294604F5406001F04AF9D5
:10404000390A04F5805001F0D9F804F58075F9B209
:1040500004F5885001F0D2F80421284601F0CEF88A
:10406000284601F09DF80028FAD1194B1B8843FA25
:1040700006F6F20713D404F50074404601F090F8F8
:10408000172801D101200AE0204601F089F8030732
:1040900007D52046082101F0B1F86FF00C00BDE80B
:1040A000F081404601F07CF80028E6D16FF0030073
:1040B000F5E74FF0FF30F2E76FF00400EFE76FF045
:1040C0000200ECE76FF00B00E9E76FF00A00E6E7AB
:1040D0005805002008282DE9F84F06468846144662
:1040E00074D845010835284601F05AF800F00F0051
:1040F00001286ED1002C6FD005F54079484601F0BB
:104100004FF8172801D01C2832D1354F3B88334156
:10411000D90711D505F5007A504601F041F8C206DD
:1041200029D51021504601F069F8012303FA06F25F
:104130003B8823EA02033B8005F5F85001F030F894
:10414000830298B24FF0010A844228BF04460AFA5B
:1041500006FA304601F0F8F88346484601F020F8A8
:104160001728204B12D01C2810D03046FFF76CFEC9
:104170006FF0060002E0030702D40020BDE8F88FCC
:104180003046FFF761FE6FF00C00F7E71A8812EA7D
:104190000A0F18D05C45F0D841463046224605F556
:1041A000807501F013F92021284601F027F82846F0
:1041B00000F0F6FF0028FAD13B8820464AEA030ABD
:1041C000A7F800A0DAE75C45C3D8E5E74FF0FF3079
:1041D000D4E76FF00400D1E76FF00D00CEE700BF29
:1041E0005A050020580500202DE9F84F08280646FA
:1041F000884614461F46BDF828A000F29780450166
:104200000835284600F0CCFF00F00F0002380228E5
:1042100000F28F80002C00F08F803B787A7802EBE0
:104220000322BB7803EB0222FB7803EB0223002B73
:104230003CD0BAF1000F41D005F54079484600F076
:10424000AFFF422842D10422394605F5406001F013
:1042500041F84FEA1A2105F5805000F0CFFF5FFAD0
:104260008AF105F5885000F0C9FF05F5F85000F017
:1042700097FF800280B24FF0010A844228BF0446B3
:10428000DFF8C0B00AFA06FA304601F05DF80746DA
:10429000484600F085FF002851D0BBF8003013EAF3
:1042A0000A0F1AD0BC421AD9002034E0284600F088
:1042B00077FF4007BDD46FF00B002CE0284600F0DC
:1042C0006FFF4107B8D46FF00A0024E000F0EF0060
:1042D0002228B8D06FF006001DE0BC42D4D830468A
:1042E0004146224605F5807601F070F820213046DF
:1042F00000F084FF304600F053FF0028FAD105F5A6
:104300000075284600F04CFFC20606D5284610214D
:1043100000F074FF2046BDE8F88F0307F1D528466A
:10432000082100F06BFF6FF00C00F4E74FF0FF3056
:10433000F1E76FF00400EEE76FF00D00EBE76FF0D0
:104340000300E8E7580500202DE9F04F082804464F
:104350008A469146984685B000F2E88047010837C2
:10436000384600F01DFF00F00F02023A022A834691
:1043700000F2DF80B9F1000F00F0DE80714E36F8F8
:104380001420002A7AD1012107F54073A14000933F
:104390002046019100F0F9FF0546009800F000FF6B
:1043A000002800F0CC80684B01991A880A4202D09C
:1043B0001DB9284689E0002DEAD00BF0070003283C
:1043C00007F5807700F08480042859D0022840F057
:1043D000A68036F814308BBB082220460DEB020174
:1043E00001F021F84021384600F008FF384600F07F
:1043F000D7FE0028FAD19DF808309DF80C2088F8E7
:1044000000309DF8093088F801309DF80A3088F8AE
:1044100002309DF80B3088F803309DF80D3003EB27
:1044200002230E9A13809DF80E209DF80F3003EBA7
:10443000022326F814308022444B1A5536F81450C3
:1044400051464D4528BF4D4620462A4600F0EBFF19
:104450004021384600F0D2FE384600F0A1FE002888
:10446000FAD136F81430394A5B1B9BB226F8143067
:1044700013B1105D40F0010010559AE700259CE74C
:1044800036F81430002BD9D1204602A9022200F0C0
:10449000CAFF4021384600F0B1FE384600F080FEE9
:1044A0000028FAD19DF809309DF80820023B03EB63
:1044B000022340F2EA529BB2934226F81430BAD952
:1044C0002046FFF7C1FC6FF47A7005B0BDE8F08FAD
:1044D00036F81430002BB1D1204602A9062200F094
:1044E000A2FF4021384600F089FE384600F058FE11
:1044F0000028FAD19DF808309DF80C2088F800308B
:104500009DF8093088F801309DF80A3088F80230AB
:104510009DF80B3088F803309DF80D3087E7294669
:10452000204600F0ADFF26F8145091E74FF0FF3021
:10453000CBE76FF00400C8E76FF00D00C5E76FF040
:104540000300C2E764050020580500205C05002038
:104550000E4B82B09A6942F001029A619A6902F0A8
:1045600001020092009ADA6942F08052DA61DB6956
:10457000074A03F080530193019B536823F0E063E3
:1045800043F08063536002B0704700BF00100240E8
:104590000000014010B5044686B01022002102A898
:1045A00003F0E0FD2268154B9A4224D1144C4FF4DD
:1045B0004072A369134843F00803A361A36902A9E9
:1045C00003F008030093009B1223CDE90223032389
:1045D000059301F095FA0C4A536843F0E06343F009
:1045E00002035360E36943F40013E361E36903F4F6
:1045F00000130193019B06B010BD00BF00540040A2
:1046000000100240000C01400000014008B50268A3
:104610000A4B9A4210D10A4A4FF48071D369094873
:1046200023F40013D36101F047FBBDE808404FF4C9
:104630000071044801F040BB08BD00BF00540040B9
:1046400000100240000C014010B5044686B0102254
:10465000002102A803F086FD2268174B9A4228D158
:1046600003F5EC33DA69154842F48042DA61DA691D
:1046700002A902F480420092009A9A6942F008026C
:104680009A619B694FF4204203F008030193019B58
:104690000223CDE902230323059301F031FA4FF4FD
:1046A000804100230548CDE9021302A9049301F0DB
:1046B00027FA06B010BD00BF00380040000C0140D2
:1046C00010B504468AB01022002106A803F04AFD66
:1046D0002368304A93420BD12F4B9A6942F400620F
:1046E0009A619B6903F400630193019B0AB010BDBA
:1046F000B3F1804F25D103F50433DA69002442F089
:104700000102DA61DA69254802F001020292029A96
:104710009A6906A942F004029A619B69089403F021
:1047200004030393039B0123CDE9063401F0E8F968
:104730001C202246214601F04BF81C2001F07AF89B
:10474000D4E7174A934210D1134B1D20DA6942F087
:104750000202DA610022DB69114603F002030493CE
:10476000049B01F035F81D20E8E70E4A9342BDD1C5
:10477000094B1E20DA6942F00402DA610022DB698B
:10478000114603F004030593059B01F021F81E2058
:10479000D4E700BF002C0140001002400008014097
:1047A000000400400008004010B5044686B0102206
:1047B000002102A803F0D6FC22680D4B9A4215D1C5
:1047C00003F564439A690B4842F004029A619B69BD
:1047D0004FF4706203F004030193019B0223CDE9BF
:1047E0000223032302A9059301F08AF906B010BD44
:1047F000002C01400008014010B5044686B010228C
:10480000002102A803F0AEFC2268194B9A422DD178
:1048100003F558439A69174842F480429A619A69AD
:1048200002A902F480420092009A9A6942F00802BA
:104830009A619B69402203F008030193019B0223C4
:10484000CDE902230323059301F05AF900238021C7
:104850000848CDE9021302A9049301F051F9064A70
:10486000536843F0E06343F00403536006B010BDA7
:1048700000380140000C01400000014008B502F082
:10488000BBF9FEE7FEE7FEE7FEE7FEE7704770478D
:104890007047000010B5084C238801339BB2B3F574
:1048A0007A7F238003D3FDF735FC00232380BDE806
:1048B000104000F057BF00BF74050020014802F00F
:1048C00098BD00BFF81300201C22024B02481A605A
:1048D00002F08FBD480600202413002000000000D5
:1048E0002DE9F04F00250026A54A97B01368294608
:1048F00043F001031360A34BA3481D60A34BA44CDA
:104900001D60A44B1E60A44B1E60A44B1E60A44BF4
:104910001E6003F071F904219B4803F06DF9082132
:10492000994803F069F90C21974803F065F99D4A0D
:104930002946D3689C4843F01E03D36003F006FA6F
:104940000421994803F002FA636823F46E4323F0CC
:10495000EE0343F42A4343F0AA036360934B0696A5
:104960001A88934E032A81BF32881D80013232801B
:104970003788904A642F158840F02783002D40F037
:1049800034837F4A8C48136843F00103136002F0BC
:10499000FBFC002200238949CDE90A23C1E9002359
:1049A0008749CDE90C23C1E900238649CDE90E23CF
:1049B000C1E900238449CDE91023C1E900238349DB
:1049C000CDE91223C1E900238149CDE914230291E5
:1049D0008049CDE9082305917F49019504917F49DC
:1049E0000391029B53F8044B0293059B53F8045B1D
:1049F0000593049B53F8042B0493794B0792196891
:104A0000039B53F8040B0393FCF79CF9019E16AB30
:104A100003EBC608734B074619682846FCF792F962
:104A200001462046FCF784F8FBF7FEFC731CDBB262
:104A3000032B28BF002348E90C01DDE90AABDDE9BF
:104A40000C8901934246DDE90E454B4650465946D6
:104A5000FBF7B4FF22462B46002800F02182404697
:104A60004946FBF7ABFF002840F02A8222462B463E
:104A700050465946FBF7C0FF08B9A246AB46524C18
:104A80005246D4E900015B46FBF770FB16ABC4E964
:104A900000013946079803EBC606FCF749F8FBF717
:104AA000C3FC46E90601DDE91045DDE9128920462F
:104AB00042464B462946FBF781FFDDE91467324643
:104AC0003B46002800F0FF8140464946FBF776FF51
:104AD000002840F0088232463B4620462946FBF734
:104AE0008BFF08B934463D46384E2246D6E90001D0
:104AF0002B46FBF73BFB3C4BC6E900013B4EC3E9B1
:104B0000004522462B4620462946C6E900ABFBF766
:104B1000E3FC524604460D465B4650465946FBF7B9
:104B2000DBFC02460B4620462946FBF71FFB06F03E
:104B3000EFF904460D462E4B204FC3E90045D7E957
:104B40000023FBF759FF08B1C7E90045D6E9004546
:104B500029462046FBF770FF194F80EAE076A6EB66
:104B6000E076D7E90001FBF767FF0028B8BF4042B5
:104B7000864201DDC7E900451B4B124F3AE000BFFA
:104B800010E000E034060020B013002048060020AA
:104B900000080140E00D0020EC0700202C0B002055
:104BA000EC0D0020000C0140F81300208E090020BD
:104BB000C8050020300B002074120020C005002022
:104BC000D805002090090020E00500200006002004
:104BD00004080020A009002064060020500B0020DB
:104BE000A005002090050020F0050020F80D002011
:104BF00040060020D3E9004529462046FBF71CFF6C
:104C000080EAE076A6EBE076D7E90001FBF714FF37
:104C10000028B8BF4042864201DDC7E90045029B3B
:104C2000DFF8449353F8040CD9F80010FBF782FF27
:104C3000B54BDFF838831968059BC9F80000824638
:104C400053F8040CFCF77EF8D8F80010FBF772FF5D
:104C5000AE4F049B3968C8F80000064653F8040CB0
:104C6000FBF768FFAA4B38601968039B054653F8A9
:104C7000040CFCF767F8A74B1968FBF75BFF069974
:104C8000029AA44B42F8041C059A044642F8041CFC
:104C9000049A186042F8041C039A42F8041C9E4AC5
:104CA00002998A427FF49DAE50469C49FCF7FEF87B
:104CB0009A498246C9F800003046FCF7F7F8974950
:104CC0000646C8F800002846FCF7F0F8934938601B
:104CD00005462046FCF7EAF88E4B3146186004463C
:104CE0005046FBF727FF8E490746FBF721FFFCF7ED
:104CF000EFF980EAE076A6EBE0763046FBF7CEFFF0
:104D00004FF07E51FCF7DAF900B3322EC4BF012216
:104D1000844BDFF85C82C8BF1A70B8F80000D4BFBB
:104D20004FF07E59DFF80492FBF7B8FF7C49064646
:104D30003846FCF7C3F9002800F0D88031464846D1
:104D4000FBF7F8FEFCF7EAF9A8F800002146284630
:104D5000FBF7F0FE72490646FBF7EAFEFCF7B8F9EE
:104D600080EAE074A4EBE0742046FBF797FF4FF075
:104D70007E51FCF7A3F9E0B1322CC4BF0122694B8C
:104D8000694DC8BF1A702888D4BF4FF07E57674F4F
:104D9000FBF784FF624904463046FCF78FF9002890
:104DA00000F0A98021463846FBF7C4FEFCF7B6F9AF
:104DB00028805F490022D1E900015E4BFBF7B6FC79
:104DC0004FA3D3E90023FBF7B1FC06460F46DFF8FB
:104DD000A4815949C8E90067D1E900010022554B77
:104DE000FBF7A4FC46A3D3E90023FBF79FFC44A3F5
:104DF000D3E9002304460D46DFF87C914F49C9E909
:104E00000045D1E90001FBF791FC4D4BC3E90001DE
:104E10003BA3D3E900234B49D1E90001FBF786FC12
:104E2000494BC3E9000136A3D3E900234749D1E93F
:104E30000001FBF77BFC464B3246C3E900013B46D1
:104E400030463946FBF748FB224606462B460F46BE
:104E500020462946FBF740FB02460B4630463946C2
:104E6000FBF784F906F054F804460D46394B00224E
:104E7000C3E900450023FBF797FD374E00287DD09E
:104E8000DDE90834C6E900340022344B1A800122DF
:104E9000334B1A70334817B0BDE8F04F02F0A9BA8F
:104EA00050465946FBF78AFD00287FF4E8AD2246BC
:104EB0002B4640464946FBF79FFD00283FF4DDADF9
:104EC000C246CB46DBE520462946FBF777FD0028A6
:104ED0007FF40AAE32463B4640464946FBF78CFD1E
:104EE00000283FF4FFAD44464D46FDE549463046B7
:104EF000FBF71EFE26E739462046FBF719FE55E76D
:104F0000000000205C6F4740900500202C0B002023
:104F1000A0050020EC0D00208C0900200000C442F8
:104F20000000C844F00D00208C0900200000F04172
:104F3000E00500200080584000060020C005002049
:104F4000A8050020D8050020400B00209009002073
:104F5000F007002040060020D0050020C8050020F2
:104F60009405002074120020E00D0020EC070020C2
:104F7000B805002050060020980500202246D9E9F7
:104F800000012B46FBF7D2FB05F094FF00224C4BAF
:104F9000FBF7A2FA48A3D3E90023FBF7C7FB0446BB
:104FA0000D46D8E9000100220023C6E90045FBF7C1
:104FB00005FD00283FF468AF22462B4600204149FA
:104FC000FBF7D2F8C6E900015EE775B1012F0CD1FD
:104FD0003D4802F0D9F900233C4A3380136843F07E
:104FE000010313603A4B1F7054E71A88511C198053
:104FF000032A1CD8DFE802F002243F4C01220421DE
:10500000344800F0C7FE00220421324800F0C2FEFE
:105010000021314AD36823F00803D360636823F486
:10502000706343F4806363602C4802F097FD0021B5
:105030002B4802F01DFE0421294802F019FE29E741
:1050400001228021234800F0A5FE00228021214872
:1050500000F0A0FE234B08211A88234BDA621E4A77
:10506000D36823F00203D360636823F00F0343F097
:1050700004036360D8E7184A0421D36823F01003BF
:10508000D360636823F4704343F480436360CBE7E9
:10509000164B0C211A88144BDA620F4AD36823F09E
:1050A0000403D360636823F0F00343F040036360BC
:1050B000BAE700BFAFF300804AD8124DFB21094088
:1050C00000806640008076407412002010E000E00E
:1050D0009405002000080140000C0140B01300209E
:1050E000F8130020B8050020000400408C090020BF
:1050F0000120704708B503F00BF8162303604FF04A
:10510000FF3008BD08B503F003F816230360FEE77F
:1051100070B50E4614460025A54201DB204670BD41
:10512000AFF3008070550135F6E770B50E461446B2
:105130000025A54201DB204670BD705DAFF3008005
:105140000135F6E74FF0FF3070474FF40053002071
:105150004B60704701207047002070470B4B0246A0
:10516000196810B509B90A491960186809490A4C43
:105170000244091B8A4206D902F0CAFF0C230360CD
:105180004FF0FF3010BD1A60FCE700BF780500202B
:105190008014002000500020000400007047000030
:1051A00073B50546144CC5F30726E3689847636951
:1051B0009847636AC5F30740EDB20BB1A36A8BB998
:1051C000236A98473046236A98472846236A9847B7
:1051D000E36998470546A369984723699847284695
:1051E00002B070BD8DF8040003218DF805608DF8C4
:1051F000065001A89847EBE73C010020F7B50546AB
:10520000164C0F46E368984763699847A36A45F0D0
:105210000406C5F30740F6B2C5F3072583B9236A30
:1052200098472846236A98473046236A9847384665
:10523000236A9847A36998472369984703B0F0BD4C
:1052400004218DF804008DF805508DF806608DF866
:1052500007700DEB01009847ECE700BF3C01002010
:105260002DE9F34105461A4C0E46E3681746984768
:1052700063699847636AC5F30740C5F30728EDB231
:105280000BB1A36AB3B9236A98474046236A98478B
:105290002846236A98473744B74206D1A3699847FE
:1052A0002369984702B0BDE8F081E369984706F8A2
:1052B000010BF1E78DF80400032101A88DF80580AA
:1052C0008DF80650984739463046636A9847E5E7B7
:1052D0003C0100202DE9F34105461A4C8846E3685D
:1052E0001746984763699847A36A45F00406C5F3D3
:1052F0000740F6B2C5F30725B3B9236A9847284695
:10530000236A98473046236A98474744474506D161
:10531000A36998472369984702B0BDE8F081236AE2
:1053200018F8010B9847F1E78DF80400032101A854
:105330008DF805508DF80660984739464046A36AB7
:105340009847E5E73C010020F8B5002446010836FF
:1053500006F5005706F504563846FFF721FF05020B
:105360003046FFF71DFFADB20544ADB24DB1384632
:10537000FFF716FF04023046FFF712FFA4B2044401
:10538000A4B2AC42E8D12046F8BDF8B500244601ED
:10539000083606F5185706F51C563846FFF700FF85
:1053A00005023046FFF7FCFEADB20544ADB24DB18B
:1053B0003846FFF7F5FE04023046FFF7F1FEA4B2CF
:1053C0000444A4B2AC42E8D12046F8BD2DE9F8432C
:1053D000894614462AB385006F1CFF0007F5105854
:1053E0004046FFF7DDFE07F5145706463846FFF73F
:1053F000D7FE00EB062086B202353002224649462F
:1054000000EBC500FFF766FFA11940468CB2C1F35F
:105410000721FFF7F3FE3846E1B2BDE8F843FFF796
:10542000EDBEBDE8F8832DE9F843894614462AB35A
:1054300085006F1CFF0007F520584046FFF7B0FEBF
:1054400007F5245706463846FFF7AAFE00EB06206C
:1054500086B2033530022246494600EBC500FFF70D
:10546000FFFEA11940468CB2C1F30721FFF7C6FE2B
:105470003846E1B2BDE8F843FFF7C0BEBDE8F883A7
:10548000F8B54401083404F5205738460D46FFF7B7
:1054900087FE04F5245406462046FFF781FE2918AE
:1054A00001EB062138468DB2C1F30721FFF7A6FEB6
:1054B0002046E9B2BDE8F840FFF7A0BE704700788B
:1054C0007047017070470020704770477047704701
:1054D0007047704770470000054B00B121B9054A7D
:1054E0005A61054A9A617047C3E90501704700BFD8
:1054F0003C010020D3540008D5540008084B10B5D7
:105500001C881A46A40500D4FEE700B121B9054B5A
:10551000D361054B136210BDC3E90701FBE700BF70
:105520003C010020C7540008CB540008084B10B5BC
:105530001C881A46A40500D4FEE700B121B9054B2A
:105540005362054B936210BDC3E90901FBE700BF3D
:105550003C010020CD540008CF5400087FB506223E
:1055600004A94FF41060FFF77BFE04224FF4807013
:105570000DEB0201FFF774FE02A904224FF4A060B4
:10558000FFF76EFE042203A94FF47060FFF768FE78
:1055900080210020FFF732FE0020FFF701FE04A962
:1055A00006224FF41060FFF795FE04224FF480703E
:1055B0000DEB0201FFF78EFE02A904224FF4A0605A
:1055C000FFF788FE04224FF4706003A9FFF782FE04
:1055D00007B05DF804FBF8B505460C46FFF7BEFFC3
:1055E000BDB16E1E32460023073512F8011F0B4471
:1055F0005BB2102B29DCAA42F7D141F6087542F2C2
:105600000807284616F8011F2035FFF7F7FDBD42B1
:10561000F7D10CB90020F8BD651E2A4600230734D7
:1056200012F8011F0B445BB2102B0EDC9442F7D131
:1056300041F6086441F60876204615F8011F20342B
:10564000FFF7DCFDB442F7D1E4E74FF0FF30E2E7CB
:1056500010B50446014606224FF41060FFF73AFEEB
:1056600004224FF4807004F10E01FFF733FE042290
:105670004FF4A06004F10A01FFF72CFE04224FF45E
:105680007060A11DFFF726FE064BA27C1A70E27C1B
:105690005A70227D9A70627DDA7094F81921024B5B
:1056A0001A7010BD7D0500207C0500200C480D49B6
:1056B0000D4A002302E0D458C4500433C4188C426D
:1056C000F9D30A4A0A4C002301E013600432A242D3
:1056D000FBD3FFF763FD02F021FDFDF74BFB7047A5
:1056E00000000020440300205CBD000848030020A7
:1056F00080140020FEE7000038B50E4B05461878F0
:105700004FF47A73B3FBF0F30B4A1068B0FBF3F07D
:1057100000F0B0F8044658B90F2D09D802462946C2
:105720004FF0FF3000F054F82046044B1D6038BDA8
:105730000120FCE768010020380100206C010020F6
:10574000074A08B51368032043F01003136000F004
:105750002DF80020FFF7D0FFFEF7FAFE002008BD6D
:1057600000200240034A044B11681B780B4413606D
:10577000704700BF4814002068010020014B1868E2
:10578000704700BF4814002038B50446FFF7F6FF05
:105790000546631C1EBF044B1B78E418FFF7EEFFA1
:1057A000431BA342FAD338BD680100200749030216
:1057B000CA6803F4E06322F4E0621204120C13439B
:1057C00043F0BF6343F40033CB60704700ED00E06B
:1057D000164B30B5DC68C4F30224C4F10703251D61
:1057E000042B28BF0423062D4FF0FF3598BF00245B
:1057F00005FA03F388BF033C21EA0303A34005FA3B
:1058000004F422EA0402002843EA0203ACBF00F1D8
:105810006040074A4FEA0313DBB2ABBF00F56140BB
:1058200000F00F0080F80033135430BD00ED00E0AD
:1058300014ED00E0002808DB0123420900F01F00FE
:1058400003FA00F0014B43F82200704700E100E04A
:10585000BFF34F8F0549064BCA6802F4E062134359
:10586000CB60BFF34F8F00BFFDE700BF00ED00E04E
:105870000400FA050138B0F1807F0AD2F021064B0E
:10588000064A586082F823100020072298601A60A8
:1058900070470120704700BF10E000E000ED00E01D
:1058A000114AD36813F0100305D01049CB6943F0B7
:1058B0000203CB611023D268500706D50B4943F091
:1058C0000403CA6942F00102CA61074AD169C907E3
:1058D00008D50648C16941F00401C161D16921F0D0
:1058E0000101D161D36070470020024050140020B4
:1058F000064B186910F0800007D0054A5A6002F183
:1059000088325A601869C0F3C01070470020024006
:1059100023016745034A0020136943F080031361A4
:10592000704700BF00200240F8B50446FFF726FF8D
:10593000114D07462E46EB68D80712D4EB6899063E
:1059400044BF2023EB60F368DA0606D4F369DB0773
:1059500003D4F06810F0040007D0FFF7A1FF012086
:1059600003E0631CE7D00CB90320F8BDFFF706FF86
:10597000C01BA042DFD9F7E7002002402DE9F84F15
:10598000254E1F46337E0546012B8846914640D062
:1059900001234CF250303376FFF7C6FFA8BB012D30
:1059A00003D0022D0CBF022504254FF0000A5346F8
:1059B000DFF868B04FEA0A14C4F12001A4F1200214
:1059C00007FA01F129FA04F4F3610C4327FA02F211
:1059D0001443DBF81020A4B242F00102CBF81020EF
:1059E0004CF2503028F81A40FFF79EFFDBF81020E9
:1059F00022F00102CBF8102038B90AF1010A5FFA4F
:105A00008AF295424FF00003D4D800233376BDE8E4
:105A1000F88F0220FBE700BF501400200020024056
:105A20000022064BDA61064B1A6942F004021A6141
:105A30001A6942F040021A61704700BF50140020FA
:105A4000002002400022064BDA61064B1A6942F040
:105A500002021A6158611A6942F040021A617047E5
:105A600050140020002002402DE9F041224E05464E
:105A7000337E8846012B3DD00124347603684CF2F6
:105A80005030022B13D1FFF74FFF20B1012000232C
:105A90003376BDE8F081FFF7C3FF4CF25030FFF7DB
:105AA00043FF164A136923F004031361EFE7FFF77E
:105AB0003BFF0028EAD14FF0FF33C8F80030204602
:105AC000AF680E4CD5E9023203EB8223BB42DED92C
:105AD0003846FFF7B7FF4CF25030FFF725FF236938
