:020000040800F2
:100000000050002091560008314800083948000887
:100010003B4800083D4800083F4800080000000039
:10002000000000000000000000000000414800083F
:1000300043480008000000004548000849480008FF
:10004000D9560008D9560008D9560008D9560008D4
:10005000D9560008D9560008D9560008D9560008C4
:10006000D9560008D9560008D9560008D9560008B4
:10007000D9560008D9560008D9560008D9560008A4
:10008000D9560008D9560008D9560008D956000894
:10009000D9560008D9560008D9560008D956000884
:1000A000D9560008D9560008D9560008D956000874
:1000B000714800087D480008B1480008D95600087A
:1000C000D9560008D9560008D9560008D956000854
:1000D000D9560008D9560008D9560008D956000844
:1000E000D9560008D9560008D9560008000000006B
:1000F0000000000000000000000000000000000000
:0C01000000000000000000005FF808F1A3
:1001100010B5054C237833B9044B13B10448AFF341
:1001200000800123237010BD480300200000000060
:1001300064B5000808B5034B1BB103490348AFF38E
:10014000008008BD000000004C03002064B50008DA
:10015000034613F8012B002AFBD1181A0138704707
:1001600081F0004102E000BF83F0004330B54FEA68
:1001700041044FEA430594EA050F08BF90EA020FD5
:100180001FBF54EA000C55EA020C7FEA645C7FEA68
:10019000655C00F0E2804FEA5454D4EB5555B8BF8B
:1001A0006D420CDD2C4480EA020281EA030382EAFC
:1001B000000083EA010180EA020281EA0303362D8E
:1001C00088BF30BD11F0004F4FEA01314FF4801C61
:1001D0004CEA113102D0404261EB410113F0004F73
:1001E0004FEA03334CEA133302D0524263EB43032A
:1001F00094EA050F00F0A780A4F10104D5F1200EC8
:100200000DDB02FA0EFC22FA05F2801841F1000122
:1002100003FA0EF2801843FA05F359410EE0A5F1F6
:1002200020050EF1200E012A03FA0EFC28BF4CF027
:10023000020C43FA05F3C01851EBE37101F00045DD
:1002400007D54FF0000EDCF1000C7EEB00006EEBEA
:100250000101B1F5801F1BD3B1F5001F0CD3490874
:100260005FEA30004FEA3C0C04F101044FEA4452CB
:1002700012F5800F80F09A80BCF1004F08BF5FEA52
:10028000500C50F1000041EB045141EA050130BD32
:100290005FEA4C0C404141EB0101013C28BFB1F544
:1002A000801FE9D291F0000F04BF01460020B1FA8F
:1002B00081F308BF2033A3F10B03B3F120020CDA62
:1002C0000C3208DD02F1140CC2F10C0201FA0CF040
:1002D00021FA02F10CE002F11402D8BFC2F1200CA5
:1002E00001FA02F120FA0CFCDCBF41EA0C0190405B
:1002F000E41AA2BF01EB0451294330BD6FEA0404A4
:100300001F3C1CDA0C340EDC04F11404C4F120028E
:1003100020FA04F001FA02F340EA030021FA04F3A0
:1003200045EA030130BDC4F10C04C4F1200220FAF7
:1003300002F001FA04F340EA0300294630BD21FA35
:1003400004F0294630BD94F0000F83F4801306BFFB
:1003500081F480110134013D4EE77FEA645C18BFEF
:100360007FEA655C29D094EA050F08BF90EA020F86
:1003700005D054EA000C04BF1946104630BD91EA7E
:10038000030F1EBF0021002030BD5FEA545C05D181
:100390004000494128BF41F0004130BD14F58004C0
:1003A0003CBF01F5801130BD01F0004545F0FE4134
:1003B00041F470014FF0000030BD7FEA645C1ABF69
:1003C000194610467FEA655C1CBF0B46024650EAA0
:1003D000013406BF52EA033591EA030F41F40021CC
:1003E00030BD00BF90F0000F04BF0021704730B552
:1003F0004FF4806404F132044FF000054FF0000127
:1004000050E700BF90F0000F04BF0021704730B5E7
:100410004FF4806404F1320410F0004548BF4042BC
:100420004FF000013EE700BF42004FEAE2014FEA11
:1004300031014FEA02701FBF12F07F4393F07F4FEC
:1004400081F06051704732F07F4208BF704793F0EF
:100450007F4F04BF41F40021704730B54FF4607402
:1004600001F0004521F000411CE700BF50EA010205
:1004700008BF704730B54FF000050AE050EA0102AE
:1004800008BF704730B511F0004502D5404261EB1E
:1004900041014FF4806404F132045FEA915C3FF45F
:1004A000D8AE4FF003025FEADC0C18BF03325FEAFC
:1004B000DC0C18BF033202EBDC02C2F1200300FAAD
:1004C00003FC20FA02F001FA03FE40EA0E0021FAD2
:1004D00002F11444BDE600BF70B54FF0FF0C4CF4C0
:1004E000E06C1CEA11541DBF1CEA135594EA0C0F72
:1004F00095EA0C0F00F0DEF82C4481EA030621EAAD
:100500004C5123EA4C5350EA013518BF52EA0335E7
:1005100041F4801143F4801338D0A0FB02CE4FF099
:100520000005E1FB02E506F00042E0FB03E54FF0C9
:100530000006E1FB03569CF0000F18BF4EF0010EC1
:10054000A4F1FF04B6F5007F64F5407404D25FEABD
:100550004E0E6D4146EB060642EAC62141EA555170
:100560004FEAC52040EA5E504FEACE2EB4F1FD0CB2
:1005700088BFBCF5E06F1ED8BEF1004F08BF5FEA30
:10058000500E50F1000041EB045170BD06F00046E2
:1005900046EA010140EA020081EA0301B4EB5C048F
:1005A000C2BFD4EB0C0541EA045170BD41F4801187
:1005B0004FF0000E013C00F3AB8014F1360FDEBFAC
:1005C000002001F0004170BDC4F10004203C35DA88
:1005D0000C341BDC04F11404C4F1200500FA05F30B
:1005E00020FA04F001FA05F240EA020001F00042AC
:1005F00021F0004110EBD37021FA04F642EB060122
:100600005EEA430E08BF20EAD37070BDC4F10C044B
:10061000C4F1200500FA04F320FA05F001FA04F20F
:1006200040EA020001F0004110EBD37041F10001FB
:100630005EEA430E08BF20EAD37070BDC4F1200506
:1006400000FA05F24EEA020E20FA04F301FA05F26E
:1006500043EA020321FA04F001F0004121FA04F216
:1006600020EA020000EBD3705EEA430E08BF20EAE6
:10067000D37070BD94F0000F0FD101F00046400020
:1006800041EB010111F4801F08BF013CF7D041EAA2
:10069000060195F0000F18BF704703F000465200A6
:1006A00043EB030313F4801F08BF013DF7D043EA77
:1006B0000603704794EA0C0F0CEA135518BF95EA2D
:1006C0000C0F0CD050EA410618BF52EA4306D1D1B4
:1006D00081EA030101F000414FF0000070BD50EAD3
:1006E000410606BF1046194652EA430619D094EA5D
:1006F0000C0F02D150EA013613D195EA0C0F05D147
:1007000052EA03361CBF104619460AD181EA03019A
:1007100001F0004141F0FE4141F470014FF0000052
:1007200070BD41F0FE4141F4780170BD70B54FF0ED
:10073000FF0C4CF4E06C1CEA11541DBF1CEA13556D
:1007400094EA0C0F95EA0C0F00F0A7F8A4EB05044F
:1007500081EA030E52EA03354FEA013100F0888046
:100760004FEA03334FF0805545EA131343EA12630F
:100770004FEA022245EA111545EA10654FEA0026C4
:100780000EF000419D4208BF964244F1FD0404F57D
:10079000407402D25B084FEA3202B61A65EB0305D9
:1007A0005B084FEA32024FF480104FF4002CB6EB96
:1007B000020E75EB030E22BFB61A754640EA0C0016
:1007C0005B084FEA3202B6EB020E75EB030E22BF56
:1007D000B61A754640EA5C005B084FEA3202B6EB97
:1007E000020E75EB030E22BFB61A754640EA9C0056
:1007F0005B084FEA3202B6EB020E75EB030E22BF26
:10080000B61A754640EADC0055EA060E18D04FEAE3
:10081000051545EA16754FEA06164FEAC30343EA83
:1008200052734FEAC2025FEA1C1CC0D111F4801F50
:100830000BD141EA00014FF000004FF0004CB6E749
:1008400011F4801F04BF01430020B4F1FD0C88BFE8
:10085000BCF5E06F3FF6AFAEB5EB030C04BFB6EBF3
:10086000020C5FEA500C50F1000041EB045170BDE6
:100870000EF0004E4EEA113114EB5C04C2BFD4EB13
:100880000C0541EA045170BD41F480114FF0000E97
:10089000013C90E645EA060E8DE60CEA135594EA13
:1008A0000C0F08BF95EA0C0F3FF43BAF94EA0C0F16
:1008B0000AD150EA01347FF434AF95EA0C0F7FF48B
:1008C00025AF104619462CE795EA0C0F06D152EADF
:1008D00003353FF4FDAE1046194622E750EA4106C3
:1008E00018BF52EA43067FF4C5AE50EA41047FF4D4
:1008F0000DAF52EA43057FF4EBAE12E74FF0FF3C39
:1009000006E000BF4FF0010C02E000BF4FF0010C09
:100910004DF804CD4FEA410C7FEA6C5C4FEA430C82
:1009200018BF7FEA6C5C1BD001B050EA410C0CBFD1
:1009300052EA430C91EA030F02BF90EA020F002033
:10094000704710F1000F91EA030F58BF994208BF9A
:1009500090422CBFD8176FEAE37040F00100704757
:100960004FEA410C7FEA6C5C02D150EA013C07D1AE
:100970004FEA430C7FEA6C5CD6D152EA033CD3D0F9
:100980005DF8040B704700BF8446104662468C46F3
:100990001946634600E000BF01B5FFF7B7FF002826
:1009A00048BF10F1000F01BD4DF808EDFFF7F4FF4F
:1009B0000CBF012000205DF808FB00BF4DF808EDDA
:1009C000FFF7EAFF34BF012000205DF808FB00BFFD
:1009D0004DF808EDFFF7E0FF94BF012000205DF81F
:1009E00008FB00BF4DF808EDFFF7CEFF94BF0120D4
:1009F00000205DF808FB00BF4DF808EDFFF7C4FFCD
:100A000034BF012000205DF808FB00BF4FEA410C15
:100A10007FEA6C5C02D150EA013C0AD14FEA430CF8
:100A20007FEA6C5C02D152EA033C02D14FF0000035
:100A300070474FF0010070474FEA410212F5001273
:100A400015D211D56FF47873B3EB625212D94FEA15
:100A5000C12343F0004343EA505311F0004F23FAFF
:100A600002F018BF404270474FF00000704750EA54
:100A7000013005D111F0004008BF6FF00040704711
:100A80004FF00000704700BF4FEA4102B2F1E0436F
:100A900024BFB3F5001CDCF1FE5C0DD901F0004C65
:100AA0004FEAC0024CEA5070B2F1004F40EB8300B5
:100AB00008BF20F00100704711F0804F21D113F1E1
:100AC0003872BCBF01F00040704741F480114FEA1A
:100AD0005252C2F11802C2F1200C10FA0CF320FAA3
:100AE00002F018BF40F001004FEAC1234FEAD323C0
:100AF00003FA0CFC40EA0C0023FA02F34FEA43032A
:100B0000CCE77FEA625307D150EA01331EBF4FF0B2
:100B1000FE4040F44000704701F0004040F0FE40CD
:100B200040F40000704700BF80F0004002E000BFCA
:100B300081F0004142001FBF5FEA410392EA030FC8
:100B40007FEA226C7FEA236C6AD04FEA1262D2EB12
:100B50001363C1BFD218414048404140B8BF5B4217
:100B6000192B88BF704710F0004F40F4000020F0B0
:100B70007F4018BF404211F0004F41F4000121F0C6
:100B80007F4118BF494292EA030F3FD0A2F1010210
:100B900041FA03FC10EB0C00C3F1200301FA03F14E
:100BA00000F0004302D5494260EB4000B0F5000F71
:100BB00013D3B0F1807F06D340084FEA310102F130
:100BC0000102FE2A51D2B1F1004F40EBC25008BFE2
:100BD00020F0010040EA03007047490040EB0000AC
:100BE000013A28BFB0F5000FEDD2B0FA80FCACF1AD
:100BF000080CB2EB0C0200FA0CF0AABF00EBC250DA
:100C000052421843BCBFD0401843704792F0000FC7
:100C100081F4000106BF80F400000132013BB5E71A
:100C20004FEA41037FEA226C18BF7FEA236C21D090
:100C300092EA030F04D092F0000F08BF08467047F5
:100C400090EA010F1CBF0020704712F07F4F04D1C3
:100C5000400028BF40F00040704712F100723CBFD6
:100C600000F50000704700F0004343F0FE4040F400
:100C7000000070477FEA226216BF08467FEA2363BE
:100C80000146420206BF5FEA412390EA010F40F4A9
:100C9000800070474FF0000304E000BF10F00043F5
:100CA00048BF40425FEA000C08BF704743F09643DC
:100CB00001464FF000001CE050EA010208BF7047F7
:100CC0004FF000030AE000BF50EA010208BF70477E
:100CD00011F0004302D5404261EB41015FEA010C93
:100CE00002BF84460146002043F0B64308BFA3F18B
:100CF0008053A3F50003BCFA8CF2083AA3EBC2536D
:100D000010DB01FA02FC634400FA02FCC2F120028B
:100D1000BCF1004F20FA02F243EB020008BF20F0C2
:100D20000100704702F1200201FA02FCC2F1200228
:100D300050EA4C0021FA02F243EB020008BF20EA1D
:100D4000DC7070474FF0FF0C1CEAD0521EBF1CEA4B
:100D5000D15392EA0C0F93EA0C0F6FD01A4480EA39
:100D6000010C400218BF5FEA41211ED04FF0006322
:100D700043EA501043EA5111A0FB01310CF000404E
:100D8000B1F5000F3EBF490041EAD3715B0040EA74
:100D9000010062F17F02FD2A1DD8B3F1004F40EB44
:100DA000C25008BF20F00100704790F0000F0CF017
:100DB000004C08BF49024CEA502040EA51207F3ADB
:100DC000C2BFD2F1FF0340EAC250704740F40000B6
:100DD0004FF00003013A5DDC12F1190FDCBF00F0A7
:100DE00000407047C2F10002410021FA02F1C2F155
:100DF000200200FA02FC5FEA310040F1000053EAF1
:100E00004C0308BF20EADC70704792F0000F00F03E
:100E1000004C02BF400010F4000F013AF9D040EA44
:100E20000C0093F0000F01F0004C02BF490011F4D8
:100E3000000F013BF9D041EA0C018FE70CEAD153D6
:100E400092EA0C0F18BF93EA0C0F0AD030F0004C56
:100E500018BF31F0004CD8D180EA010000F000400A
:100E6000704790F0000F17BF90F0004F084691F0C8
:100E7000000F91F0004F14D092EA0C0F01D1420202
:100E80000FD193EA0C0F03D14B0218BF084608D1CB
:100E900080EA010000F0004040F0FE4040F4000015
:100EA000704740F0FE4040F4400070474FF0FF0CA8
:100EB0001CEAD0521EBF1CEAD15392EA0C0F93EAEF
:100EC0000C0F69D0A2EB030280EA010C49024FEA41
:100ED000402037D04FF0805343EA111143EA1013FA
:100EE0000CF000408B4238BF5B0042F17D024FF4B2
:100EF000000C8B4224BF5B1A40EA0C00B3EB510F8D
:100F000024BFA3EB510340EA5C00B3EB910F24BF75
:100F1000A3EB910340EA9C00B3EBD10F24BFA3EBFA
:100F2000D10340EADC001B0118BF5FEA1C1CE0D1C2
:100F3000FD2A3FF650AF8B4240EBC25008BF20F075
:100F4000010070470CF0004C4CEA50207F32C2BFC9
:100F5000D2F1FF0340EAC250704740F400004FF066
:100F60000003013A37E792F0000F00F0004C02BF97
:100F7000400010F4000F013AF9D040EA0C0093F061
:100F8000000F01F0004C02BF490011F4000F013BBB
:100F9000F9D041EA0C0195E70CEAD15392EA0C0F23
:100FA00008D142027FF47DAF93EA0C0F7FF470AF5B
:100FB000084676E793EA0C0F04D14B023FF44CAF9E
:100FC00008466EE730F0004C18BF31F0004CCAD133
:100FD00030F000427FF45CAF31F000437FF43CAF6F
:100FE0005FE700BF4FF0FF3C06E000BF4FF0010C91
:100FF00002E000BF4FF0010C4DF804CD4FEA400273
:101000004FEA41037FEA226C18BF7FEA236C11D0BC
:1010100001B052EA530C18BF90EA010F58BFB2EB6F
:10102000030088BFC81738BF6FEAE17018BF40F0EF
:10103000010070477FEA226C02D15FEA402C05D1A3
:101040007FEA236CE4D15FEA412CE1D05DF8040B28
:10105000704700BF844608466146FFE70FB5FFF7BB
:10106000C9FF002848BF10F1000F0FBD4DF808ED73
:10107000FFF7F4FF0CBF012000205DF808FB00BF64
:101080004DF808EDFFF7EAFF34BF012000205DF8BE
:1010900008FB00BF4DF808EDFFF7E0FF94BF01200B
:1010A00000205DF808FB00BF4DF808EDFFF7D2FF08
:1010B00094BF012000205DF808FB00BF4DF808ED4B
:1010C000FFF7C8FF34BF012000205DF808FB00BF18
:1010D0004FEA4002B2F1FE4F0FD34FF09E03B3EB45
:1010E00012620DD94FEA002343F0004310F0004F85
:1010F00023FA02F018BF404270474FF000007047DB
:1011000012F1610F01D1420205D110F0004008BF79
:101110006FF0004070474FF00000704742000ED261
:10112000B2F1FE4F0BD34FF09E03B3EB126209D422
:101130004FEA002343F0004323FA02F070474FF0D8
:101140000000704712F1610F01D1420202D14FF04D
:10115000FF3070474FF00000704700BF7BB972B995
:101160000029BEBF00204FF0004106E008BF002864
:101170001CBF6FF000414FF0FF3000F0A1B9ADF19E
:10118000080C6DE904CE002909DB002B1ADB00F006
:1011900035F8DDF804E0DDE9022304B07047404291
:1011A00061EB4101002B1BDB00F028F8DDF804E0C7
:1011B000DDE9022304B0404261EB4101524263EB9E
:1011C00043037047524263EB430300F017F8DDF826
:1011D00004E0DDE9022304B0404261EB41017047C5
:1011E000524263EB430300F009F8DDF804E0DDE967
:1011F000022304B0524263EB430370472DE9F047EA
:10120000089E0D4604468E46002B40F083808A429D
:10121000174647D9B2FA82F34BB1C3F1200105FA60
:1012200003FE20FA01F19F4041EA0E0E9C404FEA76
:101230001748BEFBF8FC1FFA87F908FB1CE20CFB01
:1012400009F0210C41EA024290420AD9BA180CF185
:10125000FF3180F01881904240F21581ACF1020C10
:101260003A44121AB2FBF8F008FB102200FB09F115
:10127000A4B244EA0244A14209D93C1900F1FF3268
:1012800080F00381A14240F2008102383C44641A9C
:10129000002140EA0C401EB10022DC40C6E90042B9
:1012A000BDE8F08702B9FFDEB2FA82F3002B4FD11E
:1012B0008D1A01214FEA124E1FFA82F8B5FBFEFC8F
:1012C0000EFB1C5508FB0CF0220C42EA0545A84217
:1012D00007D97D190CF1FF3202D2A84200F2E98051
:1012E00094462D1AB5FBFEF00EFB105508FB00F8D6
:1012F000A4B244EA0544A04507D93C1900F1FF32E5
:1013000002D2A04500F2D9801046A4EB080440EABE
:101310000C40C0E78B4208D9002E00F0B1800021BC
:10132000C6E900050846BDE8F087B3FA83F1002955
:101330004BD1AB4202D3824200F2B980841A65EBF2
:10134000030301209E46002EAAD0C6E9004EA7E75F
:101350009F40C3F12002D1404FEA174EB1FBFEF08F
:101360001FFA87F80EFB101124FA02F29D4000FBD1
:1013700008FC2A43150C45EA0145AC4504FA03F480
:1013800009D97D1900F1FF3180F08F80AC4540F222
:101390008C8002383D44A5EB0C05B5FBFEF10EFB3D
:1013A000115C01FB08F995B245EA0C45A94507D93E
:1013B0007D1901F1FF3274D2A94572D902393D4439
:1013C000A5EB090541EA004178E7C1F120078B4010
:1013D00022FA07FC4CEA030C25FA07F44FEA1C4EEC
:1013E000B4FBFEF91FFA8CF80EFB194420FA07F340
:1013F00009FB08FA8D401D432B0C43EA0444A24527
:1014000002FA01F200FA01F309D91CEB040409F114
:10141000FF3048D2A24546D9A9F102096444A4EBA1
:101420000A04B4FBFEF00EFB104400FB08FAADB258
:1014300045EA0444A24508D91CEB040400F1FF3539
:101440002DD2A2452BD90238644440EA0940A0FBC2
:101450000289A4EB0A044C45C6464D4619D316D062
:101460005EB1B3EB0E0264EB050404FA07F722FA4F
:1014700001F31F43CC40C6E900740021BDE8F087AA
:10148000314630460CE78C46EBE61046FFE6434516
:10149000E6D2B8EB020E69EB0C050138E0E728460E
:1014A000D3E711468CE78146B9E7084673E708465B
:1014B00049E7ACF1020C3D4413E702383C4424E711
:1014C000704700BF7FB501238DF817104FF48031AE
:1014D000CDE901310DF11701024600910348EC21DD
:1014E00004F0ECFE07B05DF804FB00BFB41200206E
:1014F0007FB500234FF480318DF817300123CDE9FB
:1015000001310DF11701024600910448EC2104F06D
:1015100065FF9DF8170007B05DF804FBB4120020CA
:101520001FB5024602234FF480300091CDE901300F
:10153000EC210123024804F051FF05B05DF804FBE3
:10154000B41200201FB5024602234FF480300091F0
:10155000CDE90130EC210123024804F03FFF05B042
:101560005DF804FBB41200207FB502234FF48031F4
:10157000CDE9013105AB02460093EC210123064879
:1015800004F02CFF9DF814009DF8153043EA00206C
:1015900007B05DF804FB00BFB41200207FB5032341
:1015A0004FF48031CDE9013105AB02460093EC21C7
:1015B0000123084804F012FF9DF815309DF814002F
:1015C0001B0243EA00439DF81600184307B05DF87C
:1015D00004FB00BFB4120020FA2010B5FFF7DEFFB5
:1015E000B0F5000F37D0001104461C4900280A88C6
:1015F000B8BFC41D0028B8BF0F30C2EB2010404355
:101600004FEA4203C3EBE404B1F90230B1F904201C
:1016100048BF00F6FF70634300135043002BB8BF70
:1016200003F2FF730028B8BF00F57F500C4AB8BF23
:101630003F30DB1203EBA033136003EB830313F1A2
:10164000800048BF03F27F100012FFF727FB054917
:10165000FFF72CFC10BD0448FCE700BF0C0600207F
:10166000E40D00200000C8420000C07F2DE9F74FC4
:10167000FFF7B2FFF720FFF791FF864B864E1A68FF
:101680008646B2F5FA374FEAE273A7FB071243F139
:10169000FF3C07FB0CF3CDE90012019A02EB430378
:1016A000B6F90820019302FB0CF1D31707FB0311D5
:1016B000A2FB07230B441903019841EA12514FEA98
:1016C0000239B6F90A2002FB00FA0098D31700FB92
:1016D00003AAA2FB00235344002A73F1000802DA94
:1016E000FF3243F100034FEA122A4AEA036AF28802
:1016F0004FEA232B1AEB09004BEB010B0030A0FB48
:1017000002014BF5004B02FB0B11002871F10003A5
:1017100003DA10F1FF3041F101014A10CB1752EA10
:10172000030100F0B480B6F910A0019900980AFBFB
:1017300001F900994FEAEA7B01FB0B91AAFB0089B2
:10174000B6F90E00894400FB0CFCC11707FB01CC65
:10175000A0FB070161444FEA414C4CEAD03C4704EE
:10176000002017EB08074CEB090CC01940F6354771
:101770004FEA2E1ECEF5801E4FEAEE79B6F90C80A8
:101780004FEAC97A4FEACE714AEA5E0A4FEAC80EBA
:101790004EEB0C0C081AA0FB07016AEB0C0A07FBC6
:1017A0000A11FFF7DBFC002871F100028046894630
:1017B0000B4606DA41F6FF70002318EB000041EB00
:1017C0000303B6F916205913400B40EAC34002FB4D
:1017D00001F7A2FB00ABD31700FB03770AFB01F173
:1017E000BB4400FB0B13AAFB000119440B46002865
:1017F00073F10001024606DA6FF07E4142184FF0A5
:10180000000141EB0303B6F914A0510E0AFB09F7DE
:1018100041EAC31111EB08014FEA63604FEAEA7B2A
:1018200008FB0B7340EB0900AAFB08899944B8F147
:10183000000F79F1000306DA184B18EB03084FF09C
:10184000000349EB03094FEAD84343EA4933CC1874
:101850004FEAE94240EB0205002C75F1000302DA81
:10186000FF3445F100051022230A43EA0560B6F96A
:1018700012302912C3FB0201FEF700FE0022084BC2
:10188000FEF72AFEFFF700F903B0BDE8F08F002055
:10189000FAE700BFE40D00200C060020FFFF070060
:1018A0000000703F10B5FFF797FEFD20FFF75CFECC
:1018B000B0F5004F56D02C4A2C4BB2F91E101B68C5
:1018C0000905C1EB8031B2F92000A3F5963303FB83
:1018D0001010117F10F5804044BF00F5FF407F30AD
:1018E000594392F9224048BF01F2FF7163434FEA26
:1018F000E12148BF03F2FF3301F500419B124B4346
:1019000048BF03F2FF33B2F91A109B1203F500131C
:101910004B4313F5005344BF03F57F533F339B13F1
:10192000C013584303460028BCBF00F5FF437F3374
:10193000DB135B43127E48BF7F33DB11534348BF49
:101940000F33A0EB231020EAE070B0F1C85FA8BF0E
:101950004FF0C8500013FFF79DF94FF06A51FFF7A1
:10196000F1F910BD0248FCE70C060020E40D002050
:101970000000C07FD02038B5FFF7BAFD602840F0E6
:10198000B180B621E020FFF79DFDF320FFF7B0FD09
:10199000C307FAD4544C88202146FFF7C1FDA11C8F
:1019A0008A20FFF7CFFD211D8C20FFF7CBFDA11D65
:1019B0008E20FFF7B5FD04F108019020FFF7C2FD6E
:1019C00004F10A019220FFF7BDFD04F10C019420FF
:1019D000FFF7B8FD04F10E019620FFF7B3FD04F107
:1019E00010019820FFF7AEFD04F112019A20FFF7D5
:1019F000A9FD04F114019C20FFF7A4FD04F11601D8
:101A00009E20FFF79FFDA120FFF772FD04F11A0150
:101A10002076E120FFF796FDE320FFF769FD2077B0
:101A2000E420FFF765FD0546E520FFF761FD00F0C6
:101A30000F0343EA0510E083E620FFF759FD054652
:101A4000E520FFF755FDC0F3071343EA0510208496
:101A5000E720FFF74DFD84F82200F520FFF748FD51
:101A600000F01F0141F0A001F520FFF72BFDF5204C
:101A7000FFF73EFD00F0E30141F00801F520FFF71C
:101A800021FDF420FFF734FD00F01F0141F060015B
:101A9000F420FFF717FDF420FFF72AFD00F0E30123
:101AA00041F00C01F420FFF70DFDF220FFF720FDBF
:101AB00000F0F80141F00301F220FFF703FDF420EC
:101AC000FFF716FD0146F420FFF7FCFCF420FFF7BA
:101AD0000FFDBDE8384000F0FC0141F00301F420A7
:101AE000FFF7F0BC38BD00BF0C06002008B504228B
:101AF0004FF47060084903F0DFFB04224FF4A0604C
:101B0000064903F0D9FBBDE8084004224FF4807079
:101B1000034903F0D1BB00BF6C0400207004002017
:101B20006803002008B58021002003F059FB002045
:101B300003F028FBFFF7DAFFBDE8084006224FF468
:101B40001060014903F0B8BBF80D002008B58021F2
:101B5000002003F045FB002003F014FBBDE8084023
:101B600006224FF41060014903F0A6BBF80D0020D7
:101B700070B5094B094E0A4C1E600A4E0A4D0028EA
:101B800008BF3046002918BF0C46084E2C60306054
:101B900002B11A6070BD00BF0C0000204D1B000890
:101BA000251B0008ED1A0008100000200800002086
:101BB00007B5062269464FF4106003F043FB204B43
:101BC000204A1B681A60204A1268110E1971110C04
:101BD0005971110A9971DA7100214FF40002C3E9B9
:101BE00002211A4AC3E904111078996118775078D4
:101BF000587790789877D078D8771079527983F899
:101C0000200083F8212003F12C0003F1220202F8C6
:101C1000011B8242FBD1002003F16C0102F8010B91
:101C20008A42FBD1002003F1EC0102F8010B914242
:101C3000FBD1074AC3F8EC2003B05DF804FB00BFFA
:101C40000C0E002001010600000E0020F80D0020FF
:101C5000638253631FB5FFF7ABFF2D4B002219685A
:101C60002C4B8A72C1F8F03040F20713A1F8F4301F
:101C7000294BCA72187881F8F600587881F8F70075
:101C8000987881F8F800D87881F8F90018795B79AC
:101C900081F8FA0081F8FB3040F23243A1F8FC30C1
:101CA0001E4B187881F8FE00587881F8FF0098786C
:101CB000DB7881F8000181F8013140F23643A1F868
:101CC0000231174B187881F80401587881F8050122
:101CD000987881F80601DB7801F5097081F8073101
:101CE000FF2381F8083101F2091303F8012B834225
:101CF000FBD14FF0FF33039343230A4800934FF483
:101D0000097203AB007802F049FA05B05DF804FBF4
:101D10000C0E00203501043DF80D00206C0400205D
:101D2000080E0020100E00202DE9F04FA14D8BB0C1
:101D3000287803F01CFB024618B900200BB0BDE860
:101D4000F08F0DF11E039C4C0093216808AB28789E
:101D500002F0D4FABDF81E30432B40F028812168F0
:101D6000964B0C7F1A789442E7D14C7F5A78944274
:101D7000E3D18C7F9A789442DFD1CC7FDA78944299
:101D8000DBD191F820401A799442D6D191F82120E4
:101D90005B799A42D1D18A4A9DF82090177856787B
:101DA0009578D47847EA06032B432343029220D048
:101DB0004F450BD19DF82130B34207D19DF8223019
:101DC000AB4203D19DF82330A34212D07D4B1C7847
:101DD0004C45B2D19DF821505C78A542ADD19DF81B
:101DE00022509C78A542A8D19DF82340DB789C42E4
:101DF000A3D180B201EB000A00209DF8212001F15F
:101E0000F00303929DF822206E4904929DF823204E
:101E10006D4C6E4D6E4E6F4F0592534501D340B2DF
:101E20008CE793F800C0BCF1350F39D013D8BCF162
:101E3000060F08D8BCF1060F08D8DFE80CF02F34E5
:101E4000074607075B00BCF1330F66D003F1020CB5
:101E50005B786344E1E7BCF1E10F00F08C8018D8B7
:101E6000BCF1360F6DD0BCF1E00FEFD193F802E07A
:101E700093F801C084F800E093F803E084F801E0EF
:101E800093F804E084F802E093F805E084F803E0B6
:101E90002DE0BCF1FF0FD9D15346BEE70133BCE7BB
:101EA00098780333B9E793F802C087F800C093F835
:101EB00003C087F801C093F804C087F802C093F804
:101EC00005C087F803C00633A7E793F802E093F84C
:101ED00001C086F800E093F803E086F801E093F88B
:101EE00004E086F802E093F805E086F803E0634436
:101EF000023392E793F802E093F801C085F800E01E
:101F000093F803E085F801E093F804E085F802E037
:101F100093F805E085F803E0E9E793F802C02E4A5C
:101F2000C2F800C093F803E00EEB0C2C93F804E029
:101F30000EEB0C2E93F805C00CEB0E2CC2F800C073
:101F4000C1E793F802C0029A82F800C093F803C078
:101F500081F8009082F801C093F804C082F802C0B2
:101F600093F805C082F803C0039A4A70049A8A70F5
:101F7000059ACA70A7E79A1C964693F801C0C3F168
:101F8000FF2303F57F03DFF85480FE330EEB030BD2
:101F9000DC4507DC13464FF0000E104A634402F89C
:101FA0000CE03AE71EF801BB08F801BBEEE70020A1
:101FB00035E700BF100E00200C0E0020F80D0020A9
:101FC000080E0020040E002074040020640300208A
:101FD0006803002070040020140000206C0300201F
:101FE00037B54FF4D85003F0CDF8032105464FF430
:101FF000D85003F0F5F841F288330E4800931122CF
:102000000D4B0E49007802F0C9F8044629464FF4FA
:10201000D85003F0E5F80D340AD0FFF71BFE084B4B
:1020200019681A68521A012AFBD9002003B030BD82
:102030000120FBE7100E00206C04002080B5000892
:102040008004002000230A21034A1360034A116020
:10205000034A1370704700BF80040020180000205E
:102060007C040020002373B5244C062206460D464E
:102070004FF410602146019303F0E4F8627823786E
:102080001343A2781343E27813432279134362790E
:1020900013430DD108226270DC222146A2704FF456
:1020A000106006222370E3702371637103F004F95A
:1020B000134B20791E70134BE1781D60124B62792F
:1020C0000C182344414013444A4013440F4A4FF430
:1020D0007060136004220DEB020103F0EDF804229E
:1020E0004FF480700DEB020103F0E6F8FFF7AAFF52
:1020F0000022074B1A7002B070BD00BFF80D00201F
:10210000100E00200C0E002078563412000E002015
:102110007D040020024A136801331360704700BF3A
:1021200080040020044B1A7802705A7842709A7822
:102130008270DB78C37070476C040020044B1A78FF
:1021400002705A7842709A788270DB78C370704758
:1021500068030020044B1A7802705A7842709A780B
:102160008270DB78C370704774040020054A431EF8
:10217000FE30117803F8011F12F8011B09B18342E8
:10218000F7D170476C030020044B1A7802705A781C
:1021900042709A788270DB78C370704770040020B8
:1021A00000F00F00092894BF30303730704700002E
:1021B0002DE9F04385B0FFF7FBFC0023694A6A482C
:1021C000137053709370D370684A13705370937088
:1021D000D370674B1968674BC1F8F03040F20713B2
:1021E000A1F8F430644B1A7893F8038081F8F62054
:1021F0005A781F795E7981F8F7209A780C23A1F834
:10220000FC30122381F8F82081F8F98081F8FA7007
:1022100081F8FB60A3F1120292B2845C5D1CADB246
:1022200001EB0309002C40F093804FEA1810FFF7F0
:10223000B7FF89F8EC004046FFF7B2FF0D4485F880
:10224000EC003809FFF7ACFF9D1CADB20D4485F8DA
:10225000EC003846FFF7A4FFDD1CADB20D4485F855
:10226000EC003009FFF79CFF1D1DADB20D4485F851
:10227000EC003046FFF794FF5D1DADB20D4485F8CC
:10228000EC00981D80B2D51D451B06320D4485F823
:10229000EC203722084480F8EC200820DA1D92B2A6
:1022A0000A4482F8EC001A18012092B20A4482F81B
:1022B000EC00032003F1090292B20A4482F8EC0018
:1022C000062003F10A0292B20A4482F8EC000F20C1
:1022D00003F10B0292B20A4482F8EC003A2003F1B7
:1022E0000C0292B20A4482F8EC003B2003F10D028A
:1022F00092B20A4482F8EC00E02003F10E0292B29E
:102300000A4482F8EC00E12003F10F0292B20A4481
:1023100082F8EC00FF2003F1110210339BB20B4452
:1023200092B283F8EC0002F1EC030B44B2F59C7F0F
:1023300012D34FF0FF3303934323104800934FF41D
:10234000097203AB007801F029FF05B0BDE8F08306
:102350002B4689F8EC405DE7013203F8014B92B25D
:10236000E4E700BF080E002000000020040E00205B
:102370000C0E00203501013DF80D0020100E00204C
:102380002DE9F04385B0FFF713FC924B92491B787F
:10239000033B012B00F2108100220B689A72DA7263
:1023A0008E4A10781873507858739078D278987352
:1023B000DA738B4B1A788DF80C205A788DF80D2033
:1023C0009A78DB788DF80E208DF80F300968854BF0
:1023D000C1F8F03040F20713A1F8F430824B1A78BC
:1023E000DF7881F8F6205A781E7993F8058081F815
:1023F000F7209A789DF80F3081F8F820FF2B81F8AC
:10240000F97081F8FA6081F8FB8040F0D98040F2E1
:102410003243A1F8FC30714B1A7881F8FE205A78CB
:1024200081F8FF209A78DB7881F8002181F801316A
:1024300040F23643A1F80231694B1A7881F8042141
:102440005A7881F805219A78DB7881F806211C22D8
:1024500081F807310C208B1883F8EC00931C0132B3
:102460008818002280F8EC20604810F8015B5C1CA2
:10247000A4B201EB0309002D40F0A4803809FFF756
:102480008FFE89F8EC003846FFF78AFE0C4484F88A
:10249000EC003009FFF784FE9C1CA4B20C4484F8C5
:1024A000EC003046FFF77CFEDC1CA4B20C4484F840
:1024B000EC004FEA1810FFF773FE1C1DA4B20C4489
:1024C00084F8EC004046FFF76BFE5C1DA4B20C44A0
:1024D00084F8EC00981D80B2D41D041B06320C4415
:1024E00084F8EC203722084480F8EC200A20DA1D1A
:1024F00092B20A4482F8EC00012003F1080292B281
:102500000A4482F8EC00032003F1090292B20A4463
:1025100082F8EC00062003F10A0292B20A4482F823
:10252000EC000F2003F10B0292B20A4482F8EC0097
:102530003A2003F10C0292B20A4482F8EC003B20EC
:1025400003F10D0292B20A4482F8EC001F2003F15D
:102550000E0292B20A4482F8EC00212003F10F022D
:1025600092B20A4482F8EC00E02003F1100292B229
:102570000A4482F8EC00E12003F1110292B20A440D
:1025800082F8EC00FF2003F1120292B20A441333E6
:1025900082F8EC009BB201F1EC02B3F59C7F16DBF4
:1025A0004323134800934FF4097203AB007801F002
:1025B000F5FD05B0BDE8F0834FF0FF33039305E769
:1025C000102247E7234689F8EC5001324DE7D554F5
:1025D0000133E2E77D0400200C0E00206C04002093
:1025E000080E00203501033DF80D002000000020FA
:1025F000100E002070B51C4C94F90030012B1DDC2E
:102600001A4D1B4E2A683168914212D2194B93F928
:102610000030022B0FD0042B0DD0012B01D1FFF77E
:10262000C7FD00232B602B680A3333602378013306
:102630002370012010E0FFF7A3FEF2E70D4B93F9A2
:1026400000201C46022A08D0042A06D0012A09D1FB
:1026500000201870FFF7F6FC70BDFFF7A9FD012000
:102660002070F7E70120F5E77C04002080040020BB
:10267000180000207D04002038B5524C94F9003039
:10268000062B00F09C80504D2878400100F54270E8
:1026900002F078FD222805D0002344220221287868
:1026A00001F0EAFBFFF740FB94F90030C5B2042BC0
:1026B00031D8DFE803F0030E233D5A000022434BDC
:1026C0001A705A709A70DA70FFF772FD012020704C
:1026D00038BD022D0ED13E4B1A683C4B117C19704F
:1026E000517C5970917CD27C9970DA70FFF748FE6A
:1026F000257010E0BDE83840FFF77CBF052D12D1F2
:10270000FFF76EFC054640B1324B1B689847FFF758
:1027100099FC032323700120DAE7FFF793FC2E4B8B
:102720001B689847E4E7062DE4D1FFF78BFCCDE763
:102730002A4B1B685A1C40D0294A1268B2EB530F2F
:102740003BD9224A274B11781970517859709178EA
:10275000D2789970DA70244A136801331360FFF756
:102760000FFEFFF76FFC0420B1E7052D1FD10022FB
:102770001E4B1A701B4A154B1078197888420BD1E2
:1027800050785978884207D190789978884203D157
:10279000D278DB789A4208D0154B1B689847032003
:1027A000FFF750FC0323237092E70420F8E7062D7F
:1027B000A0D1FFF747FC01232370042088E7052000
:1027C00086E700BF7D040020100E00206C0400206E
:1027D0000C0E0020080000200C0000201400002037
:1027E0008004002078040020000E00207C040020DB
:1027F000100000200122014B1A7070474C05002088
:102800007047000000224FF48051014803F0B4BA31
:10281000000C014001224FF48051014803F0ACBA92
:10282000000C01400A464FF0FF330146014804F016
:102830006ABC00BF1412002007B501210DF107008A
:10284000FFF7F0FF9DF8070003B05DF804FB000000
:102850000A464FF0FF330146014804F0B8BA00BF02
:102860001412002007B501218DF807000DF10700B3
:10287000FFF7EEFF03B05DF804FB000008B50A485F
:102880000A4A0B4BC0E9002300234FF48042C0E901
:102890000233C0E90423C0E90633036203F04CFCB1
:1028A00008B172B6FEE708BDB41200200054004023
:1028B000A0860100000000007D4BF0B51A6803F10E
:1028C000236303F5673376339A4289B06DD10128CB
:1028D0007FD0784BC8221C88774BA4B21C80774BE2
:1028E00000211D88764BADB21D80764B76481E8840
:1028F000764BB6B21E80764B1F88764BBFB21F80D8
:1029000005F02AFC2B462246CDE9006772496E4845
:1029100006F08AF84FF47A73C8226B496F4805F0C5
:102920003DFB6F4BC8221C686E4B00211C606E4B38
:1029300065481E686D4B1E6005F00EFC2046FDF7D5
:1029400073FD044630460D46FDF76EFD2246CDE987
:1029500000012B4666495C4806F066F84FF47A732E
:10296000C82259495D4805F019FB624B624C1B684F
:1029700000215A1C08BF614B4FF0C802524814BFD7
:102980002360236005F0E8FB2068FDF74DFD02465B
:102990000B464D485A4906F047F84FF47A73C8225F
:1029A00049494E4805F0FAFA2DE090B949F64043FE
:1029B000414A1380454A1380414A1380454A138097
:1029C0004D4B4E4A1A604FF07E53464A1360474AB9
:1029D00013600023CDE9033301233549494CCDE988
:1029E0000613237002F076FF20700028FAD103A9A5
:1029F00004A803F02BF840B10123237002F07CFF00
:102A000020700028FAD109B0F0BD012326A7D7E92C
:102A10000067274D237032463B462946032002F0CB
:102A20009FFF20700028F6D1254B224F1988274B95
:102A30001D88214B1E88274B46EA01461A88012330
:102A400045EA0245237032462B463946032002F000
:102A500087FF20700028F6D10123224E204D2370DD
:102A6000002329460220326802F07AFF20700028F5
:102A7000F6D101231D4E1C4D237000232946022050
:102A8000326802F06DFF20700028F6D101231A4E43
:102A9000184D2370002329460220326802F060FF9F
:102AA00020700028F6D1A7E77698341200000000C5
:102AB00000FC000810FC0008EC05002012FC0008D7
:102AC000B405002014FC0008840400208C090020B8
:102AD00016FC0008B805002092B500086413002019
:102AE00018FC00089005002020FC0008A00500202C
:102AF000BDB5000824FC0008340B00200000A041F4
:102B0000D7B50008401400202DE9F04104460E46D8
:102B10001746984642F68822002301210220C0B0C1
:102B200001F0AAF90228054645D1214642F2437236
:102B300001F034FA0128044607D0284601F05EF976
:102B4000FE24204640B0BDE8F0814046FDF76CFC15
:102B50003246CDE900013B46184903A805F064FF61
:102B6000174B03A820938DF88440FDF7F1FA00235A
:102B7000C4B203A90DF18D008DF88540ADF8863003
:102B800022938DF88C3005F06FFF0D34E4B22246AD
:102B9000022020A901F078FA002804DC022001F0CC
:102BA0002DF9FD24CDE7241A14F0FF04EFD1022003
:102BB00001F024F9C5E7FF24C3E700BFE4B500082E
:102BC0005A425844F7B53349334802F077FC334949
:102BD000334802F085FC3349334802F099FC6B46D8
:102BE000324A334D1068516840F2E93403C36946F4
:102BF000084602F0E2FC06224FF410602D4902F074
:102C00005BFB00202C49FFF72DFA2C492C4A084683
:102C1000FEF7AEFF2E462B4F2B780BB9013C0ED1A1
:102C20003378ABB9BFF34F8F2749284BCA6802F4FA
:102C3000E0621343CB60BFF34F8F00BFFDE7FFF7A8
:102C40001BFD642002F092FD384603F02CFDE3E703
:102C5000184CA01DFFF766FA04F10E00FFF76EFA9C
:102C600004F10A00FFF790FA04F11600FFF772FA78
:102C700004F11A00FFF77AFAA37E43B91449154804
:102C800005F0F2FE0B4802F0D5FC03B0F0BD04F1F4
:102C90001A01F4E71528000805280008652800082F
:102CA0003928000851280008252800083BB60008EC
:102CB0004C0500201C000020140E0020F527000801
:102CC000012800080813002000ED00E00400FA05C8
:102CD00030B60008D80C0020002110B590B01422A6
:102CE00001A809910B9105F037FA4FF480330922BE
:102CF0000224CDE906234FF40032CDE90D430892BA
:102D00004FF46013012206A80A920C920F9303F06D
:102D1000D1FC08B172B6FEE70F23CDE901344FF4C0
:102D200080630390CDE90430214601A803F09EFEA4
:102D300008B172B6FEE703F059FE10B010BD0000F6
:102D40002DE9F04FA64CB9B002F0ECFC606A636A62
:102D5000A449656AA44A666A13F0804F676A14BF83
:102D600013460B4615F0005FD4F824C014BF154677
:102D70000D4616F0805F14BF16460E4617F0806FA2
:102D800014BF17460F461CF0006F0CBF8C469446CC
:102D9000CDE9027C102712EA200238BF0A46CDE9AD
:102DA00000569249924805F03FFEFFF795FF3A46DC
:102DB000002130A805F0D0F9A369002243F02003D8
:102DC000A361A36941F2840103F020032093209BB7
:102DD000A369884843F00403A361A369012603F0B3
:102DE00004032193219BA369022543F00803A361F7
:102DF000A369002403F008032293229B02F0BCFF86
:102E0000002241F21E017C4802F0B6FF41F2840329
:102E1000784830A9CDE93036CDE9324502F062FE7E
:102E200041F21E03744830A9CDE93036CDE9324570
:102E30000C2602F057FE4FF4E1337048DFF8D0E182
:102E4000C0E90244C0E900E3C0E905640461C4616B
:102E500005F076F8054608B172B6FEE701463A4637
:102E600025A805F079F91C22294629A8CDE9235582
:102E700005F072F92022294630A805F06DF9604C62
:102E8000604B4FF05B0CC4E9003540F21F33C4E9DE
:102E9000033580232046C4E905C3A56004F07CFB0C
:102EA00008B172B6FEE74FF48053204625A925935A
:102EB00004F030FD08B172B6FEE7204604F098FB3E
:102EC00008B172B6FEE70821204604F0E9FB08B11C
:102ED00072B6FEE7CDE9237023A9204604F078FFFF
:102EE000024608B172B6FEE73023CDE92B00CDE9EA
:102EF0002930CDE92D002F9029A9204604F02AFC85
:102F000008B172B6FEE722682046936929A943F00A
:102F100008039361042204F01DFC08B172B6FEE7B9
:102F200022682046936929A943F40063936108222B
:102F300004F010FC08B172B6FEE73246204629A91B
:102F400004F008FC08B172B6FEE722682C48D36989
:102F500030A943F40063D36100234FF40052CDE95C
:102F60003033CDE9323334933592379304F05EFF3A
:102F7000054608B172B6FEE70626214801F0EEFBD1
:102F80001022294630A805F0E7F81F4C1F4B4FF0E0
:102F90008008C4E900364FF6FF732046CDE9295575
:102FA000C4E90335A560C4F8188004F0F5FA08B147
:102FB00072B6FEE74FF48057204630A9309704F0F0
:102FC000A9FC08B172B6FEE7202329A9CDE9293072
:102FD000204604F0FDFE0546E0B172B6FEE700BFF4
:102FE0000010024048B6000844B600084BB600087E
:102FF0008404002000080140000C014064130020FC
:10300000AC130020002C01406C120020000800408E
:10301000003801400146102225A805F09DF8142231
:10302000294629A805F098F81C22294630A8694CA1
:10303000CDE9235505F090F8674B2046C4E90035EB
:1030400049F64043A560C4E90335C4F8188004F08C
:10305000A3FA08B172B6FEE7204625A9259704F029
:1030600059FC08B172B6FEE7204604F0C1FA08B177
:1030700072B6FEE70821204604F012FB08B172B6D2
:10308000FEE7CDE9296029A9204604F029FD08B111
:1030900072B6FEE7302323A9CDE92330204604F0A1
:1030A00097FE08B172B6FEE700221024494830A905
:1030B000CDE930423292349204F04CFB054608B11F
:1030C00072B6FEE72246014625A805F045F814220F
:1030D000294630A805F040F82246294629A8CDE91E
:1030E000235505F039F84FF080433C4CC4E90035D6
:1030F0004FF6FF73C4E9033580232046A560A36122
:1031000004F04AFA08B172B6FEE74FF48053204645
:1031100025A9259304F0FEFB08B172B6FEE7204610
:1031200004F092FA08B172B6FEE704252023204687
:1031300030A9CDE9305304F0D3FC08B172B6FEE7F4
:10314000CDE9230023A9204604F042FE024608B13F
:1031500072B6FEE701232990CDE92A302C9029A9E7
:10316000204604F049FB08B172B6FEE70223204670
:103170002A4629A9CDE9293304F03EFB044608B1CB
:1031800072B6FEE7FFF77AFB4FF4827314481549D5
:103190004FF40075C0E900130823C0E906530A2361
:1031A000C0E90244C0E90444C0E908448462C3623F
:1031B00003F0B5FD08B172B6FEE706230A480B4AD4
:1031C000C0E9002340F6FF73836003F045FA78B14D
:1031D00072B6FEE71C13002000040040F413002028
:1031E0001412002000380040081300200030004076
:1031F000012501228021A848A84E02F0BDFD4FF014
:10320000FF33C822A649A748357004F0C7FE4FF027
:10321000FF331222A449A34804F0C0FEA34C0022AD
:103220004FF480519C4802F0A7FD2A464FF480518C
:10323000994802F0A1FD2A464FF48051204602F041
:103240009BFD4FF4FA6002F091FAFFF7BBFC0020FF
:10325000FFF732FBE36843F01E03E360944B1D96D7
:103260001A881A931AB949F64043914A1380914B30
:103270001A881B931AB949F640438E4A13808E4E22
:10328000338813B949F6404333808C4B1A881C931A
:103290001AB949F64043894A13804FF00008328832
:1032A000874B00240025DA62FEF764FB0122854B80
:1032B000854F83F80080854BDFF880B2C3E9004575
:1032C000834BDFF87CA21A70824B41468248A3F8F8
:1032D0000080A7F80080CBE90045CAE9004504F06A
:1032E0002DFD04217C4804F029FD4FF448724FF075
:1032F000000C7A4BE146DA62794B7A48A3F80080F9
:103300004FF064087849794A794BB8F1010840F8E0
:1033100004CB41F804CB42F804CB43F804CBF4D1FE
:10332000744B132283F80080734B744983F8008038
:10333000734B5C4883F80080724B83F800804FF039
:10334000FF3304F02BFE704803F0ECFF6F4803F0EE
:10335000E9FF6F4B4246C3E900456E4B8021C3E94C
:1033600000456D4B4C48C3E900456C4BCBE900452B
:10337000CAE90045C3E9004502F0FEFC1D9B1B782D
:10338000002B00F06B81664A6648136843F0010326
:10339000136003F088F900231D9A13703B88002BFB
:1033A00000F00083534A604B12781B8852B9524A8E
:1033B00012783AB9524A127822B9524A1278002A3F
:1033C00000F00C82B3F5C86F80F00B82C822002198
:1033D000334804F0C1FE444B1C68454B2046D3F8EB
:1033E0000080404BD3F800A0404BD3F800B0354BE1
:1033F0001B78002B00F08F81FDF716F802460B4674
:103400004A4958460968CDE91E23FDF79BFC014651
:103410005046FDF78DFBFDF707F8CDE9080158464A
:10342000FDF702F8CDE906015046FCF7FDFFCDE9B6
:1034300004013F4940460968FDF784FC01462046E7
:10344000FDF776FBFCF7F0FFCDE902014046FCF703
:10345000EBFFDDE91E23CDE900013649104805F0F8
:10346000E3FA4FF47A73C8220D490E4804F096FD32
:10347000144B1B78002B40F0EE801E4C2378002B61
:1034800000F06581184B2C491D682846FDF750FB5C
:10349000FDF71EFE56E000BF000801409405002025
:1034A00084040020641300208DB60008000C014045
:1034B000EC050020B40500208C090020B805002090
:1034C0000004004058060020300B0020C0050020FA
:1034D000EC0D00208E090020F4130020002C014088
:1034E000C8050020FC0700205C0600209809002089
:1034F000480B0020FC050020300600209FB6000885
:10350000D70D0020B60500201C1300206C120020EF
:1035100040060020A8050020400B0020F0070020F6
:1035200010E000E008130020380B00209005002078
:10353000A0050020B2B60008000048445006002054
:10354000980500200028B8BF4042FDF7A7FB4FF0C8
:103550007E51FDF7B3FD002800F0F980284685492B
:103560003488FDF7ABFD002800F0EF800134348093
:10357000814C2378002B00F0EF80804B7D491D6843
:103580002846FDF7D5FAFDF7A3FD0028B8BF404255
:10359000FDF784FB4FF07E51FDF790FD002800F011
:1035A000DB801A9B284673491C88FDF787FD00289D
:1035B00000F0D08001341A9B1C80714C2378002BC2
:1035C00000F0CF806F4B6B491D682846FDF7B0FABD
:1035D000FDF77EFD0028B8BF4042FDF75FFB4FF0CE
:1035E0007E51FDF76BFD002800F0BB801C9B284638
:1035F00060491C88FDF762FD002800F0B0800134AE
:103600001C9B1C80604C2378002B00F0AF805F4B2C
:1036100058491D682846FDF78BFAFDF759FD00282B
:10362000B8BF4042FDF73AFB4FF07E51FDF746FD33
:10363000002800F09B801B9B28464E491C88FDF704
:103640003DFD002800F0908001341B9B1C80504AF7
:103650001388013313804F4803F064FE4E4C0A2355
:10366000012221464D4804F0EEFC00283FF486AECE
:103670002378632B40F092824FF47A7316224849E4
:10368000464804F08BFC434803F076FE0021454891
:1036900004F054FB0421434804F050FBC8220021ED
:1036A000414804F059FD0123404A1A991370324AE7
:1036B0001370334A1370344A137000223C4B1A7053
:1036C000334B1A8049F640430B801B9933800B80A3
:1036D0001C990B80374BC3F80090374BC3F8009010
:1036E000364BC3F80090364BC3F80090354BC3F807
:1036F0000090354BC3F80090344B1A804FF4FA73A6
:103700003B80334B1A80334B1A80224803F00AFE69
:103710000023237032E6FCF787FE044658460D4628
:10372000FCF782FECDE904015046FCF77DFECDE9B1
:1037300002014046FCF778FE2246CDE900012B4607
:103740002549194805F070F98BE6013C0FE7002385
:1037500023700DE7013C2EE7002323702DE7013C89
:103760004EE7002323704DE7013C6EE700232370F2
:103770006DE700BF0000484430060020480B0020E1
:10378000D70D0020FC070020B60500209809002076
:10379000380B00206C1200204D050020641300201F
:1037A000BAB80008F413002084040020FC050020AF
:1037B00058060020E8050020F8070020280B00200C
:1037C000D80D002090050020A0050020E00D00206D
:1037D0008E090020C8050020EFB60008B3F5C86FB9
:1037E00008D34FF47A731F2259495A4804F0D6FB84
:1037F00002F020F83C88002C3FF42DAF564D574B7B
:1038000029681868FDF796F9554B2860554D824692
:1038100029681868FDF78EF9DFF87C81524BD8F8DB
:103820000010286083461868FDF784F94F4B504A12
:103830001968C8F8000005461068FDF77BF9013CDF
:103840004A4BA4B2804618603C80002C7FF403AF42
:1038500059465046FDF72AFBDFF840A14146834612
:10386000CAF800002846FDF721FBDFF83481054641
:10387000C8F800005846FDF72BFC0130022861D83B
:103880002846FDF725FC013002285BD8394B3A4D1C
:103890001B6801202B60FFF70FF8C822214637482C
:1038A00004F05AFC1C9B1A9A1B88354901931B9BF8
:1038B00032481B8800933388128805F0B5F84FF41E
:1038C0007A73C8222D49234804F068FBC822214698
:1038D0002A4804F041FCD8F80000FCF7A5FD024698
:1038E0000B46DAF80000CDE91E23FCF79DFDDDE96B
:1038F0001E23CDE900012349204805F095F84FF437
:103900007A73C8221D49134804F048FBC822214697
:103910001A4804F021FC2868FCF786FD02460B4695
:103920001648194905F080F84FF47A73C8221349F4
:10393000084804F033FB0022144B1A800122144B78
:103940001A7088E64FF47A732A221249F0E700BF12
:103950001EB7000864130020E8050020FC070020C3
:1039600098090020F80700205C060020D80D0020F0
:10397000480B0020F8050020340B002084040020B0
:103980003DB7000879B7000890B70008380B002051
:10399000EC0D00209EB70008280B002090050020A9
:1039A000A0050020FDF718FEDFF8E882A24DC8F858
:1039B0000000FDF75BFEA149FDF7C4F92860FDF7A3
:1039C00071FF9F4CD8F8008020609E494046FDF76B
:1039D00057FB002800F0D08040469B49FDF76EFB66
:1039E000002800F0C9804346984A99499948FFF752
:1039F0008BF82B68984A96499648FFF785F8236814
:103A0000964A93499348FFF77FF8954B1B78002B14
:103A100040F0AF80934B0022D3E9004500232046BD
:103A20002946FCF7C1FFDFF8808200228E4B002878
:103A300040F0AA8020462946FCF7C0FF28B3D8E909
:103A400000010022884BFCF7B9FFF0B1294620465F
:103A5000FDF71AF8854A03467D497E48FFF754F87A
:103A6000834BD3E90001FDF70FF80346814A7849FB
:103A70007848FFF749F8D8E90001FDF705F87E4AD4
:103A8000034673497348FFF73FF87C4C7C4D23682D
:103A90007C4A6F49DFF850826E48FFF735F8DFF84F
:103AA0004CA22B68784A6A496A48FFF72DF8D8F883
:103AB0000030764A66496748FFF726F8744ADAF814
:103AC000003063496348FFF71FF8DAF80000FCF79D
:103AD000ABFCCDE91801D8F80000FCF7A5FCCDE956
:103AE00016012868FCF7A0FCCDE914012068FCF75A
:103AF0009BFCCDE91201524B1868FCF795FCCDE90F
:103B000010014D4B1868FCF78FFCCDE90E01614B9D
:103B10001868FCF789FCCDE90C01554B5E49D3E9E7
:103B20000023CDE90A235D4B5D48D3E90023CDE9AD
:103B300008235C4BD3E90023CDE906235A4BD3E994
:103B40000023CDE90423594BD3E90023CDE9022317
:103B5000574BD3E90023CDE90023424BD3E900239F
:103B600004F062FF4FF47A73C8224D49514804F0C3
:103B700015FA00223A4BE3E64F4802F085FBFEF7C8
:103B80007DFEFDF7F7FE40E7D8E90001FCF716FFE0
:103B900000283FF47AAF0023344A68E7742B21D120
:103BA000464803F0E9FB0021454804F0C7F804212A
:103BB000434804F0C3F84FF47A73102241493D485A
:103BC00004F0ECF9002201233F493B800A803F4981
:103BD0000B703F490B703F490B703F490B703F49D9
:103BE0000B7090E5722B7FF493AD344803F0C4FB67
:103BF0000021334804F0A2F80421314804F09EF873
:103C00004FF47A73212236492A4804F0C7F900207C
:103C10002E4B2F4A1870012313702E4A38801370D0
:103C20002D4A13702D4A1370274B18802D4B188086
:103C3000FEF742FE69E500BF08060020E8C7F53B35
:103C40003806002000007042000020C2C8B70008FB
:103C5000D80C002032000020DAB70008E9B70008CD
:103C6000EC0D00204006002000004440F8B700089A
:103C7000D005002004B8000811B80008DC0D0020B1
:103C8000EC07002020B8000823B8000826B8000878
:103C900029B80008F80500202CB80008F00700201B
:103CA00084040020400B0020A80500209805002077
:103CB0005006002064130020B41200206C12002073
:103CC000F4130020D0B80008380B0020580600205C
:103CD000FC05002030060020D70D0020B60500208E
:103CE000E0B80008C80500202C0B0020E80D0020DB
:103CF00038B5374D2A68002A53D00368B3F1804F96
:103D00004FD1037F591E01294BD81B2A3DD9012BC6
:103D100047D100212F4803F04AFB2F4B2C681A682B
:103D200080B21044013C18602C60002C39D1012273
:103D300080212A4802F020F822468021274802F0FC
:103D40001BF82146234803F0F9FF0421214803F022
:103D5000F5FF1C21204B1A68B2FBF1F2A2F52852A4
:103D6000303AB2F5C86F88BF4FF4C8621C491A6078
:103D7000CA6842F01E02CA601A4A1288013A032A2F
:103D80000FD8DFE802F0060F161D012BC1D0042169
:103D9000C0E7154A18681488FCF77CFF134B43F8FA
:103DA000240038BD104A18681488FCF773FF104BC4
:103DB000F5E70D4A18681488FCF76CFF0D4BEEE729
:103DC000094A18681488FCF765FF0B4BE7E700BF4A
:103DD00048060020F41300203406002000080140AB
:103DE000000C01408E090020C80500205C06002060
:103DF000480B0020FC070020980900200828F8B58F
:103E000004462DD8470107F1080607F584771021ED
:103E1000384601F0E5F9384601F0B4F905460028C6
:103E2000F9D11F2106F5007001F0DAF90123A34052
:103E3000DB430D491BB20A8806F540761A400A801A
:103E40000A4A11880B401380094B23F81450094B80
:103E50001D55304601F096F90028FAD10120F8BD31
:103E60004FF0FF30FBE700BF580500205A05002047
:103E7000640500205C05002008282DE9F341044674
:103E8000884617461D467CD8012905D08B1E022B7B
:103E900010D96FF004000AE004224FF470600DEBBB
:103EA000020101F0CFF9019B23B96FF0020002B0CB
:103EB000BDE8F081680757D42DB1B8F1010F50D09B
:103EC000B8F1020F53D020466601FFF797FF08367E
:103ED00025F00F01304641EA080101F081F96FB980
:103EE0004FF6F071284A17887B1C9BB28B4205BFA6
:103EF0004FF440434FF6EF7713801380390A06F5ED
:103F0000806001F06DF9F9B206F5A06006F58077E2
:103F100001F066F90121384601F062F9384601F0F6
:103F200031F90028FAD10123A340DB4317491BB222
:103F30000A8805F001051A40A5401543144A0D8072
:103F4000118806F540760B401380124B23F81400BD
:103F5000114B1855304601F015F90028FAD060B21F
:103F6000A5E715F0210FAED16FF005009FE7A90678
:103F70006BB201D5002BF7DAEA06A4D5002BA2DB41
:103F8000F2E74FF0FF3092E736010020580500209D
:103F90005A050020640500205C05002008282DE952
:103FA000F04106460D4617465DD8440108342046C8
:103FB00001F0E8F800F00F00012857D104F540782F
:103FC000404601F0DFF8132853D12B786A7802EBD2
:103FD0000322AB7803EB0222EB78013B03EB0223D5
:103FE000033349D8002F4AD00422294604F5406003
:103FF00001F062F9390A04F5805001F0F1F804F596
:104000008075F9B204F5885001F0EAF804212846D9
:1040100001F0E6F8284601F0B5F80028FAD1194B6E
:104020001B8843FA06F6F20713D404F500744046E1
:1040300001F0A8F8172801D101200AE0204601F07C
:10404000A1F8030707D52046082101F0C9F86FF051
:104050000C00BDE8F081404601F094F80028E6D15C
:104060006FF00300F5E74FF0FF30F2E76FF0040068
:10407000EFE76FF00200ECE76FF00B00E9E76FF09D
:104080000A00E6E75805002008282DE9F84F064603
:104090008846144674D845010835284601F072F860
:1040A00000F00F0001286ED1002C6FD005F540798B
:1040B000484601F067F8172801D01C2832D1354F47
:1040C0003B883341D90711D505F5007A504601F0F8
:1040D00059F8C20629D51021504601F081F8012374
:1040E00003FA06F23B8823EA02033B8005F5F85009
:1040F00001F048F8830298B24FF0010A844228BFC9
:1041000004460AFA06FA304601F010F9834648469A
:1041100001F038F81728204B12D01C2810D0304658
:10412000FFF76CFE6FF0060002E0030702D40020E8
:10413000BDE8F88F3046FFF761FE6FF00C00F7E73F
:104140001A8812EA0A0F18D05C45F0D8414630466A
:10415000224605F5807501F02BF92021284601F053
:104160003FF8284601F00EF80028FAD13B88204697
:104170004AEA030AA7F800A0DAE75C45C3D8E5E7F6
:104180004FF0FF30D4E76FF00400D1E76FF00D007F
:10419000CEE700BF5A050020580500202DE9F84F52
:1041A00008280646884614461F46BDF828A000F297
:1041B000978045010835284600F0E4FF00F00F0025
:1041C0000238022800F28F80002C00F08F803B78AC
:1041D0007A7802EB0322BB7803EB0222FB7803EB35
:1041E0000223002B3CD0BAF1000F41D005F54079F5
:1041F000484600F0C7FF422842D10422394605F55F
:10420000406001F059F84FEA1A2105F5805000F09E
:10421000E7FF5FFA8AF105F5885000F0E1FF05F548
:10422000F85000F0AFFF800280B24FF0010A8442E4
:1042300028BF0446DFF8C0B00AFA06FA304601F09B
:1042400075F80746484600F09DFF002851D0BBF89E
:10425000003013EA0A0F1AD0BC421AD9002034E009
:10426000284600F08FFF4007BDD46FF00B002CE014
:10427000284600F087FF4107B8D46FF00A0024E019
:1042800000F0EF002228B8D06FF006001DE0BC421D
:10429000D4D830464146224605F5807601F088F8AC
:1042A0002021304600F09CFF304600F06BFF0028D4
:1042B000FAD105F50075284600F064FFC20606D560
:1042C0002846102100F08CFF2046BDE8F88F030738
:1042D000F1D52846082100F083FF6FF00C00F4E7C9
:1042E0004FF0FF30F1E76FF00400EEE76FF00D00E4
:1042F000EBE76FF00300E8E7580500202DE9F04FE9
:10430000082804468A469146984685B000F2E8801F
:1043100047010837384600F035FF00F00F02023A37
:10432000022A834600F2DF80B9F1000F00F0DE8040
:10433000714E36F81420002A7AD1012107F5407316
:10434000A14000932046019101F011F80546009824
:1043500000F018FF002800F0CC80684B01991A8803
:104360000A4202D01DB9284689E0002DEAD00BF0A0
:104370000700032807F5807700F08480042859D0CF
:10438000022840F0A68036F814308BBB0822204665
:104390000DEB020101F039F84021384600F020FF12
:1043A000384600F0EFFE0028FAD19DF808309DF85D
:1043B0000C2088F800309DF8093088F801309DF80D
:1043C0000A3088F802309DF80B3088F803309DF8E9
:1043D0000D3003EB02230E9A13809DF80E209DF8FA
:1043E0000F3003EB022326F814308022444B1A5579
:1043F00036F8145051464D4528BF4D4620462A46B2
:1044000001F003F84021384600F0EAFE384600F09B
:10441000B9FE0028FAD136F81430394A5B1B9BB23A
:1044200026F8143013B1105D40F0010010559AE7E2
:1044300000259CE736F81430002BD9D1204602A97C
:10444000022200F0E2FF4021384600F0C9FE384663
:1044500000F098FE0028FAD19DF809309DF8082058
:10446000023B03EB022340F2EA529BB2934226F84E
:104470001430BAD92046FFF7C1FC6FF47A7005B04A
:10448000BDE8F08F36F81430002BB1D1204602A9D8
:10449000062200F0BAFF4021384600F0A1FE38465F
:1044A00000F070FE0028FAD19DF808309DF80C202D
:1044B00088F800309DF8093088F801309DF80A30FE
:1044C00088F802309DF80B3088F803309DF80D30E5
:1044D00087E72946204600F0C5FF26F8145091E7EB
:1044E0004FF0FF30CBE76FF00400C8E76FF00D002E
:1044F000C5E76FF00300C2E76405002058050020FF
:104500005C0500200E4B82B09A6942F001029A616C
:104510009A6902F001020092009ADA6942F0805230
:10452000DA61DB69074A03F080530193019B53680A
:1045300023F0E06343F08063536002B0704700BF34
:10454000001002400000014010B5044686B0102261
:10455000002102A803F000FE2268154B9A4224D1E4
:10456000144C4FF44072A369134843F00803A3614D
:10457000A36902A903F008030093009B1223CDE96D
:1045800002230323059301F0ADFA0C4A536843F06C
:10459000E06343F002035360E36943F40013E36113
:1045A000E36903F400130193019B06B010BD00BF43
:1045B0000054004000100240000C01400000014087
:1045C00008B502680A4B9A4210D10A4A4FF480712A
:1045D000D369094823F40013D36101F05FFBBDE800
:1045E00008404FF40071044801F058BB08BD00BFFB
:1045F0000054004000100240000C014010B5044679
:1046000086B01022002102A803F0A6FD2268174BF5
:104610009A4228D103F5EC33DA69154842F4804216
:10462000DA61DA6902A902F480420092009A9A697A
:1046300042F008029A619B694FF4204203F008039C
:104640000193019B0223CDE902230323059301F08B
:1046500049FA4FF4804100230548CDE9021302A92D
:10466000049301F03FFA06B010BD00BF00380040CF
:10467000000C014010B504468AB01022002106A8A3
:1046800003F06AFD2368304A93420BD12F4B9A699D
:1046900042F400629A619B6903F400630193019BF9
:1046A0000AB010BDB3F1804F25D103F50433DA69A8
:1046B000002442F00102DA61DA69254802F00102C1
:1046C0000292029A9A6906A942F004029A619B69D1
:1046D000089403F004030393039B0123CDE90634FC
:1046E00001F000FA1C202246214601F063F81C204C
:1046F00001F092F8D4E7174A934210D1134B1D20D2
:10470000DA6942F00202DA610022DB69114603F045
:1047100002030493049B01F04DF81D20E8E70E4AC4
:104720009342BDD1094B1E20DA6942F00402DA61DE
:104730000022DB69114603F004030593059B01F099
:1047400039F81E20D4E700BF002C014000100240C1
:1047500000080140000400400008004010B5044675
:1047600086B01022002102A803F0F6FC22680D4B4F
:104770009A4215D103F564439A690B4842F004024A
:104780009A619B694FF4706203F004030193019BEB
:104790000223CDE90223032302A9059301F0A2F924
:1047A00006B010BD002C01400008014010B50446C1
:1047B00086B01022002102A803F0CEFC2268194B1B
:1047C0009A422DD103F558439A69174842F4804222
:1047D0009A619A6902A902F480420092009A9A6949
:1047E00042F008029A619B69402203F0080301939A
:1047F000019B0223CDE902230323059301F072F903
:10480000002380210848CDE9021302A9049301F096
:1048100069F9064A536843F0E06343F004035360C8
:1048200006B010BD00380140000C014000000140FE
:1048300008B502F0D9F9FEE7FEE7FEE7FEE7FEE77E
:10484000704770477047000010B5084C238801334B
:104850009BB2B3F57A7F238003D3FDF75BFC002383
:104860002380BDE8104000F06FBF00BF740500203A
:10487000014802F0B6BD00BFF41300201C2210B5A1
:10488000084B094C1A6020460122802101F074FA7D
:1048900020460022802101F06FFABDE81040034855
:1048A00002F09FBD48060020000801401C130020B4
:1048B0002DE9F04F00250026A54B97B01D60A54BB4
:1048C00029461D60A44BA5481E60A54BA54C1E6043
:1048D000A54B1E60A54B1E6003F086F904219F487E
:1048E00003F082F908219D4803F07EF90C219B48D2
:1048F00003F07AF99E4A2946D3689E4843F01E0386
:10490000D36003F01BFA04219A4803F017FA636896
:1049100023F46E4323F0EE0343F42A4343F0AA0347
:104920006360954B05961A88944E032A81BF32889E
:104930001D80013232803788914A642F158840F0FB
:104940003B83002D40F043838E4802F015FD00228A
:1049500000238D49CDE90A23C1E900238B49CDE924
:104960000C23C1E900238A49CDE90E23C1E90023C4
:104970008849CDE91023C1E900238749CDE91223F5
:10498000C1E900238549CDE9142301918449CDE98A
:104990000823049183490095039183490291019B67
:1049A000DDF8008053F8045B019316AB03EBC804F9
:1049B0007E4B1968049B53F8040B0493FCF7C2F96F
:1049C00001462846FCF7B4F8FBF72EFD08F1010379
:1049D000DBB2032B28BF002344E90C01DDE90AAB5D
:1049E000DDE90C6700933246DDE90E453B46504653
:1049F0005946FBF7E3FF22462B46002800F036829B
:104A000030463946FBF7DAFF002840F03F82224665
:104A10002B4650465946FBF7EFFF08B9A246AB4676
:104A20005C4C5246D4E900015B46FBF79FFB039BBD
:104A3000C4E900010693029B079316AB03EBC80879
:104A40005B4B1968029B1868FCF77CF9039B0146D5
:104A50001868FCF76DF8FBF7E7FC48E90601DDE9AB
:104A60001045DDE91289204642464B462946FBF7B0
:104A7000A5FFDDE9146732463B46002800F00982B5
:104A800040464946FBF79AFF002840F01282324622
:104A90003B4620462946FBF7AFFF08B934463D4662
:104AA0003D4E2246D6E900012B46FBF75FFB414B0A
:104AB000C6E90001C3E900AB3F4B2246C3E900450C
:104AC00020462B462946FBF707FD524604460D4675
:104AD0005B4650465946FBF7FFFC02460B46204614
:104AE0002946FBF743FB06F00FFA04460D46334B0D
:104AF000254EC3E90045D6E90023FBF77DFF08B149
:104B0000C6E900452B4B214ED3E90001FBF794FF8A
:104B10000028B8BF4042FBF775FCD6E900230446E5
:104B20000D46FBF769FF08B1C6E90045224B184E58
:104B3000D3E90001FBF780FF0028B8BF4042FBF734
:104B400061FCD6E9002304460D46FBF755FF37E02C
:104B50003406002048060020DC0D0020AC130020A5
:104B6000EC070020000801402C0B0020E80D00207D
:104B7000000C0140F41300208E090020C80500201D
:104B8000300B00206C120020C0050020D80500204A
:104B900090090020E0050020000600200408002005
:104BA000A009002064060020500B00209005002082
:104BB000A0050020F00D0020F00500204006002098
:104BC00008B1C6E90045019BDFF8549353F8040C83
:104BD000D9F80010FBF7AEFFDFF84883049BD8F844
:104BE0000010C9F80000834653F8040CFBF7A2FF3D
:104BF000B34F069B3968C8F8000006461868FBF7F3
:104C000099FFDFF824A3079BDAF800103860054607
:104C10001868FBF78FFF059A019B044643F8042CA4
:104C2000049BCAF8000043F8042C039B43F8042BB0
:104C30000393029B43F8042B0293019AA14B9342E6
:104C40007FF4ADAE5846A049FCF730F99E49C9F84B
:104C5000000083463046FCF729F99C4A1168FCF7AE
:104C600071F899490646C8F800002846FCF71EF975
:104C70009549386005462046FCF718F9944A1168B2
:104C8000FCF760F83146CAF8000004465846FBF7C6
:104C900051FF90498146FBF74BFFFCF719FA80EA78
:104CA000E076A6EBE0763046FBF7F8FF4FF07E515A
:104CB000FCF704FA40B3DFF87482642EB8F8000001
:104CC000D4BF4FF07E5BDFF818B2FBF7E7FF824FEF
:104CD00000903888FBF7E2FF7E4906464846FCF71D
:104CE000EDF9009B002800F0278119465846FBF794
:104CF00021FFFCF713FA3146A8F800005846FBF7ED
:104D000019FFFCF70BFA388021462846FBF712FF03
:104D100070498046FBF70CFFFCF7DAF980EAE07493
:104D2000A4EBE0742046FBF7B9FF4FF07E51FCF78F
:104D3000C5F918B3694F642C3888D4BF4FF07E543E
:104D4000674CFBF7ABFF674E81463088FBF7A6FF49
:104D5000604905464046FCF7B1F9002800F0F980AB
:104D600049462046FBF7E6FEFCF7D8F9294638808D
:104D70002046FBF7DFFEFCF7D1F930805A490022CC
:104D8000D1E90001594BFBF7D1FC4BA3D3E9002338
:104D9000FBF7CCFC06460F46DFF894815449C8E97E
:104DA0000067D1E900010022504BFBF7BFFC42A392
:104DB000D3E90023FBF7BAFC3FA3D3E90023044661
:104DC0000D46DFF870914B49C9E90045D1E9000172
:104DD000FBF7ACFC484BC3E9000137A3D3E9002340
:104DE0004649D1E90001FBF7A1FC454BC3E90001AD
:104DF00031A3D3E900234349D1E90001FBF796FC35
:104E0000414B3246C3E900013B4630463946FBF789
:104E100063FB224606462B460F4620462946FBF7F3
:104E20005BFB02460B4630463946FBF79FF906F01E
:104E30006BF804460D46354B0022C3E900450023BC
:104E4000FBF7B2FD324E002800F08F80DDE9083418
:104E5000C6E9003400222F4B1A8001222E4B1A7013
:104E60002E4817B0BDE8F04F02F0BBBA5046594685
:104E7000FBF7A4FD00287FF4D3AD22462B46304635
:104E80003946FBF7B9FD00283FF4C8ADB246BB4632
:104E9000C6E520462946FBF791FD00287FF400AEC9
:104EA00032463B4640464946FBF7A6FD00283FF404
:104EB000F5AD44464D46F3E5000000205C6F4740E9
:104EC0002C0B00208C0900200000C442900500201B
:104ED000A00500200000C844B8050020EC05002013
:104EE0000000A0418C090020E0050020008058400F
:104EF00000060020C0050020A8050020D8050020DD
:104F0000400B002090090020F00700204006002000
:104F1000D0050020C8050020940500206C12002058
:104F2000DC0D0020EC070020E80D0020B405002077
:104F3000500600209805002059461846FBF7F8FD5A
:104F4000FCF7ECF85946A8F800003046FBF7F0FDF6
:104F5000D7E621464846FBF7EBFDFCF7DFF8214694
:104F600038802846FBF7E4FD05E72246D9E9000131
:104F70002B46FBF7DBFB05F099FF0022484BFBF7C4
:104F8000ABFA45A3D3E90023FBF7D0FB04460D465B
:104F9000D8E9000100220023C6E90045FBF70EFD19
:104FA00000283FF457AF22462B4600203D49FBF72F
:104FB000DBF8C6E900014DE74DB1012F07D13A48B2
:104FC00002F0DAF900233380384B1F7048E71A8863
:104FD000511C1980032A20D8DFE802F00228394A40
:104FE00001220421324800F0C7FE0022042130488B
:104FF00000F0C2FE00212F4B1A882F4BDA622F4A95
:10500000D36823F00803D360636823F4706343F428
:10501000806363602A4802F099FD0021294802F06C
:105020001FFE0421274802F01BFE19E7264B08212A
:105030001A88214BDA62214AD36823F00203D36035
:10504000636823F00F0343F004036360E2E71F4B40
:1050500004211A88184BDA62184AD36823F0100327
:10506000D360636823F4704343F480436360D1E703
:10507000174B0C211A88104BDA62104AD36823F0C0
:105080000403D360636823F0F00343F040036360DC
:10509000C0E700BFAFF300804AD8124DFB210940A2
:1050A00000806640008076406C120020940500204D
:1050B00000080140EC05002000040040000C014005
:1050C000AC130020F4130020B8050020B405002024
:1050D0008C0900200120704708B503F013F816234F
:1050E00003604FF0FF3008BD08B503F00BF816233E
:1050F0000360FEE770B50E4614460025A54201DBAD
:10510000204670BDAFF3008070550135F6E770B5ED
:105110000E4614460025A54201DB204670BD705D99
:10512000AFF300800135F6E74FF0FF3070474FF4E2
:10513000005300204B6070470120704700207047EB
:105140000B4B0246196810B509B90A49196018686D
:1051500009490A4C0244091B8A4206D902F0D2FFCF
:105160000C2303604FF0FF3010BD1A60FCE700BF56
:105170007805002078140020005000200004000072
:105180007047000073B50546144CC5F30726E36865
:10519000984763699847636AC5F30740EDB20BB15E
:1051A000A36A8BB9236A98473046236A98472846F2
:1051B000236A9847E36998470546A3699847236996
:1051C0009847284602B070BD8DF8040003218DF881
:1051D00005608DF8065001A89847EBE73C010020D8
:1051E000F7B50546164C0F46E3689847636998473C
:1051F000A36A45F00406C5F30740F6B2C5F30725D8
:1052000083B9236A98472846236A98473046236A19
:1052100098473846236A9847A3699847236998476F
:1052200003B0F0BD04218DF804008DF805508DF811
:1052300006608DF807700DEB01009847ECE700BFA2
:105240003C0100202DE9F34105461A4C0E46E36867
:105250001746984763699847636AC5F30740C5F3E3
:105260000728EDB20BB1A36AB3B9236A9847404649
:10527000236A98472846236A98473744B74206D19D
:10528000A36998472369984702B0BDE8F081E369B4
:10529000984706F8010BF1E78DF80400032101A8F7
:1052A0008DF805808DF80650984739463046636A78
:1052B0009847E5E73C0100202DE9F34105461A4CEB
:1052C0008846E3681746984763699847A36A45F09C
:1052D0000406C5F30740F6B2C5F30725B3B9236A40
:1052E00098472846236A98473046236A9847474498
:1052F000474506D1A36998472369984702B0BDE89E
:10530000F081236A18F8010B9847F1E78DF8040043
:10531000032101A88DF805508DF80660984739469D
:105320004046A36A9847E5E73C010020F8B5002411
:105330004601083606F5005706F504563846FFF7CD
:1053400021FF05023046FFF71DFFADB20544ADB2A7
:105350004DB13846FFF716FF04023046FFF712FF43
:10536000A4B20444A4B2AC42E8D12046F8BDF8B5DA
:1053700000244601083606F5185706F51C5638462F
:10538000FFF700FF05023046FFF7FCFEADB2054413
:10539000ADB24DB13846FFF7F5FE04023046FFF7D7
:1053A000F1FEA4B20444A4B2AC42E8D12046F8BD58
:1053B0002DE9F843894614462AB385006F1CFF0087
:1053C00007F510584046FFF7DDFE07F5145706466F
:1053D0003846FFF7D7FE00EB062086B202353002D2
:1053E0002246494600EBC500FFF766FFA11940467B
:1053F0008CB2C1F30721FFF7F3FE3846E1B2BDE8F6
:10540000F843FFF7EDBEBDE8F8832DE9F843894680
:1054100014462AB385006F1CFF0007F5205840464C
:10542000FFF7B0FE07F5245706463846FFF7AAFEF9
:1054300000EB062086B2033530022246494600EBD7
:10544000C500FFF7FFFEA11940468CB2C1F307214A
:10545000FFF7C6FE3846E1B2BDE8F843FFF7C0BE2D
:10546000BDE8F883F8B54401083404F52057384600
:105470000D46FFF787FE04F5245406462046FFF745
:1054800081FE291801EB062138468DB2C1F30721B0
:10549000FFF7A6FE2046E9B2BDE8F840FFF7A0BE40
:1054A0007047007870470170704700207047704760
:1054B000704770477047704770470000054B00B158
:1054C00021B9054A5A61054A9A617047C3E9050145
:1054D000704700BF3C010020B7540008B9540008D1
:1054E000084B10B51C881A46A40500D4FEE700B18D
:1054F00021B9054BD361054B136210BDC3E9070108
:10550000FBE700BF3C010020AB540008AF5400088B
:10551000084B10B51C881A46A40500D4FEE700B15C
:1055200021B9054B5362054B936210BDC3E90901D4
:10553000FBE700BF3C010020B1540008B354000851
:105540007FB5062204A94FF41060FFF77BFE04220A
:105550004FF480700DEB0201FFF774FE02A90422E4
:105560004FF4A060FFF76EFE042203A94FF47060B1
:10557000FFF768FE80210020FFF732FE0020FFF7D2
:1055800001FE04A906224FF41060FFF795FE0422E5
:105590004FF480700DEB0201FFF78EFE02A904228A
:1055A0004FF4A060FFF788FE04224FF4706003A957
:1055B000FFF782FE07B05DF804FBF8B505460C4620
:1055C000FFF7BEFFBDB16E1E32460023073512F84D
:1055D000011F0B445BB2102B29DCAA42F7D141F624
:1055E000087542F20807284616F8011F2035FFF714
:1055F000F7FDBD42F7D10CB90020F8BD651E2A4663
:105600000023073412F8011F0B445BB2102B0EDC91
:105610009442F7D141F6086441F60876204615F821
:10562000011F2034FFF7DCFDB442F7D1E4E74FF06F
:10563000FF30E2E710B50446014606224FF4106041
:10564000FFF73AFE04224FF4807004F10E01FFF7D9
:1056500033FE04224FF4A06004F10A01FFF72CFE90
:1056600004224FF47060A11DFFF726FE064BA27CBA
:105670001A70E27C5A70227D9A70627DDA7094F81A
:105680001921024B1A7010BD7D0500207C050020F9
:105690000C480D490D4A002302E0D458C45004338D
:1056A000C4188C42F9D30A4A0A4C002301E0136063
:1056B0000432A242FBD3FFF763FD02F029FDFDF7A0
:1056C0003FFB704700000020440300201CBD000881
:1056D0004803002078140020FEE7000038B50E4B88
:1056E000054618784FF47A73B3FBF0F30B4A106851
:1056F000B0FBF3F000F0B0F8044658B90F2D09D80C
:10570000024629464FF0FF3000F054F82046044B83
:105710001D6038BD0120FCE7680100203801002031
:105720006C010020074A08B51368032043F01003FA
:10573000136000F02DF80020FFF7D0FFFEF7E2FE27
:10574000002008BD00200240034A044B11681B786A
:105750000B441360704700BF441400206801002010
:10576000014B1868704700BF4414002038B5044648
:10577000FFF7F6FF0546631C1EBF044B1B78E418B9
:10578000FFF7EEFF431BA342FAD338BD68010020A8
:1057900007490302CA6803F4E06322F4E0621204DA
:1057A000120C134343F0BF6343F40033CB607047E4
:1057B00000ED00E0164B30B5DC68C4F30224C4F100
:1057C0000703251D042B28BF0423062D4FF0FF35AA
:1057D00098BF002405FA03F388BF033C21EA0303C2
:1057E000A34005FA04F422EA0402002843EA020373
:1057F000ACBF00F16040074A4FEA0313DBB2ABBF16
:1058000000F5614000F00F0080F80033135430BD04
:1058100000ED00E014ED00E0002808DB0123420960
:1058200000F01F0003FA00F0014B43F8220070471C
:1058300000E100E0BFF34F8F0549064BCA6802F450
:10584000E0621343CB60BFF34F8F00BFFDE700BFA3
:1058500000ED00E00400FA050138B0F1807F0AD2C3
:10586000F021064B064A586082F8231000200722D8
:1058700098601A6070470120704700BF10E000E098
:1058800000ED00E0114AD36813F0100305D0104971
:10589000CB6943F00203CB611023D268500706D5D1
:1058A0000B4943F00403CA6942F00102CA61074A86
:1058B000D169C90708D50648C16941F00401C16131
:1058C000D16921F00101D161D3607047002002400D
:1058D00048140020064B186910F0800007D0054AD4
:1058E0005A6002F188325A601869C0F3C0107047DC
:1058F0000020024023016745034A0020136943F05A
:1059000080031361704700BF00200240F8B50446D1
:10591000FFF726FF114D07462E46EB68D80712D435
:10592000EB68990644BF2023EB60F368DA0606D4DF
:10593000F369DB0703D4F06810F0040007D0FFF729
:10594000A1FF012003E0631CE7D00CB90320F8BDE0
:10595000FFF706FFC01BA042DFD9F7E70020024097
:105960002DE9F84F254E1F46337E0546012B88460C
:10597000914640D001234CF250303376FFF7C6FFFA
:10598000A8BB012D03D0022D0CBF022504254FF02A
:10599000000A5346DFF868B04FEA0A14C4F1200148
:1059A000A4F1200207FA01F129FA04F4F3610C438F
:1059B00027FA02F21443DBF81020A4B242F00102ED
:1059C000CBF810204CF2503028F81A40FFF79EFF19
:1059D000DBF8102022F00102CBF8102038B90AF1D0
:1059E000010A5FFA8AF295424FF00003D4D80023EF
:1059F0003376BDE8F88F0220FBE700BF4814002093
:105A0000002002400022064BDA61064B1A6942F080
:105A100004021A611A6942F040021A61704700BF1D
:105A200048140020002002400022064BDA61064B99
:105A30001A6942F002021A6158611A6942F0400282
:105A40001A61704748140020002002402DE9F041FF
:105A5000224E0546337E8846012B3DD00124347604
:105A600003684CF25030022B13D1FFF74FFF20B1E7
:105A7000012000233376BDE8F081FFF7C3FF4CF22D
:105A80005030FFF743FF164A136923F004031361F4
:105A9000EFE7FFF73BFF0028EAD14FF0FF33C8F8EC
:105AA00000302046AF680E4CD5E9023203EB82236A
:105AB000BB42DED93846FFF7B7FF4CF25030FFF754
:105AC00025FF236923F00203236110B1C8F8007099
:105AD000CFE707F58067E7E70220CCE7481400200E
