:020000040800F2
:10000000005000209D460008893A00088B3A0008FD
:100010008D3A00088F3A0008913A0008000000006D
:10002000000000000000000000000000933A0008FB
:10003000953A000800000000973A0008993A000835
:10004000E5460008E5460008E5460008E5460008E4
:10005000E5460008E5460008E5460008E5460008D4
:10006000E5460008E5460008E5460008E5460008C4
:10007000E5460008E5460008E5460008E5460008B4
:10008000E5460008E5460008E5460008E5460008A4
:10009000E5460008E5460008E5460008E546000894
:1000A000E5460008E5460008E5460008E546000884
:1000B000C13A0008CD3A0008E13A0008E5460008D8
:1000C000E5460008E5460008E5460008E546000864
:1000D000E5460008E5460008E5460008E546000854
:1000E000E5460008E5460008E54600080000000077
:1000F0000000000000000000000000000000000000
:0C01000000000000000000005FF808F1A3
:1001100010B5054C237833B9044B13B10448AFF341
:1001200000800123237010BD480300200000000060
:10013000EC9C000808B5034B1BB103490348AFF31F
:10014000008008BD000000004C030020EC9C00086B
:10015000034613F8012B002AFBD1181A0138704707
:1001600081F0004102E000BF83F0004330B54FEA68
:1001700041044FEA430594EA050F08BF90EA020FD5
:100180001FBF54EA000C55EA020C7FEA645C7FEA68
:10019000655C00F0E2804FEA5454D4EB5555B8BF8B
:1001A0006D420CDD2C4480EA020281EA030382EAFC
:1001B000000083EA010180EA020281EA0303362D8E
:1001C00088BF30BD11F0004F4FEA01314FF4801C61
:1001D0004CEA113102D0404261EB410113F0004F73
:1001E0004FEA03334CEA133302D0524263EB43032A
:1001F00094EA050F00F0A780A4F10104D5F1200EC8
:100200000DDB02FA0EFC22FA05F2801841F1000122
:1002100003FA0EF2801843FA05F359410EE0A5F1F6
:1002200020050EF1200E012A03FA0EFC28BF4CF027
:10023000020C43FA05F3C01851EBE37101F00045DD
:1002400007D54FF0000EDCF1000C7EEB00006EEBEA
:100250000101B1F5801F1BD3B1F5001F0CD3490874
:100260005FEA30004FEA3C0C04F101044FEA4452CB
:1002700012F5800F80F09A80BCF1004F08BF5FEA52
:10028000500C50F1000041EB045141EA050130BD32
:100290005FEA4C0C404141EB0101013C28BFB1F544
:1002A000801FE9D291F0000F04BF01460020B1FA8F
:1002B00081F308BF2033A3F10B03B3F120020CDA62
:1002C0000C3208DD02F1140CC2F10C0201FA0CF040
:1002D00021FA02F10CE002F11402D8BFC2F1200CA5
:1002E00001FA02F120FA0CFCDCBF41EA0C0190405B
:1002F000E41AA2BF01EB0451294330BD6FEA0404A4
:100300001F3C1CDA0C340EDC04F11404C4F120028E
:1003100020FA04F001FA02F340EA030021FA04F3A0
:1003200045EA030130BDC4F10C04C4F1200220FAF7
:1003300002F001FA04F340EA0300294630BD21FA35
:1003400004F0294630BD94F0000F83F4801306BFFB
:1003500081F480110134013D4EE77FEA645C18BFEF
:100360007FEA655C29D094EA050F08BF90EA020F86
:1003700005D054EA000C04BF1946104630BD91EA7E
:10038000030F1EBF0021002030BD5FEA545C05D181
:100390004000494128BF41F0004130BD14F58004C0
:1003A0003CBF01F5801130BD01F0004545F0FE4134
:1003B00041F470014FF0000030BD7FEA645C1ABF69
:1003C000194610467FEA655C1CBF0B46024650EAA0
:1003D000013406BF52EA033591EA030F41F40021CC
:1003E00030BD00BF90F0000F04BF0021704730B552
:1003F0004FF4806404F132044FF000054FF0000127
:1004000050E700BF90F0000F04BF0021704730B5E7
:100410004FF4806404F1320410F0004548BF4042BC
:100420004FF000013EE700BF42004FEAE2014FEA11
:1004300031014FEA02701FBF12F07F4393F07F4FEC
:1004400081F06051704732F07F4208BF704793F0EF
:100450007F4F04BF41F40021704730B54FF4607402
:1004600001F0004521F000411CE700BF50EA010205
:1004700008BF704730B54FF000050AE050EA0102AE
:1004800008BF704730B511F0004502D5404261EB1E
:1004900041014FF4806404F132045FEA915C3FF45F
:1004A000D8AE4FF003025FEADC0C18BF03325FEAFC
:1004B000DC0C18BF033202EBDC02C2F1200300FAAD
:1004C00003FC20FA02F001FA03FE40EA0E0021FAD2
:1004D00002F11444BDE600BF70B54FF0FF0C4CF4C0
:1004E000E06C1CEA11541DBF1CEA135594EA0C0F72
:1004F00095EA0C0F00F0DEF82C4481EA030621EAAD
:100500004C5123EA4C5350EA013518BF52EA0335E7
:1005100041F4801143F4801338D0A0FB02CE4FF099
:100520000005E1FB02E506F00042E0FB03E54FF0C9
:100530000006E1FB03569CF0000F18BF4EF0010EC1
:10054000A4F1FF04B6F5007F64F5407404D25FEABD
:100550004E0E6D4146EB060642EAC62141EA555170
:100560004FEAC52040EA5E504FEACE2EB4F1FD0CB2
:1005700088BFBCF5E06F1ED8BEF1004F08BF5FEA30
:10058000500E50F1000041EB045170BD06F00046E2
:1005900046EA010140EA020081EA0301B4EB5C048F
:1005A000C2BFD4EB0C0541EA045170BD41F4801187
:1005B0004FF0000E013C00F3AB8014F1360FDEBFAC
:1005C000002001F0004170BDC4F10004203C35DA88
:1005D0000C341BDC04F11404C4F1200500FA05F30B
:1005E00020FA04F001FA05F240EA020001F00042AC
:1005F00021F0004110EBD37021FA04F642EB060122
:100600005EEA430E08BF20EAD37070BDC4F10C044B
:10061000C4F1200500FA04F320FA05F001FA04F20F
:1006200040EA020001F0004110EBD37041F10001FB
:100630005EEA430E08BF20EAD37070BDC4F1200506
:1006400000FA05F24EEA020E20FA04F301FA05F26E
:1006500043EA020321FA04F001F0004121FA04F216
:1006600020EA020000EBD3705EEA430E08BF20EAE6
:10067000D37070BD94F0000F0FD101F00046400020
:1006800041EB010111F4801F08BF013CF7D041EAA2
:10069000060195F0000F18BF704703F000465200A6
:1006A00043EB030313F4801F08BF013DF7D043EA77
:1006B0000603704794EA0C0F0CEA135518BF95EA2D
:1006C0000C0F0CD050EA410618BF52EA4306D1D1B4
:1006D00081EA030101F000414FF0000070BD50EAD3
:1006E000410606BF1046194652EA430619D094EA5D
:1006F0000C0F02D150EA013613D195EA0C0F05D147
:1007000052EA03361CBF104619460AD181EA03019A
:1007100001F0004141F0FE4141F470014FF0000052
:1007200070BD41F0FE4141F4780170BD70B54FF0ED
:10073000FF0C4CF4E06C1CEA11541DBF1CEA13556D
:1007400094EA0C0F95EA0C0F00F0A7F8A4EB05044F
:1007500081EA030E52EA03354FEA013100F0888046
:100760004FEA03334FF0805545EA131343EA12630F
:100770004FEA022245EA111545EA10654FEA0026C4
:100780000EF000419D4208BF964244F1FD0404F57D
:10079000407402D25B084FEA3202B61A65EB0305D9
:1007A0005B084FEA32024FF480104FF4002CB6EB96
:1007B000020E75EB030E22BFB61A754640EA0C0016
:1007C0005B084FEA3202B6EB020E75EB030E22BF56
:1007D000B61A754640EA5C005B084FEA3202B6EB97
:1007E000020E75EB030E22BFB61A754640EA9C0056
:1007F0005B084FEA3202B6EB020E75EB030E22BF26
:10080000B61A754640EADC0055EA060E18D04FEAE3
:10081000051545EA16754FEA06164FEAC30343EA83
:1008200052734FEAC2025FEA1C1CC0D111F4801F50
:100830000BD141EA00014FF000004FF0004CB6E749
:1008400011F4801F04BF01430020B4F1FD0C88BFE8
:10085000BCF5E06F3FF6AFAEB5EB030C04BFB6EBF3
:10086000020C5FEA500C50F1000041EB045170BDE6
:100870000EF0004E4EEA113114EB5C04C2BFD4EB13
:100880000C0541EA045170BD41F480114FF0000E97
:10089000013C90E645EA060E8DE60CEA135594EA13
:1008A0000C0F08BF95EA0C0F3FF43BAF94EA0C0F16
:1008B0000AD150EA01347FF434AF95EA0C0F7FF48B
:1008C00025AF104619462CE795EA0C0F06D152EADF
:1008D00003353FF4FDAE1046194622E750EA4106C3
:1008E00018BF52EA43067FF4C5AE50EA41047FF4D4
:1008F0000DAF52EA43057FF4EBAE12E74FF0FF3C39
:1009000006E000BF4FF0010C02E000BF4FF0010C09
:100910004DF804CD4FEA410C7FEA6C5C4FEA430C82
:1009200018BF7FEA6C5C1BD001B050EA410C0CBFD1
:1009300052EA430C91EA030F02BF90EA020F002033
:10094000704710F1000F91EA030F58BF994208BF9A
:1009500090422CBFD8176FEAE37040F00100704757
:100960004FEA410C7FEA6C5C02D150EA013C07D1AE
:100970004FEA430C7FEA6C5CD6D152EA033CD3D0F9
:100980005DF8040B704700BF8446104662468C46F3
:100990001946634600E000BF01B5FFF7B7FF002826
:1009A00048BF10F1000F01BD4DF808EDFFF7F4FF4F
:1009B0000CBF012000205DF808FB00BF4DF808EDDA
:1009C000FFF7EAFF34BF012000205DF808FB00BFFD
:1009D0004DF808EDFFF7E0FF94BF012000205DF81F
:1009E00008FB00BF4DF808EDFFF7CEFF94BF0120D4
:1009F00000205DF808FB00BF4DF808EDFFF7C4FFCD
:100A000034BF012000205DF808FB00BF4FEA410C15
:100A10007FEA6C5C02D150EA013C0AD14FEA430CF8
:100A20007FEA6C5C02D152EA033C02D14FF0000035
:100A300070474FF0010070474FEA410212F5001273
:100A400015D211D56FF47873B3EB625212D94FEA15
:100A5000C12343F0004343EA505311F0004F23FAFF
:100A600002F018BF404270474FF00000704750EA54
:100A7000013005D111F0004008BF6FF00040704711
:100A80004FF00000704700BF4FEA4102B2F1E0436F
:100A900024BFB3F5001CDCF1FE5C0DD901F0004C65
:100AA0004FEAC0024CEA5070B2F1004F40EB8300B5
:100AB00008BF20F00100704711F0804F21D113F1E1
:100AC0003872BCBF01F00040704741F480114FEA1A
:100AD0005252C2F11802C2F1200C10FA0CF320FAA3
:100AE00002F018BF40F001004FEAC1234FEAD323C0
:100AF00003FA0CFC40EA0C0023FA02F34FEA43032A
:100B0000CCE77FEA625307D150EA01331EBF4FF0B2
:100B1000FE4040F44000704701F0004040F0FE40CD
:100B200040F40000704700BF80F0004002E000BFCA
:100B300081F0004142001FBF5FEA410392EA030FC8
:100B40007FEA226C7FEA236C6AD04FEA1262D2EB12
:100B50001363C1BFD218414048404140B8BF5B4217
:100B6000192B88BF704710F0004F40F4000020F0B0
:100B70007F4018BF404211F0004F41F4000121F0C6
:100B80007F4118BF494292EA030F3FD0A2F1010210
:100B900041FA03FC10EB0C00C3F1200301FA03F14E
:100BA00000F0004302D5494260EB4000B0F5000F71
:100BB00013D3B0F1807F06D340084FEA310102F130
:100BC0000102FE2A51D2B1F1004F40EBC25008BFE2
:100BD00020F0010040EA03007047490040EB0000AC
:100BE000013A28BFB0F5000FEDD2B0FA80FCACF1AD
:100BF000080CB2EB0C0200FA0CF0AABF00EBC250DA
:100C000052421843BCBFD0401843704792F0000FC7
:100C100081F4000106BF80F400000132013BB5E71A
:100C20004FEA41037FEA226C18BF7FEA236C21D090
:100C300092EA030F04D092F0000F08BF08467047F5
:100C400090EA010F1CBF0020704712F07F4F04D1C3
:100C5000400028BF40F00040704712F100723CBFD6
:100C600000F50000704700F0004343F0FE4040F400
:100C7000000070477FEA226216BF08467FEA2363BE
:100C80000146420206BF5FEA412390EA010F40F4A9
:100C9000800070474FF0000304E000BF10F00043F5
:100CA00048BF40425FEA000C08BF704743F09643DC
:100CB00001464FF000001CE050EA010208BF7047F7
:100CC0004FF000030AE000BF50EA010208BF70477E
:100CD00011F0004302D5404261EB41015FEA010C93
:100CE00002BF84460146002043F0B64308BFA3F18B
:100CF0008053A3F50003BCFA8CF2083AA3EBC2536D
:100D000010DB01FA02FC634400FA02FCC2F120028B
:100D1000BCF1004F20FA02F243EB020008BF20F0C2
:100D20000100704702F1200201FA02FCC2F1200228
:100D300050EA4C0021FA02F243EB020008BF20EA1D
:100D4000DC7070474FF0FF0C1CEAD0521EBF1CEA4B
:100D5000D15392EA0C0F93EA0C0F6FD01A4480EA39
:100D6000010C400218BF5FEA41211ED04FF0006322
:100D700043EA501043EA5111A0FB01310CF000404E
:100D8000B1F5000F3EBF490041EAD3715B0040EA74
:100D9000010062F17F02FD2A1DD8B3F1004F40EB44
:100DA000C25008BF20F00100704790F0000F0CF017
:100DB000004C08BF49024CEA502040EA51207F3ADB
:100DC000C2BFD2F1FF0340EAC250704740F40000B6
:100DD0004FF00003013A5DDC12F1190FDCBF00F0A7
:100DE00000407047C2F10002410021FA02F1C2F155
:100DF000200200FA02FC5FEA310040F1000053EAF1
:100E00004C0308BF20EADC70704792F0000F00F03E
:100E1000004C02BF400010F4000F013AF9D040EA44
:100E20000C0093F0000F01F0004C02BF490011F4D8
:100E3000000F013BF9D041EA0C018FE70CEAD153D6
:100E400092EA0C0F18BF93EA0C0F0AD030F0004C56
:100E500018BF31F0004CD8D180EA010000F000400A
:100E6000704790F0000F17BF90F0004F084691F0C8
:100E7000000F91F0004F14D092EA0C0F01D1420202
:100E80000FD193EA0C0F03D14B0218BF084608D1CB
:100E900080EA010000F0004040F0FE4040F4000015
:100EA000704740F0FE4040F4400070474FF0FF0CA8
:100EB0001CEAD0521EBF1CEAD15392EA0C0F93EAEF
:100EC0000C0F69D0A2EB030280EA010C49024FEA41
:100ED000402037D04FF0805343EA111143EA1013FA
:100EE0000CF000408B4238BF5B0042F17D024FF4B2
:100EF000000C8B4224BF5B1A40EA0C00B3EB510F8D
:100F000024BFA3EB510340EA5C00B3EB910F24BF75
:100F1000A3EB910340EA9C00B3EBD10F24BFA3EBFA
:100F2000D10340EADC001B0118BF5FEA1C1CE0D1C2
:100F3000FD2A3FF650AF8B4240EBC25008BF20F075
:100F4000010070470CF0004C4CEA50207F32C2BFC9
:100F5000D2F1FF0340EAC250704740F400004FF066
:100F60000003013A37E792F0000F00F0004C02BF97
:100F7000400010F4000F013AF9D040EA0C0093F061
:100F8000000F01F0004C02BF490011F4000F013BBB
:100F9000F9D041EA0C0195E70CEAD15392EA0C0F23
:100FA00008D142027FF47DAF93EA0C0F7FF470AF5B
:100FB000084676E793EA0C0F04D14B023FF44CAF9E
:100FC00008466EE730F0004C18BF31F0004CCAD133
:100FD00030F000427FF45CAF31F000437FF43CAF6F
:100FE0005FE700BF4FF0FF3C06E000BF4FF0010C91
:100FF00002E000BF4FF0010C4DF804CD4FEA400273
:101000004FEA41037FEA226C18BF7FEA236C11D0BC
:1010100001B052EA530C18BF90EA010F58BFB2EB6F
:10102000030088BFC81738BF6FEAE17018BF40F0EF
:10103000010070477FEA226C02D15FEA402C05D1A3
:101040007FEA236CE4D15FEA412CE1D05DF8040B28
:10105000704700BF844608466146FFE70FB5FFF7BB
:10106000C9FF002848BF10F1000F0FBD4DF808ED73
:10107000FFF7F4FF0CBF012000205DF808FB00BF64
:101080004DF808EDFFF7EAFF34BF012000205DF8BE
:1010900008FB00BF4DF808EDFFF7E0FF94BF01200B
:1010A00000205DF808FB00BF4DF808EDFFF7D2FF08
:1010B00094BF012000205DF808FB00BF4DF808ED4B
:1010C000FFF7C8FF34BF012000205DF808FB00BF18
:1010D0004FEA4002B2F1FE4F0FD34FF09E03B3EB45
:1010E00012620DD94FEA002343F0004310F0004F85
:1010F00023FA02F018BF404270474FF000007047DB
:1011000012F1610F01D1420205D110F0004008BF79
:101110006FF0004070474FF00000704708B50422A0
:101120004FF47060084903F0CDF804224FF4A0603A
:10113000064903F0C7F8BDE8084004224FF4807068
:10114000034903F0BFB800BF6C0400207004002006
:101150006803002008B58021002003F047F8002034
:1011600003F016F8FFF7DAFFBDE8084006224FF457
:101170001060014903F0A6B8E00D002008B58021F9
:10118000002003F033F8002003F002F8BDE8084027
:1011900006224FF41060014903F094B8E00D0020DE
:1011A00070B5094B094E0A4C1E600A4E0A4D0028C4
:1011B00008BF3046002918BF0C46084E2C6030602E
:1011C00002B11A6070BD00BF0C0000207D11000844
:1011D000551100081D110008100000200800002013
:1011E00007B5062269464FF4106003F031F8204B32
:1011F000204A1B681A60204A1268110E1971110CDE
:101200005971110A9971DA7100214FF40002C3E992
:1012100002211A4AC3E904111078996118775078AD
:10122000587790789877D078D8771079527983F872
:10123000200083F8212003F12C0003F1220202F8A0
:10124000011B8242FBD1002003F16C0102F8010B6B
:101250008A42FBD1002003F1EC0102F8010B91421C
:10126000FBD1074AC3F8EC2003B05DF804FB00BFD4
:10127000F40D002001010600E80D0020E00D002023
:10128000638253631FB5FFF7ABFF2D4B0022196834
:101290002C4B8A72C1F8F03040F20713A1F8F430F9
:1012A000294BCA72187881F8F600587881F8F7004F
:1012B000987881F8F800D87881F8F90018795B7986
:1012C00081F8FA0081F8FB3040F23243A1F8FC309B
:1012D0001E4B187881F8FE00587881F8FF00987846
:1012E000DB7881F8000181F8013140F23643A1F842
:1012F0000231174B187881F80401587881F80501FC
:10130000987881F80601DB7801F5097081F80731DA
:10131000FF2381F8083101F2091303F8012B8342FE
:10132000FBD14FF0FF33039343230A4800934FF45C
:10133000097203AB007802F07BF805B05DF804FB9E
:10134000F40D00203501043DE00D00206C04002068
:10135000F00D0020F80D00202DE9F04FA14D8BB0CD
:10136000287803F00AF8024618B900200BB0BDE84F
:10137000F08F0DF11E039C4C0093216808AB287878
:1013800002F006F9BDF81E30432B40F02881216899
:10139000964B0C7F1A789442E7D14C7F5A7894424E
:1013A000E3D18C7F9A789442DFD1CC7FDA78944273
:1013B000DBD191F820401A799442D6D191F82120BE
:1013C0005B799A42D1D18A4A9DF820901778567855
:1013D0009578D47847EA06032B432343029220D022
:1013E0004F450BD19DF82130B34207D19DF82230F3
:1013F000AB4203D19DF82330A34212D07D4B1C7821
:101400004C45B2D19DF821505C78A542ADD19DF8F4
:1014100022509C78A542A8D19DF82340DB789C42BD
:10142000A3D180B201EB000A00209DF8212001F138
:10143000F00303929DF822206E4904929DF8232028
:101440006D4C6E4D6E4E6F4F0592534501D340B2B9
:101450008CE793F800C0BCF1350F39D013D8BCF13C
:10146000060F08D8BCF1060F08D8DFE80CF02F34BF
:10147000074607075B00BCF1330F66D003F1020C8F
:101480005B786344E1E7BCF1E10F00F08C8018D891
:10149000BCF1360F6DD0BCF1E00FEFD193F802E054
:1014A00093F801C084F800E093F803E084F801E0C9
:1014B00093F804E084F802E093F805E084F803E090
:1014C0002DE0BCF1FF0FD9D15346BEE70133BCE795
:1014D00098780333B9E793F802C087F800C093F80F
:1014E00003C087F801C093F804C087F802C093F8DE
:1014F00005C087F803C00633A7E793F802E093F826
:1015000001C086F800E093F803E086F801E093F864
:1015100004E086F802E093F805E086F803E063440F
:10152000023392E793F802E093F801C085F800E0F7
:1015300093F803E085F801E093F804E085F802E011
:1015400093F805E085F803E0E9E793F802C02E4A36
:10155000C2F800C093F803E00EEB0C2C93F804E003
:101560000EEB0C2E93F805C00CEB0E2CC2F800C04D
:10157000C1E793F802C0029A82F800C093F803C052
:1015800081F8009082F801C093F804C082F802C08C
:1015900093F805C082F803C0039A4A70049A8A70CF
:1015A000059ACA70A7E79A1C964693F801C0C3F142
:1015B000FF2303F57F03DFF85480FE330EEB030BAC
:1015C000DC4507DC13464FF0000E104A634402F876
:1015D0000CE03AE71EF801BB08F801BBEEE700207B
:1015E00035E700BFF80D0020F40D0020E00D0020CD
:1015F000F00D0020EC0D0020740400206403002096
:101600006803002070040020140000206C030020F8
:1016100037B54FF4D85002F0BBFD032105464FF417
:10162000D85002F0E3FD41F288330E4800931122B6
:101630000D4B0E49007801F0FBFE044629464FF49D
:10164000D85002F0D3FD0D340AD0FFF71BFE084B33
:1016500019681A68521A012AFBD9002003B030BD5C
:101660000120FBE7F80D00206C040020089D000815
:101670008004002000230A21034A1360034A1160FA
:10168000034A1370704700BF800400201800002038
:101690007C040020002373B5244C062206460D4628
:1016A0004FF410602146019302F0D2FD6278237856
:1016B0001343A2781343E2781343227913436279E8
:1016C00013430DD108226270DC222146A2704FF430
:1016D000106006222370E3702371637102F0F2FD43
:1016E000134B20791E70134BE1781D60124B627909
:1016F0000C182344414013444A4013440F4A4FF40A
:101700007060136004220DEB020102F0DBFD042285
:101710004FF480700DEB020102F0D4FDFFF7AAFF39
:101720000022074B1A7002B070BD00BFE00D002010
:10173000F80D0020F40D002078563412E80D00203A
:101740007D040020024A136801331360704700BF14
:1017500080040020044B1A7802705A7842709A78FC
:101760008270DB78C37070476C040020044B1A78D9
:1017700002705A7842709A788270DB78C370704732
:1017800068030020044B1A7802705A7842709A78E5
:101790008270DB78C370704774040020054A431ED2
:1017A000FE30117803F8011F12F8011B09B18342C2
:1017B000F7D170476C030020044B1A7802705A78F6
:1017C00042709A788270DB78C37070477004002092
:1017D00000F00F00092894BF303037307047000008
:1017E0002DE9F04385B0FFF7FBFC0023694A6A4806
:1017F000137053709370D370684A13705370937062
:10180000D370674B1968674BC1F8F03040F207138B
:10181000A1F8F430644B1A7893F8038081F8F6202D
:101820005A781F795E7981F8F7209A780C23A1F80D
:10183000FC30122381F8F82081F8F98081F8FA70E1
:1018400081F8FB60A3F1120292B2845C5D1CADB220
:1018500001EB0309002C40F093804FEA1810FFF7CA
:10186000B7FF89F8EC004046FFF7B2FF0D4485F85A
:10187000EC003809FFF7ACFF9D1CADB20D4485F8B4
:10188000EC003846FFF7A4FFDD1CADB20D4485F82F
:10189000EC003009FFF79CFF1D1DADB20D4485F82B
:1018A000EC003046FFF794FF5D1DADB20D4485F8A6
:1018B000EC00981D80B2D51D451B06320D4485F8FD
:1018C000EC203722084480F8EC200820DA1D92B280
:1018D0000A4482F8EC001A18012092B20A4482F8F5
:1018E000EC00032003F1090292B20A4482F8EC00F2
:1018F000062003F10A0292B20A4482F8EC000F209B
:1019000003F10B0292B20A4482F8EC003A2003F190
:101910000C0292B20A4482F8EC003B2003F10D0263
:1019200092B20A4482F8EC00E02003F10E0292B277
:101930000A4482F8EC00E12003F10F0292B20A445B
:1019400082F8EC00FF2003F1110210339BB20B442C
:1019500092B283F8EC0002F1EC030B44B2F59C7FE9
:1019600012D34FF0FF3303934323104800934FF4F7
:10197000097203AB007801F05BFD05B0BDE8F083B0
:101980002B4689F8EC405DE7013203F8014B92B237
:10199000E4E700BFF00D002000000020EC0D002067
:1019A000F40D00203501013DE00D0020F80D002070
:1019B0002DE9F04385B0FFF713FC924B92491B7859
:1019C000033B012B00F2108100220B689A72DA723D
:1019D0008E4A10781873507858739078D27898732C
:1019E000DA738B4B1A788DF80C205A788DF80D200D
:1019F0009A78DB788DF80E208DF80F300968854BCA
:101A0000C1F8F03040F20713A1F8F430824B1A7895
:101A1000DF7881F8F6205A781E7993F8058081F8EE
:101A2000F7209A789DF80F3081F8F820FF2B81F885
:101A3000F97081F8FA6081F8FB8040F0D98040F2BB
:101A40003243A1F8FC30714B1A7881F8FE205A78A5
:101A500081F8FF209A78DB7881F8002181F8013144
:101A600040F23643A1F80231694B1A7881F804211B
:101A70005A7881F805219A78DB7881F806211C22B2
:101A800081F807310C208B1883F8EC00931C01328D
:101A90008818002280F8EC20604810F8015B5C1C7C
:101AA000A4B201EB0309002D40F0A4803809FFF730
:101AB0008FFE89F8EC003846FFF78AFE0C4484F864
:101AC000EC003009FFF784FE9C1CA4B20C4484F89F
:101AD000EC003046FFF77CFEDC1CA4B20C4484F81A
:101AE000EC004FEA1810FFF773FE1C1DA4B20C4463
:101AF00084F8EC004046FFF76BFE5C1DA4B20C447A
:101B000084F8EC00981D80B2D41D041B06320C44EE
:101B100084F8EC203722084480F8EC200A20DA1DF3
:101B200092B20A4482F8EC00012003F1080292B25A
:101B30000A4482F8EC00032003F1090292B20A443D
:101B400082F8EC00062003F10A0292B20A4482F8FD
:101B5000EC000F2003F10B0292B20A4482F8EC0071
:101B60003A2003F10C0292B20A4482F8EC003B20C6
:101B700003F10D0292B20A4482F8EC001F2003F137
:101B80000E0292B20A4482F8EC00212003F10F0207
:101B900092B20A4482F8EC00E02003F1100292B203
:101BA0000A4482F8EC00E12003F1110292B20A44E7
:101BB00082F8EC00FF2003F1120292B20A441333C0
:101BC00082F8EC009BB201F1EC02B3F59C7F16DBCE
:101BD0004323134800934FF4097203AB007801F0DC
:101BE00027FC05B0BDE8F0834FF0FF33039305E712
:101BF000102247E7234689F8EC5001324DE7D554CF
:101C00000133E2E77D040020F40D00206C04002085
:101C1000F00D00203501033DE00D00200000002004
:101C2000F80D002070B51C4C94F90030012B1DDC20
:101C30001A4D1B4E2A683168914212D2194B93F902
:101C40000030022B0FD0042B0DD0012B01D1FFF758
:101C5000C7FD00232B602B680A33336023780133E0
:101C60002370012010E0FFF7A3FEF2E70D4B93F97C
:101C700000201C46022A08D0042A06D0012A09D1D5
:101C800000201870FFF7F6FC70BDFFF7A9FD0120DA
:101C90002070F7E70120F5E77C0400208004002095
:101CA000180000207D04002038B5524C94F9003013
:101CB000062B00F09C80504D2878400100F54270C2
:101CC00002F066FA222805D0002344220221287857
:101CD00001F01CFAFFF740FB94F90030C5B2042B69
:101CE00031D8DFE803F0030E233D5A000022434BB6
:101CF0001A705A709A70DA70FFF772FD0120207026
:101D000038BD022D0ED13E4B1A683C4B117C197028
:101D1000517C5970917CD27C9970DA70FFF748FE43
:101D2000257010E0BDE83840FFF77CBF052D12D1CB
:101D3000FFF76EFC054640B1324B1B689847FFF732
:101D400099FC032323700120DAE7FFF793FC2E4B65
:101D50001B689847E4E7062DE4D1FFF78BFCCDE73D
:101D60002A4B1B685A1C40D0294A1268B2EB530F09
:101D70003BD9224A274B11781970517859709178C4
:101D8000D2789970DA70244A136801331360FFF730
:101D90000FFEFFF76FFC0420B1E7052D1FD10022D5
:101DA0001E4B1A701B4A154B1078197888420BD1BC
:101DB00050785978884207D190789978884203D131
:101DC000D278DB789A4208D0154B1B6898470320DD
:101DD000FFF750FC0323237092E70420F8E7062D59
:101DE000A0D1FFF747FC01232370042088E70520DA
:101DF00086E700BF7D040020F80D00206C04002061
:101E0000F40D0020080000200C0000201400002029
:101E10008004002078040020E80D00207C040020CD
:101E2000100000200122014B1A7070474C05002061
:101E30007047000000224FF48051014802F034BF87
:101E4000000C014001224FF48051014802F02CBFE8
:101E5000000C01400A464FF0FF330146014803F0F1
:101E600016BD00BFFC11002007B501210DF10700D0
:101E7000FFF7F0FF9DF8070003B05DF804FB0000DA
:101E80000A464FF0FF330146014803F064BB00BF30
:101E9000FC11002007B501218DF807000DF10700A6
:101EA000FFF7EEFF03B05DF804FB00000000000048
:101EB0005B4BF0B51A6803F1236303F567337633A0
:101EC0009A4289B042D101284DD0564BC8221C8875
:101ED000554BA4B21C80554B00211D88544BADB20C
:101EE00054481D8004F0FCFC2B46224652495148C0
:101EF00005F05EF94FF47A73C8224E494F4804F05A
:101F000011FC4F4BC8221C684E4B00211C604E4BED
:101F100048481E684D4B1E6004F0E2FC2046FEF768
:101F200083FA044630460D46FEF77EFA2246CDE996
:101F300000012B4646493F4805F03AF94FF47A73C1
:101F4000C8223C493D4804F0EDFB26E058B948F66C
:101F5000B803354A1380364A13804FF07E53394A0E
:101F600013603A4A13600023CDE9033301232C4A5E
:101F7000384CCDE90623237002F0B2FC2070002813
:101F8000FAD103A904A802F067FD40B10123237030
:101F900002F0B8FC20700028FAD109B0F0BD01238E
:101FA0001DA7D7E900671E4D237032463B462946E0
:101FB000032002F0DBFC20700028F6D11C4B002728
:101FC0001888194B174E1A88012342EA00452370DE
:101FD0002A463B463146032002F0C8FC2070002808
:101FE000F6D10123174E164D2370002329460220F7
:101FF000326802F0BBFC20700028F6D10123134E9A
:10200000114D2370002329460220326802F0AEFCF5
:1020100020700028F6D1B9E776983412000000004D
:1020200000FC000810FC00089009002012FC0008C9
:10203000E4050020840400201A9D00084C130020B1
:1020400018FC00089005002020FC0008A0050020D6
:10205000339D0008281400202DE9F04104460E4667
:102060001746984642F68822002301210220C0B07C
:1020700001F04CF80228054645D1214642F2437250
:1020800001F0D6F80128044607D0284601F000F8F0
:10209000FE24204640B0BDE8F0814046FEF7C4F97A
:1020A0003246CDE900013B46184903A805F080F807
:1020B000174B03A820938DF88440FEF749F80023BE
:1020C000C4B203A90DF18D008DF88540ADF88630BE
:1020D00022938DF88C3005F08BF80D34E4B2224653
:1020E000022020A901F01AF9002804DC022000F0E7
:1020F000CFFFFD24CDE7241A14F0FF04EFD1022016
:1021000000F0C6FFC5E7FF24C3E700BF4D9D0008F0
:102110005A42584473B53149314802F0D5F9314932
:10212000314802F0E3F93149314802F0F7F96B46E2
:10213000304A314D1068516840F2E93403C36946B2
:10214000084602F040FA06224FF410602B4902F0D4
:10215000B9F800202A49FFF79DFA2A492A4A084679
:10216000FFF71EF82E462B780BB9013C0ED13378C1
:1021700093B9BFF34F8F2549254BCA6802F4E0623B
:102180001343CB60BFF34F8F00BFFDE7FFF78CFD1C
:10219000642002F0F1FAE6E7184CA01DFFF7DAFA26
:1021A00004F10E00FFF7E2FA04F10A00FFF704FB66
:1021B00004F11600FFF7E6FA04F11A00FFF7EEFA51
:1021C000A37E43B91349144805F012F80B4802F0F6
:1021D00037FA02B070BD04F11A01F4E7451E000899
:1021E000351E0008951E0008691E0008811E0008A3
:1021F000551E0008A49D00084C0500201C0000206E
:10220000FC0D0020251E0008311E000800ED00E036
:102210000400FA05999D0008C80C002030B5002480
:1022200091B01422214601A8CDE90744099404F095
:1022300057FB0A231022069301230225CDE90A3217
:102240000C934FF4601306A8CDE90D540F9302F0E0
:1022500007FE08B172B6FEE70F23CDE901354FF452
:1022600080630390CDE90430294601A802F0D4FF31
:1022700008B172B6FEE711B030BD00002DE9F04F95
:10228000A54CB1B002F054FA606A636AA349656A6A
:10229000A34A666A13F0804F676A14BF13460B4661
:1022A00015F0005FD4F824C014BF15460D4616F093
:1022B000805F14BF16460E4617F0806F14BF174696
:1022C0000F461CF0006F0CBF8C469446CDE90056BB
:1022D000CDE9027C12EA200238BF0A4691499248B1
:1022E00004F066FFFFF79AFF1022002128A804F0EF
:1022F000F7FAA369002243F02003A361A3694FF416
:10230000845103F020031893189BA369874843F076
:102310000403A361A369012603F004031993199B25
:10232000A369022543F00803A361A369002403F015
:1023300008031A931A9B02F0B7FC002241F21E0117
:102340007B4802F0B1FC4FF48453784828A9CDE9CA
:102350002836CDE92A4502F0CBFB41F21E03744832
:1023600028A9CDE92836CDE92A450C2602F0C0FB84
:102370004FF4E1336F48DFF8D0E1C0E90244C0E92F
:1023800000E3C0E905640461C46104F09DF90546F9
:1023900008B172B6FEE72027014610221DA804F0FE
:1023A0009FFA1C22294621A8CDE91B5504F098FA72
:1023B0003A46294628A804F093FA5F4C5F4B4FF049
:1023C0005B0CC4E9003540F22A33C4E903358023AD
:1023D0002046C4E905C3A56003F0A2FC08B172B6AB
:1023E000FEE74FF4805320461DA91D9303F056FECF
:1023F00008B172B6FEE7204603F0BEFC08B172B623
:10240000FEE70821204603F00FFD08B172B6FEE793
:10241000CDE91B701BA9204604F09EF8024608B1C6
:1024200072B6FEE73023CDE92300CDE92130CDE9B6
:102430002500279021A9204603F050FD08B172B66F
:10244000FEE722682046936921A943F008039361BF
:10245000042203F043FD08B172B6FEE7226820466D
:10246000936921A943F400639361082203F036FDC8
:1024700008B172B6FEE73246204621A903F02EFDD0
:1024800008B172B6FEE722682B48D36928A943F445
:102490000063D36100234FF40052CDE92833CDE926
:1024A0002A332C932D922F9304F084F8054608B11B
:1024B00072B6FEE7204801F07DFA1022294628A8CE
:1024C00004F00EFA01231E4C1E4E8027C4E900635F
:1024D0004FF6FF732046CDE92155C4E90335A560C9
:1024E000A76103F01DFC08B172B6FEE74FF48056F9
:1024F000204628A9289603F0D1FD08B172B6FEE760
:10250000202321A9CDE92130204604F025F80546F5
:10251000E0B172B6FEE700BF00100240B19D0008B6
:10252000AD9D0008B49D000884040020000801400F
:10253000000C01404C13002094130020002C01409B
:1025400054120020000800400038014001461022CB
:102550001DA804F0C5F91422294621A804F0C0F9E9
:102560001C22294628A8724CCDE91B5504F0B8F965
:10257000704B2046C4E9003549F64043A560C4E9E4
:102580000335A76103F0CCFB08B172B6FEE7204625
:102590001DA91D9603F082FD08B172B6FEE7204624
:1025A00003F0EAFB08B172B6FEE70821204603F00B
:1025B0003BFC08B172B6FEE7062321A9CDE9213024
:1025C000204603F051FE08B172B6FEE730231BA986
:1025D000CDE91B30204603F0BFFF08B172B6FEE71D
:1025E00000221024524828A9CDE928422A922C9290
:1025F00003F074FC054608B172B6FEE722460146B8
:102600001DA804F06DF91422294628A804F068F9E1
:102610002246294621A8CDE91B5504F061F94FF067
:102620008043454CC4E900354FF6FF73C4E90335D8
:1026300080232046A560A36103F072FB08B172B647
:10264000FEE74FF4805320461DA91D9303F026FD9D
:1026500008B172B6FEE7204603F0BAFB08B172B6C5
:10266000FEE704252023204628A9CDE9285303F0BE
:10267000FBFD08B172B6FEE7CDE91B001BA92046A1
:1026800003F06AFF024608B172B6FEE7012321900B
:10269000CDE92230249021A9204603F071FC08B135
:1026A00072B6FEE702232A46204621A9CDE921334E
:1026B00003F066FC034608B172B6FEE71F48204AE5
:1026C000204CC0E90233C0E900424FF48042C0E927
:1026D0000633C0E90423036202F0ECFA034608B1B2
:1026E00072B6FEE74FF4827217481849C0E9023308
:1026F000C0E900124FF40072C0E90433C0E90623B8
:10270000C0E9083383620A23C36202F0CCFE08B139
:1027100072B6FEE705230E480E4AC0E9002340F6D4
:10272000FF73836002F06EFB0446A8B172B6FEE749
:102730000413002000040040DC1300209C12002041
:10274000A086010000540040FC1100200038004029
:10275000F0120020003000404FF001080026002752
:10276000DFF848B301228021AD4802F09DFA4FF016
:10277000FF33C822AB49AC488BF8008003F0D2FF8E
:102780004FF0FF331222A949A74803F0CBFFA84D11
:1027900022464FF48051A24802F086FA42464FF496
:1027A00080519F4802F080FA42464FF480512846FB
:1027B00002F07AFA4FF4FA6001F0DEFFFFF7AAFCAC
:1027C0002046FFF775FBEB689A4A43F01E03EB6067
:1027D0001188994BDFF8D8A2D9629849984BC1E982
:1027E00000679849DFF8CC9281F800809649974DB0
:1027F0000C80974821461C808AF80040C9E9006790
:10280000C5E9006703F05EFE0421914803F05AFE1B
:102810008B4BCDF850B09B4600238E4920460C8050
:102820001C46844ACDE91595DFF864C28A491292A4
:10283000CDF84CA0013064284CF8043B41F8043B2F
:10284000F8D10025854BDFF83C82132284491D70A6
:1028500075484FF0FF3388F8005003F063FF81485C
:1028600003F024F9804803F021F9804B2A46C3E99C
:102870000067159B8021C3E90067169B6848C3E980
:1028800000677B4BC3E900677A4BC3E900677A4B6B
:10289000C3E9006702F008FACDF85C80149B1B784E
:1028A000002B00F01081754A7548136843F001034E
:1028B000136002F0CEFA0023149A1370BBF80030B4
:1028C000002B00F049826F4A6F4B12781B8822B9A7
:1028D000624A1278002A00F06B81B3F5C86F80F06D
:1028E0006A81C82200214F4803F0FAFF5A4BD3F8FF
:1028F00000A0664B50461D68654BD3F80080654BC1
:10290000D3F80090139B1B78002B00F02D81FDF76E
:102910008BFD614B06460F4648461968FEF712FAD2
:1029200001464046FEF704F9FDF77EFDCDE90801BA
:102930004846FDF779FDCDE906014046FDF774FDF7
:10294000CDE90401554B28461968FEF7FBF901460D
:102950005046FEF7EDF8FDF767FDCDE90201284688
:10296000FDF762FD3246CDE900013B464C492D485A
:1029700004F01EFC4FF47A73C8222A492A4803F057
:10298000D1FE139B1B78002B48D13E4D2B78002B9A
:1029900000F006813D4B19682F4B1868FEF7CAF806
:1029A00040490646FEF7C4F8FEF792FB0028B8BF80
:1029B0004042012840F3F480129B304639491D887B
:1029C000FEF77CFB002800F0E9800135129B1D809A
:1029D000224D2B78002B00F0E8802E4B19682C4BF1
:1029E0001868FEF7A7F82F490746FEF7A1F8FEF78B
:1029F0006FFB0028B8BF4042012840F3D6802A4E22
:102A0000384628493588FEF759FB002800F0CB806E
:102A1000013535801C4A138801331380174A4BE077
:102A200000080140840400204C130020F69D00089B
:102A3000000C01409009002000040040B80500206F
:102A4000280B0020D40D00208009002098050020CC
:102A5000DC130020C00500204C060020EC070020FD
:102A6000089E0008041300205412002030060020A5
:102A7000A8050020300B0020E007002010E000E057
:102A8000F0120020E60500202A0B0020380B002061
:102A9000F00700209409002090050020A0050020E8
:102AA0001B9E00080000C844E40500209405002097
:102AB00048060020400600208B48136823F00103DD
:102AC000136002F0F3FF894D0A230122294688484A
:102AD00003F07DFE00283FF4E1AE2B78632B40F03D
:102AE000DA814FF47A7316228249814803F01AFE84
:102AF0007D4803F005F800217F4803F0E3FC042142
:102B00007D4803F0DFFCC82200217C4803F0E8FE8A
:102B10000123179A12991370794A13700023139A9C
:102B20001370784A138048F6B8020A8076490A8002
:102B3000764A1460764A1460764A1460764A1460C5
:102B4000764A1460764A1460764A13804FF4FA721B
:102B5000ABF80020744A1380744A1380624802F074
:102B6000A5FF00232B7099E6FDF75EFC064648465C
:102B70000F46FDF759FCCDE904014046FDF754FC32
:102B8000CDE902012846FDF74FFC3246CDE90001B0
:102B90003B466749594804F00BFBEBE6013D15E75E
:102BA00000232B7014E7013D33E700232B7031E73E
:102BB000B3F5C86F08D34FF47A731F225D494C48B0
:102BC00003F0B0FD01F03CFEBBF80050002D3FF4D7
:102BD00025AF4E4E584B31681868FDF7ABFF574B89
:102BE00030604B4E074631681868FDF7A3FFDFF8E9
:102BF0002481534BD8F80010306082461868FDF7E6
:102C000099FF504BC8F80000DFF80C810646D8F851
:102C100000101868FDF78EFF013DADB28146C8F87F
:102C20000000ABF80050002D7FF4F8AE5146384656
:102C3000FEF73CF9DFF8E4804946C8F8000030466A
:102C4000FEF734F9364F2946C82238602B4803F086
:102C500047FE129A2C4B12881B883B49274804F0E8
:102C6000A7FA4FF47A73C8222449214803F05AFD89
:102C7000C8222946214803F033FE3868FDF7D4FB0B
:102C80000546D8F800000E46FDF7CEFB2A46CDE9F2
:102C9000000133462D49194804F08AFA4FF47A733B
:102CA000C8221649124803F03DFDD8F80000FEF78F
:102CB0000FFA013002280FD83868FEF709FA013000
:102CC000022809D80120FFF7F3F800220D4B1A80E3
:102CD00001221F4B1A70A1E64FF47A732A221D4974
:102CE000034803F01FFDF0E7541200204D050020BB
:102CF0004C130020A19F0008DC1300208404002056
:102D0000EC0700202A0B0020E4050020E00500204D
:102D1000E8070020240B0020C80D002090050020AB
:102D2000A0050020CC0D002080090020C005002057
:102D3000589E0008859E0008F00700209409002096
:102D40004C060020380B0020A49E0008D09E0008EE
:102D5000D40D0020E99E0008DFF830A2724DDAE9B8
:102D60000067002200233046394695F80080FDF7C1
:102D70001BFE00287AD1B8F1000F47D16B4B00221F
:102D8000D3E9008930463946694BFDF717FE002824
:102D90003FD1684B1868FDF747FBCDE91001664B42
:102DA0001868FDF741FBCDE90E01644B1868FDF78B
:102DB0003BFBCDE90C01624B6249D3E90023CDE92D
:102DC0000A23614B6148D3E90023CDE90823604B16
:102DD000D3E90023CDE90623544BD3E90023CDE901
:102DE0000423169BD3E90023CDE90223159BD3E9E5
:102DF0000023CDE90023DAE9002304F0D9F94FF4E8
:102E00007A73C8225149534803F08CFC00232B707D
:102E100004E6002240464946454BFDF7CFFD002819
:102E2000B7D039463046FDF72FFE4B4A03464B4993
:102E30004B48FFF711F9424BD3E90001FDF724FE9F
:102E400046490346474A4648FFF706F9374BD3E958
:102E50000001FDF719FE444A034640494048FFF788
:102E6000FBF8314B1B78002BD0D192E7B8F1000F63
:102E7000CCD12E4E0022D6E900012D4BFDF79EFD50
:102E8000002886D035490023334A3548FFF7E4F857
:102E9000D6E90001DDE7742B20D1344802F030FE82
:102EA0000021334803F00EFB0421314803F00AFBF4
:102EB0004FF47A7310222F49264803F033FC002286
:102EC00001232D49ABF800300A8013990B702B4970
:102ED0000B702B490B702B4B1A803FE6722B7FF443
:102EE00040AE224802F00CFE0021214803F0EAFA2D
:102EF00004211F4803F0E6FA4FF47A732122224995
:102F0000144803F00FFC0020139B1C4A1870012387
:102F100013701B4AABF800001370174B1880194B45
:102F20001880FEF7C5FF19E6D40D0020A805002083
:102F3000000044402C06002000060020F005002080
:102F4000C8050020139F0008E0070020840400202B
:102F5000300B00204C130020799F0008C80C002083
:102F600032000020859F0008929F00085412002024
:102F7000DC130020B79F00082A0B0020E605002084
:102F8000EC070020C0050020C79F00083006002085
:102F900038B5344D04462A68002A4DD00368B3F191
:102FA000804F49D1037F591E012945D8072A01D9ED
:102FB000012B41D1012280212B4801F075FE802197
:102FC0000022294801F070FE237F2848012B0CBF06
:102FD0000021042102F0AFFD254C2968236880B24E
:102FE000184401392060296031BB204803F06AFA97
:102FF00004211E4803F066FA23681E4ADB08A3F585
:103000002F63B3F5C86F88BF4FF4C8632360D368DC
:1030100023F01E03D360184B1B88013B032B0BD8F6
:10302000DFE803F0020B1219144B20681D88FDF72E
:1030300031FE134B43F8250038BD104B20681D8826
:10304000FDF728FE0F4BF5E70C4B20681D88FDF7B8
:1030500021FE0D4BEEE7094B20681D88FDF71AFE97
:103060000A4BE7E73806002000080140DC13002087
:1030700028060020000C014080090020C005002027
:103080004C060020380B0020F00700209409002097
:103090000828F8B504462DD8470107F1080607F5BA
:1030A00084771021384601F0A1F8384601F070F815
:1030B00005460028F9D11F2106F5007001F096F8A9
:1030C0000123A340DB430D491BB20A8806F5407675
:1030D0001A400A800A4A11880B401380094B23F8D2
:1030E0001450094B1D55304601F052F80028FAD112
:1030F0000120F8BD4FF0FF30FBE700BF580500206E
:103100005A050020640500205C05002008282DE9F0
:10311000F3410446884617461D467CD8012905D050
:103120008B1E022B10D96FF004000AE004224FF42A
:1031300070600DEB020101F08BF8019B23B96FF079
:10314000020002B0BDE8F081680757D42DB1B8F194
:10315000010F50D0B8F1020F53D020466601FFF79F
:1031600097FF083625F00F01304641EA080101F0CB
:103170003DF86FB94FF6F071284A17887B1C9BB257
:103180008B4205BF4FF440434FF6EF771380138017
:10319000390A06F5806001F029F8F9B206F5A06059
:1031A00006F5807701F022F80121384601F01EF87B
:1031B000384600F0EDFF0028FAD10123A340DB439D
:1031C00017491BB20A8805F001051A40A5401543AE
:1031D000144A0D80118806F540760B401380124B7F
:1031E00023F81400114B1855304600F0D1FF002889
:1031F000FAD060B2A5E715F0210FAED16FF005004F
:103200009FE7A9066BB201D5002BF7DAEA06A4D531
:10321000002BA2DBF2E74FF0FF3092E736010020EF
:10322000580500205A050020640500205C05002098
:1032300008282DE9F04106460D4617465DD84401A1
:103240000834204600F0A4FF00F00F00012857D1F9
:1032500004F54078404600F09BFF132853D12B78AB
:103260006A7802EB0322AB7803EB0222EB78013B96
:1032700003EB0223033349D8002F4AD00422294606
:1032800004F5406001F01EF8390A04F5805000F0A2
:10329000ADFF04F58075F9B204F5885000F0A6FF83
:1032A0000421284600F0A2FF284600F071FF002804
:1032B000FAD1194B1B8843FA06F6F20713D404F52A
:1032C0000074404600F064FF172801D101200AE095
:1032D000204600F05DFF030707D52046082100F0D7
:1032E00085FF6FF00C00BDE8F081404600F050FF14
:1032F0000028E6D16FF00300F5E74FF0FF30F2E76A
:103300006FF00400EFE76FF00200ECE76FF00B00E6
:10331000E9E76FF00A00E6E75805002008282DE9E4
:10332000F84F06468846144674D8450108352846A5
:1033300000F02EFF00F00F0001286ED1002C6FD09E
:1033400005F54079484600F023FF172801D01C28D6
:1033500032D1354F3B883341D90711D505F5007A75
:10336000504600F015FFC20629D51021504600F046
:103370003DFF012303FA06F23B8823EA02033B8068
:1033800005F5F85000F004FF830298B24FF0010AEF
:10339000844228BF04460AFA06FA304600F0CCFF01
:1033A0008346484600F0F4FE1728204B12D01C2814
:1033B00010D03046FFF76CFE6FF0060002E0030706
:1033C00002D40020BDE8F88F3046FFF761FE6FF0B1
:1033D0000C00F7E71A8812EA0A0F18D05C45F0D8FB
:1033E00041463046224605F5807500F0E7FF202172
:1033F000284600F0FBFE284600F0CAFE0028FAD15D
:103400003B8820464AEA030AA7F800A0DAE75C45B1
:10341000C3D8E5E74FF0FF30D4E76FF00400D1E701
:103420006FF00D00CEE700BF5A05002058050020C0
:103430002DE9F84F08280646884614461F46BDF871
:1034400028A000F2978045010835284600F0A0FE2C
:1034500000F00F000238022800F28F80002C00F0EC
:103460008F803B787A7802EB0322BB7803EB022251
:10347000FB7803EB0223002B3CD0BAF1000F41D0C4
:1034800005F54079484600F083FE422842D10422E7
:10349000394605F5406000F015FF4FEA1A2105F5A1
:1034A000805000F0A3FE5FFA8AF105F5885000F025
:1034B0009DFE05F5F85000F06BFE800280B24FF0E3
:1034C000010A844228BF0446DFF8C0B00AFA06FAAF
:1034D000304600F031FF0746484600F059FE00280C
:1034E00051D0BBF8003013EA0A0F1AD0BC421AD9E7
:1034F000002034E0284600F04BFE4007BDD46FF0BA
:103500000B002CE0284600F043FE4107B8D46FF0D2
:103510000A0024E000F0EF002228B8D06FF0060087
:103520001DE0BC42D4D830464146224605F580769F
:1035300000F044FF2021304600F058FE304600F0F5
:1035400027FE0028FAD105F50075284600F020FE78
:10355000C20606D52846102100F048FE2046BDE8E8
:10356000F88F0307F1D52846082100F03FFE6FF0E1
:103570000C00F4E74FF0FF30F1E76FF00400EEE7E6
:103580006FF00D00EBE76FF00300E8E7580500204F
:103590002DE9F04F082804468A469146984685B0A2
:1035A00000F2E88047010837384600F0F1FD00F0EE
:1035B0000F02023A022A834600F2DF80B9F1000FBF
:1035C00000F0DE80714E36F81420002A7AD10121F5
:1035D00007F54073A14000932046019100F0CDFE15
:1035E0000546009800F0D4FD002800F0CC80684B20
:1035F00001991A880A4202D01DB9284689E0002D97
:10360000EAD00BF00700032807F5807700F08480EC
:10361000042859D0022840F0A68036F814308BBB1D
:10362000082220460DEB020100F0F5FE402138464D
:1036300000F0DCFD384600F0ABFD0028FAD19DF823
:1036400008309DF80C2088F800309DF8093088F883
:1036500001309DF80A3088F802309DF80B3088F868
:1036600003309DF80D3003EB02230E9A13809DF872
:103670000E209DF80F3003EB022326F81430802231
:10368000444B1A5536F8145051464D4528BF4D4607
:1036900020462A4600F0BFFE4021384600F0A6FD35
:1036A000384600F075FD0028FAD136F81430394A52
:1036B0005B1B9BB226F8143013B1105D40F0010083
:1036C00010559AE700259CE736F81430002BD9D125
:1036D000204602A9022200F09EFE4021384600F05A
:1036E00085FD384600F054FD0028FAD19DF80930D8
:1036F0009DF80820023B03EB022340F2EA529BB202
:10370000934226F81430BAD92046FFF7C1FC6FF473
:103710007A7005B0BDE8F08F36F81430002BB1D1C7
:10372000204602A9062200F076FE4021384600F02D
:103730005DFD384600F02CFD0028FAD19DF80830D8
:103740009DF80C2088F800309DF8093088F8013089
:103750009DF80A3088F802309DF80B3088F8033065
:103760009DF80D3087E72946204600F081FE26F8B7
:10377000145091E74FF0FF30CBE76FF00400C8E73B
:103780006FF00D00C5E76FF00300C2E7640500208D
:10379000580500205C0500200E4B82B09A6942F06B
:1037A00001029A619A6902F001020092009ADA69B4
:1037B00042F08052DA61DB69074A03F080530193DB
:1037C000019B536823F0E06343F08063536002B0D1
:1037D000704700BF001002400000014010B50446D1
:1037E00086B01022002102A803F07AF82268154B57
:1037F0009A4224D1144C4FF44072A369134843F009
:103800000803A361A36902A903F008030093009BC6
:103810001223CDE902230323059301F069F90C4A31
:10382000536843F0E06343F002035360E36943F4F9
:103830000013E361E36903F400130193019B06B0F5
:1038400010BD00BF0054004000100240000C0140B9
:103850000000014010B5044686B01022002102A8E5
:1038600003F03EF82268174B9A4228D103F5EC3357
:10387000DA69154842F48042DA61DA6902A902F491
:1038800080420092009A9A6942F008029A619B690C
:103890004FF4204203F008030193019B0223CDE97A
:1038A00002230323059301F023F94FF48041002301
:1038B0000548CDE9021302A9049301F019F906B0F5
:1038C00010BD00BF00380040000C014010B5044698
:1038D0008AB01022002106A803F002F82368304ABB
:1038E00093420BD12F4B9A6942F400629A619B6913
:1038F00003F400630193019B0AB010BDB3F1804F44
:1039000025D103F50433DA69002442F00102DA61BB
:10391000DA69254802F001020292029A9A6906A920
:1039200042F004029A619B69089403F00403039334
:10393000039B0123CDE9063401F0DAF81C2022466E
:10394000214600F03DFF1C2000F06CFFD4E7174A31
:10395000934210D1134B1D20DA6942F00202DA6162
:103960000022DB69114603F002030493049B00F07C
:1039700027FF1D20E8E70E4A9342BDD1094B1E20C8
:10398000DA6942F00402DA610022DB69114603F0D1
:1039900004030593059B00F013FF1E20D4E700BF2E
:1039A000002C0140001002400008014000040040CB
:1039B0000008004010B5044686B01022002102A87D
:1039C00002F08EFF22680D4B9A4215D103F5644335
:1039D0009A690B4842F004029A619B694FF4706245
:1039E00003F004030193019B0223CDE90223032387
:1039F00002A9059301F07CF806B010BD002C01402F
:103A00000008014010B5044686B01022002102A82B
:103A100002F066FF2268194B9A422DD103F55843F4
:103A20009A69174842F480429A619A6902A902F49D
:103A300080420092009A9A6942F008029A619B695A
:103A4000402203F008030193019B0223CDE90223E6
:103A50000323059301F04CF8002380210848CDE9A9
:103A6000021302A9049301F043F8064A536843F095
:103A7000E06343F00403536006B010BD003801401A
:103A8000000C014000000140FEE7FEE7FEE7FEE714
:103A9000FEE770477047704710B5084C2388013324
:103AA0009BB2B3F57A7F238003D3FDF74BFE00234F
:103AB0002380BDE8104000F04DBE00BF740500201B
:103AC000014802F052B800BFDC1300200822024B6C
:103AD00002481A6002F049B838060020041300209A
:103AE0002DE9F04F0025A64A95B01368294643F00A
:103AF00001031360A34BA4481D60A44BA44C1D609C
:103B000002F036FC0421A04802F032FC08219E4855
:103B100002F02EFC0C219C4802F02AFC9D4A29460A
:103B2000D3689D4843F01E03D36002F0CBFC042110
:103B3000994802F0C7FC6368984E23F46E4323F063
:103B4000EE0343F42A4343F0AA036360944B1A88BC
:103B5000032A81BF32881D80013232803788914A22
:103B6000642F158840F01482002D40F02182844A91
:103B70008D48136843F00103136001F0C1FF002278
:103B800000238A49CDE90823C1E900238849CDE90A
:103B90000A23C1E900238749CDE90C23C1E90023A9
:103BA0008549CDE90E23C1E900238449CDE91023DD
:103BB000C1E900238249CDE9122302918149CDE96F
:103BC0000623059180490195049180490391029B48
:103BD000DDF8048053F8045B08F1010A029314AB8A
:103BE00003EBC8047A4B1968059B53F8040B059343
:103BF000FDF7A8F801462846FCF79AFFFCF714FCED
:103C00005FFA8AF3032B28BF002344E90C01DDE9A6
:103C100008ABDDE90A6701933246DDE90C453B4616
:103C200050465946FCF7CAFE22462B46002800F0B3
:103C3000638130463946FCF7C1FE002840F06C81B4
:103C400022462B4650465946FCF7D6FE08B9A246F6
:103C5000AB46594C5246D4E900015B46FCF786FA64
:103C600014AB03EBC8085B4BC4E900011968039B64
:103C70001868FDF767F8049B01461868FCF758FFC1
:103C8000FCF7D2FB48E90601DDE90E45DDE91089C4
:103C9000204642464B462946FCF790FEDDE9126776
:103CA00032463B46002800F03A8140464946FCF740
:103CB00085FE002840F0438132463B462046294697
:103CC000FCF79AFE08B934463D463C4E2246D6E9FA
:103CD00000012B46FCF74AFA3F4BC6E900013F4E74
:103CE000C3E9004522462B4620462946C6E900ABDB
:103CF000FCF7F2FB524604460D465B4650465946D9
:103D0000FCF7EAFB02460B4620462946FCF72EFA52
:103D100005F0BEFC04460D46314B244FC3E9004577
:103D2000D7E90023FCF768FEBA4608B1C7E90045A9
:103D3000D6E90001FCF780FE0028B8BF4042FCF73E
:103D400061FB1B4E0446D6E900230D46FCF754FEEA
:103D500008B1C6E90045204B164ED3E90001FCF737
:103D60006BFE0028B8BF4042FCF74CFBD6E90023AD
:103D700004460D46FCF740FEA0B3C6E9004531E01D
:103D800010E000E0280600209413002038060020F0
:103D900000080140000C0140DC130020C005002099
:103DA00080090020280B002054120020B8050020B4
:103DB000D005002088090020D8050020F805002043
:103DC000F0070020940900204C060020380B00204A
:103DD00090050020A0050020E8050020D80D002057
:103DE000300600200022029B43F8042C059B43F878
:103DF000042C049B43F8042B0493039B43F8042BEB
:103E00000393029A9C4B93427FF4E1AE9B490022BC
:103E1000D1E900019A4BFCF789FC93A3D3E9002375
:103E2000FCF784FC06460F46DFF8AC829549C8E9EA
:103E30000067D1E900010022914BFCF777FC8AA3CF
:103E4000D3E90023FCF772FC87A3D3E900230446DF
:103E50000D46DAE90001DFF88492C9E90045FCF774
:103E600065FC894BC3E900017FA3D3E9002387499F
:103E7000D1E90001FCF75AFC854BC3E900017AA3A4
:103E8000D3E900238349D1E90001FCF74FFC824BC1
:103E90003246C3E900013B4630463946FCF71CFB7D
:103EA000224606462B460F4620462946FCF714FBC1
:103EB00002460B4630463946FCF758F905F0E8FB58
:103EC00004460D46754B0022C3E900450023FCF76C
:103ED0006BFD734E002835D0DDE90634C6E90034A9
:103EE0000022704B1A8001226F4B1A706F4815B078
:103EF000BDE8F04F01F039BE50465946FCF75EFD73
:103F000000287FF4A6AE22462B4630463946FCF701
:103F100073FD00283FF49BAEB246BB4699E62046AF
:103F20002946FCF74BFD00287FF4CFAE32463B46D6
:103F300040464946FCF760FD00283FF4C4AE4446C5
:103F40004D46C2E62246D9E900012B46FCF7EEFBBE
:103F500005F070FB0022564BFCF7BEFA44A3D3E9F0
:103F60000023FCF7E3FB04460D46D8E900010022DC
:103F70000023C6E90045FCF721FD0028B0D0224609
:103F80002B4600204B49FCF7EFF8C6E90001A7E7F4
:103F900075B1012F0CD1454801F0B2FD0023464A0E
:103FA0003380136843F0010313603F4B1F709DE79C
:103FB0001A88511C1980032A12D8DFE802F0021A6D
:103FC0002B4200213D4AD36823F00803D360636885
:103FD00023F4706343F480636360394802F07AF934
:103FE0000021384802F000FA0421364802F0FCF9BA
:103FF0007CE7354B08211A88344BDA622F4AD368A4
:1040000023F00203D360636823F00F0343F004033B
:104010006360E2E7012280212D4800F045FE002286
:1040200080212B4800F040FE244A0421D36823F06D
:104030001003D360636823F4704343F480436360E8
:10404000CBE7244B0C211A88204BDA621B4AD36839
:1040500023F00403D360636823F0F00343F04003CC
:104060006360BAE7AFF30080000000E0A370374060
:104070004AD8124DFB21094080090020D8050020B4
:1040800000005940F8050020A8050020D0050020B8
:10409000300B002088090020E007002030060020B7
:1040A000C8050020C00500209405002054120020FF
:1040B000008066400080764010E000E0000C014087
:1040C00094130020DC130020E405002000040040CD
:1040D00000080140900900204006002098050020BB
:1040E0000120704708B502F0D1FB162303604FF0A2
:1040F000FF3008BD08B502F0C9FB16230360FEE7D8
:1041000070B50E4614460025A54201DB204670BD61
:10411000AFF3008070550135F6E770B50E461446D2
:104120000025A54201DB204670BD705DAFF3008025
:104130000135F6E74FF0FF3070474FF40053002091
:104140004B60704701207047002070470B4B0246C0
:10415000196810B509B90A491960186809490A4C63
:104160000244091B8A4206D902F090FB0C2303602B
:104170004FF0FF3010BD1A60FCE700BF780500204B
:104180006014002000500020000400007047000070
:1041900073B50546144CC5F30726E3689847636971
:1041A0009847636AC5F30740EDB20BB1A36A8BB9B8
:1041B000236A98473046236A98472846236A9847D7
:1041C000E36998470546A3699847236998472846B5
:1041D00002B070BD8DF8040003218DF805608DF8E4
:1041E000065001A89847EBE73C010020F7B50546CB
:1041F000164C0F46E368984763699847A36A45F0F1
:104200000406C5F30740F6B2C5F3072583B9236A50
:1042100098472846236A98473046236A9847384685
:10422000236A9847A36998472369984703B0F0BD6C
:1042300004218DF804008DF805508DF806608DF886
:1042400007700DEB01009847ECE700BF3C01002030
:104250002DE9F34105461A4C0E46E3681746984788
:1042600063699847636AC5F30740C5F30728EDB251
:104270000BB1A36AB3B9236A98474046236A9847AB
:104280002846236A98473744B74206D1A36998471E
:104290002369984702B0BDE8F081E369984706F8C2
:1042A000010BF1E78DF80400032101A88DF80580CA
:1042B0008DF80650984739463046636A9847E5E7D7
:1042C0003C0100202DE9F34105461A4C8846E3687D
:1042D0001746984763699847A36A45F00406C5F3F3
:1042E0000740F6B2C5F30725B3B9236A98472846B5
:1042F000236A98473046236A98474744474506D182
:10430000A36998472369984702B0BDE8F081236A02
:1043100018F8010B9847F1E78DF80400032101A874
:104320008DF805508DF80660984739464046A36AD7
:104330009847E5E73C010020F8B50024460108361F
:1043400006F5005706F504563846FFF721FF05022B
:104350003046FFF71DFFADB20544ADB24DB1384652
:10436000FFF716FF04023046FFF712FFA4B2044421
:10437000A4B2AC42E8D12046F8BDF8B5002446010D
:10438000083606F5185706F51C563846FFF700FFA5
:1043900005023046FFF7FCFEADB20544ADB24DB1AB
:1043A0003846FFF7F5FE04023046FFF7F1FEA4B2EF
:1043B0000444A4B2AC42E8D12046F8BD2DE9F8434C
:1043C000894614462AB385006F1CFF0007F5105874
:1043D0004046FFF7DDFE07F5145706463846FFF75F
:1043E000D7FE00EB062086B202353002224649464F
:1043F00000EBC500FFF766FFA11940468CB2C1F380
:104400000721FFF7F3FE3846E1B2BDE8F843FFF7B6
:10441000EDBEBDE8F8832DE9F843894614462AB37A
:1044200085006F1CFF0007F520584046FFF7B0FEDF
:1044300007F5245706463846FFF7AAFE00EB06208C
:1044400086B2033530022246494600EBC500FFF72D
:10445000FFFEA11940468CB2C1F30721FFF7C6FE4B
:104460003846E1B2BDE8F843FFF7C0BEBDE8F883C7
:10447000F8B54401083404F5205738460D46FFF7D7
:1044800087FE04F5245406462046FFF781FE2918CE
:1044900001EB062138468DB2C1F30721FFF7A6FED6
:1044A0002046E9B2BDE8F840FFF7A0BE70470078AB
:1044B0007047017070470020704770477047704721
:1044C0007047704770470000054B00B121B9054A9D
:1044D0005A61054A9A617047C3E90501704700BFF8
:1044E0003C010020C3440008C5440008084B10B537
:1044F0001C881A46A40500D4FEE700B121B9054B7B
:10450000D361054B136210BDC3E90701FBE700BF90
:104510003C010020B7440008BB440008084B10B51C
:104520001C881A46A40500D4FEE700B121B9054B4A
:104530005362054B936210BDC3E90901FBE700BF5D
:104540003C010020BD440008BF4400087FB506229E
:1045500004A94FF41060FFF77BFE04224FF4807033
:104560000DEB0201FFF774FE02A904224FF4A060D4
:10457000FFF76EFE042203A94FF47060FFF768FE98
:1045800080210020FFF732FE0020FFF701FE04A982
:1045900006224FF41060FFF795FE04224FF480705E
:1045A0000DEB0201FFF78EFE02A904224FF4A0607A
:1045B000FFF788FE04224FF4706003A9FFF782FE24
:1045C00007B05DF804FBF8B505460C46FFF7BEFFE3
:1045D000BDB16E1E32460023073512F8011F0B4491
:1045E0005BB2102B29DCAA42F7D141F6087542F2E2
:1045F0000807284616F8011F2035FFF7F7FDBD42D2
:10460000F7D10CB90020F8BD651E2A4600230734F7
:1046100012F8011F0B445BB2102B0EDC9442F7D151
:1046200041F6086441F60876204615F8011F20344B
:10463000FFF7DCFDB442F7D1E4E74FF0FF30E2E7EB
:1046400010B50446014606224FF41060FFF73AFE0B
:1046500004224FF4807004F10E01FFF733FE0422B0
:104660004FF4A06004F10A01FFF72CFE04224FF47E
:104670007060A11DFFF726FE064BA27C1A70E27C3B
:104680005A70227D9A70627DDA7094F81921024B7B
:104690001A7010BD7D0500207C0500200C480D49D6
:1046A0000D4A002302E0D458C4500433C4188C428D
:1046B000F9D30A4A0A4C002301E013600432A242F3
:1046C000FBD3FFF763FD02F0E7F8FDF7D7FD704776
:1046D0000000002044030020FCA300084803002041
:1046E00060140020FEE7000038B50E4B0546187830
:1046F0004FF47A73B3FBF0F30B4A1068B0FBF3F09E
:1047000000F0B0F8044658B90F2D09D802462946E2
:104710004FF0FF3000F054F82046044B1D6038BDC8
:104720000120FCE768010020380100206C01002016
:10473000074A08B51368032043F01003136000F024
:104740002DF80020FFF7D0FFFFF726F8002008BD66
:1047500000200240034A044B11681B780B4413608D
:10476000704700BF2C14002068010020014B18681E
:10477000704700BF2C14002038B50446FFF7F6FF41
:104780000546631C1EBF044B1B78E418FFF7EEFFC1
:10479000431BA342FAD338BD680100200749030236
:1047A000CA6803F4E06322F4E0621204120C1343BB
:1047B00043F0BF6343F40033CB60704700ED00E08B
:1047C000164B30B5DC68C4F30224C4F10703251D81
:1047D000042B28BF0423062D4FF0FF3598BF00247B
:1047E00005FA03F388BF033C21EA0303A34005FA5B
:1047F00004F422EA0402002843EA0203ACBF00F1F9
:104800006040074A4FEA0313DBB2ABBF00F56140DB
:1048100000F00F0080F80033135430BD00ED00E0CD
:1048200014ED00E0002808DB0123420900F01F001E
:1048300003FA00F0014B43F82200704700E100E06A
:10484000BFF34F8F0549064BCA6802F4E062134379
:10485000CB60BFF34F8F00BFFDE700BF00ED00E06E
:104860000400FA050138B0F1807F0AD2F021064B2E
:10487000064A586082F823100020072298601A60C8
:1048800070470120704700BF10E000E000ED00E03D
:10489000114AD36813F0100305D01049CB6943F0D7
:1048A0000203CB611023D268500706D50B4943F0B1
:1048B0000403CA6942F00102CA61074AD169C90703
:1048C00008D50648C16941F00401C161D16921F0F0
:1048D0000101D161D36070470020024030140020F4
:1048E000064B186910F0800007D0054A5A6002F1A3
:1048F00088325A601869C0F3C01070470020024027
:1049000023016745034A0020136943F080031361C4
:10491000704700BF00200240F8B50446FFF726FFAD
:10492000114D07462E46EB68D80712D4EB6899065E
:1049300044BF2023EB60F368DA0606D4F369DB0793
:1049400003D4F06810F0040007D0FFF7A1FF0120A6
:1049500003E0631CE7D00CB90320F8BDFFF706FFA6
:10496000C01BA042DFD9F7E7002002402DE9F84F35
:10497000254E1F46337E0546012B8846914640D082
:1049800001234CF250303376FFF7C6FFA8BB012D50
:1049900003D0022D0CBF022504254FF0000A534618
:1049A000DFF868B04FEA0A14C4F12001A4F1200234
:1049B00007FA01F129FA04F4F3610C4327FA02F231
:1049C0001443DBF81020A4B242F00102CBF810200F
:1049D0004CF2503028F81A40FFF79EFFDBF8102009
:1049E00022F00102CBF8102038B90AF1010A5FFA6F
:1049F0008AF295424FF00003D4D800233376BDE805
:104A0000F88F0220FBE700BF301400200020024096
:104A10000022064BDA61064B1A6942F004021A6161
:104A20001A6942F040021A61704700BF301400203A
:104A3000002002400022064BDA61064B1A6942F060
:104A400002021A6158611A6942F040021A61704705
:104A500030140020002002402DE9F041224E05468E
:104A6000337E8846012B3DD00124347603684CF216
:104A70005030022B13D1FFF74FFF20B1012000234C
:104A80003376BDE8F081FFF7C3FF4CF25030FFF7FB
:104A900043FF164A136923F004031361EFE7FFF79E
:104AA0003BFF0028EAD14FF0FF33C8F80030204622
:104AB000AF680E4CD5E9023203EB8223BB42DED94C
:104AC0003846FFF7B7FF4CF25030FFF725FF236958
:104AD00023F00203236110B1C8F80070CFE707F597
:104AE0008067E7E70220CCE7301400200020024076
:104AF0002DE9F74F00221646644BDFF8A0C1DFF81E
:104B0000A0E10D6835FA06F402D103B0BDE8F08FDC
:104B10004FF0010808FA06F805EA080438EA050526
:104B20007CD14D68032D07D8013D022D00F288800D
:104B3000DFE805F0969BA100122D00F099806FD858
:104B4000112D00F08F80FF2C98BF82464FF00F0987
:104B500088BF00F1040A4FEA8605DAF8008088BFB2
:104B6000203D09FA05FB28EA0B0802FA05F548EA98
:104B70000505CAF80050D1F804A01AF0805F4DD0A6
:104B8000434F26F00308BD6908F1804845F0010550
:104B9000BD61BD6908F5803805F00105019506F095
:104BA000030B019D4FEA8B0BD8F8085009FA0BF95B
:104BB00025EA0909374DA84261D005F58065A8426C
:104BC0005FD005F58065A8425DD005F58065A842F7
:104BD0000CBF0325042505FA0BF545EA0905C8F8BD
:104BE00008501D681AF4803F14BF2543A5431D607B
:104BF0005D681AF4003F14BF2543A5435D609D68BE
:104C00001AF4801F14BF2543A5439D60DD681AF484
:104C1000001F14BF2C4325EA0404DC60013670E752
:104C20001D4FBD420CD017D8DFF878904D4507D006
:104C300009F570294D4503D0A9F580194D4582D15C
:104C40008A68D2B1012A08BFC0F810804FF008026C
:104C500018BFC0F8148076E76545F1D07545EEE7DA
:104C6000CA6870E7CA6804326DE7CA6808326AE742
:104C7000CA680C3267E7002265E7042263E7002573
:104C8000A9E70125A7E70225A5E700BF0004014029
:104C90000010024000080140000022100000311006
:104CA00000003210000012100AB1016170470904BF
:104CB000FBE7000070B5044608B9012070BD90F80C
:104CC0003D3003F0FF021BB980F83C20FEF786FD63
:104CD000242384F83D3023681A6822F001021A6008
:104CE0001A6842F400421A601A6822F400421A60FC
:104CF00000F02EFB3F4A6368934294BF3E4A3F4A0E
:104D000090428CBF00220122002AD6D13C4E22685C
:104D1000B0FBF6F65168013821F03F013143516094
:104D20003449156A8B4281BF4FF4967171434FF439
:104D30007A76B1FBF6F125F03F0594BF711C013185
:104D400029431162D1692B4D21F44F41AB4221F02F
:104D5000FF0132D85B00B0FBF3F0431C40F6FC705F
:104D6000034242D0C3F30B030B43D3611168D4E970
:104D7000073021F0C00103430B4313609168D4E96D
:104D8000030321F40341034321F0FF010B4393602C
:104D9000D168D4E9053021F0FF0103430B43D36010
:104DA0001368002043F0010313602023206484F87B
:104DB0003D30206384F83E0080E7A56855B903EBD9
:104DC0004303B0FBF3F30133C3F30B037BB143F4B1
:104DD0000043C9E719256B43B0FBF3F30133C3F379
:104DE0000B0323B143F44043BEE70423BCE7012394
:104DF000BAE700BFA08601007F841E00FF083D00C7
:104E000040420F0038B5044608B34CF6CC42036864
:104E10001A6045F255521A6042685A6082689A6078
:104E2000FFF7A4FC05462268D06810F0030003D108
:104E30004AF6AA23136038BDFFF798FC401B2728C9
:104E4000F1D92368DB689B07EDD00320F3E701204D
:104E5000F1E74AF6AA22036800201A6070470000B2
:104E60002DE9F341054638B30368DB0710D42B68FE
:104E70009F075ED42B68190700F195802B685A07AD
:104E800000F1BF80E869002840F02C81002029E073
:104E90008F4C636803F00C03042B07D0636803F0A6
:104EA0000C03082B0AD16368DE0307D523689C0333
:104EB000DDD56B68002BDAD1012013E06B68B3F508
:104EC000803F12D1236843F480332360FFF74EFC08
:104ED000064623689803CAD4FFF748FC801B642861
:104EE000F7D9032002B0BDE8F0819BB9236823F411
:104EF00080332360236823F480232360FFF736FC8C
:104F0000064623689903B2D5FFF730FC801B64285E
:104F1000F7D9E6E7B3F5A02F236803D143F4802344
:104F20002360CFE723F480332360236823F48023B6
:104F3000CBE7674C636813F00C0F07D0636803F08E
:104F40000C03082B10D16368DA030DD423689B0788
:104F500002D52B69012BAFD123686A6923F0F803CE
:104F600043EAC203236085E72A695A4B6AB10122EA
:104F70001A60FFF7FBFB064623689F07ECD4FFF798
:104F8000F5FB801B0228F7D9ABE71A60FFF7EEFBB1
:104F90000646236898077FF56DAFFFF7E7FB801B98
:104FA0000228F6D99DE7AA69494E4B4BDAB1012296
:104FB0001A60FFF7DBFB0446736A9B070DD54FF4BD
:104FC000FA52464B1B68B3FBF2F3019300BF019BFF
:104FD0005A1E0192002BF9D150E7FFF7C7FB001BC7
:104FE0000228E9D97DE71A60FFF7C0FB0446736A1F
:104FF0009F077FF543AFFFF7B9FB001B0228F6D9E7
:105000006FE7334CE369D80024D40127E36943F008
:105010008053E361E36903F080530093009B304EBB
:105020003368D90518D5EB68012B26D1236A43F0E4
:1050300001032362FFF79AFB41F288380646236A90
:105040009B073FD5002F3FF41DAFE36923F080534A
:10505000E36117E70027E2E7336843F480733360C6
:10506000FFF784FB80463368DA05DCD4FFF77EFB6C
:10507000A0EB08006428F6D933E7ABB9236A41F204
:10508000883823F001032362236A23F00403236298
:10509000FFF76CFB0646236A9807D3D5FFF766FB3C
:1050A000801B4045F7D91CE7052B236A03D143F049
:1050B00004032362BAE723F001032362236A23F087
:1050C0000403B6E7FFF752FB801B4045B7D908E75A
:1050D0000010024000004242800442423801002099
:1050E000007000402A4B5A681C4602F00C02082A45
:1050F0003DD00023274E022833602BD1FFF736FB2B
:105100000746236899011FD42B6AB3F5803F05D168
:105110006268A96822F400320A436260696A6268C0
:105120000B4322F474121343636001233360FFF7CF
:105130001DFB054623689A013FF5A8AEFFF716FB55
:10514000401B0228F6D9CCE6FFF710FBC01B022853
:10515000D7D9C6E6FFF70AFB054623689B017FF512
:1051600095AEFFF703FB401B0228F6D9B9E60128EC
:105170003FF4B8AE5B682A6A03F4803191427FF451
:105180009BAE6A6A03F4701393423FF47FAE93E6DA
:10519000001002406000424230B51A4B87B002ACAA
:1051A00003F11005224618685968083303C2AB4260
:1051B0001446F7D140F201231349ADF804304B688F
:1051C00003F00C02042A19D0082A19D1C3F3834230
:1051D00006A80244DB0312F8102C0CD54B680B48D0
:1051E000C3F34043504306AA134413F8143CB0FBE6
:1051F000F3F007B030BD06485043FAE70348F8E73C
:105200000448F6E700A00008001002400024F40063
:1052100000093D0000127A002DE9F0410D460446D8
:1052200010B90120BDE8F081444A136803F0070378
:105230008B4228D321688E0730D4CA0743D43F4A13
:10524000136803F00703AB4265D822683C4D12F0A7
:10525000040F6CD1130706D56B68226923F46053E1
:1052600043EAC2036B60FFF797FF6B68354AC3F3ED
:105270000313D35CD840344B1860344B1868FFF7E5
:1052800033FA0020CEE7136823F007030B431360C3
:10529000136803F007038B42C3D1CBE7284B11F00F
:1052A000040F1EBF5A6842F4E0625A60080742BF0A
:1052B0005A6842F460525A605A68A06822F0F002BC
:1052C00002435A60B9E762681D4E012A33681AD159
:1052D00013F4003FA5D0736841F2883823F003032C
:1052E00013437360FFF742FA07467368626803F07E
:1052F0000C03B3EB820FA2D0FFF738FAC01B404576
:10530000F3D903208EE7022A02D113F0007FE1E7F0
:1053100013F0020FDEE7136823F007032B4313603B
:10532000136803F00703AB427FF47BAF8DE76B6834
:10533000E16823F4E0630B436B608BE700200240DD
:1053400000100240E89F0008380100206C01002096
:10535000044B054A5B68C3F30223D35C034A10681D
:10536000D840704700100240F89F00083801002024
:10537000044B054A5B68C3F3C223D35C034A10683D
:10538000D840704700100240F89F00083801002004
:105390002DE9F3411C4616460F460546FFF7E6F990
:1053A0003444241AFFF7E2F98046234B1B68C3F309
:1053B000CB3363432A680193936837EA030301D030
:1053C00000202EE0731CF7D0FFF7D0F9A0EB080007
:1053D000A04229D32B685A6822F0E0025A606A681A
:1053E000B2F5827F0AD1AA68B2F5004F02D0B2F5B9
:1053F000806F03D11A6822F040021A60AA6AB2F5DF
:10540000005F07D11A6822F400521A601A6842F449
:1054100000521A60012385F851300023032085F8DB
:10542000503002B0BDE8F081019B002B019B08BF0A
:105430000024013BBEE700BF3801002038B5134609
:1054400042680446B2F5827F16D18268B2F5004FF9
:1054500002D0B2F5806F0FD12568B2F5806F286851
:1054600020F04000286007D10A4601212046FFF7BE
:105470008FFF20B9002038BD0A468021F6E7636D12
:10548000032043F020036365F5E710B513460A4691
:1054900080210446FFF77CFF20B10320636D43F0B9
:1054A0002003636510BD10B50446002851D0436A3F
:1054B000002B4AD14268B2F5827F00D0C36100233D
:1054C000A36294F8513003F0FF0223B9204684F818
:1054D0005020FEF7BFF90223226884F85130136888
:1054E000A06823F040031360636800F4044003F4F1
:1054F00082730343E068A16900F4006003432069FC
:1055000000F002000343606900F00100034301F46E
:1055100000700343E069090C00F038000343206A7F
:1055200001F0040100F080000343A06A00F4005081
:10553000034313605160D369002023F40063D361F7
:105540000123606584F8513010BD0023C0E90433A5
:10555000B5E70120F8E72DE9F7431F4690F85030F2
:105560000446012B0D46904600F0A080012380F8F0
:105570005030FFF7FBF894F851308146012BD8B238
:1055800040F09280002D61D0B8F1000F5ED003236F
:1055900084F8513000236365C4E91033A4F83680E1
:1055A000A363A387E387A3682668B3F5004F256349
:1055B000A4F8348007D1336823F0400333603368A4
:1055C00043F4804333603368E2685B065EBF336850
:1055D00043F040033360B2F5006F63683FD113B10D
:1055E000B8F1010F07D135F8023BF3602563E38E74
:1055F000013B9BB2E386E38E9BB2A3B94A46394690
:105600002046FFF742FF00284BD1A36833B901932E
:105610002368DA6801929B680193019B606D0038F2
:1056200018BF012012E022689368980705D5236B04
:1056300033F8021BD1602363D9E7FFF797F8A0EB9B
:105640000900B842D7D3791CD5D00320012384F8B0
:105650005130002384F8503003B0BDE8F08313B11B
:10566000B8F1010F08D12B783373236B0133236317
:10567000E38E013B9BB2E386E38E9BB2002BBDD051
:1056800023689A68920703D5226B12781A73ECE7A5
:10569000FFF76CF8A0EB0900B842EDD37B1CEBD010
:1056A000D3E720236365B0E70220CFE70220D3E7EA
:1056B0002DE9F7431E4690F850300446012B0D4665
:1056C0009146DDF8288000F0E080012380F850301A
:1056D000FFF74CF894F851300746012B6268D9B2B5
:1056E0000AD0B2F5827F40F0CE80A368002B40F054
:1056F000CA80042940F0C780002D3FD0B9F1000FC7
:105700003CD0002E3AD094F85130C4F83890042B95
:105710001CBF052384F8513000236365C4E91033AE
:105720002368E687E6861968A687490658BF196880
:10573000256358BF41F04001A68658BF1960E16853
:10574000B1F5006F51D10AB1012E07D135F8022B06
:10575000DA60E38E2563013B9BB2E3860125E38E8D
:105760009BB26BB9E38F9BB253B93A464146204690
:10577000FFF78BFE00287BD02023636501202BE000
:1057800021688B689A070DD5E38E9BB253B14DB15A
:105790000025236B33F8022BCA602363E38E013BA1
:1057A0009BB2E3868A6812F001020CD0E38F9BB2B1
:1057B0004BB11546C968A36B23F8021BA363E38FA3
:1057C000013B9BB2E387FEF7D1FFC01B4045C6D328
:1057D000B8F1FF3FC3D00320012384F851300023E8
:1057E00084F8503003B0BDE8F0830AB1012E08D12F
:1057F0002A781A73236B01332363E38E013B9BB238
:10580000E3860125E38E9BB21BB9E38F9BB2002B8D
:10581000ABD0226893689B070ED5E38E9BB25BB139
:1058200055B10025236B1B781373236B013323635E
:10583000E38E013B9BB2E3862268916811F001017F
:105840000DD0E38F9BB253B10D46D268A36B1A7093
:10585000A36B0133A363E38F013B9BB2E387FEF7A6
:1058600085FFC01B4045CDD3B8F1FF3FCAD0B2E79A
:10587000A368002BB0D123680190DA6801929B687D
:105880000193019BA8E70220A6E70220AAE72DE9E1
:10589000F3411D4643680446B3F5827F88461646A9
:1058A0000CD1836853B9042380F851301346009516
:1058B0000A46FFF7FDFE02B0BDE8F08194F85030D3
:1058C000012B7DD0012384F85030FEF74FFF94F870
:1058D00051300746012BD8B270D1B8F1000F5BD020
:1058E000002E59D0042384F851300023A268636548
:1058F000B2F5004FC4E91033E6872363A386E3863D
:10590000C4F838802368A68707D11A6822F04002BD
:105910001A601A6822F480421A601A6856065EBF3E
:105920001A6842F040021A60E368F3B1E38F9BB259
:10593000FBB123689A68D20735D5DA68A36B23F8E0
:10594000022BA363E38F013B9BB2E387EEE723685F
:105950009A68D00718D51B7BA26B1370A36B013319
:10596000A363E38F013B9BB2E387E38F9BB2002BE2
:10597000EDD13A4629462046FFF760FDD8B9606D63
:10598000003818BF012007E0FEF7F0FEC01BA84258
:10599000EBD3691CE9D00320012384F851300023A4
:1059A00084F8503087E7FEF7E1FEC01BA842BDD364
:1059B0006B1CBBD0EFE720236365E0E70220EBE739
:1059C000022078E7036A70B523F001030362036ADB
:1059D000446882690D6822F073022A438D6823F0BF
:1059E00002032B430A4DA8420BD1CD6823F00803D4
:1059F0002B4324F44074D1E90556354323F00403C6
:105A00002C43446082614A684263036270BD00BFF8
:105A1000002C0140036A70B523F480730362036AAB
:105A20004468C2690D6822F073022A438D6823F42A
:105A3000007343EA05230B4DA8420DD1CD6823F432
:105A4000006343EA052324F44054D1E90556354365
:105A500023F4806344EA05144460C2614A68C26367
:105A6000036270BD002C0140036A30B523F48053FB
:105A70000362036A4468C2690D6822F4E64242EA9E
:105A800005228D6823F4005343EA0533064DA842EE
:105A900002BF4D6924F4804444EA85144460C26125
:105AA0004A680264036230BD002C014090F83D302A
:105AB000012B20D1022380F83D300368DA6842F0E0
:105AC0000102DA600D4A93420AD0B3F1804F07D049
:105AD000A2F59432934203D002F58062934204D13E
