:020000040800F2
:100000000050002055390008393000084130000800
:100010004330000845300008473000080000000069
:10002000000000000000000000000000493000084F
:100030004B300008000000004D300008513000082F
:100040009D3900089D3900089D3900089D39000838
:100050009D3900089D3900089D3900089D39000828
:100060009D3900089D3900089D3900089D39000818
:100070009D3900089D3900089D3900089D39000808
:100080009D3900089D390008793000089D39000825
:100090009D3900089D3900089D3900089D390008E8
:1000A0009D3900089D3900089D3900089D390008D8
:1000B00099300008A5300008D93000089D390008A3
:1000C0009D3900089D3900089D3900089D390008B8
:1000D0009D3900089D3900089D3900089D390008A8
:1000E0009D3900089D3900089D3900080000000076
:1000F0000000000000000000000000000000000000
:0C01000000000000000000005FF808F1A3
:1001100010B5054C237833B9044B13B10448AFF341
:1001200000800123237010BDE001002000000000CA
:100130005496000808B5034B1BB103490348AFF3BD
:10014000008008BD00000000E40100205496000873
:10015000034613F8012B002AFBD1181A0138704707
:1001600081F0004102E000BF83F0004330B54FEA68
:1001700041044FEA430594EA050F08BF90EA020FD5
:100180001FBF54EA000C55EA020C7FEA645C7FEA68
:10019000655C00F0E2804FEA5454D4EB5555B8BF8B
:1001A0006D420CDD2C4480EA020281EA030382EAFC
:1001B000000083EA010180EA020281EA0303362D8E
:1001C00088BF30BD11F0004F4FEA01314FF4801C61
:1001D0004CEA113102D0404261EB410113F0004F73
:1001E0004FEA03334CEA133302D0524263EB43032A
:1001F00094EA050F00F0A780A4F10104D5F1200EC8
:100200000DDB02FA0EFC22FA05F2801841F1000122
:1002100003FA0EF2801843FA05F359410EE0A5F1F6
:1002200020050EF1200E012A03FA0EFC28BF4CF027
:10023000020C43FA05F3C01851EBE37101F00045DD
:1002400007D54FF0000EDCF1000C7EEB00006EEBEA
:100250000101B1F5801F1BD3B1F5001F0CD3490874
:100260005FEA30004FEA3C0C04F101044FEA4452CB
:1002700012F5800F80F09A80BCF1004F08BF5FEA52
:10028000500C50F1000041EB045141EA050130BD32
:100290005FEA4C0C404141EB0101013C28BFB1F544
:1002A000801FE9D291F0000F04BF01460020B1FA8F
:1002B00081F308BF2033A3F10B03B3F120020CDA62
:1002C0000C3208DD02F1140CC2F10C0201FA0CF040
:1002D00021FA02F10CE002F11402D8BFC2F1200CA5
:1002E00001FA02F120FA0CFCDCBF41EA0C0190405B
:1002F000E41AA2BF01EB0451294330BD6FEA0404A4
:100300001F3C1CDA0C340EDC04F11404C4F120028E
:1003100020FA04F001FA02F340EA030021FA04F3A0
:1003200045EA030130BDC4F10C04C4F1200220FAF7
:1003300002F001FA04F340EA0300294630BD21FA35
:1003400004F0294630BD94F0000F83F4801306BFFB
:1003500081F480110134013D4EE77FEA645C18BFEF
:100360007FEA655C29D094EA050F08BF90EA020F86
:1003700005D054EA000C04BF1946104630BD91EA7E
:10038000030F1EBF0021002030BD5FEA545C05D181
:100390004000494128BF41F0004130BD14F58004C0
:1003A0003CBF01F5801130BD01F0004545F0FE4134
:1003B00041F470014FF0000030BD7FEA645C1ABF69
:1003C000194610467FEA655C1CBF0B46024650EAA0
:1003D000013406BF52EA033591EA030F41F40021CC
:1003E00030BD00BF90F0000F04BF0021704730B552
:1003F0004FF4806404F132044FF000054FF0000127
:1004000050E700BF90F0000F04BF0021704730B5E7
:100410004FF4806404F1320410F0004548BF4042BC
:100420004FF000013EE700BF42004FEAE2014FEA11
:1004300031014FEA02701FBF12F07F4393F07F4FEC
:1004400081F06051704732F07F4208BF704793F0EF
:100450007F4F04BF41F40021704730B54FF4607402
:1004600001F0004521F000411CE700BF50EA010205
:1004700008BF704730B54FF000050AE050EA0102AE
:1004800008BF704730B511F0004502D5404261EB1E
:1004900041014FF4806404F132045FEA915C3FF45F
:1004A000D8AE4FF003025FEADC0C18BF03325FEAFC
:1004B000DC0C18BF033202EBDC02C2F1200300FAAD
:1004C00003FC20FA02F001FA03FE40EA0E0021FAD2
:1004D00002F11444BDE600BF70B54FF0FF0C4CF4C0
:1004E000E06C1CEA11541DBF1CEA135594EA0C0F72
:1004F00095EA0C0F00F0DEF82C4481EA030621EAAD
:100500004C5123EA4C5350EA013518BF52EA0335E7
:1005100041F4801143F4801338D0A0FB02CE4FF099
:100520000005E1FB02E506F00042E0FB03E54FF0C9
:100530000006E1FB03569CF0000F18BF4EF0010EC1
:10054000A4F1FF04B6F5007F64F5407404D25FEABD
:100550004E0E6D4146EB060642EAC62141EA555170
:100560004FEAC52040EA5E504FEACE2EB4F1FD0CB2
:1005700088BFBCF5E06F1ED8BEF1004F08BF5FEA30
:10058000500E50F1000041EB045170BD06F00046E2
:1005900046EA010140EA020081EA0301B4EB5C048F
:1005A000C2BFD4EB0C0541EA045170BD41F4801187
:1005B0004FF0000E013C00F3AB8014F1360FDEBFAC
:1005C000002001F0004170BDC4F10004203C35DA88
:1005D0000C341BDC04F11404C4F1200500FA05F30B
:1005E00020FA04F001FA05F240EA020001F00042AC
:1005F00021F0004110EBD37021FA04F642EB060122
:100600005EEA430E08BF20EAD37070BDC4F10C044B
:10061000C4F1200500FA04F320FA05F001FA04F20F
:1006200040EA020001F0004110EBD37041F10001FB
:100630005EEA430E08BF20EAD37070BDC4F1200506
:1006400000FA05F24EEA020E20FA04F301FA05F26E
:1006500043EA020321FA04F001F0004121FA04F216
:1006600020EA020000EBD3705EEA430E08BF20EAE6
:10067000D37070BD94F0000F0FD101F00046400020
:1006800041EB010111F4801F08BF013CF7D041EAA2
:10069000060195F0000F18BF704703F000465200A6
:1006A00043EB030313F4801F08BF013DF7D043EA77
:1006B0000603704794EA0C0F0CEA135518BF95EA2D
:1006C0000C0F0CD050EA410618BF52EA4306D1D1B4
:1006D00081EA030101F000414FF0000070BD50EAD3
:1006E000410606BF1046194652EA430619D094EA5D
:1006F0000C0F02D150EA013613D195EA0C0F05D147
:1007000052EA03361CBF104619460AD181EA03019A
:1007100001F0004141F0FE4141F470014FF0000052
:1007200070BD41F0FE4141F4780170BD70B54FF0ED
:10073000FF0C4CF4E06C1CEA11541DBF1CEA13556D
:1007400094EA0C0F95EA0C0F00F0A7F8A4EB05044F
:1007500081EA030E52EA03354FEA013100F0888046
:100760004FEA03334FF0805545EA131343EA12630F
:100770004FEA022245EA111545EA10654FEA0026C4
:100780000EF000419D4208BF964244F1FD0404F57D
:10079000407402D25B084FEA3202B61A65EB0305D9
:1007A0005B084FEA32024FF480104FF4002CB6EB96
:1007B000020E75EB030E22BFB61A754640EA0C0016
:1007C0005B084FEA3202B6EB020E75EB030E22BF56
:1007D000B61A754640EA5C005B084FEA3202B6EB97
:1007E000020E75EB030E22BFB61A754640EA9C0056
:1007F0005B084FEA3202B6EB020E75EB030E22BF26
:10080000B61A754640EADC0055EA060E18D04FEAE3
:10081000051545EA16754FEA06164FEAC30343EA83
:1008200052734FEAC2025FEA1C1CC0D111F4801F50
:100830000BD141EA00014FF000004FF0004CB6E749
:1008400011F4801F04BF01430020B4F1FD0C88BFE8
:10085000BCF5E06F3FF6AFAEB5EB030C04BFB6EBF3
:10086000020C5FEA500C50F1000041EB045170BDE6
:100870000EF0004E4EEA113114EB5C04C2BFD4EB13
:100880000C0541EA045170BD41F480114FF0000E97
:10089000013C90E645EA060E8DE60CEA135594EA13
:1008A0000C0F08BF95EA0C0F3FF43BAF94EA0C0F16
:1008B0000AD150EA01347FF434AF95EA0C0F7FF48B
:1008C00025AF104619462CE795EA0C0F06D152EADF
:1008D00003353FF4FDAE1046194622E750EA4106C3
:1008E00018BF52EA43067FF4C5AE50EA41047FF4D4
:1008F0000DAF52EA43057FF4EBAE12E74FF0FF3C39
:1009000006E000BF4FF0010C02E000BF4FF0010C09
:100910004DF804CD4FEA410C7FEA6C5C4FEA430C82
:1009200018BF7FEA6C5C1BD001B050EA410C0CBFD1
:1009300052EA430C91EA030F02BF90EA020F002033
:10094000704710F1000F91EA030F58BF994208BF9A
:1009500090422CBFD8176FEAE37040F00100704757
:100960004FEA410C7FEA6C5C02D150EA013C07D1AE
:100970004FEA430C7FEA6C5CD6D152EA033CD3D0F9
:100980005DF8040B704700BF8446104662468C46F3
:100990001946634600E000BF01B5FFF7B7FF002826
:1009A00048BF10F1000F01BD4DF808EDFFF7F4FF4F
:1009B0000CBF012000205DF808FB00BF4DF808EDDA
:1009C000FFF7EAFF34BF012000205DF808FB00BFFD
:1009D0004DF808EDFFF7E0FF94BF012000205DF81F
:1009E00008FB00BF4DF808EDFFF7CEFF94BF0120D4
:1009F00000205DF808FB00BF4DF808EDFFF7C4FFCD
:100A000034BF012000205DF808FB00BF4FEA410C15
:100A10007FEA6C5C02D150EA013C0AD14FEA430CF8
:100A20007FEA6C5C02D152EA033C02D14FF0000035
:100A300070474FF0010070474FEA410212F5001273
:100A400015D211D56FF47873B3EB625212D94FEA15
:100A5000C12343F0004343EA505311F0004F23FAFF
:100A600002F018BF404270474FF00000704750EA54
:100A7000013005D111F0004008BF6FF00040704711
:100A80004FF00000704700BF4FEA4102B2F1E0436F
:100A900024BFB3F5001CDCF1FE5C0DD901F0004C65
:100AA0004FEAC0024CEA5070B2F1004F40EB8300B5
:100AB00008BF20F00100704711F0804F21D113F1E1
:100AC0003872BCBF01F00040704741F480114FEA1A
:100AD0005252C2F11802C2F1200C10FA0CF320FAA3
:100AE00002F018BF40F001004FEAC1234FEAD323C0
:100AF00003FA0CFC40EA0C0023FA02F34FEA43032A
:100B0000CCE77FEA625307D150EA01331EBF4FF0B2
:100B1000FE4040F44000704701F0004040F0FE40CD
:100B200040F40000704700BF80F0004002E000BFCA
:100B300081F0004142001FBF5FEA410392EA030FC8
:100B40007FEA226C7FEA236C6AD04FEA1262D2EB12
:100B50001363C1BFD218414048404140B8BF5B4217
:100B6000192B88BF704710F0004F40F4000020F0B0
:100B70007F4018BF404211F0004F41F4000121F0C6
:100B80007F4118BF494292EA030F3FD0A2F1010210
:100B900041FA03FC10EB0C00C3F1200301FA03F14E
:100BA00000F0004302D5494260EB4000B0F5000F71
:100BB00013D3B0F1807F06D340084FEA310102F130
:100BC0000102FE2A51D2B1F1004F40EBC25008BFE2
:100BD00020F0010040EA03007047490040EB0000AC
:100BE000013A28BFB0F5000FEDD2B0FA80FCACF1AD
:100BF000080CB2EB0C0200FA0CF0AABF00EBC250DA
:100C000052421843BCBFD0401843704792F0000FC7
:100C100081F4000106BF80F400000132013BB5E71A
:100C20004FEA41037FEA226C18BF7FEA236C21D090
:100C300092EA030F04D092F0000F08BF08467047F5
:100C400090EA010F1CBF0020704712F07F4F04D1C3
:100C5000400028BF40F00040704712F100723CBFD6
:100C600000F50000704700F0004343F0FE4040F400
:100C7000000070477FEA226216BF08467FEA2363BE
:100C80000146420206BF5FEA412390EA010F40F4A9
:100C9000800070474FF0000304E000BF10F00043F5
:100CA00048BF40425FEA000C08BF704743F09643DC
:100CB00001464FF000001CE050EA010208BF7047F7
:100CC0004FF000030AE000BF50EA010208BF70477E
:100CD00011F0004302D5404261EB41015FEA010C93
:100CE00002BF84460146002043F0B64308BFA3F18B
:100CF0008053A3F50003BCFA8CF2083AA3EBC2536D
:100D000010DB01FA02FC634400FA02FCC2F120028B
:100D1000BCF1004F20FA02F243EB020008BF20F0C2
:100D20000100704702F1200201FA02FCC2F1200228
:100D300050EA4C0021FA02F243EB020008BF20EA1D
:100D4000DC7070474FF0FF0C1CEAD0521EBF1CEA4B
:100D5000D15392EA0C0F93EA0C0F6FD01A4480EA39
:100D6000010C400218BF5FEA41211ED04FF0006322
:100D700043EA501043EA5111A0FB01310CF000404E
:100D8000B1F5000F3EBF490041EAD3715B0040EA74
:100D9000010062F17F02FD2A1DD8B3F1004F40EB44
:100DA000C25008BF20F00100704790F0000F0CF017
:100DB000004C08BF49024CEA502040EA51207F3ADB
:100DC000C2BFD2F1FF0340EAC250704740F40000B6
:100DD0004FF00003013A5DDC12F1190FDCBF00F0A7
:100DE00000407047C2F10002410021FA02F1C2F155
:100DF000200200FA02FC5FEA310040F1000053EAF1
:100E00004C0308BF20EADC70704792F0000F00F03E
:100E1000004C02BF400010F4000F013AF9D040EA44
:100E20000C0093F0000F01F0004C02BF490011F4D8
:100E3000000F013BF9D041EA0C018FE70CEAD153D6
:100E400092EA0C0F18BF93EA0C0F0AD030F0004C56
:100E500018BF31F0004CD8D180EA010000F000400A
:100E6000704790F0000F17BF90F0004F084691F0C8
:100E7000000F91F0004F14D092EA0C0F01D1420202
:100E80000FD193EA0C0F03D14B0218BF084608D1CB
:100E900080EA010000F0004040F0FE4040F4000015
:100EA000704740F0FE4040F4400070474FF0FF0CA8
:100EB0001CEAD0521EBF1CEAD15392EA0C0F93EAEF
:100EC0000C0F69D0A2EB030280EA010C49024FEA41
:100ED000402037D04FF0805343EA111143EA1013FA
:100EE0000CF000408B4238BF5B0042F17D024FF4B2
:100EF000000C8B4224BF5B1A40EA0C00B3EB510F8D
:100F000024BFA3EB510340EA5C00B3EB910F24BF75
:100F1000A3EB910340EA9C00B3EBD10F24BFA3EBFA
:100F2000D10340EADC001B0118BF5FEA1C1CE0D1C2
:100F3000FD2A3FF650AF8B4240EBC25008BF20F075
:100F4000010070470CF0004C4CEA50207F32C2BFC9
:100F5000D2F1FF0340EAC250704740F400004FF066
:100F60000003013A37E792F0000F00F0004C02BF97
:100F7000400010F4000F013AF9D040EA0C0093F061
:100F8000000F01F0004C02BF490011F4000F013BBB
:100F9000F9D041EA0C0195E70CEAD15392EA0C0F23
:100FA00008D142027FF47DAF93EA0C0F7FF470AF5B
:100FB000084676E793EA0C0F04D14B023FF44CAF9E
:100FC00008466EE730F0004C18BF31F0004CCAD133
:100FD00030F000427FF45CAF31F000437FF43CAF6F
:100FE0005FE700BF4FF0FF3C06E000BF4FF0010C91
:100FF00002E000BF4FF0010C4DF804CD4FEA400273
:101000004FEA41037FEA226C18BF7FEA236C11D0BC
:1010100001B052EA530C18BF90EA010F58BFB2EB6F
:10102000030088BFC81738BF6FEAE17018BF40F0EF
:10103000010070477FEA226C02D15FEA402C05D1A3
:101040007FEA236CE4D15FEA412CE1D05DF8040B28
:10105000704700BF844608466146FFE70FB5FFF7BB
:10106000C9FF002848BF10F1000F0FBD4DF808ED73
:10107000FFF7F4FF0CBF012000205DF808FB00BF64
:101080004DF808EDFFF7EAFF34BF012000205DF8BE
:1010900008FB00BF4DF808EDFFF7E0FF94BF01200B
:1010A00000205DF808FB00BF4DF808EDFFF7D2FF08
:1010B00094BF012000205DF808FB00BF4DF808ED4B
:1010C000FFF7C8FF34BF012000205DF808FB00BF18
:1010D0004FEA4002B2F1FE4F0FD34FF09E03B3EB45
:1010E00012620DD94FEA002343F0004310F0004F85
:1010F00023FA02F018BF404270474FF000007047DB
:1011000012F1610F01D1420205D110F0004008BF79
:101110006FF0004070474FF00000704742000ED261
:10112000B2F1FE4F0BD34FF09E03B3EB126209D422
:101130004FEA002343F0004323FA02F070474FF0D8
:101140000000704712F1610F01D1420202D14FF04D
:10115000FF3070474FF00000704700BF7BB972B995
:101160000029BEBF00204FF0004106E008BF002864
:101170001CBF6FF000414FF0FF3000F0A1B9ADF19E
:10118000080C6DE904CE002909DB002B1ADB00F006
:1011900035F8DDF804E0DDE9022304B07047404291
:1011A00061EB4101002B1BDB00F028F8DDF804E0C7
:1011B000DDE9022304B0404261EB4101524263EB9E
:1011C00043037047524263EB430300F017F8DDF826
:1011D00004E0DDE9022304B0404261EB41017047C5
:1011E000524263EB430300F009F8DDF804E0DDE967
:1011F000022304B0524263EB430370472DE9F047EA
:10120000089E0D4604468E46002B40F083808A429D
:10121000174647D9B2FA82F34BB1C3F1200105FA60
:1012200003FE20FA01F19F4041EA0E0E9C404FEA76
:101230001748BEFBF8FC1FFA87F908FB1CE20CFB01
:1012400009F0210C41EA024290420AD9BA180CF185
:10125000FF3180F01881904240F21581ACF1020C10
:101260003A44121AB2FBF8F008FB102200FB09F115
:10127000A4B244EA0244A14209D93C1900F1FF3268
:1012800080F00381A14240F2008102383C44641A9C
:10129000002140EA0C401EB10022DC40C6E90042B9
:1012A000BDE8F08702B9FFDEB2FA82F3002B4FD11E
:1012B0008D1A01214FEA124E1FFA82F8B5FBFEFC8F
:1012C0000EFB1C5508FB0CF0220C42EA0545A84217
:1012D00007D97D190CF1FF3202D2A84200F2E98051
:1012E00094462D1AB5FBFEF00EFB105508FB00F8D6
:1012F000A4B244EA0544A04507D93C1900F1FF32E5
:1013000002D2A04500F2D9801046A4EB080440EABE
:101310000C40C0E78B4208D9002E00F0B1800021BC
:10132000C6E900050846BDE8F087B3FA83F1002955
:101330004BD1AB4202D3824200F2B980841A65EBF2
:10134000030301209E46002EAAD0C6E9004EA7E75F
:101350009F40C3F12002D1404FEA174EB1FBFEF08F
:101360001FFA87F80EFB101124FA02F29D4000FBD1
:1013700008FC2A43150C45EA0145AC4504FA03F480
:1013800009D97D1900F1FF3180F08F80AC4540F222
:101390008C8002383D44A5EB0C05B5FBFEF10EFB3D
:1013A000115C01FB08F995B245EA0C45A94507D93E
:1013B0007D1901F1FF3274D2A94572D902393D4439
:1013C000A5EB090541EA004178E7C1F120078B4010
:1013D00022FA07FC4CEA030C25FA07F44FEA1C4EEC
:1013E000B4FBFEF91FFA8CF80EFB194420FA07F340
:1013F00009FB08FA8D401D432B0C43EA0444A24527
:1014000002FA01F200FA01F309D91CEB040409F114
:10141000FF3048D2A24546D9A9F102096444A4EBA1
:101420000A04B4FBFEF00EFB104400FB08FAADB258
:1014300045EA0444A24508D91CEB040400F1FF3539
:101440002DD2A2452BD90238644440EA0940A0FBC2
:101450000289A4EB0A044C45C6464D4619D316D062
:101460005EB1B3EB0E0264EB050404FA07F722FA4F
:1014700001F31F43CC40C6E900740021BDE8F087AA
:10148000314630460CE78C46EBE61046FFE6434516
:10149000E6D2B8EB020E69EB0C050138E0E728460E
:1014A000D3E711468CE78146B9E7084673E708465B
:1014B00049E7ACF1020C3D4413E702383C4424E711
:1014C000704700BF7FB501238DF817104FF48031AE
:1014D000CDE901310DF11701024600910348EC21DD
:1014E00003F0EEFA07B05DF804FB00BFE80B002044
:1014F0007FB500234FF480318DF817300123CDE9FB
:1015000001310DF11701024600910448EC2103F06E
:1015100067FB9DF8170007B05DF804FBE80B00209F
:101520001FB5024602234FF480300091CDE901300F
:10153000EC210123024803F053FB05B05DF804FBE6
:10154000E80B00201FB5024602234FF480300091C3
:10155000CDE90130EC210123024803F041FB05B045
:101560005DF804FBE80B00207FB502234FF48031C7
:10157000CDE9013105AB02460093EC210123064879
:1015800003F02EFB9DF814009DF8153043EA00206F
:1015900007B05DF804FB00BFE80B00207FB5032314
:1015A0004FF48031CDE9013105AB02460093EC21C7
:1015B0000123084803F014FB9DF815309DF8140032
:1015C0001B0243EA00439DF81600184307B05DF87C
:1015D00004FB00BFE80B0020FA2010B5FFF7DEFF88
:1015E000B0F5000F37D0001104461C4900280A88C6
:1015F000B8BFC41D0028B8BF0F30C2EB2010404355
:101600004FEA4203C3EBE404B1F90230B1F904201C
:1016100048BF00F6FF70634300135043002BB8BF70
:1016200003F2FF730028B8BF00F57F500C4AB8BF23
:101630003F30DB1203EBA033136003EB830313F1A2
:10164000800048BF03F27F100012FFF727FB054917
:10165000FFF72CFC10BD0448FCE700BF5C03002032
:10166000340B00200000C8420000C07F2DE9F74F76
:10167000FFF7B2FFF720FFF791FF864B864E1A68FF
:101680008646B2F5FA374FEAE273A7FB071243F139
:10169000FF3C07FB0CF3CDE90012019A02EB430378
:1016A000B6F90820019302FB0CF1D31707FB0311D5
:1016B000A2FB07230B441903019841EA12514FEA98
:1016C0000239B6F90A2002FB00FA0098D31700FB92
:1016D00003AAA2FB00235344002A73F1000802DA94
:1016E000FF3243F100034FEA122A4AEA036AF28802
:1016F0004FEA232B1AEB09004BEB010B0030A0FB48
:1017000002014BF5004B02FB0B11002871F10003A5
:1017100003DA10F1FF3041F101014A10CB1752EA10
:10172000030100F0B480B6F910A0019900980AFBFB
:1017300001F900994FEAEA7B01FB0B91AAFB0089B2
:10174000B6F90E00894400FB0CFCC11707FB01CC65
:10175000A0FB070161444FEA414C4CEAD03C4704EE
:10176000002017EB08074CEB090CC01940F6354771
:101770004FEA2E1ECEF5801E4FEAEE79B6F90C80A8
:101780004FEAC97A4FEACE714AEA5E0A4FEAC80EBA
:101790004EEB0C0C081AA0FB07016AEB0C0A07FBC6
:1017A0000A11FFF7DBFC002871F100028046894630
:1017B0000B4606DA41F6FF70002318EB000041EB00
:1017C0000303B6F916205913400B40EAC34002FB4D
:1017D00001F7A2FB00ABD31700FB03770AFB01F173
:1017E000BB4400FB0B13AAFB000119440B46002865
:1017F00073F10001024606DA6FF07E4142184FF0A5
:10180000000141EB0303B6F914A0510E0AFB09F7DE
:1018100041EAC31111EB08014FEA63604FEAEA7B2A
:1018200008FB0B7340EB0900AAFB08899944B8F147
:10183000000F79F1000306DA184B18EB03084FF09C
:10184000000349EB03094FEAD84343EA4933CC1874
:101850004FEAE94240EB0205002C75F1000302DA81
:10186000FF3445F100051022230A43EA0560B6F96A
:1018700012302912C3FB0201FEF700FE0022084BC2
:10188000FEF72AFEFFF700F903B0BDE8F08F002055
:10189000FAE700BF340B00205C030020FFFF0700C5
:1018A0000000703F10B5FFF797FEFD20FFF75CFECC
:1018B000B0F5004F56D02C4A2C4BB2F91E101B68C5
:1018C0000905C1EB8031B2F92000A3F5963303FB83
:1018D0001010117F10F5804044BF00F5FF407F30AD
:1018E000594392F9224048BF01F2FF7163434FEA26
:1018F000E12148BF03F2FF3301F500419B124B4346
:1019000048BF03F2FF33B2F91A109B1203F500131C
:101910004B4313F5005344BF03F57F533F339B13F1
:10192000C013584303460028BCBF00F5FF437F3374
:10193000DB135B43127E48BF7F33DB11534348BF49
:101940000F33A0EB231020EAE070B0F1C85FA8BF0E
:101950004FF0C8500013FFF79DF94FF06A51FFF7A1
:10196000F1F910BD0248FCE75C030020340B0020B5
:101970000000C07FD02038B5FFF7BAFD602840F0E6
:10198000B180B621E020FFF79DFDF320FFF7B0FD09
:10199000C307FAD4544C88202146FFF7C1FDA11C8F
:1019A0008A20FFF7CFFD211D8C20FFF7CBFDA11D65
:1019B0008E20FFF7B5FD04F108019020FFF7C2FD6E
:1019C00004F10A019220FFF7BDFD04F10C019420FF
:1019D000FFF7B8FD04F10E019620FFF7B3FD04F107
:1019E00010019820FFF7AEFD04F112019A20FFF7D5
:1019F000A9FD04F114019C20FFF7A4FD04F11601D8
:101A00009E20FFF79FFDA120FFF772FD04F11A0150
:101A10002076E120FFF796FDE320FFF769FD2077B0
:101A2000E420FFF765FD0546E520FFF761FD00F0C6
:101A30000F0343EA0510E083E620FFF759FD054652
:101A4000E520FFF755FDC0F3071343EA0510208496
:101A5000E720FFF74DFD84F82200F520FFF748FD51
:101A600000F01F0141F0A001F520FFF72BFDF5204C
:101A7000FFF73EFD00F0E30141F00801F520FFF71C
:101A800021FDF420FFF734FD00F01F0141F060015B
:101A9000F420FFF717FDF420FFF72AFD00F0E30123
:101AA00041F00C01F420FFF70DFDF220FFF720FDBF
:101AB00000F0F80141F00301F220FFF703FDF420EC
:101AC000FFF716FD0146F420FFF7FCFCF420FFF7BA
:101AD0000FFDBDE8384000F0FC0141F00301F420A7
:101AE000FFF7F0BC38BD00BF5C030020024A13685A
:101AF00001331360704700BFFC01002008B50A489D
:101B00000A4A0B4BC0E9002300234FF48042C0E98E
:101B10000233C0E90423C0E90633036202F00EFF7A
:101B200008B172B6FEE708BDE80B00200054004083
:101B3000A086010000000000814BF0B51A6803F197
:101B4000236303F5673376339A4289B072D1012853
:101B500000F084807B4BC8221C887B4BA4B21C8085
:101B60007A4B00211D887A4BADB21D80794B7A48A3
:101B70001E887A4BB6B21E80794B1F88794BBFB254
:101B80001F80794B1C80794B1D8004F067FB2B462E
:101B90002246CDE9006776496F4804F0C7FF4FF44D
:101BA0007A73C8226C49734804F07AFA724BC822DF
:101BB0001C68724B00211C60714B67481E68714B9A
:101BC0001E6004F04BFB2046FEF72EFC0446304618
:101BD0000D46FEF729FC2246CDE900012B466A4955
:101BE0005D4804F0A3FF4FF47A73C8225A49614854
:101BF00004F056FA654B664C1B6800215A1C08BF5E
:101C0000644B4FF0C802544814BF2360236004F0B3
:101C100025FB2068FEF708FC02460B464E485E494D
:101C200004F084FF4FF47A73C8224B49514804F002
:101C300037FA2DE090B949F64043434A1380474AAA
:101C40001380434A1380474A1380514B514A1A600C
:101C50004FF07E53494A13604A4A13600023CDE98E
:101C60000333012336494D4CCDE90613237002F0AE
:101C700033FA20700028FAD103A904A802F0E8FA88
:101C800040B10123237002F039FA20700028FAD104
:101C900009B0F0BD012328A7D7E90067284D2370BC
:101CA00032463B462946032002F05CFA20700028A9
:101CB000F6D1274B234F1988284B1D88224B1E88AD
:101CC000284B46EA01461A88012345EA024523705B
:101CD00032462B463946032002F044FA2070002891
:101CE000F6D10123254E244D2370002329460220DE
:101CF000326802F037FA20700028F6D10123214E15
:101D00001F4D2370002329460220326802F02AFA70
:101D100020700028F6D101231D4E1C4D2370002396
:101D200029460220326802F01DFA20700028F6D100
:101D3000A7E700BFAFF300807698341200000000E0
:101D400000FC000810FC00083C03002012FC000806
:101D50000403002014FC000800020020DC06002020
:101D600016FC0008080300209E0300203E0B002004
:101D700070960008C80C002018FC0008E002002043
:101D800020FC0008F00200209B96000824FC0008BC
:101D9000840800200000A041B5960008A40D002092
:101DA00010B51422002494B021460DEB02000D94CE
:101DB0000F9404F053FA1022214601A804F04EFAC1
:101DC0004FF4803309220C940224CDE90A23CDE993
:101DD000114301224FF4E0130AA80E9210921393BC
:101DE00003F06AF808B172B6FEE70F23CDE90534B7
:101DF0004FF480630790CDE90830214605A803F031
:101E000037FA08B172B6FEE74FF4004301A8019417
:101E1000039303F0FBFA08B172B6FEE703F0E8F9AA
:101E200014B010BD2DE9F04FA64CBFB001F0DCFDA1
:101E3000606A636AA449656AA44A666A13F0804FBF
:101E4000676A14BF13460B4615F0005FD4F824C030
:101E500014BF15460D4616F0805F14BF16460E4699
:101E600017F0806F14BF17460F461CF0006F0CBFB1
:101E70008C469446CDE9027C102712EA200238BF36
:101E80000A46CDE900569249924804F04FFEFFF70A
:101E900087FF3A46002136A804F0E0F9A369002242
:101EA00043F02003A361A36941F2840103F02003FE
:101EB0002693269BA369884843F00403A361A36982
:101EC000012603F004032793279BA369022543F00F
:101ED0000803A361A369002403F008032893289B47
:101EE00002F04CFB002241F21E017C4802F046FB4E
:101EF00041F28403784836A9CDE93636CDE9384534
:101F000002F0F2F941F21E03744836A9CDE93636E3
:101F1000CDE938450C2602F0E7F94FF4E13370487B
:101F2000704DC0E90244C0E90053C0E90564046192
:101F3000C46104F087F8054608B172B6FEE70146B1
:101F40003A462BA804F08AF91C2229462FA8CDE98D
:101F5000295504F083F92946202236A804F07EF999
:101F6000614C624B0D21C4E90035B323C4E903354C
:101F700080232046C4E90513A56003F023FD08B1C2
:101F800072B6FEE74FF4805320462BA92B9303F043
:101F9000FCFD08B172B6FEE7204603F03FFD08B134
:101FA00072B6FEE70821204603F064FD08B172B660
:101FB000FEE7CDE9297029A9204603F08BFF0246F0
:101FC00008B172B6FEE73023CDE93100CDE92F30FC
:101FD000CDE9330035902FA9204603F0A5FD08B1C7
:101FE00072B6FEE72268204693692FA943F00803E2
:101FF0009361042203F098FD08B172B6FEE72268EF
:10200000204693692FA943F400639361082203F0EB
:102010008BFD08B172B6FEE7324620462FA903F0C9
:1020200083FD08B172B6FEE722682F48D36936A94E
:1020300043F40063D36100234FF40052CDE93633FB
:10204000CDE938333A933B923D9303F071FF054657
:1020500008B172B6FEE710264FF0640A224800F07D
:1020600081FF3246294636A804F0F8F8204C214B6F
:102070004FF08009C4E9003A4FF6FF732046CDE9DE
:102080002F55C4E90335A560C4F8189003F09AFCF5
:1020900008B172B6FEE74FF48058204636A9CDF855
:1020A000D88003F072FD08B172B6FEE720272FA991
:1020B000CDE92F70204603F00DFF0546E0B172B662
:1020C000FEE700BF00100240C6960008C296000856
:1020D000C99600080002002000080140000C0140E1
:1020E000C80C002000380140100D0020002C0140D9
:1020F000A00B002000080040014632462BA804F047
:10210000ADF8142229462FA804F0A8F87C4C1C2214
:10211000294636A8CDE9295504F0A0F8794B204688
:10212000C4E90035C4E9025A2561C4F8189003F0E7
:1021300049FC08B172B6FEE720462BA9CDF8AC8069
:1021400003F023FD08B172B6FEE7204603F066FCFB
:1021500008B172B6FEE70821204603F08BFC08B1F7
:1021600072B6FEE7062320462FA9CDE92F3603F0ED
:10217000F2FD08B172B6FEE7CDE9297029A9204623
:1021800003F0A8FE08B172B6FEE7002210275C48F3
:1021900036A9CDE9367238923A9203F0C5FC05466D
:1021A00008B172B6FEE72268014693692BA843F096
:1021B000080393613A4604F051F8142229462FA8E7
:1021C00004F04CF81C22294636A8CDE9295504F024
:1021D00045F84FF080434C4CC4E900354AF22803DF
:1021E000C4E9033580232046A560A36103F0EAFB20
:1021F00008B172B6FEE74FF4805320462BA92B930B
:1022000003F0C3FC08B172B6FEE7204603F006FCFB
:1022100008B172B6FEE70821204603F02BFC08B196
:1022200072B6FEE706262FA9CDE92F60204603F0FF
:1022300092FD08B172B6FEE7202329A9CDE9293025
:10224000204603F047FE024608B172B6FEE7CDE92C
:10225000367038903A9036A9204603F065FC054662
:1022600008B172B6FEE72268936943F008039361F0
:10227000FFF744FC4FF482732448254AC0E9025515
:10228000C0E900234FF40073C0E906350A23C0E912
:102290000455C0E908558562C36203F0A3F908B18B
:1022A00072B6FEE71B481C4BC0E9003640F6FF73D0
:1022B000836002F0D3FD08B172B6FEE7174C184AEE
:1022C0000023012522604FF400222046CDE9363359
:1022D0003893A36023732375E2616360256101F085
:1022E00069FD08B172B6FEE70323389036A920468F
:1022F000CDE9363501F018FC044698B172B6FEE718
:10230000500C002000040040580D0020480B002015
:10231000003800403C0C002000300040980C0020A9
:10232000002401402A46DFF850A38021AA4802F089
:1023300025F94FF0FF33C822A849A9488AF8005070
:1023400003F0AEFE4FF0FF331222A649A44803F07B
:10235000A7FE22464FF480519F4802F00FF9204615
:10236000FFF7EAFBA04ADFF81493D368DFF8108385
:1023700043F01E03D3604AF288439C4F9C4E0D22CB
:102380009C49A9F80030A8F800303B80338094487D
:102390004FF0FF3303F084FEFFF7ECFA4FF0FF330A
:1023A000062295498E4803F07BFE00200021934AC7
:1023B000934BC2E90001934A1C701570B325924AF1
:1023C000924B1480DFF8BCE2DFF8BCC2904AC3E94C
:1023D0000001AEF80040CCE90001D56221971F460C
:1023E00000238C4ACDE91E981480CDF894A0249641
:1023F00064246646804689469A46874ADFF864B276
:102400002292864D864ACDF880E02299013C41F81F
:10241000043B22914BF8043B45F8043B42F8043B53
:10242000F3D1804B13221C707F4B80491C70804B72
:102430006B481C707F4B1C704FF0FF3303F030FE75
:102440007D4803F09BF97D4803F098F97C4803F040
:1024500095F97C4B7C48C3E900897C4BC6E900892F
:10246000C3E900897A4BC7E90089C3E90089794B40
:10247000C3E9008901F01CFD734801F00FFC2246FE
:102480008021554802F07AF8554D259B1B78002B8A
:1024900000F07081704A7148136843F001031360C3
:1024A00002F003FD0023259A1370209B1B88002B4C
:1024B00000F0DA825B4A6A4B12781B8852B95A4A9A
:1024C00012783AB95A4A127822B95A4A1278002A2E
:1024D00000F00882B3F5C86F80F00782C82200219F
:1024E0003E4803F0BBFE5F4B1E684D4B30461C68F8
:1024F000494BD3F80080494BD3F80090404B1B78F0
:10250000002B00F08E81FDF78FFF02460B465649E7
:1025100048460968CDE92223FEF714FC01464046EF
:10252000FEF706FBFDF780FFCDE908014846FDF701
:102530007BFFCDE906014046FDF776FFCDE90401BA
:102540004A4920460968FEF7FDFB01463046FEF782
:10255000EFFAFDF769FFCDE902012046FDF764FFC0
:10256000DDE92223CDE9000141491C4804F0DEFAEF
:102570004FF47A73C8222846184903F091FD204B86
:102580001B78002B40F0F380264C2378002B00F0C2
:102590006481344B37491E683046FEF7C9FAFEF7AE
:1025A00097FD0028B8BF4042FEF778FB4FF07E5100
:1025B000FEF784FD002800F05081219B30462D4914
:1025C0001C88FEF77BFD002800F045810134219B2B
:1025D0001C80154C237859E00008014000020020BF
:1025E000C80C00200B970008000C0140DC060020FE
:1025F000080300201D9700082A97000810030020F8
:10260000A80300203C0B0020DE060020E80200208A
:10261000002C0140180300204C050020E806002093
:10262000980800204C030020800300203097000809
:10263000270B002006030020580D0020500C00201E
:10264000A00B002090030020980C0020F80200202E
:10265000900800204005002010E000E03C0C002025
:1026600088080020AC030020E0020020F0020020D7
:102670004397000800003343E40200203C0300209D
:102680000403002082080020A0030020002B00F09B
:10269000E9807B4B7B491E683046FEF749FAFEF71E
:1026A00017FD0028B8BF4042FEF7F8FA4FF07E5100
:1026B000FEF704FD002800F0D5801E9B30467149CE
:1026C0001C88FEF7FBFC002800F0CA8001341E9B2A
:1026D0001C806D4C2378002B00F0C9806B4B69493E
:1026E0001E683046FEF724FAFEF7F2FC0028B8BF59
:1026F0004042FEF7D3FA4FF07E51FEF7DFFC002890
:1027000000F0B580249B30465E491C88FEF7D6FC5D
:10271000002800F0AA800134249B1C805C4C2378A4
:10272000002B00F0A9805B4B56491E683046FEF72F
:10273000FFF9FEF7CDFC0028B8BF4042FEF7AEFA25
:102740004FF07E51FEF7BAFC002800F095801F9BE9
:1027500030464C491C88FEF7B1FC002800F08A8006
:1027600001341F9B1C804C4A1388013313804B4853
:1027700003F004F84A4C0A2301222146284603F0BC
:10278000E4FC00283FF481AE2378632B40F04A82BA
:102790004FF47A7316224349434803F081FC3F48C3
:1027A00003F016F8C8220021404803F057FD01232A
:1027B0003F4A1E9913703F4A1370334A1370344ACC
:1027C000137000223C4B1A70334B1A8049F6404379
:1027D0000B8021990B801F990B8024990B80374B1C
:1027E0002099C3F800A0364BC3F800A0354BC3F8BE
:1027F00000A0354BC3F800A0344BC3F800A0344B05
:10280000C3F800A0334B1A804FF4FA730B80324B9D
:102810001A80324B1A80214802F0B0FF0023237047
:1028200032E6FDF701FE064648460F46FDF7FCFD81
:10283000CDE904014046FDF7F7FDCDE90201204650
:10284000FDF7F2FD3246CDE900013B462449174829
:1028500004F06CF98CE6013CB9E600232370B8E67D
:10286000013C34E70023237033E7013C54E70023A5
:10287000237053E7013C74E70023237073E700BF24
:102880009808002000003343270B00204C0500204F
:1028900006030020E806002088080020A00B002086
:1028A000C802002001990008C80C00200002002086
:1028B0004C03002080030020A803002038030020E0
:1028C0004805002078080020280B0020E0020020A6
:1028D000F0020020300B0020DE060020180300204C
:1028E00080970008B3F5C86F08D34FF47A731F229E
:1028F000A349284603F0D4FB01F09EFB209B1C88D3
:10290000002C3FF434AF9F4E9F4B31681868FEF7A0
:1029100011F99E4B30609E4E074631681868FEF7ED
:1029200009F9DFF8F4829B4BD8F80010306081463B
:102930001868FEF7FFF8DFF8E4B2974BC8F800001C
:10294000DBF8001006461868FEF7F4F8013C209BFF
:10295000A4B28046CBF800001C80002C7FF407AFA7
:1029600049463846FEF7A2FA8C4F41468146386008
:102970003046FEF79BFADFF8A8820646C8F800004A
:102980004846FEF7A5FB0130022868D83046FEF71E
:102990009FFB0130022862D8814B824E1B680120C8
:1029A0003360FFF7C9F81E9BC822B3F800907E4B36
:1029B0002146A3F800901F9B7C48B3F800B07C4BE5
:1029C000A3F800B003F04AFC249B4A461B887949CF
:1029D000CDE900B3219B75481B8804F0A7F84FF49C
:1029E0007A73C8227149284603F05AFBC82221464F
:1029F0006E4803F033FCD8F80000FDF715FD804663
:102A000038688946FDF710FD4246CDE900014B4686
:102A10006949664804F08AF84FF47A73C82263491A
:102A2000284603F03DFBC8222146604803F016FC0F
:102A30003068FDF7F9FC02460B465C485F4904F03C
:102A400075F84FF47A73C8225849284603F028FBDA
:102A500000225B4B1A8001225A4B1A7087E64FF412
:102A60007A732A225849F0E7FEF7B6FD4C4C574ED0
:102A70002060FEF7FBFD5649FEF764F93060FEF773
:102A800011FF544FD4F80080386053494046FEF798
:102A9000F7FA20B140465149FEF710FB30B95048D3
:102AA00001F0F4FFFFF72AF8FEF764FF454B1B78AF
:102AB000002B61D14B4B3C4A1B881C931E9B1288F8
:102AC0001B889B1A1B933A4A1F9B12881B889B1AD0
:102AD0001A93454B1868FDF7A7FCCDE91801434B45
:102AE0001868FDF7A1FCCDE91601414B1868FDF708
:102AF0009BFCCDE914013F4B1868FDF795FCCDE92F
:102B000012013868FDF790FCCDE910013068FDF73F
:102B10008BFCCDE90E012068FDF786FCCDE90C01A8
:102B2000354B3649D3E90023CDE90A23344B1F48FE
:102B3000D3E90023CDE90823324BD3E90023CDE9C3
:102B40000623314BD3E90023CDE904232F4BD3E9EE
:102B50000023CDE902232E4BD3E90023CDE9002346
:102B60002C4BD3E9002303F0E1FF4FF47A73C82222
:102B700028460E4903F094FA0022124B6DE700BF7D
:102B8000AF970008380300204C050020E80600201D
:102B900048050020AC03002098080020E002002037
:102BA00048030020840800209E030020000200202B
:102BB0003E0B0020CE9700080A98000821980008D4
:102BC000880800203C0B00202F98000858030020A4
:102BD000E8C7F53B8803002000007042000020C2D7
:102BE000E80B002080080020380B00207C08002023
:102BF0003C0500202C0B00202003002059980008E1
:102C00004005002090080020F8020020E802002083
:102C1000A00300209003002078080020280B00204B
:102C2000F0020020742B1AD11E4802F0D1FD4FF49F
:102C30007A7310221C491D4803F032FA0123209AAE
:102C40001B49138000220A801A490B701A490B7025
:102C50001A490B701A490B701A490B70D9E5722B7F
:102C60007FF4DCAD0F4802F0B3FD4FF47A732122FC
:102C700015490E4803F014FA00200E4B0E4A187046
:102C8000012313700D4A13700D4A13700D4A13700F
:102C9000209B1880064B18800C4B1880FEF74CFFC9
:102CA000B9E500BFA00B002017990008C80C002050
:102CB00088080020A80300204C0300208003002087
:102CC000270B002006030020279900081803002086
:102CD0000E4B82B09A6942F001029A619A6902F041
:102CE00001020092009ADA6942F08052DA61DB69EF
:102CF000074A03F080530193019B536823F0E0637C
:102D000043F08063536002B0704700BF0010024080
:102D10000000014010B5044686B01022002102A830
:102D200003F09CFA2268144B9A4223D103F56C43BA
:102D30009A69124842F400729A619A6902A902F4EF
:102D400000720092009A9A6942F004029A619B69AB
:102D5000082203F004030193019B0323CDE902231E
:102D600001F0C2FA00221220114601F025F91220CA
:102D700001F054F906B010BD0024014000080140E4
:102D800010B5044686B01022002102A803F066FAAE
:102D90002268154B9A4224D1144C4FF44072A36917
:102DA000134843F00803A361A36902A903F00803D1
:102DB0000093009B1223CDE902230323059301F026
:102DC00093FA0C4A536843F0E06343F00203536004
:102DD000E36943F40013E361E36903F4001301932F
:102DE000019B06B010BD00BF00540040001002401F
:102DF000000C01400000014008B502680A4B9A42ED
:102E000010D10A4A4FF48071D369094823F40013A2
:102E1000D36101F045FBBDE808404FF40071044860
:102E200001F03EBB08BD00BF00540040001002404E
:102E3000000C014010B5044686B01022002102A803
:102E400003F00CFA2268174B9A4228D103F5EC33B1
:102E5000DA69154842F48042DA61DA6902A902F4BB
:102E600080420092009A9A6942F008029A619B6936
:102E70004FF4204203F008030193019B0223CDE9A4
:102E800002230323059301F02FFA4FF4804100231E
:102E90000548CDE9021302A9049301F025FA06B012
:102EA00010BD00BF00380040000C01401FB5036892
:102EB000284A93420CD1284B9A6942F400629A61E5
:102EC0009B6903F400630093009B05B05DF804FB6D
:102ED000B3F1804F15D103F50433DA691C2042F0B9
:102EE0000102DA610022DB69114603F0010301935C
:102EF000019B01F061F81C2005B05DF804EB01F0C6
:102F00008DB8164A934210D1134B1D20DA6942F056
:102F10000202DA610022DB69114603F00203029328
:102F2000029B01F049F81D20E6E70D4A9342CCD1FF
:102F3000094B1E20DA6942F00402DA610022DB69E3
:102F4000114603F004030393039B01F035F81E20A0
:102F5000D2E700BF002C01400010024000040040F6
:102F60000008004010B5044686B01022002102A8D7
:102F700003F074F922680D4B9A4215D103F56443AE
:102F80009A690B4842F004029A619B694FF470629F
:102F900003F004030193019B0223CDE902230323E1
:102FA00002A9059301F0A0F906B010BD002C014064
:102FB0000008014010B5044686B01022002102A886
:102FC00003F04CF92268194B9A422DD103F558436E
:102FD0009A69174842F480429A619A6902A902F4F8
:102FE00080420092009A9A6942F008029A619B69B5
:102FF000402203F008030193019B0223CDE9022341
:103000000323059301F070F9002380210848CDE9DE
:10301000021302A9049301F067F9064A536843F0CA
:10302000E06343F00403536006B010BD0038014074
:10303000000C01400000014008B502F0D7F9FEE79E
:10304000FEE7FEE7FEE7FEE77047704770470000C7
:1030500010B5084C238801339BB2B3F57A7F2380E7
:1030600003D3FEF743FD00232380BDE8104000F0AA
:10307000CDBC00BFD202002010B5054C204600F0A8
:10308000D7FC044B18802046BDE8104000F0D5BCAA
:10309000980C002080080020014802F0B8BB00BF57
:1030A000580D00201C2210B5084B094C1A60204610
:1030B0000122042101F062FA20460022042101F0DD
:1030C0005DFABDE81040034802F0A1BB9803002060
:1030D00000080140500C00202DE9F04F002700258A
:1030E000A24B97B01F60A24B39461F60A14BA2486C
:1030F0001D60A24BA24C1D60A24BA34E1D60A34BB2
:103100001D6002F0ABFE04219B4802F0A7FE0821DF
:10311000994802F0A3FE0C21974802F09FFE9C4ABA
:10312000D36843F01E03D360636823F46E4323F037
:10313000EE0343F42A4343F0AA036360954B0595DD
:103140001A881AB132881F80013232803788924A39
:10315000642F158840F03C83002D40F044838F4855
:1031600002F036FB002200238D49CDE90A23C1E994
:1031700000238C49CDE90C23C1E900238A49CDE91C
:103180000E23C1E900238949CDE91023C1E90023B9
:103190008749CDE91223C1E900238649CDE91423EB
:1031A00001918549CDE90823049184490095039153
:1031B00083490291019BDDF8008053F8045B019381
:1031C00016AB03EBC8047F4B1968049B53F8040B40
:1031D0000493FDF7B7FD01462846FDF7A9FCFDF76E
:1031E00023F908F10103DBB2032B28BF002344E9D4
:1031F0000C01DDE90AABDDE90C6700933246DDE93D
:103200000E453B4650465946FDF7D8FB22462B4615
:10321000002800F0348230463946FDF7CFFB002805
:1032200040F03D8222462B4650465946FDF7E4FBCE
:1032300008B9A246AB465D4C5246D4E900015B4654
:10324000FCF794FF039BC4E900010693029B0793DC
:1032500016AB03EBC8085C4B1968029B1868FDF7B6
:1032600071FD039B01461868FDF762FCFDF7DCF871
:1032700048E90601DDE91045DDE9128920464246AC
:103280004B462946FDF79AFBDDE9146732463B467B
:10329000002800F0078240464946FDF78FFB0028D2
:1032A00040F0108232463B4620462946FDF7A4FBFB
:1032B00008B934463D463E4E2246D6E900012B462B
:1032C000FCF754FF414BC6E90001C3E900AB404B9A
:1032D0002246C3E9004520462B462946FDF7FCF867
:1032E000524604460D465B4650465946FDF7F4F8F3
:1032F00002460B4620462946FCF738FF05F07CFEC7
:1033000004460D46334B264EC3E90045D6E900235B
:10331000FDF772FB08B1C6E900452C4B214ED3E9FD
:103320000001FDF789FB0028B8BF4042FDF76AF8AD
:10333000D6E9002304460D46FDF75EFB08B1C6E959
:103340000045234B184ED3E90001FDF775FB00281B
:10335000B8BF4042FDF756F8D6E9002304460D46B3
:10336000FDF74AFBC0B3C6E9004535E08403002001
:10337000980300202C0B0020100D00203C0500209D
:10338000000801407C08002018030020380B0020B2
:10339000000C0140DE06002082080020A00B002067
:1033A0001003002028030020E00600203003002046
:1033B0005003002054050020F0060020B403002034
:1033C000A0080020E0020020F0020020400B0020B6
:1033D0004003002090030020019BDFF85C9353F82A
:1033E000040CD9F80010FDF7A5FBDFF85083049B0F
:1033F000D8F80010C9F80000834653F8040CFDF714
:1034000099FBB54F069B3968C8F800000646186856
:10341000FDF790FBDFF828A3079BDAF8001038606F
:1034200005461868FDF786FB059A019B044643F89C
:10343000042C049BCAF8000043F8042C039B43F8B7
:10344000042B0393029B43F8042B0293019AA34B92
:1034500093427FF4AFAE5846A149FDF727FDA0493E
:10346000C9F8000083463046FDF720FD9D4A1168EB
:10347000FDF768FC9A490646C8F800002846FDF7A3
:1034800015FD9749386005462046FDF70FFD964A21
:103490001168FDF757FC3146CAF80000044658464B
:1034A000FDF748FB91498146FDF742FBFDF710FE11
:1034B00080EAE076A6EBE0763046FDF7EFFB4FF0D2
:1034C0007E51FDF7FBFD40B3DFF87882322EB8F86D
:1034D0000000D4BF4FF07E5BDFF81CB2FDF7DEFBCF
:1034E000834F00903888FDF7D9FB8049064648464F
:1034F000FDF7E4FD009B002800F02A81194658469C
:10350000FDF718FBFDF70AFE3146A8F80000584603
:10351000FDF710FBFDF702FE388021462846FDF737
:1035200009FB72498046FDF703FBFDF7D1FD80EAF8
:10353000E074A4EBE0742046FDF7B0FB4FF07E5141
:10354000FDF7BCFD18B36B4F322C3888D4BF4FF059
:103550007E54694CFDF7A2FB684E81463088FDF72A
:103560009DFB624905464046FDF7A8FD002800F096
:10357000FC8049462046FDF7DDFAFDF7CFFD2946E0
:1035800038802046FDF7D6FAFDF7C8FD30805C494B
:103590000022D1E900015B4BFDF7C8F84CA3D3E949
:1035A0000023FDF7C3F806460F46DFF89C81564915
:1035B000C8E90067D1E900010022524BFDF7B6F8D7
:1035C00043A3D3E90023FDF7B1F841A3D3E90023D6
:1035D00004460D46DFF874914C49C9E90045D1E92C
:1035E0000001FDF7A3F84A4BC3E9000138A3D3E972
:1035F00000234849D1E90001FDF798F8464BC3E99B
:10360000000133A3D3E900234449D1E90001FDF7C8
:103610008DF8434B3246C3E900013B4630463946FC
:10362000FCF75AFF224606462B460F4620462946FF
:10363000FCF752FF02460B4630463946FCF796FD32
:1036400005F0DAFC04460D46364B0022C3E900457E
:103650000023FDF7A9F9344E002800F09280DDE93F
:103660000834C6E900340022304B1A800122304B66
:103670001A70304817B0BDE8F04F02F0C8B8504695
:103680005946FDF79BF900287FF4D5AD22462B461D
:1036900030463946FDF7B0F900283FF4CAADB246CE
:1036A000BB46C8E520462946FDF788F900287FF487
:1036B00002AE32463B4640464946FDF79DF900289A
:1036C0003FF4F7AD44464D46F5E500BFAFF300804B
:1036D000000000205C6F47407C080020DC060020D2
:1036E0000000C442E0020020F00200200000C844B4
:1036F000080300203C0300200000F041DC0600200D
:1037000030030020008058405003002010030020A8
:10371000F80200202803002090080020E006002086
:103720004005002090030020200300201803002003
:10373000E4020020A00B00202C0B00203C05002000
:10374000380B002004030020A0030020E802002022
:1037500059461846FDF7ECF9FDF7E0FC5946A8F884
:1037600000003046FDF7E4F9D4E621464846FDF76F
:10377000DFF9FDF7D3FC214638802846FDF7D8F95C
:1037800002E72246D9E900012B46FCF7CFFF05F0FE
:1037900005FC00223C4BFCF79FFE39A3D3E9002334
:1037A000FCF7C4FF04460D46D8E9000100220023BF
:1037B000C6E90045FDF702F900283FF454AF224660
:1037C0002B4600203149FCF7CFFCC6E900014AE74F
:1037D0004DB1012F07D12E4801F0FAFF00233380AD
:1037E0002C4B1F7045E71A88511C1980032A3FF69D
:1037F00040AFDFE802F0021C293601228021264872
:1038000000F0BCFE00228021234800F0B7FE082112
:10381000224AD36823F00203D360636823F00F03C6
:1038200043F0040363601E4802F0CAFA21E71B4A12
:103830000021D36823F00803D360636823F4706326
:1038400043F480636360EEE7144A0421D36823F0F5
:103850001003D360636823F4704343F480436360D0
:10386000E1E70E4A0C21D36823F00403D3606368B8
:1038700023F0F00343F040036360D4E7AFF300802C
:103880004AD8124DFB2109400080664000807640F6
:10389000A00B0020E402002000080140000C0140C1
:1038A000100D00200120704708B502F0ADFC162372
:1038B00003604FF0FF3008BD08B502F0A5FC1623E9
:1038C0000360FEE770B50E4614460025A54201DBF5
:1038D000204670BDAFF3008070550135F6E770B536
:1038E0000E4614460025A54201DB204670BD705DE2
:1038F000AFF300800135F6E74FF0FF3070474FF42B
:10390000005300204B607047012070470020704733
:103910000B4B0246196810B509B90A4919601868B5
:1039200009490A4C0244091B8A4206D902F06CFC80
:103930000C2303604FF0FF3010BD1A60FCE700BF9E
:10394000D4020020E00D0020005000200004000000
:10395000704700000C480D490D4A002302E0D4587E
:10396000C4500433C4188C42F9D30A4A0A4C0023C9
:1039700001E013600432A242FBD3FFF7E9FF02F03B
:1039800049FCFEF74FFA704700000020E0010020DC
:10399000649D0008E0010020E00D0020FEE700002B
:1039A00038B50E4B054618784FF47A73B3FBF0F335
:1039B0000B4A1068B0FBF3F000F050FB044658B916
:1039C0000F2D09D8024629464FF0FF3000F0F4FAD7
:1039D0002046044B1D6038BD0120FCE70400002098
:1039E0000000002008000020074A08B513680320E3
:1039F00043F01003136000F0CDFA0020FFF7D0FF72
:103A0000FFF766F9002008BD00200240034A044B7E
:103A100011681B780B441360704700BFA80D00208D
:103A200004000020014B1868704700BFA80D00205B
:103A30000368D86C704770477047036810B55A68C0
:103A40000446900627D51A68910724D5A26AD206A3
:103A50005EBFA26A42F40072A2629A6802F4602217
:103A6000B2F5602F10D1227B72B95A6822F0200281
:103A70005A60A36A23F48073A362A36ADB045EBF67
:103A8000A36A43F00103A3622046FFF7D4FF6FF05F
:103A9000120223681A6023685A68100630D51A6823
:103AA00051072DD5A26AD2065EBFA26A42F4005227
:103AB000A2629A6802F4E042B2F5E04F0AD05A6876
:103AC000500516D49A6802F46022B2F5602F10D126
:103AD000227B72B95A6822F080025A60A36A23F4EA
:103AE0008053A362A36AD9055EBFA36A43F00103B2
:103AF000A362204600F04CFA6FF00C0223681A60B3
:103B000023685A6852060DD51B68DB070AD5A36ADD
:103B1000204643F48033A362FFF78EFF6FF001026B
:103B200023681A6010BD0000002373B5019390F85C
:103B300024300446012B6CD0012380F824304D68DA
:103B40000268062D086805EB850322D81F26556BF1
:103B5000053B9E4025EA060500FA03F32B43536319
:103B600009288B6800EB40054FF0070129D9D6687A
:103B70001E3DA94026EA0101AB400B43D360A0F1F2
:103B80001003012B25D90020002384F8243002B033
:103B900070BD0C2D4FF01F0509D8166B233B9D40BF
:103BA00026EA050500FA03F32B431363D8E7D66A28
:103BB000413B9D4026EA050500FA03F32B43D362FF
:103BC000CEE71069A94020EA0101AB400B43136125
:103BD000D9E7114B9A4216D193681B02D3D493684C
:103BE000102843F400039360CDD10C4B0C4A1B68A2
:103BF000B3FBF2F20A2353430193019B002BC2D083
:103C0000019B013BF8E7A36A012043F02003A36274
:103C1000BAE70220BBE700BF0024014000000020FB
:103C200040420F00002337B50193036804469A68A9
:103C3000D20702D5002003B030BD9A6842F00102DD
:103C40009A60144B144A1B68B3FBF2F30193019B77
:103C5000E3B9FFF7E7FE054623689B68DB07E9D475
:103C6000FFF7E0FE401B0228F6D923689B6813F09B
:103C70000103F1D1A26A012042F01002A262E26ABD
:103C800084F8243042F00102E262D4E7019B013B58
:103C9000DCE700BF0000002040420F0010B590F8A4
:103CA00024300446012B58D0012380F82430FFF73C
:103CB000B9FF00284DD1A36A294A23F4706323F089
:103CC000010343F48073A3622368934204D125491E
:103CD0004A6812F4702F32D1A26A22F48012A262D2
:103CE0005A68520541BFA26A22F4405242F48052FF
:103CF000A262A26A12F480521CBFE26A22F006029B
:103D0000E262002284F824206FF002021A605A68EE
:103D100042F020025A609A6802F46022B2F5602FE5
:103D200013D10F4A934205D1A2F58062526812F472
:103D3000702F0AD19A6842F4A0029A6010BDA26A5C
:103D400042F48012A2624A68CBE79A6842F4801279
:103D5000F3E7002384F82430F0E70220EEE700BF09
:103D6000002801400024014038B5036804469A68E1
:103D7000D10701D4002038BD9A6822F001029A6070
:103D8000FFF750FE054623689B68DB07F2D5FFF777
:103D900049FE401B0228F6D923689B68DA07F2D552
:103DA000A36A012043F01003A362E36A43F0010316
:103DB000E362E0E7F8B5044600286ED0836A23B9D1
:103DC000C36280F82430FEF7A5FF2046FFF7CCFF42
:103DD000A36A13F0100362D1002860D1A26AE569DA
:103DE000616822F4885222F0020242F00202294362
:103DF000A568A262227BB5F5807F41EA420137D0F7
:103E0000012D14BF00274FF48077267D012E06D1A7
:103E100082BBA269013A47EA423646F4006722684B
:103E2000B5F5807F566826F4694646EA070656606F
:103E300097681D4E06EA070646EA0106966001D01D
:103E4000012D02D12369013B1B05D56A25F47005BC
:103E50002B43D3629268154B1340994213D1002330
:103E6000E362A36A23F0030343F00103A362F8BDF6
:103E70002F46CAE7A26A42F02002A262E26A42F03A
:103E80000102E262CBE7A36A23F0120343F01003BE
:103E9000A362E36A43F00103E3620120E7E7A36A58
:103EA00043F01003A362F8E7FDF7E1FFFE0E1FFFEA
:103EB000002373B5019390F824300446012B62D09F
:103EC000012380F82430FFF74FFF0546002832D148
:103ED000A36A022023F4885323F0020343F0020371
:103EE000A3622A4B1E6801F009FBB6FBF0F67600D0
:103EF0000196019B1BBB2046FFF794FE2268936846
:103F000043F008039360FFF78DFD064623689A6827
:103F1000110718D49A6842F004029A60FFF782FDF4
:103F2000064623689B685B0723D4A36A23F0030338
:103F300043F00103A362002384F8243016E0019BC0
:103F4000013B0193D5E7FFF76DFD801B0A28DDD902
:103F500023689B681807D9D5A36A012523F01203AB
:103F600043F01003A362002384F82430284602B0F3
:103F700070BDFFF757FD801B0A28D2D923689B68C4
:103F80005A07CED5E8E70225F0E700BF0000002081
:103F90007047000007490302CA6803F4E06322F493
:103FA000E0621204120C134343F0BF6343F4003386
:103FB000CB60704700ED00E0164B30B5DC68C4F311
:103FC0000224C4F10703251D042B28BF0423062D5A
:103FD0004FF0FF3598BF002405FA03F388BF033C78
:103FE00021EA0303A34005FA04F422EA04020028AC
:103FF00043EA0203ACBF00F16040074A4FEA0313F3
:10400000DBB2ABBF00F5614000F00F0080F8003379
:10401000135430BD00ED00E014ED00E0002808DB93
:104020000123420900F01F0003FA00F0014B43F89E
:104030002200704700E100E0BFF34F8F0549064BB7
:10404000CA6802F4E0621343CB60BFF34F8F00BF36
:10405000FDE700BF00ED00E00400FA050138B0F113
:10406000807F0AD2F021064B064A586082F823105E
:104070000020072298601A6070470120704700BF37
:1040800010E000E000ED00E0114AD36813F01003E7
:1040900005D01049CB6943F00203CB611023D268ED
:1040A000500706D50B4943F00403CA6942F00102E8
:1040B000CA61074AD169C90708D50648C16941F0F4
:1040C0000401C161D16921F00101D161D360704760
:1040D00000200240B00D0020064B186910F080004F
:1040E00007D0054A5A6002F188325A601869C0F355
:1040F000C01070470020024023016745034A00209A
:10410000136943F080031361704700BF0020024031
:10411000F8B50446FFF786FC114D07462E46EB68BE
:10412000D80712D4EB68990644BF2023EB60F368EC
:10413000DA0606D4F369DB0703D4F06810F0040054
:1041400007D0FFF7A1FF012003E0631CE7D00CB903
:104150000320F8BDFFF766FCC01BA042DFD9F7E7DC
:10416000002002402DE9F84F254E1F46337E0546BC
:10417000012B8846914640D001234CF250303376D3
:10418000FFF7C6FFA8BB012D03D0022D0CBF0225EF
:1041900004254FF0000A5346DFF868B04FEA0A14CE
:1041A000C4F12001A4F1200207FA01F129FA04F474
:1041B000F3610C4327FA02F21443DBF81020A4B297
:1041C00042F00102CBF810204CF2503028F81A408F
:1041D000FFF79EFFDBF8102022F00102CBF8102041
:1041E00038B90AF1010A5FFA8AF295424FF00003EA
:1041F000D4D800233376BDE8F88F0220FBE700BF58
:10420000B00D0020002002400022064BDA61064B70
:104210001A6942F004021A611A6942F040021A61F6
:10422000704700BFB00D0020002002400022064B66
:10423000DA61064B1A6942F002021A6158611A6982
:1042400042F040021A617047B00D00200020024089
:104250002DE9F041224E0546337E8846012B3DD0A4
:104260000124347603684CF25030022B13D1FFF74F
:104270004FFF20B1012000233376BDE8F081FFF726
:10428000C3FF4CF25030FFF743FF164A136923F087
:1042900004031361EFE7FFF73BFF0028EAD14FF07B
:1042A000FF33C8F800302046AF680E4CD5E9023223
:1042B00003EB8223BB42DED93846FFF7B7FF4CF24F
:1042C0005030FFF725FF236923F00203236110B16B
:1042D000C8F80070CFE707F58067E7E70220CCE772
:1042E000B00D0020002002402DE9F74F00221646B5
:1042F000644BDFF8A0C1DFF8A0E10D6835FA06F4E1
:1043000002D103B0BDE8F08F4FF0010808FA06F8BB
:1043100005EA080438EA05057CD14D68032D07D865
:10432000013D022D00F28880DFE805F0969BA10098
:10433000122D00F099806FD8112D00F08F80FF2C86
:1043400098BF82464FF00F0988BF00F1040A4FEA78
:104350008605DAF8008088BF203D09FA05FB28EAC7
:104360000B0802FA05F548EA0505CAF80050D1F82D
:1043700004A01AF0805F4DD0434F26F00308BD69BA
:1043800008F1804845F00105BD61BD6908F5803838
:1043900005F00105019506F0030B019D4FEA8B0B1B
:1043A000D8F8085009FA0BF925EA0909374DA8424F
:1043B00061D005F58065A8425FD005F58065A8420B
:1043C0005DD005F58065A8420CBF0325042505FADC
:1043D0000BF545EA0905C8F808501D681AF4803F36
:1043E00014BF2543A5431D605D681AF4003F14BF48
:1043F0002543A5435D609D681AF4801F14BF2543C3
:10440000A5439D60DD681AF4001F14BF2C4325EA04
:104410000404DC60013670E71D4FBD420CD017D894
:10442000DFF878904D4507D009F570294D4503D048
:10443000A9F580194D4582D18A68D2B1012A08BFF9
:10444000C0F810804FF0080218BFC0F8148076E75B
:104450006545F1D07545EEE7CA6870E7CA68043271
:104460006DE7CA6808326AE7CA680C3267E700225B
:1044700065E7042263E70025A9E70125A7E70225F0
:10448000A5E700BF00040140001002400008014001
:104490000000221000003110000032100000121045
:1044A0002DE9F74F4FF0040B00224FF0010A4FF0B7
:1044B0000F0800EB0B0301932E4B31FA02F402D1EB
:1044C00003B0BDE8F08F0AFA02F70F4049D022F09E
:1044D000030404F18044284D04F5803402F0030CF9
:1044E000A6684FEA8C0C08FA0CF9A84209EA060EF5
:1044F00039D005F58065A84237D005F58065A8421A
:1045000035D005F58065A8420CBF0325042505FAC2
:104510000CF575456FEA07060FD1A56825EA090570
:10452000A5601C6834401C605C6834405C609C681A
:1045300034409C60DC683440DC60FF2F94BF074649
:10454000019F4FEA82043D6888BF203C08FA04FCC2
:1045500025EA0C050BFA04F425433D60C4682640A7
:10456000C6600132A9E70025D1E70125CFE7022582
:10457000CDE700BF00040140000801400AB101611D
:1045800070470904FBE7016800224B6913F480635C
:1045900010D06FF480634B612023026380F83D30BC
:1045A00080F83E20036C80F83C2043F00403036451
:1045B00001207047184670472DE9F04104460F4628
:1045C000164698462568686927EA000080B2B8B1A7
:1045D0006B695A0516D52B68202243F400732B60B3
:1045E0006FF480636B610023236384F83D2084F8BB
:1045F0003E30226C42F004020120226484F83C30F8
:10460000BDE8F081731CDED0FFF70CFAA0EB0800C8
:10461000B04201D8002ED5D100232022236384F894
:104620003D2084F83E30226C42F02002E4E770B571
:1046300004460D46164623685B695B0701D50020DA
:1046400070BD2046FFF79FFFA8B96A1CF3D0FFF7A3
:10465000E9F9801BA84201D8002DECD100232022CB
:10466000236384F83D2084F83E30226C84F83C308B
:1046700042F0200222640120E2E770B504460D46B4
:10468000164621684B6913F0400301D0002010E06A
:104690004A69D2060ED56FF010024A6120222363C8
:1046A00084F83D2084F83E30226C0120226484F896
:1046B0003C3070BDFFF7B6F9801BA84201D8002D31
:1046C000DFD100232022236384F83D2084F83E308C
:1046D000226C42F02002E8E72DE9F84606460F4634
:1046E00091461D464FEA114A3368BAF1010F0CBFDB
:1046F0005C699C6927EA0404A4B2B4FA84F46409EE
:10470000A14501D0002017E06A1CEED0FFF78AF91E
:10471000089BC01AA84201D8002DE5D10023202211
:104720000120336386F83D2086F83E30326C86F8EF
:104730003C3042F020023264BDE8F88670B5044691
:104740000D46164623685B691B0601D5002070BD27
:104750002046FFF718FFA8B96A1CF3D0FFF762F9EB
:10476000801BA84201D8002DECD100232022236316
:1047700084F83D2084F83E30226C84F83C3042F0CE
:10478000200222640120E2E72DE9F0431546026889
:104790009946136885B043F480731360DDE90C78A3
:1047A0000E463B4600224FF00111CDF80080044632
:1047B000FFF792FF236838B11B68DB0502D54FF481
:1047C0000073236403200AE006F0FE061E613A46E9
:1047D000434620461749FFF7EFFE18B1012005B008
:1047E000BDE8F083236803905A69394603929B69B8
:1047F000424603932046039BFFF7A0FF40B1236C82
:10480000042B01BF2268136843F400731360E5E7CB
:10481000B9F1010F236802D1EDB21D61DFE72A0A69
:104820001A61394642462046FFF788FF0028E6D144
:104830002368F1E7020001002DE9FF479A46DDE910
:104840000C78036815461A680E4642F480621A60B6
:104850001A684FF0011142F480721A603B46002240
:10486000CDF800800446FFF737FF236848B11B6886
:10487000DB0502D54FF400732364032004B0BDE8C8
:10488000F0875FFA86F906F0FE061E613A46434657
:1048900020462949FFF790FE08B10120EEE7236882
:1048A00003905A69394603929B6942460393204616
:1048B000039BFFF743FF40B1236C042B01BF226829
:1048C000136843F400731360E7E7BAF1010F23683C
:1048D0001AD1EDB24246394620461D61FFF72EFF40
:1048E00002460028E8D1216820460B6843F4807313
:1048F0000B603B464FF00111CDF80080FFF7ECFE56
:10490000226860B11368B3E72A0A1A613946424641
:104910002046FFF713FF0028CED12368D9E749F0DE
:1049200001031361204643463A460349FFF744FE1C
:10493000003818BF0120A1E70200010070B504464D
:1049400008B9012070BD90F83D3003F0FF021BB99B
:1049500080F83C20FEF714FA242384F83D302368C5
:104960001A6822F001021A601A6842F400421A60C2
:104970001A6822F400421A6000F016FD3F4A63688C
:10498000934294BF3E4A3F4A90428CBF002201228C
:10499000002AD6D13C4E2268B0FBF6F651680138A9
:1049A00021F03F01314351603449156A8B4281BF88
:1049B0004FF4967171434FF47A76B1FBF6F125F01E
:1049C0003F0594BF711C013129431162D1692B4D00
:1049D00021F44F41AB4221F0FF0132D85B00B0FB24
:1049E000F3F0431C40F6FC70034242D0C3F30B03C8
:1049F0000B43D3611168D4E9073021F0C0010343B0
:104A00000B4313609168D4E9030321F4034103438A
:104A100021F0FF010B439360D168D4E9053021F008
:104A2000FF0103430B43D3601368002043F00103ED
:104A300013602023206484F83D30206384F83E0016
:104A400080E7A56855B903EB4303B0FBF3F30133EB
:104A5000C3F30B037BB143F40043C9E719256B4350
:104A6000B0FBF3F30133C3F30B0323B143F440432F
:104A7000BEE70423BCE70123BAE700BFA08601001C
:104A80007F841E00FF083D0040420F0010B5044621
:104A900098B12423026880F83D30136823F00103A5
:104AA0001360FEF7A9F90020206484F83C0084F824
:104AB0003D00206384F83E0010BD0120FCE70000AB
:104AC0002DE9F743044699460F4690460C9EFEF7A3
:104AD000A9FF94F83D300546202B03D0022003B0F7
:104AE000BDE8F08300901923012220463A49FFF7E0
:104AF000F3FD0028F2D194F83C30012BEED00123D5
:104B0000206884F83C3003684246D90758BF0368E0
:104B100039465CBF43F001030360036823F400637C
:104B20000360212384F83D30402384F83E30002385
:104B300023640A9B20466362BDF82C30CDE90065F2
:104B40006385638D2385254BE3624B46FFF71CFE8F
:104B500000282AD00120C2E7FFF7F0FD40B1236C06
:104B6000042B01BF2268136843F400731360F1E75C
:104B7000636A27681A4612F8011B39616262628D06
:104B8000218D013A92B262857A69481E80B252073D
:104B900020850AD548B15A7802333A616362638D41
:104BA0000239013B9BB221856385238D2A4631461C
:104BB0002046002BD0D1FFF73AFD0028CFD1226844
:104BC000136843F400731360202384F83C0084F8D6
:104BD0003D3084F83E0082E7020010000000FFFF35
:104BE0002DE9F04399460023044689B003930D460E
:104BF0009046129FFEF716FF94F83D300646202B94
:104C000004D00225284609B0BDE8F083009019239E
:104C1000012220468D49FFF75FFD0028F1D194F86D
:104C20003C30012BEDD00123206884F83C30036830
:104C30002946DB0758BF036842465CBF43F00103C7
:104C40000360036823F400630360222384F83D308B
:104C5000402384F83E3000232364109B2046636287
:104C6000BDF84430CDE900766385638D2385784BAC
:104C7000E3624B46FFF7E0FD054608B10125C1E7B9
:104C8000228D2368C2B904905A6904929A690492E9
:104C9000049A1A6842F400721A60DFF8B881DFF8EB
:104CA000B891238D002B37D1202284F83C3084F832
:104CB0003D2084F83E30A5E7012A11D11A6822F47C
:104CC00080621A6072B6236805905A6905929A69E3
:104CD0000592059A1A6842F400721A6062B6DCE71F
:104CE000022A1A680ED142F400621A6072B6236872
:104CF00006905A6906929A690692069A1A6822F4F0
:104D00008062EAE742F480621A6007905A6907926B
:104D10009B690793079BC0E7032B78D8012B15D11C
:104D2000324639462046FFF7A8FC0028A6D1236862
:104D30001A69636A1A70636A01336362238D013BE7
:104D40002385638D013B9BB26385AAE7022B4FF05D
:104D500000023B4641462046009618D1FFF7BCFCB6
:104D600000288BD172B623681A6842F400721A6068
:104D70001A69636A1A70636A01336362238D013BA7
:104D80002385638D013B9BB2638562B6CFE7FFF756
:104D9000A3FC00287FF472AF2268136823F48063B9
:104DA000136072B623681A69636A1A7046F2A81211
:104DB000616A4B1C6362238D013B2385638D013B3C
:104DC0009BB26385D9F80030B3FBF2F2232353433F
:104DD0000393039B013B0393039B6BB92022236343
:104DE00084F83D2084F83E30226C42F02002226498
:104DF00062B684F83C3041E723685A695007E8D529
:104E00001A6842F400721A601B694B70B3E73246AD
:104E100039462046FFF731FC00287FF42FAF236886
:104E20001A69636A1A70626A531C6362238D013BBC
:104E30002385638D013B9BB26385236859694907CC
:104E40007FF52FAF1B69537075E700BF020010009C
:104E50000000FFFF040001000000002038B50446F8
:104E600008B34CF6CC4203681A6045F255521A60FA
:104E700042685A6082689A60FEF7D4FD054622684F
:104E8000D06810F0030003D14AF6AA23136038BD9E
:104E9000FEF7C8FD401B2728F1D92368DB689B0774
:104EA000EDD00320F3E70120F1E74AF6AA220368D8
:104EB00000201A60704700002DE9F341054638B321
:104EC0000368DB0710D42B689F075ED42B68190793
:104ED00000F195802B685A0700F1BF80E86900282F
:104EE00040F02C81002029E08F4C636803F00C0314
:104EF000042B07D0636803F00C03082B0AD1636806
:104F0000DE0307D523689C03DDD56B68002BDAD15F
:104F1000012013E06B68B3F5803F12D1236843F49E
:104F200080332360FEF77EFD064623689803CAD4CB
:104F3000FEF778FD801B6428F7D9032002B0BDE896
:104F4000F0819BB9236823F480332360236823F422
:104F500080232360FEF766FD064623689903B2D5D9
:104F6000FEF760FD801B6428F7D9E6E7B3F5A02FB4
:104F7000236803D143F480232360CFE723F48033F5
:104F80002360236823F48023CBE7674C636813F026
:104F90000C0F07D0636803F00C03082B10D1636873
:104FA000DA030DD423689B0702D52B69012BAFD1FF
:104FB00023686A6923F0F80343EAC203236085E7A4
:104FC0002A695A4B6AB101221A60FEF72BFD064688
:104FD00023689F07ECD4FEF725FD801B0228F7D934
:104FE000ABE71A60FEF71EFD0646236898077FF5BB
:104FF0006DAFFEF717FD801B0228F6D99DE7AA6961
:10500000494E4B4BDAB101221A60FEF70BFD044604
:10501000736A9B070DD54FF4FA52464B1B68B3FBDE
:10502000F2F3019300BF019B5A1E0192002BF9D1AC
:1050300050E7FEF7F7FC001B0228E9D97DE71A606C
:10504000FEF7F0FC0446736A9F077FF543AFFEF757
:10505000E9FC001B0228F6D96FE7334CE369D8005E
:1050600024D40127E36943F08053E361E36903F04B
:1050700080530093009B304E3368D90518D5EB68F8
:10508000012B26D1236A43F001032362FEF7CAFCF9
:1050900041F288380646236A9B073FD5002F3FF42C
:1050A0001DAFE36923F08053E36117E70027E2E7D0
:1050B000336843F480733360FEF7B4FC8046336892
:1050C000DA05DCD4FEF7AEFCA0EB08006428F6D9C4
:1050D00033E7ABB9236A41F2883823F00103236236
:1050E000236A23F004032362FEF79CFC0646236A2E
:1050F0009807D3D5FEF796FC801B4045F7D91CE7EF
:10510000052B236A03D143F004032362BAE723F09B
:1051100001032362236A23F00403B6E7FEF782FC4F
:10512000801B4045B7D908E700100240000042420A
:105130008004424200000020007000402A4B5A6860
:105140001C4602F00C02082A3DD00023274E0228FC
:1051500033602BD1FEF766FC0746236899011FD404
:105160002B6AB3F5803F05D16268A96822F400324A
:105170000A436260696A62680B4322F47412134343
:10518000636001233360FEF74DFC054623689A01F6
:105190003FF5A8AEFEF746FC401B0228F6D9CCE648
:1051A000FEF740FCC01B0228D7D9C6E6FEF73AFC42
:1051B000054623689B017FF595AEFEF733FC401B47
:1051C0000228F6D9B9E601283FF4B8AE5B682A6A2E
:1051D00003F4803191427FF49BAE6A6A03F470134A
:1051E00093423FF47FAE93E60010024060004242DB
:1051F0000122014B1A6070474C00424230B5184BF7
:1052000087B002AC03F110052246186859680833CC
:1052100003C2AB421446F7D140F201231149ADF865
:1052200004304B6803F00C02082A17D1C3F3834201
:1052300006A80244DB0312F8102C0CD54B680A4870
:10524000C3F34043504306AA134413F8143CB0FB85
:10525000F3F007B030BD05485043FAE70248F8E7DD
:10526000609900080010024000127A0000093D0019
:105270002DE9F0410D46044610B90120BDE8F0814A
:10528000444A136803F007038B4228D321688E0732
:1052900030D4CA0743D43F4A136803F00703AB4234
:1052A00065D822683C4D12F0040F6CD1130706D567
:1052B0006B68226923F4605343EAC2036B60FFF713
:1052C0009DFF6B68354AC3F30313D35CD840344B5E
:1052D0001860344B1868FEF763FB0020CEE71368B4
:1052E00023F007030B431360136803F007038B429B
:1052F000C3D1CBE7284B11F0040F1EBF5A6842F40C
:10530000E0625A60080742BF5A6842F460525A602D
:105310005A68A06822F0F00202435A60B9E7626856
:105320001D4E012A33681AD113F4003FA5D07368CB
:1053300041F2883823F0030313437360FEF772FBD6
:1053400007467368626803F00C03B3EB820FA2D0C8
:10535000FEF768FBC01B4045F3D903208EE7022A05
:1053600002D113F0007FE1E713F0020FDEE71368CC
:1053700023F007032B431360136803F00703AB42CA
:105380007FF47BAF8DE76B68E16823F4E0630B4348
:105390006B608BE700200240001002404899000833
:1053A0000000002008000020044B054A5B68C3F39E
:1053B0000223D35C034A1068D840704700100240B3
:1053C0005899000800000020044B054A5B68C3F3AD
:1053D000C223D35C034A1068D840704700100240D3
:1053E00058990008000000207047000008B5054BE0
:1053F0009B681B0604D5FFF7F7FF8022024B1A704B
:1054000008BD00BF001002400A10024003682DE9E9
:10541000F341D907054620D5354CE369DA0032D48B
:105420000127E36943F08053E361E36903F08053AC
:105430000193019B2F4E3368DB0526D5236A13F4B5
:10544000407336D1236A6A6823F44073134323629E
:105450001FB1E36923F08053E3612868830706D511
:105460002349AB684A6822F440421A434A6010F06C
:1054700010001BD01E4AE9685368002023F4800303
:105480000B43536012E00027D4E7336843F4807382
:105490003360FEF7C7FA80463368D805CED4FEF7EE
:1054A000C1FAA0EB08006428F6D9032002B0BDE8D9
:1054B000F0816A6802F440729A42C3D001200E4A19
:1054C000236A1060002023F4407110602162D90724
:1054D000B8D5FEF7A7FA41F288380646236A9A073C
:1054E000B0D4FEF79FFA801B4045F7D9DDE700BF37
:1054F000001002400070004040044242024670B575
:10550000344B86B002AD03F110062C46186859687A
:10551000083303C4B3422546F7D140F20123022ADF
:10552000ADF8043049D0102A03D0012A26D000203B
:1055300038E0294B5968186810F0807032D0C1F3F8
:10554000834206A8024412F8100CCA0341BF5A68ED
:1055500006A9C2F34042521844BF12F8141C1F4A55
:105560005B684CBFB2FBF1F21D4A5B0202FB00F02C
:1055700018D403234000B0FBF3F013E040F20231F3
:10558000154A136A1940B1F5817F1FD003F44073A7
:10559000B3F5007F08D149F64043506A10F002008D
:1055A00018BF184606B070BDB3F5407FBFD1106874
:1055B0004FF2244310F40030F2E7FFF705FF064BEB
:1055C0005B68C3F3813301335B00D4E74FF40040E1
:1055D000E8E700BF609900080010024000127A005E
:1055E00000093D0010B50446002851D0436A002B45
:1055F0004AD14268B2F5827F00D0C3610023A36222
:1056000094F8513003F0FF0223B9204684F850206B
:10561000FDF710FC0223226884F851301368A0685B
:1056200023F040031360636800F4044003F48273C2
:105630000343E068A16900F400600343206900F0BF
:1056400002000343606900F00100034301F40070AD
:105650000343E069090C00F038000343206A01F0BD
:10566000040100F080000343A06A00F400500343EB
:1056700013605160D369002023F40063D3610123D8
:10568000606584F8513010BD0023C0E90433B5E7EC
:105690000120F8E7036A70B523F001030362036A8F
:1056A000446882690D6822F073022A438D6823F0F2
:1056B00002032B430A4DA8420BD1CD6823F0080307
:1056C0002B4324F44074D1E90556354323F00403F9
:1056D0002C43446082614A684263036270BD00BF2C
:1056E000002C0140036A70B523F480730362036ADF
:1056F0004468C2690D6822F073022A438D6823F45E
:10570000007343EA05230B4DA8420DD1CD6823F465
:10571000006343EA052324F44054D1E90556354398
:1057200023F4806344EA05144460C2614A68C2639A
:10573000036270BD002C0140036A30B523F480532E
:105740000362036A4468C2690D6822F4E64242EAD1
:1057500005228D6823F4005343EA0533064DA84221
:1057600002BF4D6924F4804444EA85144460C26158
:105770004A680264036230BD002C014090F83D305D
:10578000012B20D1022380F83D300368DA6842F013
:105790000102DA600D4A93420AD0B3F1804F07D07C
:1057A000A2F59432934203D002F58062934204D171
:1057B0009A6802F00702062A03D01A6842F0010232
:1057C0001A60002070470120704700BF002C014084
:1057D0000368DA6822F00102DA6041F21112196AF4
:1057E000114208D140F24442196A114202BF1A68BC
:1057F00022F001021A60012380F83D30002070473A
:10580000704770477047704770477047704703682C
:1058100010B51A69044691070ED5DA6892070BD5C0
:105820006FF002021A61012202779B699B0777D011
:10583000FFF7EAFF0023237723681A69500710D582
:10584000DA6851070DD56FF004021A61022222773F
:105850009B69204613F4407F68D0FFF7D5FF0023F3
:10586000237723681A6912070FD5DA6810070CD559
:105870006FF008021A6104222277DB69204699073B
:105880005AD0FFF7C1FF0023237723681A69D20695
:1058900010D5DA68D0060DD56FF010021A61082213
:1058A0002277DB69204613F4407F4BD0FFF7ACFF33
:1058B0000023237723681A69D10708D5DA68D2074D
:1058C00005D56FF0010220461A61FFF79BFF2368A0
:1058D0001A69100608D5DA68110605D56FF080023E
:1058E00020461A6100F04BFB23681A69520608D55E
:1058F000DA68500605D56FF0400220461A61FFF7BE
:1059000085FF23681A69910622D5DA6892061FD5A9
:105910006FF020022046BDE810401A6100F02EBB57
:10592000FFF771FF2046FFF770FF83E7FFF76BFF7C
:105930002046FFF76AFF92E7FFF765FF2046FFF773
:1059400064FFA0E7FFF75FFF2046FFF75EFFAFE7CA
:1059500010BD00001A4A036890420AD0B0F1804F8F
:1059600007D0A2F59432904203D002F580629042B3
:1059700015D14A6823F070031343114A90420AD0AC
:10598000B0F1804F07D0A2F59432904203D002F5D7
:105990008062904203D1CA6823F4407313434A697A
:1059A00023F08003134303608B68C3620B68836238
:1059B000034B984204BF0B690363012343617047A3
:1059C000002C014010B5044630B390F83D3003F090
:1059D000FF021BB980F83C20FDF768FA022320681B
:1059E00084F83D30211DFFF7B5FF0123002084F826
:1059F000463084F83E3084F83F3084F8403084F8F4
:105A0000413084F8423084F8433084F8443084F8DC
:105A1000453084F83D3010BD0120FCE710B5044648
:105A200030B390F83D3003F0FF021BB980F83C2002
:105A3000FFF7E6FE0223206884F83D30211DFFF7C2
:105A400089FF0123002084F8463084F83E3084F832
:105A50003F3084F8403084F8413084F8423084F894
:105A6000433084F8443084F8453084F83D3010BD2C
:105A70000120FCE738B50D46044630B390F83D30C0
:105A800003F0FF021BB980F83C20FFF7BAFE0223A7
:105A9000206884F83D30211DFFF75CFF236800205B
:105AA0001A6822F008021A601A682A431A60012351
:105AB00084F8463084F83E3084F83F3084F8423031
:105AC00084F8433084F83D3038BD0120FCE7000005
:105AD000036A70B523F010030362036A44688269A5
